:020000040000fa
:0880000000480400000000002c
:020000040000fa
:10800800444d0000884d0000c44d0000624d000042
:10801800a64d0000a8500000a8500000a85000007d
:10802800a8500000a850000030500000164d000075
:108038000c490000a8500000585000001a4d0000dc
:10804800a8500000a8500000a85000004c4e0000a6
:10805800e24d0000744f0000a8500000a850000036
:10806800a850000028490000a8500000a8500000af
:10807800a8500000a8500000a8500000a850000018
:10808800a850000080500000a8500000a850000030
:10809800a8500000a85000001c4f0000b24e00007d
:1080a800a8500000a8500000a8500000a8500000e8
:1080b800a8500000a8500000a8500000a8500000d8
:1080c800a8500000a8500000a8500000e04f000091
:1080d80008500000a8500000a8500000a850000058
:1080e800a8500000424b0000a8500000a850000013
:1080f800a8500000a8500000a8500000a850000098
:10810800a8500000a8500000a8500000a850000087
:10811800a8500000a8500000a8500000a850000077
:10812800a8500000a84e00006a4f0000a8500000a8
:10813800a8500000a8500000a8500000a850000057
:10814800a8500000a8500000a8500000a850000047
:10815800a8500000a8500000a8500000a850000037
:10816800a8500000a8500000a8500000a850000027
:10817800a8500000a8500000a8500000a850000017
:10818800a8500000a8500000a8500000a850000007
:10819800a8500000a8500000a8500000a8500000f7
:1081a800a8500000a8500000a8500000a8500000e7
:1081b800a8500000904f0000b84f0000a8500000e1
:1081c800a8500000a8500000a8500000a8500000c7
:1081d800a8500000a8500000a8500000a8500000b7
:1081e800a8500000a8500000a8500000a8500000a7
:0881f800a8500000a85000008f
:020000040000fa
:10900000cf4223000e7f24000e01880000000000e4
:10901000000020000000e0000200320000012000fb
:1090200020028800140007004b0407000000e00045
:1090300003003a0000d42a0001002000020037009b
:109040000000200001002000810f700001003200ac
:1090500014000700000020000000e00002003200c1
:109060000000020000000000de9f0200000000007f
:109070000040da000000fe004440a900c0152000b6
:109080000000e00003003200002020009001880072
:109090004440a800000006008a1f78008b1f78005b
:1090a00000000600a1028800800478000000eb00a8
:1090b0001f003700e284440054a0b4009905ba00b0
:1090c000e284440054a0b4009906ba00e28444004b
:1090d00054a0b4000006eb00476fde00fd07b200ad
:1090e000ae018800636ce10003003a00eaff07006c
:1090f0000000eb000e003700606ce10008003a0051
:10910000004deb000a05e800020039003420ec00b5
:109110000af0a0008b05e900f9ff3e0004003700cb
:109120006168e100010032000086eb000b000700df
:1091300019c7ba001905ba000e04e00003003a008e
:109140000a00e000dbff3a0000000600fe07b20064
:10915000ae0288008a047800f5ff37000cd0a30027
:10916000e20f4d001c00390089027800354dba002d
:109170000a05e800020039003420ec000af0a000e3
:109180008b05e9000f003200254dba000a05e80002
:10919000020039003420ec000af0a0008b05e90041
:1091a000080032000c00e0000600320015cdba00c5
:1091b0000a05e800020039003420ec000af0a000a3
:1091c0008b05e9008984e80054a0b4000b00e0009e
:1091d000e2ff3a00000006009902ba00055d78003f
:1091e0008b05e900f7ff3200c82ade00055d780034
:1091f0008b05e900f3ff32000c00e000f1ff3200c4
:1092000019ddba00eeff3700aeb504000000000023
:109210001c8c0400000000003600f800809fbe0097
:10922000829fbe00849fbe00869fbe008484020091
:10923000000000008880a9004f03be004f02be005e
:109240004f01be004f00be003600f900004006008e
:10925000809fbe00829fbe008a20a9009ee4ab00d2
:109260001e003a00404080008000eb00eb0f5000f1
:10927000e08f58000c0036000668ec009a44a80005
:1092800050408000200090000000e000020032000a
:1092900061002000010878000828ef004f01be009f
:1092a0004f00be00004006000060010032003700a1
:1092b0002a00370062003700120037001e00370016
:1092c0008a003700990037001b0037007300370011
:1092d000e9ff37004c0037003f0037009ee4a9004b
:1092e0000828ef0050408000200090000008eb00ac
:1092f0000a28ef004f01be004f00be0000400600ec
:10930000e9ff37009e04e2008f00350011c8bf005e
:109310008040e90013812000814978000004e000ca
:10932000d0003a00600020000e28b4000c48ed0088
:109330000ce8b70009003a009a44a80050408000a9
:10934000200090000000e000d3ff32002100200048
:10935000010878000828ef00d0ff37009a24a80001
:1093600020002000404088004f01be004f00be009a
:1093700000400600ccff37000428ab00c7ff3a00ce
:10938000104080005040880010417800c1802000cb
:109390008248780090019000734088006600400089
:1093a00010408800813e2300810f5000930032005e
:1093b0000408a9000008e3008b0032009a04a8000a
:1093c00020002000404088004f01be004f00be003a
:1093d00000400600b4ff37009e04e20071003d002b
:1093e0000668ec009a44a8005040800020009000dd
:1093f0000000e000a8ff32004100200001087800d2
:109400000828ef00a5ff37009e04e200f4ff3500b6
:10941000914080000100d100f00fb200b02488001c
:109420000108a3007b003200b0002000404088000b
:109430004f01be004f00be00004006009aff3700fb
:1094400010c8bf00e14f500064003200714080003e
:10945000110078009040880021019000a24088000f
:10946000214190001381200082497800f10f2000f3
:10947000810f50006d003e00b02488000008a3005a
:109480006400320050002000404088004f01be00c0
:109490004f00be000040060083ff3700a12480007b
:1094a000a040800001587800a04088001148ed00dd
:1094b00011e8b7002f003a009aa4a800600020002d
:1094c0000e28b4000c48ed000ce8b70061003a002b
:1094d00040002000404088009a84a8004f01be0050
:1094e0004f00be00004006006fff37009e04e20000
:1094f00025003d000668ec009a44a800504080001a
:10950000200090000000e000020032004100200036
:10951000010878000828ef009fe4a9004f01be0071
:109520004f00be00004006005fff370080002000b3
:10953000404088009a64a8004f01be004f00be0062
:109540000040060058ff37000668ec009fe4a900c1
:109550009a44a80050408000200090000000e000e5
:109560004dff320051002000010878000828ef006c
:109570004aff37009aa4a9006000200040408800fc
:109580009a84a800d5ff37009a64a80080002000c4
:10959000404088004f01be004f00be000040060062
:1095a00041ff37009a24a800904080004800de0068
:1095b00066006000100fb3009040880010c0b30038
:1095c00010e8b70020002000404088004f01be0096
:1095d0004f00be000040060033ff37001068ef0068
:1095e00090408000a1ff37000428a8009a04a8003a
:1095f000200020004040880073ff37006680500044
:10960000104088000408a9000008e3006bff3a003e
:10961000f5ff370030002000404088004f01be00b9
:109620004f00be00004006001fff37004800de006c
:1096300066006000000fb300b0248800a000200086
:10964000404088004f01be004f00be0000400600b1
:1096500015ff370010002000404088009a84a800c1
:109660009eff3700a0408000b080fb00b12488003e
:10967000a04088004f01be004f00be000040060021
:1096800009ff3700809fbe00829fbe0030c6b30036
:109690002ae8b7008e20a900804180009141800017
:1096a00061004000e08048008041880091418800ce
:1096b000ae84ab00060032002bc8bf00e74f50005d
:1096c000330036004f01be004f00be0000400600d0
:1096d000c1418000e28f500032003200460031006c
:1096e000aea4ab0054003200aae4ab00020032008a
:1096f000af24ab0050003a002d48e2004e003a0083
:1097000040c6b3002ae8b700e18f5000edff3a00f1
:10971000c0c0b3002ae8b700aea4ab00e9ff320036
:10972000d0c0b3002ae8b700aec4ab0098003a003e
:10973000e0c0b3002ae8b7002e48e2008f003a00ec
:109740002d48e2008d003a002bc8bf00e74f5000c3
:1097500085003e00aaa4a900232580002bc8bf00d5
:109760000080fb00423f2300037178002b68ec006f
:109770002bc8bf00e84f5000750032001e68ef0094
:109780004f01be004f00be0000400600d0ff370072
:109790002b68ef004f01be004f00be0000400600e6
:1097a000cbff3700ae04e20081003500aaa4a90077
:1097b0002cc8bf000080fb00c13f2300614078003f
:1097c0000080fb00302588002cc8bf00e64f500009
:1097d00001003e002c68ec001f68ef00ab84a8007d
:1097e00000c1b3002ae8b7004f01be004f00be0021
:1097f00000400600b6ff3700e38f50000100320042
:10980000ffff370020c1b3002ae8b70010c0b30043
:109810003ae8b70030c1b3002ae8b700202580003d
:1098200010002000c04188004f01be004f00be0064
:1098300000400600a6ff3700ae44ab0013003a001c
:1098400010c0b3002ae8b700afa4ab00620032003a
:109850002de8b700b0c0b3002ae8b700202580008b
:10986000aaa4a9001e48e2006c0032001f48e200d2
:109870006a003a00a0c0b30021e8b700c0c0b3003e
:109880002ae8b7002c68ef009fff370050c3b300f1
:109890002ae8b700afa4ab000f00320010c0b3003d
:1098a0002de8b70050c0b3002ae8b700202580009b
:1098b000aaa4a9002c68ef001e48e20002003200b2
:1098c0001f48e2001a003200ab84a80040c3b30076
:1098d0002ae8b7008cff370060c0b3002ae8b70061
:1098e00020258000aaa4a9002cc8bf000080fb008e
:1098f000c13f2300614078000080fb0030258800d4
:109900002cc8bf00e64f500001003e002c68ec0060
:109910001f68ef00ab84a80020002000c041880031
:109920004f01be004f00be000040060068ff370038
:10993000a0c0b30020e8b70030c3b3002ae8b700e6
:109940004f01be004f00be000040060060ff370020
:10995000e2812000014978004f01be004f00be00a7
:10996000004006005aff3700202580004f01be004e
:109970004f00be000040060055ff37002e68ef0084
:109980004f01be004f00be000040060050ff3700f0
:1099900020258000aec4a900f0c0b3002ae8b700bb
:1099a0004f01be004f00be000040060048ff3700d8
:1099b0003828ef002cc8bf00e74f500011003e00d0
:1099c00010c1b3002ae8b7004f01be004f00be002f
:1099d000004006003eff37002d68ef002025800084
:1099e00011002000c141880030c0b3002ae8b70050
:1099f000aea4ab0044ff3200e282200001497800af
:109a000041ff370010cbb3002ae8b7004f01be007a
:109a10004f00be00004006002dff3700ab84a800b9
:109a2000d0c0b3002ae8b70096ff37008860a900cd
:109a3000004006003600f800809fbe00829fbe00f6
:109a4000849fbe00869fbe00d04280000000e000e0
:109a50000100320000000100904223001048e8009d
:109a600011c0b3000000e9000148780088e0a900b7
:109a70004f03be004f02be004f01be004f00be00ac
:109a80003600f900004006003600f800809fbe0056
:109a9000829fbe00849fbe00869fbe008020a900da
:109aa0000000eb00acb70200000000004f03be0056
:109ab0004f02be004f01be004f00be003600f9004d
:109ac000004006003600f800809fbe00829fbe0066
:109ad000849fbe00869fbe00a03a230080077800c6
:109ae00078004000000188008040a900100020009c
:109af000acb70200000000004f03be004f02be00e2
:109b00004f01be004f00be003600f90000400600c5
:109b10003600f800809fbe00829fbe00849fbe007a
:109b2000869fbe008060a90020002000acb7020024
:109b3000000000004f03be004f02be004f01be00f8
:109b40004f00be003600f900004006003600f80065
:109b5000809fbe00829fbe00849fbe00869fbe0085
:109b60008080a90030002000acb702000000000097
:109b70004f03be004f02be004f01be004f00be00ab
:109b80003600f900004006003600f800809fbe0055
:109b9000829fbe00849fbe00869fbe008600a900f3
:109ba00070002000acb70200000000004f03be00b0
:109bb0004f02be004f01be004f00be003600f9004c
:109bc00000400600809fbe00829fbe00618d810024
:109bd000508d8100808f5000220032008980a900c2
:109be0000227230003fc2f00828141009b23ab004e
:109bf00010003a00608d81001080fb00e01c88009e
:109c0000608d81000000e800608d8900608d81001a
:109c1000820f50000a003200708d81000080a10088
:109c2000708d8900618d8100508d8100808f500082
:109c3000eeff3a004f01be004f00be00004006009c
:109c4000638d8900708d81000080a100708d890076
:109c5000618d8100508d8100808f5000e3ff3a00bc
:109c6000f4ff3700708d81000088a300dbff3a000d
:109c70009b03ab00feff3200708d81000090a000be
:109c8000708d89009980a9004f01be004f00be0071
:109c900000400600eaff3700809fbe00829fbe00a2
:109ca0008960a9000223230003f82f00828141006c
:109cb0009a03ab001a003200f01c80006ae8b7007b
:109cc000318d8100804878006043800071438000be
:109cd00061004000e08048006043880071438800d4
:109ce000308d81000000e800308d8900308d8100ca
:109cf000820f50000d003200708d81000010a10015
:109d0000708d8900318d8100408d8100808f5000e1
:109d1000e7ff3a00708d81000000a000708d89007f
:109d20004f01be004f00be0000400600338d890089
:109d3000708d81000010a100708d8900318d81002f
:109d4000408d8100808f5000d9ff3a00f1ff37002d
:109d50009a23ab00010032009a23a9009020a900a9
:109d600000400600809fbe00829fbe00b19381002c
:109d7000a0938100808f5000220032008be0a90068
:109d8000a233230003fc2f0082814100b123ab00ea
:109d900010003a00b09381001080fb00901d8800f5
:109da000b09381000000e800b0938900b093810077
:109db000820f50000a003200c09381000080a10091
:109dc000c0938900b1938100a0938100808f5000df
:109dd000eeff3a004f01be004f00be0000400600fb
:109de000b3938900c09381000080a100c0938900d3
:109df000b1938100a0938100808f5000e3ff3a006f
:109e0000f4ff3700c09381000088a300dbff3a0015
:109e1000b103ab00feff3200c09381000090a000b0
:109e2000c09389009be0a9004f01be004f00be0017
:109e300000400600eaff3700809fbe00829fbe0000
:109e40008bc0a900a22f230003f82f0082814100bc
:109e5000b003ab001300320080938100a11d80008d
:109e600001487800809381000000e8008093890019
:109e700080938100820f50000d003200c09381005a
:109e80000010a100c093890081938100909381000c
:109e9000808f5000eeff3a00c09381000000a000c8
:109ea000c09389004f01be004f00be000040060075
:109eb00083938900c09381000010a100c0938900a2
:109ec0008193810090938100808f5000e0ff3a00e1
:109ed000f1ff3700b023ab0001003200b023a9002e
:109ee0009040a900004006003200f8003400f8005d
:109ef000881f780018002000a80188000820200092
:109f0000980188004f04780089a0ab00010032005e
:109f100089a0a9003400f9003200f90000400600d1
:109f20003600f800809fbe00829fbe00849fbe0066
:109f3000869fbe00e09c81000000e000010032002e
:109f40000000010094a0a900a4a0a9004c28ec00e6
:109f5000e039230000c8eb004f03be004f02be00f3
:109f60004f01be004f00be003600f9000040060061
:109f70003600f800809fbe00829fbe00849fbe0016
:109f8000869fbe00d09981000000e00001003200f1
:109f90000000010094c0a900a4c0a9004e28ec0054
:109fa000c033230000c8eb004f03be004f02be00c9
:109fb0004f01be004f00be003600f9000040060011
:109fc0003600f800809fbe00829fbe00849fbe00c6
:109fd000869fbe00409a81000000e0000100320030
:109fe000000001008d60a9009d60a9005028ec00d0
:109ff000a034230000c8eb004f03be004f02be0098
:10a000004f01be004f00be003600f90000400600c0
:10a010003600f800809fbe00829fbe00849fbe0075
:10a02000869fbe00b09a81000000e000010032006f
:10a03000000001008d80a9009d80a9005228ec003d
:10a040008035230000c8eb004f03be004f02be0066
:10a050004f01be004f00be003600f9000040060070
:10a060003600f800809fbe00829fbe00849fbe0025
:10a07000869fbe00209b81000000e00001003200ae
:10a08000000001008840a9009840a9005428ec0075
:10a090006036230000c8eb004f03be004f02be0035
:10a0a0004f01be004f00be003600f9000040060020
:10a0b0003600f800809fbe00829fbe00849fbe00d5
:10a0c000869fbe00909b81000000e00001003200ee
:10a0d0000000010088c0a90098c0a9005628ec0023
:10a0e0004037230000c8eb004f03be004f02be0004
:10a0f0004f01be004f00be003600f90000400600d0
:10a100003600f800809fbe00829fbe00849fbe0084
:10a11000869fbe00009c81000000e000010032002c
:10a12000000001008b20a9009b20a9005828ec000a
:10a130002038230000c8eb004f03be004f02be00d2
:10a140004f01be004f00be003600f900004006007f
:10a150000040da000000fe0000000500839f680058
:10a160000100e00002003d0060001000e0801800e7
:10a170000300e00002003d0060011100e0811900d1
:10a180006b0007004f00e00002003b006000100081
:10a19000e0801800000006000001be001b00070060
:10a1a0000470a70003f0a10003f8a30013003a0015
:10a1b0006509b10010003200090035006928e1008e
:10a1c00002003500010028000000050000004000ea
:10a1d000818048008502e900fcff3a00000006008b
:10a1e000f88f4200050035008100d1000080d300c7
:10a1f0008502e800fcff3a00000006008000eb004a
:10a20000000005006011b80059003700c70ade00e1
:10a21000f107b200f50fb20008003200e1cf4200b2
:10a22000020032000170a00024000500810f7000c0
:10a23000010032000408050044000500810f700091
:10a2400002003a00140005008502e9000000400009
:10a2500081c04800fcff3b000170a0002400050005
:10a26000889fbe008a9fbe008c1f78009500070063
:10a270009c00330003866c006450e100240032002f
:10a280006420e100270032006150e100220032002a
:10a290006120e100210032008b854200eb07b10014
:10a2a0000134b800003ab8000804420089844a002a
:10a2b000013ab8000030b8008880400009014a0027
:10a2c0000400330000004000818048000201490082
:10a2d0008b05e900c909dd0083017000010032002f
:10a2e00013002000c814de004814dd004709de001a
:10a2f0001200b200c808de00088470004b0007009e
:10a3000001f0a1000cf0a70001f0a0007e003700d2
:10a310006120e100800032000801be000200be00a2
:10a32000f7ff37006150e100fcff3a007a00370088
:10a330006022b800060220000000d0008180d20018
:10a340000482d2008582d2000000a00002025200e6
:10a3500083825a00030031000202420083824a00d5
:10a360000000a1000603e900f3ff3a000000060028
:10a37000889fbe008a9fbe000082700004027100a8
:10a3800004827100260032000004be000200be00fc
:10a390006011b8006b092000950220000182cf00f7
:10a3a0000a0039000541b1000082cf0007003900e2
:10a3b0000541b1000982cf00040039000541b10018
:10a3c0000882cf00010039000541b100054252006a
:10a3d000120032000a003b008281710061016400ba
:10a3e0008100d1000080d3008984d3000884d30089
:10a3f0008b05e8000442e800f7ff3a000700370049
:10a400000804440089844c00000048008180480012
:10a410008b05e9000442e900f9ff3a000300070058
:10a420004f05be004f04be00000006008100200062
:10a43000618055000b003d000b00200061fe2f00e5
:10a440000100e1001d00340082817100610164009f
:10a450008904d1000884d3000000e800faff3a0024
:10a4600071002000610064000300700002006000c1
:10a470000900320061044400e0844c000988a50012
:10a48000050032008b05e8006808e10002003a0090
:10a490008904d1000884d300f20f20000258e100a3
:10a4a00005003d00c75ddd00f907b2008980750039
:10a4b00008007800000006000bf827008b007800e9
:10a4c000000005000004be0050ff07000003be00ae
:10a4d0000405be000200be004cff0700844f75005b
:10a4e000000006000200be006450e10005003600d6
:10a4f0006420e100020036000968a30001003a0070
:10a500000800be000160a0004f0678004f05be00a5
:10a510004f04be0000000600f0ff2f00f1ff2700ef
:10a52000f9ff37008001780002003700b159780048
:10a530000201e9000200e000fcff3a000000060012
:020000040000fa
:10a540000000000001000000020000000400000004
:10a5500008000000000000000000000010000000e3
:10a56000000000002000000040000000800000000b
:10a5700000010000000200000004000000080000cc
:10a5800000100000002000000040000000800000db
:10a5900001000000000000000000000000000000ba
:10a5a000000000000400000008000000000000009f
:10a5b000100000000000000000000000000000008b
:10a5c000000000000000000000000000000000008b
:10a5d000000000000000000000000000000000007b
:10a5e0000001000001010000010000000001000066
:10a5f0000001000001010000010100000101000054
:10a600000101000001010000010000000100000044
:10a610000200000004000000080000000400000028
:10a6200008000000100000001000000020000000e2
:10a630004000000080000000000100000002000057
:10a6400000040000000800000010000000200000ce
:10a6500000400000008000001a000000010200001d
:10a6600003ff0000ff040000ff05000006070000d4
:10a67000080900000a0b00000c0d00000e0f00007e
:10a68000000200000304000005ff0000ffff0000bf
:10a69000ffff0000ffff0000ffff0000ffff0000c2
:10a6a0000807000006090000010100000101000088
:10a6b0000101000000000000000000000000000098
:10a6c0000000000000000000000100000101000087
:10a6d000010000003f0600005b4f0000666d0000b7
:10a6e0007d0700007f670000777c0000395e000076
:10a6f0007971000000000000000000000000000070
:10a700000000000000000000000000000000000049
:10a710000000000000020000221000006d64000034
:10a7200010020000390f000001100000044000007a
:10a73000104a00003f0600005b4f0000666d0000fd
:10a740007d0700007f67000010100000184800001f
:10a750000c100000107700007c3900005e790000ca
:10a76000717d0000763000001e7600003854000035
:10a77000545c000073670000506d0000781c0000fe
:10a780001c1c0000766e00005b390000640f0000a6
:10a7900023080000207700007c3900005e7900006b
:10a7a000717d0000763000001e76000038540000f5
:10a7b000545c000073670000506d0000781c0000be
:10a7c0001c1c0000766e00005b390000300f00009a
:10a7d000010000002a0a00000482000040a00000de
:10a7e000cf8a0000436800001a0d00000603000035
:08a7f000010000000000000060
:020000040000fa
:10a7f8000200fa00d0c0b300e0ff9f00a0c0b30081
:10a80800f0ff9f001d48e20015003a00810020007b
:10a81800c040230018990200000000001d48e20013
:10a8280003003a001c68ef000080fa0000000600f0
:10a83800210020000f80e9001899020000000000a4
:10a84800210020000f80e900189902000000000094
:10a858001c68ef000080fa0000000600f4ff3700d3
:10a86800210020000f80e900189902000000000074
:10a8780081002000c0402300189902000000000059
:10a888001d48e200e7ff3200e9ff370052c4b30079
:10a89800c1402300824878008100e800d8b1020056
:10a8a8000000000050c5b300214123008048780013
:10a8b8008100e8008048780031418000d0fd2f00f9
:10a8c800e18f4000010032000100e80030418800bb
:10a8d8000000060050402300104078004ae8b70006
:10a8e8008080fb00c608dd00628a22000101410069
:10a8f80072448800f34f500033003e00634150001b
:10a90800e14f51002b0036007648e2002300320068
:10a91800624023001281fb008001eb00f90f510017
:10a92800e08f59000200360030002000d7ff3700c2
:10a938000260010026003700fbff37004b0037009c
:10a948004c003700f8ff370040003700f6ff3700ab
:10a9580040003700f4ff3700f3ff37003f003700af
:10a968004000370021003700efff3700eeff3700c7
:10a97800edff37001f003700ebff37001f003700df
:10a9880020003700e8ff3700200037002700370095
:10a99800280037002b00370026003700e74f50000b
:10a9a80002003200e94f5000d9ff3a007001200040
:10a9b800b6ff37007648e200fcff3a00e94f500046
:10a9c800d3ff3a00f9ff370060012000afff3700de
:10a9d800428e2200810041008048eb007140230034
:10a9e80091407800fe81040000000000d27004004d
:10a9f800000000008aa804000000000046a6040029
:10aa08000000000098a00400000000000040eb00d7
:10aa18002483020000000000a184200091407800f7
:10aa2800808820000148780000000600208c04007f
:10aa38000000000000930200000000003000200029
:10aa480092ff37006aa4040000000000227b040083
:10aa58000000000064ae0400000000008eb0040096
:10aa6800000000003a760400000000008ca20400f8
:10aa78000000000024ac040000000000ee8747003e
:10aa8800889fbe008a9fbe008c9fbe008e1f7800e4
:10aa98002828ec00494023001982fb008002eb00c3
:10aaa800cc402300044e78008905e8001b4078005c
:10aab8008c00e800804878000985e8009a41780011
:10aac8008c86e800834e780063844400184378003d
:10aad80063074600064f78000801e8001241780035
:10aae80082f79f00e4034600824b78008880e800e4
:10aaf80091407800e1ef9f000701e80001497800e4
:10ab0800e30344009743780087ef9f008200e80042
:10ab1800874878006401440092437800e7e79f0083
:10ab28008100e800874878001402b1000580b10070
:10ab3800d70d2000870f5200e08f5a00080036001a
:10ab48005000200051ff07004f0778004f06be0055
:10ab58004f05be004f04be00ef00b1000000060024
:10ab680004600100f8ff3700f5ff3700f4ff3700f5
:10ab7800f3ff3700f2ff3700f1ff3700f0ff37002f
:10ab8800efff3700eeff3700edff3700ecff37002f
:10ab9800ebff3700eaff3700e9ff3700e8ff37002f
:10aba800e7ff3700e6ff3700e5ff3700e4ff37002f
:10abb800e3ff3700e2ff3700e1ff3700e0ff37002f
:10abc800dfff3700deff3700ddff3700dcff37002f
:10abd800dbff3700daff3700d9ff3700d8ff37002f
:10abe800d7ff3700d6ff3700d5ff3700d4ff37002f
:10abf800d3ff3700d2ff3700d1ff3700d0ff37002f
:10ac0800cfff3700ceff3700cdff3700ccff37002e
:10ac1800cbff3700caff3700c9ff3700c8ff37002e
:10ac2800c7ff3700c6ff3700fa003700c4ff3700f8
:10ac3800c3ff3700c2ff37001f023700c0ff3700cd
:10ac4800bfff3700beff3700bdff3700bcff37002e
:10ac5800bbff3700baff3700f6013700b8ff3700ef
:10ac6800b7ff3700b6ff3700b5ff3700b4ff37002e
:10ac7800a4023700b2ff3700b1ff37008302370064
:10ac8800afff3700aeff3700adff3700acff37002e
:10ac9800abff3700aaff3700a9ff3700a8ff37002e
:10aca800ea023700a6ff3700a5ff3700a4ff3700e8
:10acb800a3ff3700a2ff3700a1ff3700a0ff37002e
:10acc8009fff37009eff37009dff37009cff37002e
:10acd8009bff37009aff370099ff370098ff37002e
:10ace80097ff3700cd023700520237003b0237008a
:10acf800220237000c02370091ff370090ff37001f
:10ad08008fff37008eff37008dff37008cff37002d
:10ad18008bff37008aff370089ff370088ff37002d
:10ad280003013700f00037005e013700a400370048
:10ad380083ff370082ff370081ff370080ff37002d
:10ad48007fff37007eff37007dff37007cff37002d
:10ad58007bff37007aff370079ff370078ff37002d
:10ad68009c013700ba00370075ff37006e013700c5
:10ad780073ff37005d0137005800370070ff370058
:10ad88006fff37006eff37006dff37006cff37002d
:10ad98006bff37006aff370069ff370068ff37002d
:10ada80067003700f10037006a01370010013700eb
:10adb8003001370062ff370061ff370060ff37005e
:10adc8005fff37005eff37005dff37005cff37002d
:10add8005bff37005aff370059ff370058ff37002d
:10ade80057ff370056ff370055ff370054ff37002d
:10adf80053ff370052ff370051ff370050ff37002d
:10ae0800b1003700b0003700af003700ae003700a0
:10ae1800ad003700ac003700ab003700aa003700a0
:10ae2800a9003700a8003700a7003700a6003700a0
:10ae3800a5003700a4003700a3003700a2003700a0
:10ae4800a1003700a00037009f0037009e003700a0
:10ae58009d0037009c0037009b0037009a003700a0
:10ae680037ff370036ff370035ff370034ff37002c
:10ae780033ff370032ff370031ff370030ff37002c
:10ae88002fff37002eff37002dff37002cff37002c
:10ae98002bff37002aff370029ff370028ff37002c
:10aea80027ff370026ff370025ff370024ff37002c
:10aeb80023ff370022ff370021ff370020ff37002c
:10aec8001fff37001eff37001dff37001cff37002c
:10aed8001bff37001aff3700480137004832dd00f2
:10aee8008381fb0003024200235b2a00830f520088
:10aef800df023a00efeb9700c839dd000ff2970048
:10af08008480fb008181410011362700818f510028
:10af1800d7023a00efe39700c839dd000fea97003f
:10af28008480fb0081814100812f2a00818f51009c
:10af3800cf023a00e14f5000c40332001a68ef0014
:10af4800e2b79f00d2980200000000001a40780083
:10af5800d29802000000000018407800d298020041
:10af6800000000008740230017407800d2980200b4
:10af7800000000009140230011407800d2980200a0
:10af880000000000a340230013407800d29802007c
:10af9800000000006fb1970012407800d2980200bc
:10afa800000000004f0778004f06be004f05be00a6
:10afb8004f04be00ef00b10000000600e8fe3700b5
:10afc8008044eb000604e0000a0332008340780066
:10afd800014178004811dd000080fb0000004100bd
:10afe800e4af0200000000008944e80098cf140094
:10aff800000336000000e000fe023a000980fb0072
:10b008000080e800ec4078001b4078001a41780086
:10b01800f0ff370052c6b300824f500003003a00d9
:10b028007241510082cf5100c50232004000200019
:10b0380016fe07004f0778004f06be004f05be00fa
:10b048004f04be00ef00b10000000600c4fe370048
:10b058000381fb008001eb00481add00c812de0006
:10b06800850272004812dd008683fb00060020007e
:10b078000402430085824b000081fb008001eb0045
:10b0880004024100858249008ff39700c839dd002a
:10b098000200200004004100858049000008a30048
:10b0a800dd023200a0002000f8fd07004f077800fd
:10b0b8004f06be004f05be004f04be00ef00b100b2
:10b0c80000000600a6fe370002fe07004f077800c2
:10b0d8004f06be004f05be004f04be00ef00b10092
:10b0e800000006009efe3700c819dd000080fb0046
:10b0f80000804100d04388000604e00092fe320040
:10b108000045eb008ff09700e4af0200000000005c
:10b118000a45e800984f15008bfe36000a80fb00b0
:10b1280064004000e9407800d0438000f6ff370013
:10b138008381fb00c830dd0083804000c819dd0032
:10b148000080fb00008041007aaf02000000000090
:10b158004f0778004f06be004f05be004f04be00e3
:10b16800ef00b100000006007dfe37006298020083
:10b1780000000000d4402300004a780062980200d2
:10b1880000000000804e7800629802000000000075
:10b19800004f780062980200000000000741230079
:10b1a800804b7800629802000000000011412300e3
:10b1b80080487800629802000000000022412300c5
:10b1c8000049780062980200000000003341230023
:10b1d800804978004f0778004f06be004f05be0033
:10b1e8004f04be00ef00b100000006005cfe37000f
:10b1f8008e9a020000000000d24023000049780027
:10b208008e9a020000000000804e78008e9a02009c
:10b2180000000000004f78008e9a02000000000035
:10b2280003412300804978008e9a02000000000044
:10b2380014412300004a78008e9a020000000000a2
:10b2480027412300804b78008e9a020000000000fe
:10b2580031412300804878004f0778004f06be0030
:10b268004f05be004f04be00ef00b100000006000d
:10b278003bfe370022c5b300824f5000190232004e
:10b2880070c0b3002368b4004f0778004f06be00b3
:10b298004f05be004f04be00ef00b10000000600dd
:10b2a8002ffe3700c819dd000080fb000080410038
:10b2b800d04388000604e00023fe32000045eb007e
:10b2c8008ff09700e4af0200000000000a45e80094
:10b2d800984f15001cfe36000a80fb0064004000f1
:10b2e800e9407800d0438000f6ff3700c818dd0039
:10b2f8000080fb0080804000d0bc2a00808f500076
:10b30800810232008001200060fd07004f077800ad
:10b318004f06be004f05be004f04be00ef00b1004f
:10b32800000006000efe3700c819dd000080fb0093
:10b338006fe99700827178004f0778004f06be00ca
:10b348004f05be004f04be00ef00b100000006002c
:10b3580003fe3700e2b79f00fe9a020000000000db
:10b368001a407800fe9a0200000000001840780099
:10b37800fe9a020000000000844023001440780078
:10b38800fe9a020000000000974023001740780052
:10b39800fe9a020000000000a1402300114078003e
:10b3a800fe9a0200000000006fb19700124078007a
:10b3b800fe9a0200000000004f0778004f06be000a
:10b3c8004f05be004f04be00ef00b10000000600ac
:10b3d800e3fd3700c819dd000080fb00634f7800eb
:10b3e8004f0778004f06be004f05be004f04be0051
:10b3f800ef00b10000000600d9fd3700800880008a
:10b40800d240230000497800800880004800de0010
:10b41800804e78001021ef004f0778004f06be00dd
:10b428004f05be004f04be00ef00b100000006004b
:10b43800cbfd3700c2c4b300824f5000c2fd3a00b2
:10b4480090c4b30080cf5100bffd3a006540400072
:10b45800804f5300bcfd3a00694050008ff09700c0
:10b4680080cf5000b8fd3a00634050006fe9970064
:10b47800804f5100b4fd3a00694040008fe99700c1
:10b4880080cf5100b0fd3a007a4050006fe297003b
:10b49800804f5200c40232001d68ef004f07780049
:10b4a8004f06be004f05be004f04be00ef00b100be
:10b4b80000000600aafd370030c5b300d2402300c3
:10b4c8000049780010c3b300804e78006740400000
:10b4d800004f78007648e200ec0132006a404000f4
:10b4e800e30141008049780020c3b30017412300dd
:10b4f800804b780000c0e9008700e80080487800a9
:10b50800644040000781e800004978004f07780050
:10b518004f06be004f05be004f04be00ef00b1004d
:10b52800000006008efd3700c0438000f1ff2100b7
:10b53800810f500084fd3e0080805000e68f50004f
:10b5480030023600618a2000008140005340230009
:10b55800060009003359780067004000c04388009e
:10b568004f0778004f06be004f05be004f04be00cf
:10b57800ef00b1000000060079fd3700c819dd00b2
:10b588000080fb0000804100c04388000681fb006a
:10b59800e40f510024023e0002044000f1ff2100a4
:10b5a800810f5400cf013e00618a20000100400055
:10b5b800814023009252020000000000c843880026
:10b5c8004f0778004f06be004f05be004f04be006f
:10b5d800ef00b1000000060061fd3700c819dd006a
:10b5e8000080fb0000804100f1ff2100810f500026
:10b5f80055fd3e0000815000e70f51000100360064
:10b6080072002000618a200081004000d0402300a1
:10b6180092520200000000004f0778004f06be005b
:10b628004f05be004f04be00ef00b1000000060049
:10b638004bfd3700c830dd008381fb00838040006c
:10b64800c4aa020000000000a34023009380fb006e
:10b65800c808dd000302e9001480fb008080400078
:10b668008383e90017407800c4aa020000000000a4
:10b678004f0778004f06be004f05be004f04be00be
:10b68800ef00b1000000060035fd37009eb1020052
:10b69800000000006a00b900804478001a40780071
:10b6a8009eb102000000000000c044006a00b9001a
:10b6b80080447800184078009eb102000000000025
:10b6c800d4402300184a780001c2b300814e7800a4
:10b6d80000c04400d2aa020000000000f14023008c
:10b6e800d8b10200000000004f0778004f06be00e6
:10b6f8004f05be004f04be00ef00b1000000060079
:10b7080017fd3700e2b79f009eb10200000000005d
:10b71800804578001a4078009eb1020000000000c1
:10b7280000457800184078009eb102000000000033
:10b738000084fb008004eb006a44b80087402300c3
:10b74800174078009eb10200000000000080fb0056
:10b758008000eb0008044000898448006a48b9006a
:10b768006a44b800890440009140230011407800e1
:10b778009eb10200000000000080fb008000eb008a
:10b7880008044000898448006a48b9006a44b8003f
:10b7980089044000a3402300134078009eb10200b2
:10b7a800000000000080fb008000eb00080440005f
:10b7b800898448006a48b9006a44b800890440008e
:10b7c8006fb19700124078009eb10200000000009f
:10b7d8000080fb008000eb000804400089844800da
:10b7e800e10f4400e08f5c0035013e006a58b90063
:10b7f8000040450088007800c4aa0200000000004c
:10b808004f0778004f06be004f05be004f04be002c
:10b81800ef00b10000000600d1fc3700d2aa0200f8
:10b8280000000000804e78004800de00004f7800dd
:10b838004f0778004f06be004f05be004f04be00fc
:10b84800ef00b10000000600c5fc37009eb1020001
:10b85800000000006a00b900004478001a4078002f
:10b868009eb102000000000000444400a7842000ac
:10b87800884b78008880fb00c608dd00608a2200bb
:10b8880000804000704488006a4023006506450037
:10b898001bc6b3008dccb300dacf1500d10032003f
:10b8a8008040eb0008407800d480020000000000cf
:10b8b8008040eb0008407800eaab0200000000007e
:10b8c8001a80fb008000eb000002b1000180b1008b
:10b8d80082052000820f5000e08f580006003600d5
:10b8e80030002000e9fb07008c0f550096fc320061
:10b8f8000844e800e8ff370000600100faff37005d
:10b90800f7ff3700f6ff3700f5ff3700f4ff370081
:10b91800f3ff3700f2ff3700f1ff3700f0ff370081
:10b92800efff3700eeff3700edff3700ecff370081
:10b93800ebff3700eaff3700e9ff3700e8ff370081
:10b94800e7ff3700e6ff3700e5ff3700e4ff370081
:10b95800e3ff3700e2ff3700e1ff3700e0ff370081
:10b96800dfff3700deff3700ddff3700dcff370081
:10b97800dbff3700daff3700d9ff3700d8ff370081
:10b98800d7ff3700d6ff3700d5ff3700d4ff370081
:10b99800d3ff3700d2ff3700d1ff3700d0ff370081
:10b9a800cfff3700ceff3700cdff3700ccff370081
:10b9b800cbff3700caff3700c9ff3700c8ff370081
:10b9c800c7ff3700c6ff3700c5ff3700c4ff370081
:10b9d800c5ff3700c2ff3700c1ff3700c0ff37007f
:10b9e800bfff3700beff3700bdff3700bcff370081
:10b9f800bbff3700baff3700b9ff3700b8ff370081
:10ba0800b7ff3700b6ff3700b5ff3700140037001f
:10ba1800b3ff3700b2ff3700b1ff37006d003700c2
:10ba28000f003700aeff3700adff37006200370068
:10ba3800abff3700aaff3700a9ff3700a8ff370080
:10ba4800a7ff3700a6ff370058003700a4ff3700cc
:10ba580003003700a2ff37005b003700a2ff370062
:10ba680008407800b0810200000000009eff370007
:10ba780090012000e2b79f0084fb07001b4078007c
:10ba8800d2980200000000001a407800d298020004
:10ba98000000000018407800d29802000000000062
:10baa8008740230017407800d29802000000000069
:10bab8009140230011407800d29802000000000055
:10bac800a340230013407800d29802000000000031
:10bad8006fb1970012407800d29802000000000071
:10bae80030fd370050c4b30080cf5100e4fd3a0068
:10baf8006e404000804f5300e1fd3a000ff297007e
:10bb0800834f5200defd3a000040e800efeb97005b
:10bb180080cf5300dafd3a002368ef0010c0b3006d
:10bb280024e8b7004f0778004f06be004f05be0057
:10bb38004f04be00ef00b1000000060008fc37000b
:10bb4800804f530039fd3a0040c5b3008ff197008c
:10bb580080cf510035fd3a0010c2b3006fea97005c
:10bb6800804f520031fd3a0000c0e8008feb97008b
:10bb780080cf53002dfd3a0067404000efe097006a
:10bb880080cf500029fd3a00a09e0200000000006e
:10bb98004f0778004f06be004f05be004f04be0099
:10bba800ef00b10000000600edfb37000cac02000e
:10bbb800000000004cff3700084078002a8302008c
:10bbc8000000000048ff37004aa8020000000000fb
:10bbd80045ff3700084078002e830200000000006f
:10bbe80041ff37008d4c78008ca202000000000055
:10bbf8003dff3700d4402300094a78004f077800fa
:10bc08004f06be004f05be004f04be00ef00b10056
:10bc180000000600d2fb370083e0a9000000000006
:10bc280000000000a2028000a10288009000ba0073
:10bc38000341230081497800c808de000302e800b8
:10bc4800014a78001080ba008280fb00a1028800b7
:10bc580083e0a80000000000000000008383e800e3
:10bc6800804b78004800de00e3804100804878007f
:10bc78004f0778004f06be004f05be004f04be00b8
:10bc8800ef00b10000000600b5fb370010c4b30098
:10bc980004412300004a780020c3b3001741230061
:10bca800804b780000c0e9008700e80080487800f1
:10bcb800644040000781e8000049780013fe37001f
:10bcc80020002000f1fa07004f0778004f06be0059
:10bcd8004f05be004f04be00ef00b1000000060093
:10bce8009ffb370080002000e8fa07004f07780024
:10bcf8004f06be004f05be004f04be00ef00b10066
:10bd08000000060096fb370083e0a9000000000051
:10bd180000000000a902800020002000a002880086
:10bd2800648a20008400780000002a000001eb00eb
:10bd380003182a009008ba0092009800e480400096
:10bd48000080e800830f5000faff3a00200020002e
:10bd5800203b880001002a00113b880031002400a4
:10bd6800013b88000600fc0051052000313b88009b
:10bd7800a10a2000313b880061e7a800000000000c
:10bd880000000000a00288001880fb004200dd00cf
:10bd980000004200914023009181fb00c819dd009a
:10bda8000102e9009480fb0001884100120098001c
:10bdb80050052000a10a20005ea902000000000032
:10bdc800628a200000002a002100200044aa020004
:10bdd800000000008984fb00a902880083e0a80015
:10bde80000000000000000004f0778004f06be006a
:10bdf8004f05be004f04be00ef00b1000000060072
:10be080057fb370090002000a0fa07004f07780082
:10be18004f06be004f05be004f04be00ef00b10044
:10be2800000006004efb37007000200097fa07005c
:10be38004f0778004f06be004f05be004f04be00f6
:10be4800ef00b1000000060045fb37007648e2002d
:10be58003800320001fc2f00a73d80008780600079
:10be68005100b300a13d880001f82f00c33e8000b7
:10be7800838060003100b300c13e8800d0b79f00c6
:10be8800e2b79f00389802000000000081ff2f00f1
:10be980074058000848060000100a000710588009e
:10bea800f1ff2800670580008780600001c0a000be
:10beb800610588007686a900e1cfb300738620006b
:10bec800814978005fb097001ae8b7001b407800f6
:10bed800d2980200000000001a407800d2980200b0
:10bee8000000000018407800d2980200000000000e
:10bef8008740230017407800d29802000000000015
:10bf08009140230011407800d29802000000000000
:10bf1800a340230013407800d298020000000000dc
:10bf28006fb1970012407800d2980200000000001c
:10bf38001cfc3700a0012000e2b79f0053fa07005d
:10bf48001b407800d2980200000000001a407800d8
:10bf5800d29802000000000018407800d298020031
:10bf6800000000008740230017407800d2980200a4
:10bf7800000000009140230011407800d298020090
:10bf880000000000a340230013407800d29802006c
:10bf9800000000006fb1970012407800d2980200ac
:10bfa80000000000fffb370010c0b3001de8b70019
:10bfb8004f0778004f06be004f05be004f04be0075
:10bfc800ef00b10000000600e5fa3700889fbe00c8
:10bfd8007648e200020032001a48e2001b003200f4
:10bfe8001bc8bf0048402300e74f500047003600f9
:10bff800a2fa07001b68ef00e0cfb300004c7800fe
:10c0080051402300804878008100e800804878008b
:10c018008100e800804878008100e80080487800c6
:10c028008100e800804878008100e80080487800b6
:10c038008100e80080487800edf907007648e200c2
:10c0480002003a004f04be00000006002bc8bf00e3
:10c05800e74f5000fbff36001f68ef004040230009
:10c06800413f230007000900315878002b68ef0092
:10c078002148e200020032002068ef00ab84a800eb
:10c088007efa0700504023001040780011c2b30028
:10c09800814f50005000320083e0a90000000000ea
:10c0a80000000000c03f2300c14023000700090032
:10c0b8003158780010c0b3001fe8b7001e68ef00c1
:10c0c8002148e200020032002168ef001f68ef00fb
:10c0d8002048e200070032001f48e2000500320055
:10c0e8002068ef002168ef00ab84a8001f68ef000c
:10c0f8002c68ef0083e0a8000000000000000000aa
:10c108004f04be0000000600d0ff37000080fb008f
:10c11800e800100000004400a2980200000000009f
:10c12800804478001d48e2003c003a001bc8bf006c
:10c1380080c44400b0812000094878000904e00068
:10c14800beff3200b4408000c540800053c5b30034
:10c1580006c2b30018407800834f50000200320036
:10c16800864f500013003a000040eb008080fb002f
:10c178000101e800e2707c000040e800e74f500051
:10c18800faff3a008944e90061024200e0824a006d
:10c198000904e000efff3a00b08120000948780068
:10c1a800b4408800c54088007648e200a5ff320008
:10c1b800a6ff3700b081200009487800b440880005
:10c1c800c5408800e7cf540089ff3e007648e2006a
:10c1d8009cff32009dff370041402300914f100023
:10c1e800adff32002268ec0083e0a90000000000e7
:10c1f80000000000c03f2300c140230007000900e1
:10c208003158780010c0b3001fe8b7001e68ef006f
:10c218002148e200aeff3200abff37008980fb0007
:10c228001bc8bf000080fb000800400018990200ee
:10c2380000000000bdff37006e01b90082007800e1
:10c24800c23323000101410000c9eb00a2332300df
:10c25800810041008008eb00e20f50002b00320003
:10c268000a003600e40f500031003200150031009a
:10c278003022ef00c0002000901188003822ef0023
:10c288009840a9008840a900000006000000e000ce
:10c2980009003a009022ef009222ef009422ef006a
:10c2a80000102000b01488009a22ef009c22ef00b2
:10c2b8009e22ef0000000600e10f50000a00320045
:10c2c80000000600e50f5000fdff3a004422ef0091
:10c2d800c0002000301288004c22ef009b20a900eb
:10c2e8008b20a90000000600b422ef00b622ef0060
:10c2f800b822ef0000102000d0158800be22ef0001
:10c30800c022ef00c222ef00000006000023ef0069
:10c318000223ef000423ef000010200030188800eb
:10c328000a23ef000c23ef000e23ef0000000600a5
:10c338003a22ef00c0002000e01188004222ef00fe
:10c3480098c0a90088c0a90000000600881f7800ce
:10c358000044eb000880fb00b7ff07000844e80032
:10c36800e84f5400fbff3a004f0478000000060035
:10c37800881f7800000478004ac8bf00e6810200e0
:10c38800000000000004e00008003a00f00f200060
:10c39800e50f54000300360060002000eb0f540046
:10c3a8000f0032004f04780000000600e60f54002a
:10c3b8000f003200c3332300830078000000eb0035
:10c3c8000041780000c2eb00914f12000c003200cf
:10c3d8000000e800ee804000e60f5000f8ff3a0049
:10c3e800f00f20004f04780000000600efff370030
:10c3f800080078004f04780000000600ebff3700c3
:10c408006e00b900a484200014427800847178007a
:10c418000280fb004f04780000000600e3ff3700ad
:10c428000400fa00881f780000047800e60f540022
:10c43800330032004ac8bf00d2bf9f00e3bf9f004d
:10c44800e6810200000000005fb99700efb997008d
:10c458000004e00009003a00f00f2000e50f540046
:10c468000300360060002000eb0f54004600320045
:10c478004f0478000080fa000000060060002000e9
:10c48800c1fd2f00810f5100e08f5900f8ff3e00d9
:10c4980070802f00f1ff2f000200400083804800c9
:10c4a80074d32600840f5000e08f580019003e0016
:10c4b800c533230015437800a184200091407800fb
:10c4c8000040eb008001eb00a4332300e14f430060
:10c4d80040003200814f53003e0032000040e80027
:10c4e800e64f5000dfff32008081fb00e2c0b3005e
:10c4f8000440bc000281e80064437900f3ff370080
:10c50800080078004f0478000080fa000000060058
:10c51800daff3700c533230015437800e14f4300a5
:10c5280024003200a184200091407800814f5300fc
:10c5380022003200a434230014407800e14f400068
:10c548001600320080cf50001400320084352300da
:10c5580014407800e14f40001000320080cf5000b6
:10c568000e0032006000200004532700840f5100a1
:10c57800e08f5900beff3e000040eb008001eb0059
:10c58800a4332300d1ff3700f00f20004f047800b8
:10c598000080fa0000000600b8ff3700014a780062
:10c5a800100020004f0478000080fa000000060008
:10c5b800b2ff3700a684200016437800864a780028
:10c5c8000000eb004f0478000080fa00000006002d
:10c5d800aaff37006e1bb90081727b000300780048
:10c5e8004f0478000080fa0000000600a3ff37001f
:10c5f800889fbe00000478004ac8bf00e681020098
:10c60800000000000004e00006003a00ea0f5400b1
:10c618000a003200e50f5400150036004f04be0032
:10c62800000006008040eb004ac8bf00ae7f020051
:10c6380000000000ea0f5400f6ff3a00c933230057
:10c648000044eb00194078004a48e3000d0032002e
:10c658000844e800ee844400e84f5400efff32003d
:10c66800194078004a48e300f9ff3a00050037000e
:10c6780008007800f0fe07004f04be000000060026
:10c68800e8ff37000880fb00ebfe07000844e800dd
:10c69800ee844400e84f5400f1ff3a00dfff370012
:10c6a800881f780000017800e30f51006a0032000b
:10c6b80014003600e50f5100470032002200310017
:10c6c80000c02100d01188003c22ef003e22ef007c
:10c6d800c408dd00011288004222ef0088c0a900ca
:10c6e80098c0a9000080e800d0118800e1c0b3001c
:10c6f8004ac8bf00ae7f0200000000004f04780067
:10c7080000000600e10f5100450032002400360009
:10c718000023ef001023ef00c408dd00c1188800d3
:10c7280041c1b3004ac8bf00ae7f0200000000004c
:10c738000c23ef0020002800001888004f04780020
:10c7480000000600efff3700e60f5100ebff3a004c
:10c758007844800000102e000008b800022424004d
:10c76800f30020009851020000000000401c9800cf
:10c77800e0ff2f00501c98000000eb00201c9800e0
:10c78800301c98008040eb004ac8bf00ae7f020012
:10c79800000000004f04780000000600d9ff3700b1
:10c7a8009022ef00a022ef00c408dd0041158800a8
:10c7b80001c1b3004ac8bf00ae7f020000000000fc
:10c7c8009c22ef0020002800801488004f04780085
:10c7d80000000600cbff370000c0210020128800af
:10c7e8004622ef004822ef00c408dd0051128800fd
:10c7f8004c22ef008b20a9009b20a9000080e800b4
:10c8080020128800f1c0b3004ac8bf00ae7f020002
:10c81800000000004f04780000000600b9ff370050
:10c82800b422ef00c422ef00c408dd0061168800be
:10c8380021c1b3004ac8bf00ae7f0200000000005b
:10c84800c022ef0020002800a01588004f047800bf
:10c8580000000600abff370000c0210080118800ef
:10c868003222ef003422ef00c408dd00b111880045
:10c878003822ef008840a9009840a9000080e8000d
:10c8880080118800d1c0b3004ac8bf00ae7f020043
:10c89800000000004f0478000000060099ff3700f0
:10c8a8000600fa00e30f5000e500320028003600c9
:10c8b800e50f5000990032004b0031000100e00004
:10c8c80091003200e18f40000301320080bb20005c
:10c8d800800f5100e08f590077013600055327007b
:10c8e800850f5100e08f590017003e0002014100fa
:10c8f80083814900019ab9000208b800810042000a
:10c908004008de0001002000e41180007f02620080
:10c91800ff0f52000f023200f4012000e4118800da
:10c92800f21188000012880088c0a90098c0a900e8
:10c9380060002000d0118800e1c0b3004ac8bf00e1
:10c94800ae7f0200000000000080fa000000060030
:10c95800e10f500097003200480036000100e00067
:10c9680069003200e18f4000db003200807f200048
:10c97800800f5100e08f59003a01360085fc2000f5
:10c98800850f5100e08f59009a023e00441add00dd
:10c99800cc12de00850272004412dd00500028002f
:10c9a8000003e300370232000023ef001023ef00fa
:10c9b8001823ef00a41888005000280000188800e9
:10c9c800a01880000100b800e118880041c1b30038
:10c9d8004ac8bf00ae7f0200000000000080fa00d5
:10c9e80000000600daff3700e60f5000d6ff3a00d5
:10c9f800e18f4000b8003200f1bf9f00d2bf9f0016
:10ca0800e3bf9f00f483020000000000f0eb200069
:10ca18005fb99700efb99700009ab9000011b80004
:10ca280083014200040028000500200002014200a2
:10ca380083814a0003017800ffb897000112b8000b
:10ca4800704480004518980005015100521898005c
:10ca5800a0199000838f520001003100251898001a
:10ca6800b0189000810f5100b7ff310032189800bc
:10ca78000080fa0000000600b5ff37000100e00062
:10ca880021003200e18f400093003200807f2000b7
:10ca9800800f5100e08f5900dd00360085fc200032
:10caa800850f5100e08f59002b023e00441add002b
:10cab800cc12de00850272004412dd00500028000e
:10cac8009002e300e10132009022ef00a022ef0083
:10cad800a822ef0024158800500028008014880040
:10cae800201580000100b8006115880001c1b3005d
:10caf8004ac8bf00ae7f0200000000000080fa00b4
:10cb08000000060092ff3700f483020000000000d6
:10cb18000080fa00000006008dff37000100e000e9
:10cb2800f9ff3200e18f40006b00320080bb20002b
:10cb3800800f5100e08f59009b00360005532700f5
:10cb4800850f5100e08f59007fff3e000201410030
:10cb580083814900019ab9000208b80081004200a7
:10cb68004008de0001002000341280007f026200cd
:10cb7800ff0f52008f013200f401200034128800a8
:10cb880042128800501288008b20a9009b20a9001f
:10cb98006000200020128800f1c0b3004ac8bf001e
:10cba800ae7f0200000000000080fa0000000600ce
:10cbb80067ff37000100e000d3ff3200e18f40003b
:10cbc80045003200807f2000800f5100e08f59001f
:10cbd8006000360085fc2000850f5100e08f590069
:10cbe800b6013e00441add00cc12de008502720058
:10cbf8004412dd0050002800b402e3008501320031
:10cc0800b422ef00c422ef00cc22ef0044168800c3
:10cc180050002800a0158800401680000100b800c8
:10cc28008116880021c1b3004ac8bf00ae7f020048
:10cc3800000000000080fa000000060044ff3700f2
:10cc48000100e000b0ff3200e18f40002200320016
:10cc580080bb2000800f5100e08f59002300360070
:10cc680005532700850f5100e08f590013003e003f
:10cc78000201410083814900019ab9000208b80005
:10cc8800810042004008de0001002000941180006d
:10cc98007f026200ff0f520016013200f4012000eb
:10cca80094118800a2118800b01188008840a9005a
:10ccb8009840a9006000200080118800d1c0b3000e
:10ccc8004ac8bf00ae7f0200000000000080fa00e2
:10ccd800000006001eff3700ee830200000000007f
:10cce8000080fa000000060019ff3700441add0032
:10ccf800cc12de00850272004412dd0001a9b900e1
:10cd08000408b800810041004008de00010020004e
:10cd1800921180007f016100ff0f5100dc0032009a
:10cd2800f201200092118800a4118800b011880037
:10cd38008840a9009840a90060c02100801188009f
:10cd4800d1c0b3004ac8bf00ae7f02000000000097
:10cd5800deff3700451add00cb12de0085027200c7
:10cd68004512dd0050402800b402e3006c00320098
:10cd7800b422ef00c422ef00cc22ef004416880052
:10cd880050402800a0158800401680000100b80017
:10cd98008116880021c1b3004ac8bf00ae7f0200d7
:10cda80000000000a3ff3700441add00cc12de00ab
:10cdb800850272004412dd0001a9b9000408b80018
:10cdc800810041004008de0001002000321280008e
:10cdd8007f016100ff0f51006d003200f201200059
:10cde8003212880044128800501288008b20a90053
:10cdf8009b20a90060c0210020128800f1c0b30068
:10ce08004ac8bf00ae7f02000000000066ff37007e
:10ce1800451add00cb12de00850272004512dd00e6
:10ce2800504028009002e3004b0032009022ef00af
:10ce3800a022ef00a822ef00241588005040280007
:10ce480080148800201580000100b8006115880052
:10ce580001c1b3004ac8bf00ae7f02000000000055
:10ce680026ff3700451add00cb12de00850272006e
:10ce78004512dd00504028000003e3005d00320049
:10ce88000023ef001023ef001823ef00a4188800f8
:10ce98005040280000188800a01880000100b80041
:10cea800e118880041c1b3004ac8bf00ae7f020044
:10ceb80000000000c9fe3700441add00cc12de0075
:10cec800850272004412dd0001a9b9000408b80007
:10ced800810041004008de0001002000e2118000ce
:10cee8007f016100ff0f510050003200f201200065
:10cef800e2118800f41188000012880088c0a90097
:10cf080098c0a90060c02100d0118800e1c0b3001a
:10cf18004ac8bf00ae7f0200000000008afe37004a
:10cf2800cc02e20092ff3a00421680008001eb003a
:10cf3800840f5100858f590037ff3200b422ef006b
:10cf4800c422ef00cc22ef0044168800504028008d
:10cf5800a01588008cff3700a802e200b3ff3a0052
:10cf6800221580008001eb00840f5100858f590045
:10cf7800dbfe32009022ef00a022ef00a822ef0093
:10cf8800241588005040280080148800adff370021
:10cf9800421280008001eb00840f5100858f5900f8
:10cfa8008eff3a00521280008001eb00800f510082
:10cfb800818f590089ff3a0073c021002212800036
:10cfc8008281610062c02100828f5100f2fe32002e
:10cfd800f2012000321288004412880050128800a2
:10cfe8008b20a9009b20a90060c021002012880086
:10cff80082ff37001803e200a1ff3a00a218800060
:10d008008001eb00840f5100858f59006cfe3200bf
:10d018000023ef001023ef001823ef00a418880066
:10d0280050402800001888009bff3700f21180004c
:10d038008001eb00840f5100858f5900abff3a0047
:10d04800021280008001eb00800f5100818f59008f
:10d05800a6ff3a0073c02100d211800082816100ce
:10d0680062c02100828f510033fe3200f20120009d
:10d07800e2118800f41188000012880088c0a90015
:10d0880098c0a90060c02100d01188009fff370018
:10d09800a21180008001eb00840f5100858f590098
:10d0a8001fff3a00b21180008001eb00800f510091
:10d0b800818f59001aff3a0073c021008211800045
:10d0c8008281610062c02100828f5100fbfe320024
:10d0d800f201200092118800a4118800b011880084
:10d0e8008840a9009840a90060c0210080118800ec
:10d0f80013ff3700a41180008002eb00820f52005a
:10d10800838f5a00e5fe3a00b41180008002eb00dc
:10d11800800f5200818f5a00e0fe3a0074c021004f
:10d128008511800005026200e60f5200e3fe32001e
:10d13800f401200094118800a2118800b011880021
:10d148008840a9009840a90060002000801188004c
:10d15800dafe3700f41180008002eb00820f5200e3
:10d16800838f5a00ecfd3a00041280008002eb0025
:10d17800800f5200818f5a00e7fd3a0074c02100e9
:10d18800d511800005026200e60f5200eafd320068
:10d19800f4012000e4118800f211880000128800d0
:10d1a80088c0a90098c0a90060002000d01188009c
:10d1b800e1fd3700441280008002eb00820f52002c
:10d1c800838f5a006cfe3a00541280008002eb00f4
:10d1d800800f5200818f5a0067fe3a0074c0210008
:10d1e8002512800005026200e60f52006afe320036
:10d1f800f40120003412880042128800501288007e
:10d208008b20a9009b20a900600020002012880024
:10d2180061fe3700cc02e20079fe3a004216800037
:10d228008001eb00840f5100858f59007afe32008f
:10d23800b422ef00c422ef00cc22ef00441688008d
:10d2480050002800a015880073fe3700a802e200ed
:10d258001dfe3a00221580008001eb00840f51006a
:10d26800858f59001efe32009022ef00a022ef00a9
:10d27800a822ef0024158800500028008014880098
:10d2880017fe37001803e200c7fd3a00a218800015
:10d298008001eb00840f5100858f5900c8fd3200d2
:10d2a8000023ef001023ef001823ef00a4188800d4
:10d2b8005000280000188800c1fd3700c0fa23007c
:10d2c800800f5100e08f5900b7003e00421add0080
:10d2d800ce12de00850272004212dd0050042800e2
:10d2e800b402e3000e003200b422ef00c422ef00c3
:10d2f800cc22ef004416880050042800a0158800ae
:10d30800401680000100b8008116880021c1b300d2
:10d318004ac8bf00ae7f02000000000045fe37008b
:10d32800cc02e200f0ff3a00421680008001eb00d8
:10d33800840f5100858f590037fe3200b422ef0068
:10d34800c422ef00cc22ef004416880050042800c5
:10d35800a0158800eaff3700c0fa2300800f5100ab
:10d36800e08f59006d003e00421add00ce12de004b
:10d37800850272004212dd00500428009002e3008a
:10d388000e0032009022ef00a022ef00a822ef004a
:10d398002415880050042800801488002015800077
:10d3a8000100b8006115880001c1b3004ac8bf0078
:10d3b800ae7f020000000000d0fd3700a802e200a6
:10d3c800f0ff3a00221580008001eb00840f510025
:10d3d800858f5900c2fd32009022ef00a022ef0095
:10d3e800a822ef0024158800500428008014880023
:10d3f800eaff3700c0fa2300800f5100e08f590080
:10d4080023003e00421add00ce12de0085027200c3
:10d418004212dd00500428000003e3000e00320031
:10d428000023ef001023ef001823ef00a418880052
:10d438005004280000188800a01880000100b800d7
:10d44800e118880041c1b3004ac8bf00ae7f02009e
:10d458000000000061fd37001803e200f0ff3a0009
:10d46800a21880008001eb00840f5100858f5900bd
:10d4780053fd32000023ef001023ef001823ef00c4
:10d48800a41888005004280000188800eaff370014
:10d4980085de2f00850f5100e08f590048fd3e00c2
:10d4a800500828000003e3000e0032000023ef00bc
:10d4b8001023ef001823ef00a21888005008280056
:10d4c80000188800a01880000100b800e118880042
:10d4d80041c1b3004ac8bf00ae7f0200000000008f
:10d4e8003efd37001803e200f0ff3a00a418800060
:10d4f8008002eb00820f5200838f5a0030fd320009
:10d508000023ef001023ef001823ef00a218880073
:10d518005008280000188800eaff370085de2f0031
:10d52800850f5100e08f59006dfd3e00500828001e
:10d538009002e3000e0032009022ef00a022ef00dc
:10d54800a822ef00221588005008280080148800bf
:10d55800201580000100b8006115880001c1b300e2
:10d568004ac8bf00ae7f02000000000063fd37001c
:10d57800a802e200f0ff3a00241580008002eb00c8
:10d58800820f5200838f5a0055fd32009022ef001f
:10d59800a022ef00a822ef002215880050082800da
:10d5a80080148800eaff370085de2f00850f5100c0
:10d5b800e08f590098fd3e0050082800b402e300af
:10d5c8000e003200b422ef00c422ef00cc22ef009c
:10d5d8004216880050082800a015880040168000d0
:10d5e8000100b8008116880021c1b3004ac8bf00f5
:10d5f800ae7f0200000000008efd3700cc02e20082
:10d60800f0ff3a00441680008002eb00820f5200bf
:10d61800838f5a0080fd3200b422ef00c422ef004d
:10d62800cc22ef004216880050082800a015880078
:10d63800eaff3700e30f50002e00320007003600e3
:10d64800e50f5000210032000c003900e60f5000b1
:10d65800140032000040eb0000000600e10f50000b
:10d668001f0032000a003600601880006800600061
:10d678000000e9004f00de000000060040048000c2
:10d688000004b2000000e9004f00de0000000600c0
:10d69800e0148000680060000000e9004f00de0030
:10d6a80000000600714480002119900010c0b300ea
:10d6b8000200e000e8ff3a003119900071f72f00ee
:10d6c800810f5100e4ff3e00000005005004800077
:10d6d8000020b2000000e9004f00de000000060054
:10d6e80000168000680060000000e9004f00de00be
:10d6f8000000060040048000640060000000e900ab
:10d708004f00de0000000600e60f50000100320066
:10d71800100005004ac8bf00b495020000000000d0
:10d7280010000500fbff37000600fa00889fbe00c6
:10d73800e50f50000e003e006e03b9000682e800b7
:10d74800a533230065427a00e14f42004f003200c2
:10d75800a884200018447800884f52004d003200f9
:10d76800f00f20004f04be000080fa000000060001
:10d77800e039230010427800e14f420036003200c1
:10d78800a584200095427800854f5200340032006d
:10d798008003b10000c2eb00904f12004a00320033
:10d7a8006e004000904f1200630032006e0040008f
:10d7b800904f120079003200a8fb2f0000044400ab
:10d7c800984f12008e003200a034230000c2eb00f4
:10d7d800904f1200a2003200f00f20008435230081
:10d7e80080c2eb002900200094cf1200ddff3a0030
:10d7f80009007800b1bf9f00c2bf9f00d3bf9f0040
:10d808008dfa07006e4ab90004007800a48420004d
:10d818001442780004747800a43323000000420006
:10d82800dfb9970003087800e40140004fb997007a
:10d83800820978000001eb0032009800bfb8970019
:10d8480041009800090078004f04be000080fa00eb
:10d8580000000600c6ff3700a58420009542780026
:10d8680005487800e39c8900029d89000000eb00d0
:10d87800109d8900219d8900700020004f04be0082
:10d888000080fa0000000600b9ff3700a8842000d5
:10d8980018447800c433230008727b008682420053
:10d8a800830a7800e4814200820978000001eb00d5
:10d8b800b2029800c10298004f04be000080fa002e
:10d8c80000000600aaff3700380020000800780092
:10d8d800b1bf9f00c2bf9f00d3bf9f0056fa070089
:10d8e8006e42b90004007800c4332300a5842000e8
:10d8f80095427800057278000482e9000000420031
:10d90800dfb9970003087800e40140004fb9970099
:10d91800820978000001eb0032009800bfb8970038
:10d9280041009800080078004f04be000080fa000b
:10d93800000006008eff370048002000080078002d
:10d94800b1bf9f00c2bf9f00d3bf9f003afa070034
:10d958006e42b90004007800c4332300a584200077
:10d9680095427800057278000482e90000004200c0
:10d97800dfb9970003087800e40140004fb9970029
:10d98800820978000001eb0032009800bfb89700c8
:10d998004100980008007800e3ff37005800200095
:10d9a80008007800b1bf9f00c2bf9f00d3bf9f008f
:10d9b80021fa07006e42b90004007800c43323003e
:10d9c800a584200095427800057278000482e90059
:10d9d80000004200dfb9970003087800e401400026
:10d9e8004fb99700820978000001eb0032009800d7
:10d9f800bfb897004100980008007800caff3700b8
:10da08008004eb0009007800b1bf9f00c2bf9f00ef
:10da1800d3bf9f0008fa07006e4ab90004007800d7
:10da2800a48420001442780004747800a4332300ee
:10da380000004200dfb9970003087800e4014000c5
:10da48004fb99700820978000001eb003200980076
:10da5800bfb8970041009800090078007aff3700a6
:10da68001900200009007800b1bf9f00c2bf9f00c5
:10da7800d3bf9f00f0f907006e4ab9000400780090
:10da8800a48420001442780004747800a43323008e
:10da980000004200dfb9970003087800e401400065
:10daa8004fb99700820978000001eb003200980016
:10dab800bfb89700410098000900780062ff37005e
:10dac800e30f5000460032000f003600e50f50000b
:10dad8002e0032001800310000c02100801188009b
:10dae8003222ef003422ef00d09b8100b011880071
:10daf8003822ef008840a9009840a80020c02100e3
:10db08008011880000000600e10f50002b00320051
:10db18000c0036000023ef001023ef008d80a900d1
:10db2800f09a8100a01888000000280000188800da
:10db38009d80a80000000600e70f50000a00320090
:10db4800000006009022ef00a022ef0094c0a90078
:10db5800109a810020158800000028008014880091
:10db6800a4c0a800000006006c22ef007c22ef0091
:10db780094a0a900209d81000014880000002800be
:10db880060138800a4a0a8000000060000c02100bf
:10db9800201288004622ef004822ef00409c8100b6
:10dba800501288004c22ef008b20a9009b20a8006f
:10dbb80020c021002012880000000600b422ef00d7
:10dbc800c422ef008d60a900809a81004016880069
:10dbd80000002800a01588009d60a800000006002d
:10dbe80000c02100801188003222ef003422ef00ab
:10dbf800609b8100b01188003822ef008840a9009e
:10dc08009840a80020c0210080118800000006006c
:10dc1800f623ef0090002000c01f8800fc23ef00cf
:10dc28000424ef0080002000402088000a24ef0030
:10dc38000c24ef000e24ef0010422800a01f8800db
:10dc480000000600f623ef0090002000c01f8800a7
:10dc5800fc23ef000424ef0080002000402088000f
:10dc68000a24ef000c24ef000e24ef0010422800d5
:10dc7800a01f880071c0b3004ac8bf00ae7f04006f
:10dc880000000000714480004100900002c02f0095
:10dc980002187800c0009800000006007144800057
:10dca8004100900002002e0002187800c000980081
:10dcb800000006000002be00e00f5000e08f580090
:10dcc800850032004828dd004821de00020170008e
:10dcd800c829de000204e0000d013500714480000f
:10dce8004100900003002e0003187800c00098003f
:10dcf8000281fb000268a3000101320003c02f006b
:10dd080003187800c00098000258a300ae00320043
:10dd180003c02f0003187800c00098000248a30031
:10dd2800ae00320003c02f0003187800c00098002e
:10dd38000238a300ae00320003c02f000318780099
:10dd4800c00098000228a300ae00320003c02f00d4
:10dd580003187800c00098000218a300ae00320033
:10dd680003c02f0003187800c00098000208a30021
:10dd7800ae00320002c02f0002187800c0009800e0
:10dd8800054178000204e000ae00350003002e00d3
:10dd980003187800c00098000281fb000268a30005
:10dda800ae00320003c02f0003187800c0009800ae
:10ddb8000258a300ae00320003c02f0003187800f9
:10ddc800c00098000248a300ae00320003c02f0034
:10ddd80003187800c00098000238a300ae00320093
:10dde80003c02f0003187800c00098000228a30081
:10ddf800ae00320003c02f0003187800c00098005e
:10de08000218a300ae00320003c02f0003187800e8
:10de1800c00098000208a300ae003200000178009c
:10de280000c02f0000197800c20098000440780054
:10de38000004e000ae00350003002e00031978004e
:10de4800c20098000080fb000068a3005a0032005e
:10de580003c02f0003197800c20098000058a300df
:10de68005100320003c02f0003197800c200980047
:10de78000048a3004800320003c02f0003197800af
:10de8800c20098000038a3003000320003c02f0001
:10de980003197800c20098000028a300300032005f
:10dea80003c02f0003197800c20098000018a300cf
:10deb8003000320003c02f0003197800c200980018
:10dec8000008a30030003a0000002e000019780076
:10ded800c2009800000006007244800000002e0076
:10dee800c2009000801878008018780080187800a8
:10def80080187800801878008018780080187800da
:10df080080187800801878008018780080187800c9
:10df180080187800801878008018780080187800b9
:10df280080187800801878008018780080187800a9
:10df38008018780080187800801878008018780099
:10df480080187800410198000000060003002e00a8
:10df580003197800c20098000028a300d0ff3a00f7
:10df680003002e0003197800c20098000018a300cf
:10df7800d0ff3a0003002e0003197800c200980071
:10df88000008a300d0ff320000c02f00001978005d
:10df9800c20098000000060003002e000319780054
:10dfa800c2009800b7ff370003002e00031978005d
:10dfb800c2009800aeff370003002e000319780056
:10dfc800c2009800a5ff370003002e000318780050
:10dfd800c00098000248a30052ff3a0003002e0038
:10dfe80003187800c00098000238a30052ff3a00d6
:10dff80003002e0003187800c00098000228a30030
:10e0080052ff3a0003002e0003187800c000980061
:10e018000218a30052ff3a0003002e0003187800ec
:10e02800c00098000208a30052ff3a0002002e0028
:10e0380002187800c0009800054178000204e0004a
:10e0480052ff3d0003c02f0003187800c00098005d
:10e058000281fb000268a30052ff3a0003002e0071
:10e0680003187800c00098000258a30052ff3a0035
:10e0780003002e0003187800c00098000248a3008f
:10e0880052ff3a0003002e0003187800c0009800e1
:10e098000238a30052ff3a0003002e00031878004c
:10e0a800c00098000228a30052ff3a0003002e0087
:10e0b80003187800c00098000218a30052ff3a0025
:10e0c80003002e0003187800c00098000208a3007f
:10e0d80052ff3a000001780000002e000019780075
:10e0e800c2009800044078000004e00052ff3d00a0
:10e0f80003c02f0003197800c200980051ff3700b1
:10e1080003002e0003187800c0009800fefe3700b8
:10e11800714480004100900003c02f00031878006c
:10e12800c0009800f2fe3700714480000001eb0047
:10e13800410090000218780002187800c00098008a
:10e1480000000600fe04a9007044800040519000c1
:10e158000281fb00010320000191b90032288800e8
:10e16800014020002128880050019000618a200089
:10e17800810041001128880002142000f22788003d
:10e188000270220002288800fe04a80041009800be
:10e1980000000600fe04a90000000600889fbe00db
:10e1a8008a9fbe0071448000010078000145880004
:10e1b8004240230012417800b3ccb300834f510092
:10e1c800f600320014003600d0ccb300804f510066
:10e1d800940032002500310061789000ec4f500027
:10e1e80079003a00804023001081fb004811dd00cf
:10e1f8000000e9001080fb0000004100e0009800ea
:10e208009040230010407800805898004f05be00c9
:10e218004f04be000000060083c1e900834f51008f
:10e228009b0032001e00360061789000ec4f5000d1
:10e2380065003a00704023009080fb000003200036
:10e24800008ab900f2402300644942006400420099
:10e258004800de000201e800004978004f05be00d2
:10e268004f04be0000000600ebff37000040e80046
:10e27800804f51005b0032000040e800804f5100a1
:10e288003c003200c00020004a5402000000000098
:10e298004f05be004f04be0000000600deff370039
:10e2a8008341e900834f5100f6ff3a008240230082
:10e2b8001282fb004822dd000201e9001281fb0006
:10e2c80002024200d40098000001eb00e20098002e
:10e2d8008041eb00825898009540230095427800d1
:10e2e800c5509800698a2000d3509800e3509800e0
:10e2f800f2009800f35098008081eb0083089800a2
:10e3080092089800048144000019eb000019eb0002
:10e31800c2009800415190000204e0000900320058
:10e328000044eb006000b80062fe07000844e80003
:10e33800704480008000780040519000884f510060
:10e34800f8ff3e005101900082844400c900980003
:10e35800c1c0b30061789800f48302000000000097
:10e3680038fe07004f05be004f04be00000006003f
:10e37800a9ff370061789000ec4f500012003a0076
:10e38800804023001081fb004811dd000000e900f7
:10e398001080fb000000410090089800a040230076
:10e3a8001081fb004811dd000000e9001080fb002f
:10e3b80000004100800898004f05be004f04be00d1
:10e3c8000000060094ff3700d00020004a540200e5
:10e3d800000000004f05be004f04be00000006000c
:10e3e8008dff370061789000ec4f5000f6ff3a003f
:10e3f8007040230010407800e34f5000a1003e0019
:10e40800f050980081ff3a008040230010407800c7
:10e41800a05898004f05be004f04be00000006003b
:10e428007dff370061789000ec4f5000e6ff3a001e
:10e438004150900032c0b3000440bc000281e800a3
:10e44800704023001080fb000091b900610090002b
:10e45800020040000081e80001002200810f510005
:10e4680071003e00618a200082402300927078008b
:10e4780000804000914023009140780011409800ae
:10e488004f05be004f04be000000060062ff3700c3
:10e4980061789000ec4f5000cbff3a008040230099
:10e4a800904278000000e800904378000000e800ff
:10e4b800104378000000e8001042780051009000f6
:10e4c8007240230012417800c1519000834f5100df
:10e4d80073003100e40140000284fb0000032000c7
:10e4e80000c4b9000880410008032000000444006b
:10e4f80003002200830f54004b003e000785fb00f9
:10e508008005eb00485cdd00c854de008904740017
:10e518004854dd008683fb00060020000804430001
:10e5280089844b000583fb008003eb00080443004b
:10e5380089844b00c822dd00040020000804420042
:10e5480089844a000983fb00860378000803780061
:10e558000602be000204e0003a003a008488be00c9
:10e56800688a200000004400c00098000400be0033
:10e57800d0fd070070448000d000900001044400e2
:10e58800480098008000eb00710098004f05be001d
:10e598004f04be00000006001fff3700617890009e
:10e5a800ec4f500088ff3a00610090000080e800be
:10e5b800824023001281fb006311b90082014000f0
:10e5c8004150900032c0b3000440bc008280e80093
:10e5d800704023001080fb000088b9008081410052
:10e5e800e380410000002200808f50000e003e00b2
:10e5f800608a2000b140230011f0790083014000b7
:10e60800a0402300104078009041980090402300db
:10e6180010407800a04198004f05be004f04be008e
:10e6280000000600fcfe3700800020004a5402006b
:10e63800000000004f05be004f04be0000000600a9
:10e64800f5fe3700e14f5100c5ff3a00a4009800dd
:10e65800b5009800688a200000004400c0009800b7
:10e668000400be0093fd070070448000d0009000b5
:10e6780001044400480098008000eb0071009800f5
:10e68800c2ff3700100120004a54020000000000b9
:10e698004f05be004f04be0000000600defe370036
:10e6a800e00020004a540200000000004f05be00b0
:10e6b8004f04be0000000600d7fe3700889fbe004a
:10e6c8007844800008458800f80090000100e000c8
:10e6d8000a003a000100e00003003a0064c8bf00e5
:10e6e800e14f40002d00320063c8bf004a48e300f4
:10e6f8001f0032004f04be00000006008100e90040
:10e7080071049800485090000080fb00808f5000f2
:10e71800f5ff3e000100e000eeff32007851900066
:10e72800e24f51007e003200e14f51008600320076
:10e73800e34f5100ecff3a00808f5000af003200e9
:10e74800b85890008180fb007801900002005000ca
:10e75800810f50006d00310028009000b800900033
:10e7680054fd070078448000f8009000d9ff370076
:10e7780000a5ab00dfff3200fe04a9008040eb00db
:10e78800ae7f02000000000063e8ef0064e8ef00dd
:10e798004f04be0000000600d8ff370063c8bf0062
:10e7a800e14f4000d1ff3a0078509000e24f50000e
:10e7b80012003200e14f50002b0032004850900008
:10e7c8000080fb006a004000700498004ac8bf003f
:10e7d80064e8b70063e8b7001afd070071448000d9
:10e7e800410090000018eb000018eb00c0009800f2
:10e7f80054fe070063c8bf00bcff3700800c200030
:10e8080070049800685090000040e8006054980038
:10e8180048519000824f5000ecff39006154980035
:10e82800585090000040e80050549800e64f5000bf
:10e83800e6ff36000040eb00505498004ac8bf007d
:10e8480064e8b70063e8b700fefc07007144800085
:10e85800410090000018eb000018eb00c000980081
:10e8680038fe0700e3ff37009859900048509000a1
:10e8780032c0b3000440bc000281e8000380fb0002
:10e888000092b90068019000040141000200e8000c
:10e89800648a2000644078004800dd007004980015
:10e8a800644179000281fb00020040007004980076
