:020000040000FA
:1000000000010400000000007A070000C2070000A1
:10001000060800009C070000E40700000209000039
:1000200002090000020900000209000002090000A4
:1000300002090000020900002E020000020900006F
:100040000209000044070000020900000209000044
:1000500002090000940800002808000008020000BF
:100060000209000002090000020900004E0200001F
:100070000209000002090000020900000209000054
:100080000209000002090000020900000209000044
:100090000209000002090000020900000209000034
:1000A0000209000002090000020900000209000024
:1000B0000209000002090000020900000209000014
:1000C0000209000002090000020900000209000004
:1000D00002090000020900000209000002090000F4
:1000E000020900000209000002090000AE0400003D
:1000F00002090000020900000209000002090000D4
:1001000002090000020900000209000002090000C3
:1001100002090000020900000209000002090000B3
:10012000020900000209000002090000EC080000BA
:100130000209000002090000020900000209000093
:100140000209000002090000020900000209000083
:100150000209000002090000020900000209000073
:100160000209000002090000020900000209000063
:100170000209000002090000020900000209000053
:100180000209000002090000020900000209000043
:100190000209000002090000020900000209000033
:1001A0000209000002090000020900000209000023
:1001B0000209000002090000020900000209000013
:1001C0000209000002090000020900000209000003
:1001D00002090000020900000209000002090000F3
:1001E00002090000020900000209000002090000E3
:1001F00002090000020900000209000002090000D3
:100200002FD622000E7F24000E018800000000007F
:10021000000020000000E000020032000001200089
:100220002002880014000700F80307000000E00027
:1002300003003A006066220001002000020037003F
:100240000000200001002000810F7000010032003A
:1002500014000700000020000000E000020032004F
:1002600000000200000000008230020000000000D8
:100270000040DA000000FE004440A900C008200051
:100280000000E00003003200002020009001880000
:100290004440A800000006008A1F78008B1F7800E9
:1002A00000000600A1028800800478000000EB0036
:1002B0001F003700E284440054A0B4009905BA003E
:1002C000E284440054A0B4009906BA00E2844400D9
:1002D00054A0B4000006EB00476FDE00FD07B2003B
:1002E000AE018800636CE10003003A00EAFF0700FA
:1002F0000000EB000E003700606CE10008003A00DF
:10030000004DEB000A05E800020039003420EC0043
:100310000AF0A0008B05E900F9FF3E000400370059
:100320006168E100010032000086EB000B0007006D
:1003300019C7BA001905BA000E04E00003003A001C
:100340000A00E000DBFF3A0000000600FE07B200F2
:10035000AE0288008A047800F5FF37000CD0A300B5
:10036000E20F4D001C00390089027800354DBA00BB
:100370000A05E800020039003420EC000AF0A00071
:100380008B05E9000F003200254DBA000A05E80090
:10039000020039003420EC000AF0A0008B05E900CF
:1003A000080032000C00E0000600320015CDBA0053
:1003B0000A05E800020039003420EC000AF0A00031
:1003C0008B05E9008984E80054A0B4000B00E0002C
:1003D000E2FF3A00000006009902BA00055D7800CD
:1003E0008B05E900F7FF3200C82ADE00055D7800C2
:1003F0008B05E900F3FF32000C00E000F1FF320052
:1004000019DDBA00EEFF3700DE3304000000000003
:10041000809FBE003200F8003400F8001000200079
:10042000A001880000202000900188000000FA0050
:100430004104800000002200008060000000E00015
:100440000100320089A0A9000080FA003400F90000
:100450003200F9004F00BE00004006003600F800F0
:10046000809FBE00829FBE00849FBE00869FBE000C
:100470000000FA006E0A0200000000008880A90057
:100480000080FA004F03BE004F02BE004F01BE00C5
:100490004F00BE003600F900004006003600F800AC
:1004A000809FBE00829FBE00849FBE00869FBE00CC
:1004B0000000FA008A20A900F12480000008200032
:1004C000008060000000E000080032009EE4A90007
:1004D0000828EF0070408000200090008000EB00B2
:1004E000010878000E28EF00150137004040800019
:1004F0008000EB00B200200003002000820F5000BB
:10050000838F580003013E00006001000B0037009C
:1005100039003700770037009E003700F9003700B8
:10052000CC003700DE003700F6003700E00037006F
:10053000F8003700340037005100370000802000F9
:1005400020009000620060000000E000FB003A0024
:100550000080200010009000704088000080200083
:1005600010009000104078000AE8B70000802000DA
:100570001000900010009000604088000080200073
:1005800010009000E600400000802000110098005C
:10059000008020009000900000D12200808F500049
:1005A00003003A0000802000A1D022001100980032
:1005B00000802000A00090000100A1002100980010
:1005C0000080200090009000008020001000780043
:1005D000808F500004003A0000802000A0009000AE
:1005E0000110A000210098009A04A800200020001B
:1005F00040408800D20037009A24A8002000200044
:1006000040408800CE003700F12480000000280020
:10061000008060000000E00009003200008020003F
:10062000604090008040E800008020006140980019
:1006300040002000502D020000000000C0003700E4
:10064000804080008000D100F00F2000008060001A
:10065000B024880080408000610060000040780085
:100660000004E00003003200B00020004040880099
:10067000B30037003000200040408800B000370051
:10068000F124800000002800008060000000E000ED
:100690000900320000802000604090008040E800A7
:1006A000008020006140980040002000502D020092
:1006B00000000000A20037009A24A80080408000BB
:1006C0004800DE00E6006000000F2000010070001E
:1006D00080408800804080000000A00080408800AA
:1006E00010C0B30012E8B70020002000404088008E
:1006F0009300370012C8BF00E14F50000A003200DB
:1007000060408000100078008040880060408000D9
:1007100020009000A04088006040800020409000B1
:1007200016E8B700010037001268EF008140800032
:10073000F00F2000808F50000900360080408000BC
:100740004800DE00E6006000000F2000010070009D
:10075000B0248800A00020004040880078003700C6
:1007600080408000B02488008040800061006000EC
:10077000004078000004E000030032005000200038
:10078000404088006E003700300020004040880064
:100790006B003700F124800000002800008060001A
:1007A0000000E0000A00320000802000604090005D
:1007B0008040E80000802000614098009FE4A9008C
:1007C00050002000502D0200000000005C003700A7
:1007D00016C8BF008080FB008100E900CF08DE0062
:1007E000814078000040E90016E8B7000104E0000D
:1007F00011003200604080006600400060408800C8
:100800000AC8BF000040E9000AE8B7000AC8BF00F4
:100810000004E00004003A0020002000502D0200F7
:1008200000000000460037009A24A80020002000A5
:100830004040880042003700A0408000904078008F
:100840008180FB00B12488000000E800A0408800FF
:100850003B003700F1248000000028000080600089
:100860000000E0000A00320000802000604090009C
:100870008040E80000802000614098004000200097
:10088000502D0200000000009FE4A9002C0037005A
:100890009A64A800800020004040880028003700AB
:1008A00080002000404088009A64A800240037009F
:1008B000A0408000A1248000814078000148780099
:1008C0000000E800A040880016C8BF000040E90012
:1008D00016E8B70016C8BF000004E00004003200AC
:1008E0009AA4A9006000200040408800030037005F
:1008F0009AA4A8002E2D0200000000009A84A800EF
:100900000F00370020002000502D020000000000E2
:100910000B00370000802000604090008040E8001D
:10092000008020006140980060002000502D0200EF
:10093000000000000000000001003700000000007F
:100940000080FA004F03BE004F02BE004F01BE0000
:100950004F00BE003600F900004006003600F800E7
:10096000809FBE00829FBE00849FBE00869FBE0007
:100970000400FA0030C6B3001EE8B7008E20A900BC
:10098000C0408000E20F500010013200E20F500022
:1009900003003900E30F5000FA0032002F01370046
:1009A0005125800000402000008060000000E00031
:1009B00005003A00712580000002200000806000E0
:1009C0000000E0000D0032005125800000082000EA
:1009D000008060000000E00005003200712580000A
:1009E00000202000008060000000E00003003A00CA
:1009F00021C8BF000004E0006A00320070258000BA
:100A0000640060000000E0002E003A0010C0B30057
:100A10001EE8B70071258000000022000080600001
:100A20000000E0001800320010C0B30021E8B70059
:100A3000B0C0B3001EE8B70020258000004F78004A
:100A4000AAA4A9003DC8BF000004E00009003200CC
:100A50003EC8BF000004A2000004E0000500320010
:100A6000A0C0B30040E8B700C0C0B3001EE8B700A4
:100A700003003700AB84A800D0C0B3001EE8B70065
:100A80002068EF00850037002168EF0020258000F6
:100A9000004F780010002000C040880030C0B30034
:100AA0001EE8B70071258000000220000080600071
:100AB0000000E0007800320010C0B30022E8B70068
:100AC0007600370050C3B3001EE8B70071258000E0
:100AD00000002200008060000000E00018003200EA
:100AE00010C0B30021E8B70050C0B3001EE8B70043
:100AF00020258000004F7800AAA4A9002068EF00FC
:100B00003DC8BF000004E000090032003EC8BF003D
:100B10000004A2000004E00005003200A0C0B30001
:100B20003FE8B70030C3B3001EE8B700CF0037007E
:100B3000AB84A80040C3B3001EE8B70057003700DD
:100B400060C0B3001EE8B70020258000004F780089
:100B50000000EB007C31020000000000AAA4A90004
:100B600020C8BF000080FB0041D222006140780015
:100B70000080FB003025880020C8BF00E64F5000F1
:100B800003003E0020C8BF000040E80020E8B70096
:100B90003E68EF00AB84A80020002000C040880021
:100BA0003E0037005125800000402000008060009A
:100BB0000000E000350032007125800000022000B6
:100BC000008060000000E00030003A0070C0B30018
:100BD0001EE8B70070258000640060000000E0009F
:100BE00006003A0080C0B3001EE8B7002868EF0096
:100BF00030002000C04088002100370090C0B300C2
:100C00001EE8B70028C8BF000004E000170032004B
:100C1000A0C0B3001EE8B7000000EB007C3102006A
:100C200000000000AAA4A90020C8BF000080FB00AB
:100C300041D22200614078000080FB00302588000E
:100C400020C8BF00E64F500003003E0020C8BF0090
:100C50000040E80020E8B7003E68EF00AB84A80041
:100C600020002000C040880005003700B0C0B3005D
:100C70001EE8B7002868EF0030002000C040880060
:100C800020258000004F78000400370040C6B300E4
:100C90001EE8B7000100370000000000C0408000DF
:100CA000E10F50006E003A00C0C0B3001EE8B7006C
:100CB0007125800000022000008060000000E0003C
:100CC00069003200D0C0B3001EE8B7007125800073
:100CD00000042000008060000000E00023003A00D3
:100CE000E0C0B3001EE8B70022C8BF000004E00067
:100CF00003003A0021C8BF000004E00002003200F7
:100D00002268EF00590037001FC8BF00E74F5000AE
:100D100013003E00AAA4A9002025800010479800D7
:100D20001FC8BF000080FB00C1D122001E419000FF
:100D3000827078001FC8BF000040E8001FE8B700BD
:100D40001FC8BF00E84F500003003A0010C0B300B6
:100D50003DE8B700450037003D68EF00430037002D
:100D60002025800020479800400037002025800083
:100D7000004F7800AEC4A900F0C0B3001EE8B70071
:100D80003A003700300020007C31020000000000F3
:100D900056E8B70020C1B3001EE8B70010C0B3008A
:100DA00028E8B70056C8BF000004E0000400320085
:100DB00030C1B3001EE8B70020258000004F780046
:100DC00010002000C04088002800370071258000F6
:100DD00000002800008060000000E00015003A00DC
:100DE0000000EB007C31020000000000AAA4A90072
:100DF00020C8BF000080FB0041D222006140780083
:100E00000080FB003025880020C8BF00E64F50005E
:100E100003003E0020C8BF000040E80020E8B70003
:100E20003E68EF00AB84A80000C1B3001EE8B70025
:100E30000E0037001828EF0020C8BF00E74F500011
:100E400003003E0010C1B3001EE8B70007003700E2
:100E500010CBB3001EE8B70004003700FFFF3700D7
:100E60000000000001003700000000000080FA00D0
:100E70004F03BE004F02BE004F01BE004F00BE0038
:100E80003600F900004006003600F800809FBE00E2
:100E9000829FBE00849FBE00869FBE000000FA00B5
:100EA000104280000000E00002003200104280008A
:100EB00000000100F0D52200104078008040E800DA
:100EC000F0D5220001487800E0D5220011C0B3001F
:100ED0000148780088E0A9000080FA004F03BE00B6
:100EE0004F02BE004F01BE004F00BE003600F900A9
:100EF000004006003600F800809FBE00829FBE00C2
:100F0000849FBE00869FBE000000FA008020A900DA
:100F10000000EB001C370200000000000080FA0017
:100F20004F03BE004F02BE004F01BE004F00BE0087
:100F30003600F900004006003600F800809FBE0031
:100F4000829FBE00849FBE00869FBE000000FA0004
:100F50002C370200000000008040A9001000200093
:100F60001C370200000000000080FA004F03BE00A2
:100F70004F02BE004F01BE004F00BE003600F90018
:100F8000004006003600F800809FBE00829FBE0031
:100F9000849FBE00869FBE000000FA008060A9000A
:100FA000200020001C370200000000000080FA0032
:100FB0004F03BE004F02BE004F01BE004F00BE00F7
:100FC0003600F900004006003600F800809FBE00A1
:100FD000829FBE00849FBE00869FBE000000FA0074
:100FE0008080A900300020001C37020000000000B3
:100FF0000080FA004F03BE004F02BE004F01BE004A
:101000004F00BE003600F900004006003600F80030
:10101000809FBE00829FBE00849FBE00869FBE0050
:101020000000FA008600A900700020001C370200B2
:10103000000000000080FA004F03BE004F02BE0017
:101040004F01BE004F00BE003600F9000040060010
:10105000809FBE000000FA003163810020638100A0
:10106000808F500010003A00416381000010200082
:10107000008060000000E0000B003A00000000006B
:10108000D11C800000102000008060000000E00003
:10109000FBFF3200406381000090A00040638900A4
:1010A0009980A9001D0037008980A900140037002D
:1010B00030638100104078000080FB00E01C880055
:1010C000306381000000E8003063890031638100F3
:1010D000A0C82200808F500002003A00A0C6220063
:1010E00030638900406381000080A1004063890073
:1010F0003163810020638100808F50000600320040
:10110000D11C800000202000008060000000E00072
:10111000E7FF320001003700000000000080FA0005
:101120004F00BE0000400600809FBE000000FA0095
:101130008960A90021003700F01C80000040780081
:1011400048E8B70000638100818420009140780066
:1011500001487800504280006142800061004000F8
:10116000E0804800504288006142880000638100AE
:101170000000E8000063890001638100A0CA22002A
:10118000808F500002003A00A0C82200006389004E
:10119000406381000010A100406389000163810069
:1011A00010638100808F500004003A00406381008A
:1011B0000000A0004063890004003700D01C8000BC
:1011C000610060000000E000DBFF3A000080FA00F0
:1011D0004F00BE0000400600801F78000000FA00AB
:1011E000D01C8000620060000000E00001003200BE
:1011F0009A23A9009020A9000080FA004F007800EF
:10120000004006000040DA000000FE00000005007B
:10121000839F68000100E00002003D0060001000B4
:10122000E08018000300E00002003D0060011100B2
:10123000E0811900050007004F00E00002003B00BC
:1012400060001000E0801800000006006022B80076
:10125000060220000000D0008180D2000482D2006B
:101260008582D2000000A0000202520083825A0050
:10127000030031000202420083824A000000A10004
:101280000603E900F3FF3A00000006008001780041
:1012900002003700B15978000201E9000200E000C5
:1012A000FCFF3A0000000600000000000100000002
:1012B0000200000004000000080000000000000020
:1012C00000000000100000000000000020000000EE
:1012D000400000008000000000010000000200004B
:1012E00000040000000800000010000000200000C2
:1012F000004000000080000002000000000000002C
:1013000000000000000000000000000004000000D9
:1013100008000000000000001000000000000000B5
:1013200000000000000000000000000000000000BD
:1013300000000000000000000000000000000000AD
:10134000000000000000000000010000010100009A
:101350000100000000010000000100000101000088
:101360000101000001010000010100000101000075
:101370000200000001000000020000000400000064
:101380000800000004000000080000001000000039
:10139000100000002000000040000000800000005D
:1013A000000100000002000000040000000800002E
:1013B000001000000020000000400000008000003D
:1013C0000000FA0010002000202688000080200085
:1013D000402688000080EB00502688004034200022
:1013E00060268800003026007026880000862200D3
:1013F0008026880060662000902688000008200073
:10140000A02688008880A90040342000B0268800EB
:1014100000302600C026880000962200D0268800D2
:10142000A0672000E026880000082000F026880041
:1014300089C0A90040312000002788000030260024
:1014400010278800406620002027880000A6220080
:101450003027880000082000402788008B00A90062
:101460004031200050278800003026006027880087
:10147000806720007027880000B62200802788003F
:1014800000082000902788008C80A900F424EF0039
:10149000F624EF00F824EF00FA24EF000008200003
:1014A000E02788008DC0A900FE24EF000025EF0092
:1014B0000225EF000425EF000625EF008FA0A9000C
:1014C000C5E4A800CC04A800D604A800E004A80045
:1014D000EA04A8000080FA00000006000000FA00FC
:1014E0000080FA00000006000000FA000080FA0008
:1014F000000006000000FA00410480000000240003
:10150000008060000000E00003003200740A020066
:101510000000000089C0A9000080FA000000060059
:101520000000FA000080FA00000006000000FA0047
:101530005104800000102000008060000000E000E6
:1015400003003200900A0200000000008B00A90096
:101550000080FA00000006000000FA000080FA0097
:10156000000006000000FA006004800070006000C7
:101570000000E00003003200AC0A0200000000009E
:101580008C80A9000080FA00000006000000FA002C
:101590000080FA00000006000000FA0061048000EC
:1015A00000002400008060000000E0000300320022
:1015B000C60A0200000000008DC0A9000080FA00E9
:1015C000000006000000FA000080FA00000006009B
:1015D0000000FA007104800000002200008060001A
:1015E0000000E00003003200E20A020000000000F8
:1015F0008FA0A9000080FA00000006000200FA0097
:10160000000F78001E007800E20F50001200320038
:10161000E20F500005003E000000E0000A0032002A
:10162000E10F50000A00320013003700E40F5000B1
:101630000D003200E40F500009003900E50F5000A2
:101640000B0032000C003700CC04A8000A00370061
:10165000D604A80008003700E004A8000600370000
:10166000EA04A80004003700F404A80002003700D0
:10167000FE04A800000000000080FA000000060040
:101680000200FA00000F78001E007800E20F500000
:1016900012003200E20F500005003E000000E000A2
:1016A0000A003200E10F50000A0032001300370038
:1016B000E40F50000D003200E40F50000900390023
:1016C000E50F50000B0032000C003700CC04A900DD
:1016D0000A003700D604A90008003700E004A9007A
:1016E00006003700EA04A90004003700F404A9004A
:1016F00002003700FE04A900000000000080FA008C
:10170000000006000400FA00000F7800110798009E
:101710001E007800E20F500014003200E20F50006B
:1017200005003E000000E0000A003200E10F50001A
:101730000B00320019003700E40F50001100320096
:10174000E40F50000C003900E50F5000100032008B
:10175000120037009E009000A12688000F0037007D
:101760009E009000F12688000C0037009E0090003B
:1017700041278800090037009E00900091278800CB
:10178000060037009E009000E12788000300370024
:101790009E00900031288800000000000080FA00C0
:1017A000000006000200FA00000F78001E0078001A
:1017B000E20F500012003200E20F500005003E0020
:1017C0000000E0000A003200E10F50000A00320081
:1017D00013003700E40F50000D003200E40F5000FA
:1017E00009003900E50F50000B0032000C003700F3
:1017F000A02680000B003700F0268000090037008B
:101800004027800007003700902780000500370040
:10181000E0278000030037003028800001003700F7
:101820000000EB000080FA00000006000200FA0051
:10183000000F78001E007800E20F50001200320006
:10184000E20F500005003E000000E0000A003200F8
:10185000E10F50000A00320013003700E40F50007F
:101860000D003200E40F500009003900E50F500070
:101870000B0032000C003700CD04A8000A0037002E
:10188000D704A80008003700E104A80006003700CC
:10189000EB04A80004003700F504A800020037009C
:1018A000FF04A800000000000080FA00000006000D
:1018B0000400FA00000F7800110798001E0078005D
:1018C000E20F500014003200E20F500005003E000D
:1018D0000000E0000A003200E10F50000B0032006F
:1018E00019003700E40F500011003200E40F5000DF
:1018F0000C003900E50F50001000320012003700D4
:101900009E009000812688000F0037009E00900006
:10191000D12688000C0037009E0090002127880007
:10192000090037009E0090007127880006003700EC
:101930009E009000C1278800030037009E009000A1
:1019400011288800000000000080FA000000060056
:101950000400FA00000F7800110798001E007800BC
:10196000E20F500014003200E20F500005003E006C
:101970000000E0000A003200E10F50000B003200CE
:1019800019003700E40F500011003200E40F50003E
:101990000C003900E50F5000100032001200370033
:1019A0009E009000912688000F0037009E00900056
:1019B000E12688000C0037009E0090003127880047
:1019C000090037009E00900081278800060037003C
:1019D0009E009000D1278800030037009E009000F1
:1019E00021288800000000000080FA0000000600A6
:1019F0000200FA00000F78001E007800E20F50008D
:101A000022003200E20F500005003E000000E0001E
:101A10000A003200E10F500012003200430037008C
:101A2000E40F50002D003200E40F50002100390077
:101A3000E50F5000330032003C0037006026800084
:101A40004800DE00614060000080FB0000F0A7005D
:101A50000000EA000000EA004F00DE0000407800CD
:101A600033003700B02680004800DE00614060008F
:101A70000080FB0000F0A7000000EA000000EA0080
:101A80004F00DE000040780029003700002780006A
:101A90004800DE00614060000080FB0000F0A7000D
:101AA0000000EA000000EA004F00DE00004078007D
:101AB0001F003700502780004800DE0061406000B2
:101AC0000080FB0000F0A7000000EA000000EA0030
:101AD0004F00DE000040780015003700A02780008E
:101AE0004800DE00614060000080FB0000F0A700BD
:101AF0000000EA000000EA004F00DE00004078002D
:101B00000B003700F02780004800DE0061406000D5
:101B10000080FB0000F0A7000000EA000000EA00DF
:101B20004F00DE0000407800010037000040EB006D
:101B30000080FA00000006000200FA00000F7800A2
:101B40001E007800E20F500022003200E20F500029
:101B500005003E000000E0000A003200E10F5000E6
:101B60001200320043003700E40F50002D00320015
:101B7000E40F500021003900E50F5000330032001F
:101B80003C003700702680004F00DE0000407800E7
:101B90000080FB0000F0A7000000EA000000EA005F
:101BA0004F00DE000040780033003700C026800080
:101BB0004F00DE00004078000080FB0000F0A7002E
:101BC0000000EA000000EA004F00DE00004078005C
:101BD00029003700102780004F00DE000040780009
:101BE0000080FB0000F0A7000000EA000000EA000F
:101BF0004F00DE00004078001F00370060278000A3
:101C00004F00DE00004078000080FB0000F0A700DD
:101C10000000EA000000EA004F00DE00004078000B
:101C200015003700B02780004F00DE00004078002C
:101C30000080FB0000F0A7000000EA000000EA00BE
:101C40004F00DE00004078000B00370000288000C5
:101C50004F00DE00004078000080FB0000F0A7008D
:101C60000000EA000000EA004F00DE0000407800BB
:101C7000010037000040EB000080FA000000060081
:101C80000200FA00000F78001E007800E20F5000FA
:101C900022003200E20F500005003E000000E0008C
:101CA0000A003200E10F50001200320043003700FA
:101CB000E40F50002D003200E40F500021003900E5
:101CC000E50F5000330032003C00370070268000E2
:101CD0004700DE00614060000080FB0000F0A700CC
:101CE0000000EA000000EA004F00DE00004078003B
:101CF00033003700C02680004700DE0061406000EE
:101D00000080FB0000F0A7000000EA000000EA00ED
:101D10004F00DE00004078002900370010278000C7
:101D20004700DE00614060000080FB0000F0A7007B
:101D30000000EA000000EA004F00DE0000407800EA
:101D40001F003700602780004700DE006140600010
:101D50000080FB0000F0A7000000EA000000EA009D
:101D60004F00DE000040780015003700B0278000EB
:101D70004700DE00614060000080FB0000F0A7002B
:101D80000000EA000000EA004F00DE00004078009A
:101D90000B003700002880004700DE006140600033
:101DA0000080FB0000F0A7000000EA000000EA004D
:101DB0004F00DE0000407800010037000040EB00DB
:101DC0000080FA00000006000200FA00000F780010
:101DD0001E007800E20F500022003200E20F500097
:101DE00005003E000000E0000A003200E10F500054
:101DF0001200320043003700E40F50002D00320083
:101E0000E40F500021003900E50F5000330032008C
:101E10003C003700702680004600DE006140600014
:101E20000080FB0000F0A7000000EA000000EA00CC
:101E30004F00DE000040780033003700C0268000ED
:101E40004600DE00614060000080FB0000F0A7005B
:101E50000000EA000000EA004F00DE0000407800C9
:101E600029003700102780004600DE006140600036
:101E70000080FB0000F0A7000000EA000000EA007C
:101E80004F00DE00004078001F0037006027800010
:101E90004600DE00614060000080FB0000F0A7000B
:101EA0000000EA000000EA004F00DE000040780079
:101EB00015003700B02780004600DE00614060005A
:101EC0000080FB0000F0A7000000EA000000EA002C
:101ED0004F00DE00004078000B0037000028800033
:101EE0004600DE00614060000080FB0000F0A700BB
:101EF0000000EA000000EA004F00DE000040780029
:101F0000010037000040EB000080FA0000000600EE
:101F10000200FA00000F78001E007800E20F500067
:101F200022003200E20F500005003E000000E000F9
:101F30000A003200E10F5000120032004300370067
:101F4000E40F50002D003200E40F50002100390052
:101F5000E50F5000330032003C003700702680004F
:101F60004500DE00614060000080FB0000F0A7003B
:101F70000000EA000000EA004F00DE0000407800A8
:101F800033003700C02680004500DE00614060005D
:101F90000080FB0000F0A7000000EA000000EA005B
:101FA0004F00DE0000407800290037001027800035
:101FB0004500DE00614060000080FB0000F0A700EB
:101FC0000000EA000000EA004F00DE000040780058
:101FD0001F003700602780004500DE006140600080
:101FE0000080FB0000F0A7000000EA000000EA000B
:101FF0004F00DE000040780015003700B027800059
:102000004500DE00614060000080FB0000F0A7009A
:102010000000EA000000EA004F00DE000040780007
:102020000B003700002880004500DE0061406000A2
:102030000080FB0000F0A7000000EA000000EA00BA
:102040004F00DE0000407800010037000040EB0048
:102050000080FA00000006000200FA00000F78007D
:102060001E007800E20F500022003200E20F500004
:1020700005003E000000E0000A003200E10F5000C1
:102080001200320043003700E40F50002D003200F0
:10209000E40F500021003900E50F500033003200FA
:1020A0003C003700702680004300DE006140600085
:1020B0000080FB0000F0A7000000EA000000EA003A
:1020C0004F00DE000040780033003700C02680005B
:1020D0004300DE00614060000080FB0000F0A700CC
:1020E0000000EA000000EA004F00DE000040780037
:1020F00029003700102780004300DE0061406000A7
:102100000080FB0000F0A7000000EA000000EA00E9
:102110004F00DE00004078001F003700602780007D
:102120004300DE00614060000080FB0000F0A7007B
:102130000000EA000000EA004F00DE0000407800E6
:1021400015003700B02780004300DE0061406000CA
:102150000080FB0000F0A7000000EA000000EA0099
:102160004F00DE00004078000B00370000288000A0
:102170004300DE00614060000080FB0000F0A7002B
:102180000000EA000000EA004F00DE000040780096
:10219000010037000040EB000080FA00000006005C
:1021A0000200FA00000F78001E007800E20F5000D5
:1021B00022003200E20F500005003E000000E00067
:1021C0000A003200E10F50001200320043003700D5
:1021D000E40F50002D003200E40F500021003900C0
:1021E000E50F5000330032003C00370070268000BD
:1021F0004400DE00614060000080FB0000F0A700AA
:102200000000EA000000EA004F00DE000040780015
:1022100033003700C02680004400DE0061406000CB
:102220000080FB0000F0A7000000EA000000EA00C8
:102230004F00DE00004078002900370010278000A2
:102240004400DE00614060000080FB0000F0A70059
:102250000000EA000000EA004F00DE0000407800C5
:102260001F003700602780004400DE0061406000EE
:102270000080FB0000F0A7000000EA000000EA0078
:102280004F00DE000040780015003700B0278000C6
:102290004400DE00614060000080FB0000F0A70009
:1022A0000000EA000000EA004F00DE000040780075
:1022B0000B003700002880004400DE006140600011
:1022C0000080FB0000F0A7000000EA000000EA0028
:1022D0004F00DE0000407800010037000040EB00B6
:1022E0000080FA00000006000000FA0083E0A80069
:1022F00000000000000000000080FA00000006005E
:102300000000FA0083E0A9000000000000000000C7
:102310000080FA00000006000200FA00D0C0B300FE
:10232000004F7800A0C0B300104798003CC8BF0021
:102330000004E00004003200210020000E007800BC
:1023400030220200000000008100200040D3220063
:1023500030220200000000003CC8BF000004E00082
:1023600008003200210020000E0078003022020018
:1023700000000000210020000E0078003022020042
:10238000000000003B68EF000080FA00000006003B
:102390000200FA00000F780040D3220051C4B300BD
:1023A0000148780051D322001E0078004E2402001C
:1023B00000000000A0D3220051C5B30001487800FE
:1023C000B0D3220051C5B300014878000080FA0064
:1023D000000006002200FA00C0D2220090407800DF
:1023E00040D3220001487800D0D2220090407800EB
:1023F00050D3220001487800E0D2220090407800BB
:1024000060D3220001487800F0D22200904078008A
:1024100070D322000148780000D322009040780059
:1024200080D322000148780010D322009040780029
:1024300090D322000148780020D3220090407800F9
:10244000A0D322000148780030D3220090407800C9
:10245000B0D3220001487800C0D22200104078009A
:102460000080FB0011082000810F50008D00320019
:1024700011082000810F500011003C0021042000B1
:10248000810F50002200320021042000810F5000F3
:1024900004003C0011022000810F5000190232009C
:1024A0001402370021052000810F50003E00320049
:1024B00061052000810F5000640032000D023700DA
:1024C00051082000810F5000E50032005108200023
:1024D000810F500007003C0031082000810F5000A0
:1024E0009A00320041082000810F5000B4003200F1
:1024F00000023700110A2000810F5000F400320062
:10250000410A2000810F500040013200F9013700DC
:10251000D0D2220090407800F0C6B30080CF5000A7
:10252000FA013A00E0D2220090407800F0C4B300F3
:1025300080CF5000F7013A00F0D22200904078009E
:1025400040C7B30080CF5000F4013A0000D322000E
:1025500090407800C0C4B30080CF5000F1013A0031
:1025600010D3220090407800F0C6B30080CF500016
:10257000EE013A0020D322009040780010C4B3004E
:1025800080CF5000EB013A0030D322009040780019
:1025900040C6B30080CF5000E8013A0010C0B3003D
:1025A0002CE8B700EA013700D0D222009040780032
:1025B00050C6B30080CF500021003A00E0D2220084
:1025C0009040780030C5B30080CF50001C003A0026
:1025D000F0D222009040780050C6B30080CF500067
:1025E00017003A0000D322009040780040C5B300A5
:1025F00080CF500012003A0010D3220090407800A3
:1026000010C2B30080CF50000D003A0020D322004A
:102610009040780030C2B30080CF500008003A00EC
:1026200030D3220090407800A0C2B30080CF500089
:1026300003003A00DE2E020000000000C401370053
:102640004000200052FF0700C101370050D3220094
:1026500021C4B3000148780060D3220011C3B30045
:102660000148780070D3220081C3B300014878008C
:1026700080D3220021C4B3000148780090D3220007
:1026800021C3B30001487800A0D3220001C3B300E6
:1026900001487800B0D3220031C3B300014878006C
:1026A000AB013700D0D2220010407800D7010700DC
:1026B000100798001E0090008040780060D3220030
:1026C000014878001E0090004800DE00804078003D
:1026D00070D3220001487800D0D222001040780048
:1026E0000040E800C9010700100798001E00900094
:1026F0008040780080D32200014878001E009000BE
:102700004800DE008040780090D322000148780025
:10271000D0D222001040780000C0E800BB010700C2
:10272000100798001E00900080407800A0D322007F
:10273000014878001E0090004800DE0080407800CC
:10274000B0D322000148780081013700D0D22200A6
:10275000104078008080FB00E0D22200104078001A
:102760000080FB004800DD0000804000200798004A
:10277000AE009000F0FF2100808F500071013E00FC
:10278000F1FF21002E009000008F50001E00780005
:10279000E70F50000200360070002000000F7800A4
:1027A000AE009000008620008080400050D32200C0
:1027B0001E01780046090200000000006401370095
:1027C000D0D22200104078008080FB00E0D22200AE
:1027D000104078000080FB004800DD0000804000D1
:1027E00080428800F0D22200104078000080FB0078
:1027F000300798003E009000E40F500003003600C0
:1028000070002000E2FE0700510137008142800085
:102810003E00900080804000F0FF2100808F50003B
:102820000C003E0001D3220082428000008620007E
:10283000000041003E019000460902000000000037
:10284000814280003E00900000804000804288006D
:102850003F01370080002000CDFE07003C0137001B
:1028600081428000F0FF2100808F500037013E0040
:1028700080428000F1FF2100008050004007980056
:102880004E009000E60F50000E0036007000200051
:1028900040079800D1D222008242800000862000AA
:1028A000000041004E0190004609020000000000B7
:1028B000814280004E0090000080400080428800ED
:1028C0002301370090002000B1FE070020013700EF
:1028D000D0D22200104078000081FB008001EB0084
:1028E000E0D22200104078000082FB008002EB0062
:1028F0004828DD00C820DE00810070004820DD008F
:102900000201400083814800F0D22200104078008C
:102910000080FB008000EB00C000DD000000200014
:10292000020140008381480000D32200104078005B
:102930000080FB008000EB00C800DD0000002000EC
:10294000020040008380480050079800610798000B
:102950000000EB00700798005E00900061006000CE
:10296000004078000004E00003003200A0002000D6
:1029700087FE0700F600370061FE0700A002800016
:10298000005798005E009000EE0090004008DE00C6
:1029900000007800A00288005E0090001000BA00DD
:1029A000700798007E0090008040780080D322005D
:1029B000014878007E0090004800DE0080407800EA
:1029C00090D32200014878005E0090001080BA0089
:1029D000700798000E5090000080FB00A002880055
:1029E00041FE07007E00900080407800A0D32200C6
:1029F000014878007E0090004800DE0080407800AA
:102A0000B0D3220001487800D1003700D0D2220094
:102A1000104078000080FB00E10F500048003200B9
:102A2000E10F500003003C000000E000060032000F
:102A3000C7003700E20F500078003200E30F50006B
:102A400086003200C2003700E0D222001040780039
:102A50000081FB008001EB00F0D2220010407800E2
:102A60000082FB008002EB004828DD00C820DE0069
:102A7000810070004820DD00020140008381480091
:102A800000D32200104078000080FB008000EB00A3
:102A9000C000DD00000020000201400083814800EA
:102AA00010D32200104078000080FB008000EB0073
:102AB000C800DD00000020000200400083804800C4
:102AC0008100D1000080D300100F9800210F9800E2
:102AD0001E099000AE099000F0FF230001002000C5
:102AE000800F5100818F590003003E00B00020008C
:102AF00027FE0700110037001E089000AE08900066
:102B00004008DE0000007800203B88001E0890008E
:102B1000103B880030002400003B88000600FC00C9
:102B200050052000303B8800A00A2000303B880080
:102B300061E7A80000000000000000006C00370002
:102B4000E0D22200104078000081FB008001EB0001
:102B5000F0D22200104078000082FB008002EB00DF
:102B60004828DD00C820DE00810070004820DD001C
:102B7000020140008381480000D322001040780009
:102B80000080FB008000EB00C000DD0000002000A2
:102B9000020140008381480010D3220010407800D9
:102BA0000080FB008000EB00C800DD00000020007A
:102BB00002004000838048008100D1000080D300E3
:102BC000300F9800410F98003E099000CE09900008
:102BD000F0FF230001002000800F5100818F590079
:102BE00003003E00B0002000E9FD07000A003700A6
:102BF00050052000A10A2000203202000000000041
:102C000000862000000178003E089000CE08900069
:102C100006330200000000003500370002802B0060
:102C20001300200000002400010020007E2F02007D
:102C300000000000804180008040780060D32200C6
:102C400001487800804180004800DE008040780024
:102C500070D32200014878002500370080418000B1
:102C60008040780060D322000148780080418000D5
:102C70004800DE008040780070D3220001487800D0
:102C800040C02F0011002000500F9800610F9800E5
:102C90000000EB00700F980099FD0700A002800073
:102CA0000067980010002000A002880040802F00DC
:102CB0001000BA00700F98000E6090000080FB00BA
:102CC000A002880088FD07007E0890008040780000
:102CD00080D32200014878007E0890004800DE0082
:102CE0008040780090D32200014878000000000066
:102CF0001700370050002000A5FD0700000000006D
:102D00001300370000000000110037000000000031
:102D10000F003700000000000D0037000000000029
:102D20000B00370000000000090037000000000021
:102D30000700370000000000050037000000000019
:102D40000300370000000000010037000000000011
:102D50000080FA00000006000000FA001FC8BF0053
:102D6000E74F5000270036003E68EF008200200049
:102D7000C1D12200C0D2220046090200000000009A
:102D80001F68EF0040C8BF000004E00002003200EE
:102D90003F68EF00AB84A8008EFD070058FD0700D8
:102DA0008200200041D3220040D2220046090200C6
:102DB0000000000010C0B3003EE8B7003D68EF001F
:102DC00040C8BF000004E000020032004068EF008D
:102DD0003E68EF003FC8BF000004E000080032007A
:102DE0003EC8BF000004E000050032003F68EF006D
:102DF0004068EF00AB84A8003E68EF002068EF0059
:102E000039FD07000080FA00000006000600FA0005
:102E100040479800CE40900020C4B30080CF5000BF
:102E200012003A00D22A0200000000008000EB00ED
:102E3000008FBE001E01BE004A18DD00C610DE0075
:102E4000810070004A10DD00008FBE001E00BE0031
:102E5000024B2000030020002609020000000000B1
:102E6000008FBE001E0078000E003700CE4090009C
:102E700060C4B30080CF500003003A00082A02006B
:102E80000000000007003700CE40900050C5B3009E
:102E900080CF500002003A00505525000100370055
:102EA0000000EB000080FA00000006000000FA00BD
:102EB0005821EF005A21EF005E21EF005C21EF0066
:102EC0006621EF006421EF005821EF00F0002000A0
:102ED000D00A880059E1A80010022100E00A880009
:102EE0005E21EF00F04C2800200B88006621EF00E7
:102EF0006000B800106A8900216A89000000EB00B8
:102F0000F06989000080FA00000006000800FA005D
:102F1000306A8100416A810000007800008FEA0079
:102F2000A1028000110798005881A9009060A900B3
:102F3000306A8100416A81004008DE0000007800AC
:102F4000A002880021003700306A8100416A8100B8
:102F5000000078001000BA0020079800306A810055
:102F6000416A810061004000E0804800306A8900C9
:102F7000416A8900306A8100416A8100000078005E
:102F80001080BA0030079800306A8100416A8100E1
:102F900061004000E0804800306A8900416A890091
:102FA000AE009000010B8800BE009000110B88005D
:102FB000106A8100216A810063005000E08058009F
:102FC000106A8900216A89001E8FE900C10A800009
:102FD00000082000008060000000E00008003A00C7
:102FE000106A8100216A8100E00F5000E08F5800D4
:102FF000030032001E0078000000E000D2FF3A001B
:103000009E009000A10288005881A800106A8100EB
:10301000216A8100E00F5000E08F580002003A0062
:1030200010C0B300010037000040EB000080FA0040
:10303000000006000000FA00C10A8000000820001D
:10304000008060000000E000020032000040EB0061
:103050005D0037009060A900C0D3220010407800C6
:10306000E84F500018003E000C0037000116200009
:10307000306A810010417800824878000000E80042
:10308000306A8900106A8100216A81006100500065
:10309000E0805800106A8900216A8900C10A800016
:1030A00000082000008060000000E0003D003A00C1
:1030B000106A8100216A8100E00F5000E08F580003
:1030C000EAFF3A0037003700C0D3220010407800F2
:1030D000F04F500028003E000B003700306A81009E
:1030E00090007800010B88000080E800306A8900B9
:1030F000106A8100216A810062005000E08058005F
:10310000106A8900216A8900C10A80000008200035
:10311000008060000000E00022003A00106A810098
:10312000216A8100E00F5000E08F5800EBFF3A0069
:103130001C003700306A810090007800010B880085
:103140000080E800306A8900306A810090007800D1
:10315000110B88000080E800306A8900106A810045
:10316000216A810064005000E0805800106A8900E4
:10317000216A89000100370000000000C10A8000B8
:1031800000082000008060000000E00005003A0018
:10319000106A8100216A8100E00F5000E08F580022
:1031A000E4FF3A005881A800106A8100216A81007A
:1031B000E00F5000E08F580002003A0010C0B3004A
:1031C000010037000040EB000080FA00000006001C
:1031D0000000FA0080048000680060000000E00049
:1031E000210032005881A9009060A900D0D32200AC
:1031F000104078000040E9007F4060000080FB0044
:103200007F0060004800DD00D20A8000F10F2E0030
:103210008100610001007000D00A8800D0D3220034
:1032200010407800E84F500004003E0000162000D7
:103230008040EB000148780008003700D0D322001E
:1032400010407800F04F500002003E006021EF0077
:10325000020037006021EF006221EF005881A800D2
:1032600010C0B300010037000040EB000080FA00FE
:10327000000006000000FA00800480006800600082
:103280000000E00010003200C0D32200104078009F
:103290000040E9007F4060000080FB007F0060008C
:1032A0004800DD00D20A8000F10F2E00810061008D
:1032B00001007000D00A88005881A9009060A90020
:1032C00010C0B300010037000040EB000080FA009E
:1032D000000006000C00FA00400798005107980013
:1032E0001000200001002000008FBE00D0D322007B
:1032F000104078000080FB000001E9001E00BE00C5
:10330000820178008301E9000300330000004000DF
:1033100081804800FBFF3700008FBE006000B800CE
:103320002007980031079800160037004E009000E3
:1033300061006000004078000004E00007003200F7
:103340002E009000BE0090003E017000AE81700023
:103350000200BE0020079800310798001E00BE0042
:103360008100D1000080D300008FBE004E0090008D
:10337000DE0090008100D1000080D300400798005B
:10338000510798004E009000DE009000E00F5000C2
:10339000E08F5800E5FF3A002E009000BE0090003C
:1033A0000080FA00000006000800FA006000B80083
:1033B000008FBE006000B800200798003107980019
:1033C0000B0037001E00BE00000040008180480056
:1033D000008FBE001E00A0002E009000BE009000D6
:1033E00061004000E0804800200798003107980005
:1033F000D0D32200104078000081FB008001EB0058
:103400002E009000BE009000800F5100818F590067
:10341000ECFF3E001E00BE000080FA000000060027
:103420000A00FA0010079800210798003207980058
:1034300043079800C00A80004300DE00614060003E
:10344000004F7800D00A80004800DE007F40600016
:10345000104798003E009000E10F500008003A002D
:103460001E009000200B88001E009000AE0090000F
:103470004008DE0000007800300B8800480037006C
:10348000D00A8000004078007F4060000080FB0090
:103490007F0060004800DD00D20A8000F10F2E009E
:1034A0008100610001007000D00A88004E00900089
:1034B00000407800614060000080FB006100600017
:1034C0004300DD00C10A80000130A100010070004E
:1034D000C00A8800D0D3220010407800E84F500086
:1034E00005003E00001620009E00900081407800FC
:1034F000014878000E003700D0D322001040780039
:10350000F04F500003003E001E009000000B8800AA
:10351000070037001E009000000B88001E0090007E
:10352000AE0090004008DE0000007800100B88001C
:103530009060A9005881A80000000000800480006D
:10354000680060000000E000FCFF32005881A90024
:103550009E40780061C060000080FB006100600058
:103560004300DD00C10A80000130A10001007000AD
:10357000C00A88009060A9001E4090007F40600053
:103580000080FB007F0060004800DD00D20A800060
:10359000F10F2E008100610001007000D00A880048
:1035A0000080FA00000006000600FA00000F780014
:1035B0001207980023079800D00A80004800DE0018
:1035C0007F4060008040E800C0D3220001487800BE
:1035D000D00A8000004078007F4060008040E80012
:1035E000D0D32200014878001E019000AE01900067
:1035F000126A8900236A89009E017800336A890073
:103600000000EB00F069890000D422008040EB004C
:10361000014878005881A8000080FA0000000600E8
:103620000800FA00008FBE002207980033079800B8
:10363000D00A80004800DE007F4060008040E80043
:10364000C0D3220001487800D00A800000407800F2
:103650007F4060008040E800D0D32200014878001D
:103660002E019000BE019000126A8900236A890031
:103670001E01BE00326A8900436A89000000EB0027
:10368000F069890000D4220011C0B300014878001D
:10369000D10A800000F0210001007000D00A8800EB
:1036A0005881A8000080FA00000006000000FA001F
:1036B0000080FA00000006000000FA00F0698100B6
:1036C000E10F500017003200E10F500005003900F3
:1036D000E20F500019003200E30F500020003200CA
:1036E0001C00370000D42200104078000004E000E5
:1036F0000600320005FE07000004E0001A00320058
:1037000010002000F06989001E00370049FE070004
:103710000004E0001600320010002000F06989006B
:1037200018003700AAFE07000004E0001200320073
:1037300020002000F069890012003700CDFE07004C
:103740000004E0000E00320030002000F069890023
:103750000C0037005821EF005A21EF000900370014
:1037600000000000070037000000000005003700DF
:1037700000000000030037000000000001003700D7
:103780000000000080048000680060000000E0008D
:1037900002003200561B0200000000000080FA0008
:1037A000000006000000FA00F06981006300680074
:1037B00000F0A7000000EA000000E9004F00DE0072
:1037C000004078000080FA00000006000400FA00C3
:1037D000D0D3220010407800E84F500012003E0085
:1037E000200B80006101B800F00F200001002000D4
:1037F000020278008301780000017800010078005F
:1038000002016200008061008000EB00C000DD006A
:1038100000002000008FBE006110B8001E1F700065
:103820001E97700013003700D0D32200104078009C
:10383000F04F500004003E00200B80008000EB00A1
:10384000008FBE000B003700300B80008000EB00C3
:10385000008FBE001E00BE00C000DD000000200082
:10386000008FBE00200B80008000EB001E1F700048
:103870001E9770001E00BE000080FA0000000600C7
:103880000400FA00D1FF0700008FBE001E00BE003A
:1038900090FE07000080FA00000006000800FA0011
:1038A0002007980031079800C8FF0700008FBE006E
:1038B0001E01BE002E009000BE009000001F690097
:1038C00001976900B8FE07000001BE001E00BE009F
:1038D000020278000301780080017800010078007E
:1038E00003026200000061008000EB00C000DD0008
:1038F000000020000001BE006120B800000171003E
:10390000818171000200BE000080FA000000060004
:103910000A00FA00404798003207980043079800D1
:10392000AAFF0700008FBE004E4090000004E00098
:1039300003003200D2FF0700008FBE0002003700F4
:10394000A2FF0700008FBE001E01BE003E009000D7
:10395000CE009000001F69000197690092FE0700E9
:103960000001BE001E00BE000202780003017800C4
:10397000800178000100780003026200000061000D
:103980008000EB00C000DD00000020000001BE0050
:103990006120B80000017100818171000200BE0049
:1039A0000080FA00000006000000FA002AC8BF00EC
:1039B000F34F5000020036000000EB000600370015
:1039C0002AC8BF000080FB0080004000809B2800C8
:1039D00000804000100078000080FA00000006001F
:1039E0000200FA00004F7800114798001E4078004E
:1039F0003B0007000004A2000004E00035003A008C
:103A00001E80FB00419A2800614078000080FB0086
:103A10000000E00003003200E10F50001700320008
:103A20002D0037001E4090000004E0000900320025
:103A30001E80FB0080004000809B2800008040002A
:103A400090007800503380000100700050338800EF
:103A5000210037001E80FB0080004000809B280072
:103A600000804000100078008080EA005033800021
:103A70000080600050338800170037001E4090001F
:103A80000004E000090032001E80FB0080004000BE
:103A9000809B28000080400090007800F033800078
:103AA00001007000F03388000B0037001E80FB001F
:103AB00080004000809B28000080400010007800BB
:103AC0008080EA00F033800000806000F0338800DE
:103AD00001003700000000000080FA00000006002E
:103AE0000200FA00004F78001E80FB000000E0009A
:103AF00007003500E50F500003003400710050004E
:103B0000E30F500002003E0010C0B3000100370078
:103B10000040EB000080FA00000006000000FA0000
:103B20002AC8BF00F34F50000200360000C0EB006F
:103B3000040037002AC8BF000080FB00419A28001B
:103B4000614078000080FA00000006000600FA00DC
:103B5000404798000000EB00000F780010C0B30051
:103B6000204798004E409000F34F500011003E0057
:103B70004E4090000080FB008000400040952800EF
:103B800000804000100F78001E0078000000E00068
:103B900008003A004E4090000080FB00800040008A
:103BA000C097280000804000100F78000040EB0014
:103BB000204798002E4090000004E00008003200EA
:103BC000C03380001E0060000000E00002003200F0
:103BD00010C0B300090037000040EB0007003700B9
:103BE000203380001E0060000000E0000200320070
:103BF00010C0B300010037000040EB000080FA0065
:103C0000000006000600FA004047980066FF070023
:103C1000000F7800C1FF0700204798002E40900059
:103C20000004E00009003A009E80EA0010338000A2
:103C300000806000103388009E80EA0050338000CE
:103C400000806000503388000B0037002E40900049
:103C5000E14F500008003A009E80EA00B033800037
:103C600000806000B03388009E80EA00F03380005E
:103C700000806000F03388000080FA000000060039
:103C80000600FA00404798004E4090000080FB007C
:103C900080004000809B280000804000100F7800CA
:103CA0004E4090000080FB00419A2800614178005E
:103CB000224798002E4090000004E00008003A00DF
:103CC000103380001E007000103388009E80EA00D0
:103CD0005033800000806000503388000A003700B5
:103CE0002E409000E14F500007003A00B0338000B2
:103CF0001E007000B03388009E80EA00F033800020
:103D000000806000F03388000080FA0000000600A8
:103D10000000FA002AC8BF008CFF07000080FA00EC
:103D2000000006000200FA00004F78001E407800F4
:103D3000E54F500002003E0010C0B30009003700FC
:103D40001E407800EA4F5000050036001E40780003
:103D5000F44F500002003E0010C0B30001003700D5
:103D60000040EB000080FA00000006000600FA00A8
:103D700040479800514798000000EB00000F780082
:103D800010C0B300204798004E409000F34F500001
:103D900011003E004E4090000080FB00800040007B
:103DA0004095280000804000100F78001E00780029
:103DB0000000E00008003A004E4090000080FB0048
:103DC00080004000C097280000804000100F78005D
:103DD0000040EB00204798005E4090000004E000A7
:103DE0001A003A001E8FEA002E4090000004E00006
:103DF0000B0032009E00780000962200E82B0200A3
:103E000000000000D03380001E006000D033880026
:103E1000B03380001E006000B033880039003700E6
:103E20009E00780000862200E82B020000000000BF
:103E3000303380001E006000303388001033800073
:103E40001E006000103388002E0037005E40900096
:103E5000E14F50001E003A002E4090000004E000A8
:103E60000C0032009E00780000962200E02A02003A
:103E700000000000D03380001E007000D0338800A6
:103E80009E80EA00B033800000806000B03388007C
:103E90001C003700103380001E00600010338800C3
:103EA0009E00780000862200E02A02000000000048
:103EB000303380001E007000303388009E80EA009E
:103EC0001033800000806000103388000D00370040
:103ED0005E409000E24F50000A003A002E409000F1
:103EE0000004E00004003200B03380001E007000C7
:103EF000B033880003003700103380001E007000CC
:103F0000103388000080FA00000006000000FA006C
:103F10002AC8BF005AFF07000080FA000000060010
:103F20000400FA00A0FE0700000F7800FBFE070067
:103F3000204798002E4090000004E00007003A005F
:103F4000103380001E007000103388005033800052
:103F50001E00700050338800090037002E4090008A
:103F6000E14F500006003A00B03380001E007000A0
:103F7000B0338800F03380001E007000F0338800FA
:103F80000080FA00000006000200FA00004F7800EE
:103F90002AC8BF009E40780074FF07000080FA0026
:103FA000000006000200FA00004F78008040EB009D
:103FB0001E4078006DFF07000080FA000000060038
:103FC0000200FA00004F780011C0B3001E407800D4
:103FD00066FF07000080FA00000006000200FA00F9
:103FE000004F7800114798001E407800F34F5000B2
:103FF00035003E001E80FB00419A28006140780099
:104000000080FB000000E00003003200E10F5000E0
:10401000170032002D0037001E4090000004E00021
:10402000090032001E80FB0080004000809B2800B9
:104030000080400090007800903380000100700004
:1040400090338800210037001E80FB008000400074
:10405000809B280000804000100078008080EA00EB
:104060009033800000806000903388001700370094
:104070001E4090000004E000090032001E80FB009A
:1040800080004000809B2800008040009000780065
:104090003034800001007000303488000B0037009D
:1040A0001E80FB0080004000809B280000804000B4
:1040B000100078008080EA003034800000806000CA
:1040C0003034880001003700000000000080FA0052
:1040D000000006000200FA00004F78001147980027
:1040E0001E407800F34F500035003E001E80FB005C
:1040F000419A2800614078000080FB000000E00049
:1041000003003200E10F5000170032002D0037008D
:104110001E4090000004E000090032001E80FB00F9
:1041200080004000809B28000080400090007800C4
:10413000A033800001007000A03388002100370008
:104140001E80FB0080004000809B28000080400013
:10415000100078008080EA00A033800000806000BA
:10416000A0338800170037001E4090000004E000D4
:10417000090032001E80FB0080004000809B280068
:104180000080400090007800403480000100700002
:10419000403488000B0037001E80FB008000400088
:1041A000809B280000804000100078008080EA009A
:1041B00040348000008060004034880001003700F7
:1041C000000000000080FA00000006000200FA0073
:1041D000004F78008040EB001E407800BDFF0700D4
:1041E00011C0B3001E4078007CFF07000080FA0079
:1041F000000006000200FA00004F78008040EB004B
:104200001E40780075FF070011C0B3001E40780003
:10421000B0FF07000080FA00000006000000FA006E
:104220002AC8BF0066FF07000080FA0000000600F1
:104230000000FA002AC8BF005AFF07000080FA00F9
:10424000000006000000FA002AC8BF00DFFF0700D8
:104250000080FA00000006000000FA002AC8BF0033
:104260008040EB005DFF07000080FA0000000600C0
:104270000000FA002AC8BF00DEFF07000080FA0035
:10428000000006000000FA002AC8BF008040EB00D2
:1042900090FF07000080FA00000006000000FA000E
:1042A00080002000C01C88009A23EF00200220001C
:1042B000001D8800A223EF009960A80045010700B7
:1042C000A0C6220030638900A0C6220020638900B6
:1042D000A0C8220010638900A0C8220000638900E2
:1042E000406381000010A0004063890040638100AA
:1042F0000090A00040638900406381000080A1001D
:1043000040638900406381000000A1004063890090
:104310000080FA00000006000200FA000040EB00F6
:10432000004F780010638100104F78001063810007
:104330000000E8001063890011638100A0CA220018
:10434000808F500002003A00A0C82200106389004C
:104350001163810000638100808F500003003A00E8
:10436000406381000010A000406389004063810029
:104370000000A100406389001E4078000080FA0020
:10438000000006000600FA00881F78001007980059
:10439000210798009960A9000000EB00000F780049
:1043A0000900370040638100620060000000E00007
:1043B0000A003A001E0090001E044000D6FF0700CD
:1043C000004C78001E0FE8002E0090009E00780040
:1043D000808F5000F3FF390001003700000000001B
:1043E0009960A8001E0078004F0478000080FA0051
:1043F000000006000200FA00004F78009980A90032
:10440000206381001E487800206381000000E800DE
:104410002063890021638100A0C82200808F5000A2
:1044200002003A00A0C62200206389004063810098
:104430000090A10040638900316381002063810006
:10444000808F500003003A00406381000080A0008C
:10445000406389009980A8000080FA0000000600EF
:104460000600FA0010079800210798000000EB00F2
:10447000000F78000A00370041638100001020001F
:10448000008060000000E0000A003A001E0090007A
:104490001E004000104078001E0FE800D5FF070006
:1044A0002E0090009E007800808F5000F2FF3900AF
:1044B00001003700000000001E0078000080FA00B4
:1044C000000006000200FA000000EB00000F780078
:1044D0004163810000202000008060000000E000B7
:1044E000010032001E40A000416381000010200046
:1044F000008060000000E000010032001E30A000DB
:1045000040638100610060000000E00001003200B3
:104510001E00A00040638100620060000000E00017
:10452000020032001E20A000010037001E10A00073
:104530001E0078000080FA00000006000200FA0069
:10454000000F7800106381009E004000A0CA220086
:10455000808F500008003900106381009E004000E9
:10456000A0CA22000000EA0000804000A1C822008A
:104570006140780003003700106381001E00400096
:10458000104078000080FA00000006000800FA00E1
:1045900020079800310798000000EB0010079800F2
:1045A00010C0B300004F78003E009000FF0F500095
:1045B00007003E0040638100620060000000E000F0
:1045C00003003A002E0090000000E00003003A00D3
:1045D0000040EB00004F780030003700106381008E
:1045E000800078003E00900080804000A0C822003B
:1045F0000000EA00008040007F0060001007980083
:104600001163810000638100808F50000A00310037
:10461000116381003E0090008080400000638100B3
:104620000000E900808F5000150036000040EB00CC
:10463000004F780012003700116381000063810091
:10464000808F50000E0036009E009000A0C822000F
:104650008080400010638100808F5000080031008E
:104660009E009000A0C8220080804000006381006E
:10467000808F5000020039000040EB00004F7800AE
:104680001E4078000004E000040032003E0090006C
:10469000AAFF0700AE009000804878001E40780016
:1046A0000080FA00000006000000FA00406381006C
:1046B000610060000000E0000F003A00116381001B
:1046C00000638100808F5000050036001063810078
:1046D00080007800006381000080500007003700F0
:1046E000106381008000780000638100008050002A
:1046F0000002B000010037000000EB000080FA006B
:10470000000006000000FA00416381000010200054
:10471000008060000000E0000F003A00316381007B
:1047200020638100808F50000500360030638100D7
:10473000800078002063810000805000070037006F
:104740003063810080007800206381000080500089
:104750000002B000010037000000EB000080FA000A
:10476000000006000000FA00406381000000D10054
:10477000614060000080FB0000F0A7000000EA003C
:104780000000EA004F00DE00004078000080FA00E0
:10479000000006000000FA00406381004800DE00CF
:1047A000614060000080FB0000F0A7000000EA000C
:1047B0000000EA004F00DE00004078000080FA00B0
:1047C000000006000000FA00D01C80000080FA0003
:1047D000000006000000FA0099E3A8009B43A8002F
:1047E0000080FA00000006000000FA0099E3A9002A
:1047F0009B43A9000080FA00000006000200FA00B6
:10480000004F780000C3B3009E40780080CF500076
:1048100002003E000040EB001E00370090C3B300D2
:104820009E40780080CF500003003E0000CDB300D2
:104830001E4040001700370000C4B3009E407800BF
:1048400080CF50000700360060C4B3009E4078005F
:1048500080CF500003003E0090CCB3001E404000CB
:104860000C00370000C6B3009E40780080CF500097
:104870000700360060C6B3009E40780080CF50002D
:1048800003003E0090CAB3001E4040000100370004
:104890000040EB000080FA00000006000400FA006F
:1048A000000F7800110798001E007800C400DE0099
:1048B000703420000008B8004308DE008040780013
:1048C0001E009000014878001E0090001040780003
:1048D0008080FB00008F2D000088B9000000780068
:1048E0001E0F40001E0090001040780002C3B3006D
:1048F000824040001E009000014878001E00900099
:104900000000E800100798001E007800C300DE00D9
:10491000500C22000008B8004408DE0080407800F7
:104920001E009000014878001E00900010407800A2
:104930008080FB0080C12F000088B9000000780053
:104940001E0F40001E0090001040780002C3B3000C
:10495000824040001E009000014878001E00900038
:104960000000E800100798001E007800C200DE007A
:10497000B04721000008B8000100D1008040780055
:104980001E009000014878001E0090001040780042
:104990008080FB00C0F92F000088B900000078007B
:1049A0001E0F40001E0090001040780002C3B300AC
:1049B000824040001E009000014878001E009000D8
:1049C0000000E800100798009E007800D0CC2C0072
:1049D0000008B8004308DE00804078001E00900008
:1049E000014878001E009000104078008080FB0095
:1049F00060FF2F000088B900000078001E0F400003
:104A00001E0090001040780002C3B30082404000B6
:104A10001E009000014878001E0090000000E80091
:104A2000100798001E0078000040780002C3B30011
:104A3000824040001E009000014878000080FA008B
:104A4000000006000400FA00000F7800110798002B
:104A50001E00900001C3B300014878000700370032
:104A6000008F2D001E0F40001E00900010407800A7
:104A70008040E8001E00900001487800F07022009D
:104A80009E007800808F5000F5FF3E001E009000D1
:104A90000000E800100798001E00900001C3B3005A
:104AA000014878000700370081C12F001E8F4000A9
:104AB0001E009000104078008040E8001E0090002A
:104AC00001487800703E20009E007800808F5000E2
:104AD000F5FF3E001E0090000000E800100798005F
:104AE0001E00900001C3B3000148780007003700A2
:104AF000C2F92F001E0F41001E00900010407800E8
:104B00008040E8001E009000014878003006200038
:104B10009E007800808F5000F5FF3E001E00900040
:104B20000000E800100798001E00900001C3B300C9
:104B300001487800070037009E0078006A8F500017
:104B40001E009000104078008040E8001E00900099
:104B5000014878001E007800E90F5000F6FF3E0083
:104B60001E0090000000E800100798001E0078006A
:104B70000040780002C3B300824040001E00900055
:104B8000014878000080FA00000006000000FA00EA
:104B900020D5220001C3B3000148780030D522009F
:104BA00001C3B3000148780040D5220001C3B3001F
:104BB0000148780050D5220001C3B30001487800B5
:104BC00060D5220001C3B300014878000080FA00DC
:104BD000000006000000FA00ECFF070009003700A3
:104BE000F1428000008F2D0000804000F0428800DC
:104BF00020D52200104078008040E80020D5220017
:104C000001487800F1428000F0702200808F50004F
:104C1000F3FF3E0008003700F0428000803EB10004
:104C2000F042880030D52200104078008040E80033
:104C300030D5220001487800F1428000703E20000B
:104C4000808F5000F4FF3E0008003700F0428000E3
:104C50004006B100F042880040D5220010407800A4
:104C60008040E80040D5220001487800F1428000F1
:104C700030062000808F5000F4FF3E00080037000F
:104C8000F04280006A005000F042880050D52200B7
:104C9000104078008040E80050D52200014878009C
:104CA000F0428000E90F5000F5FF3E00F042800026
:104CB0000040780002C3B3008240400060D522006B
:104CC000014878000080FA00000006003C2D00003A
:104CD0000E000000800000000A2D000012000000FD
:104CE00080000000000800001800000080000000A4
:104CF000AA2C00004000000082000000FFFFFF001F
:104D0000FFFFFF00FFFFFF00FFFFFF00FFFFFF00AF
:104D1000FFFFFF00FFFFFF00FFFFFF00FFFFFF009F
:104D2000FFFFFF00FFFFFF00FFFFFF00FFFFFF008F
:104D3000FFFFFF00FFFFFF00FFFFFF00FFFFFF007F
:104D4000FFFFFF00FFFFFF00FFFFFF00FFFFFF006F
:104D5000FF0000001C2D000010000000800000007B
:104D60001808000012000000800000005408000035
:104D70000400000082000000AA0101000000000001
:104D80005C2D0000020000008000000058080000B8
:104D900002000000800000005E2D00000200000004
:104DA00080000000420800000600000080000000B3
:104DB000602D000002000000800000005A08000082
:104DC0000200000080000000EA2C0000200000002B
:104DD000800000005C08000002000000820000006B
:104DE000FFFF0000602C00004A000000800000006F
:104DF0004808000006000000800000004A2D000066
:104E000008000000820000003837360035343300D7
:104E10003231000060080000002000008000000027
:104E20002A0800000C000000800000002C2D00006B
:104E30001000000080000000360800000C00000098
:104E4000800000004E080000060000008200000004
:104E50006B00FF00FFFFFF00602800000002000061
:104E6000820000000000FF00FF000000FFFF0000C4
:104E700000FFFF000000FF00FF000000FFFF000038
:104E800000FFFF000000FF00FF000000FFFF000028
:104E900000FFFF000000FF00FF000000FFFF000018
:104EA00000FFFF000000FF00FF000000FFFF000008
:104EB00000FFFF000000FF00FF000000FFFF0000F8
:104EC00000FFFF000000FF00FF000000FFFF0000E8
:104ED00000FFFF000000FF00FF000000FFFF0000D8
:104EE00000FFFF000000FF00FF000000FFFF0000C8
:104EF00000FFFF000000FF00FF000000FFFF0000B8
:104F000000FFFF000000FF00FF000000FFFF0000A7
:104F10000000000000000000000000000000000091
:104F20000000000000000000000000000000000081
:104F30000000000000000000000000000000000071
:104F40000000000000000000000000000000000061
:104F50000000000000000000000000000000000051
:104F60000000000000000000000000000000000041
:104F70000000000000000000000000000000000031
:104F80000000000000000000000000000000000021
:104F90000000000000000000000000000000000011
:104FA0000000000000000000000000000000000001
:104FB000000000000000000000000000FFFF0000F3
:104FC00000FFFF000000FF00FF000000FFFF0000E7
:104FD00000FFFF000000FF00FF000000FFFF0000D7
:104FE00000FFFF000000FF00FF000000FFFF0000C7
:104FF00000FFFF000000FF00FF000000FFFF0000B7
:1050000000FFFF000000FF00FF000000FFFF0000A6
:1050100000FFFF000000FF00FF000000FFFF000096
:1050200000FFFF000000FF00FF000000FFFF000086
:1050300000FFFF000000FF00FF000000FFFF000076
:1050400000FFFF000000FF00FF000000FFFF000066
:1050500000FFFF000000FF00FF000000FFFF000056
:1050600000FFFF0000000000000000000000000042
:105070000000000000000000000000000000000030
:105080000000000000000000000000000000000020
:105090000000000000000000000000000000000010
:1050A0000000000000000000000000000000000000
:1050B00000000000000000000000000000000000F0
:1050C00000000000000000000000000000000000E0
:1050D00000000000000000000000000000000000D0
:1050E00000000000000000000000000000000000C0
:1050F00000000000000000000000000000000000B0
:10510000000000000000000000000000000000009F
:10511000602A00000002000080000000522D000004
:1051200006000000800000005E0800000200000091
:1051300080000000582D00000400000082000000E4
:10514000FFFFFF00FF000000000000000000FA0069
:1051500000672000303A88004C27EF00F03F200025
:10516000803A880000002100703A8800F0FF21009A
:10517000503A8800C0422000403A88005427EF008F
:1051800047E7A80089A0A90099A0A800A01780005F
:105190000020A000A01788004647A8000080FA0061
:1051A000000006000200FA00004F78001E80FB009D
:1051B000E30F50001B003200E30F500007003C00DB
:1051C000E10F500013003200E10F500013003C00CB
:1051D0000000E0000D0032001C003700F10F50000D
:1051E00014003200F10F500003003C00F00F50009B
:1051F0000E00320015003700F20F50000F00320091
:10520000F30F50000F00320010003700A03880006C
:1052100016003700B038800014003700D038800006
:1052200012003700E038800010003700103980008D
:105230000E003700003980000C003700F038800085
:105240000A00370020398000080037001E4078002F
:10525000A61D0200000000000004E0000200320071
:105260000080EB00010037000000EB000080FA0036
:10527000000006000800FA004627EF004827EF006C
:105280004A27EF005227EF005427EF00C1E1A800A2
:10529000C161A900000E80003000B300000E88003C
:1052A000C201A900C301A800C321A90055A7A800F5
:1052B0006000B80020079800310798004C27EF00E5
:1052C000C121A8006000B8002007980031079800AD
:1052D000060037002E009000BE00900061004000E4
:1052E000E080480020079800310798002E019000C8
:1052F000BE019000F070220001002000800F5100DC
:10530000818F5900F3FF3400C121A900C321A900F6
:10531000F0FF2100503A88004747A800313A80004A
:10532000F0CF2F00008060000090A000303A88008D
:10533000313A8000F0F02F0000806000303A8800A1
:1053400047E7A8004627A8006000B800200798009B
:1053500031079800060037002E009000BE00900034
:1053600061004000E0804800200798003107980065
:105370002E019000BE019000F0702200010020007C
:10538000800F5100818F5900F3FF34004627A90098
:1053900000000000303A8000610060000000E00082
:1053A000FCFF3200903880008000EB00008FBE00D0
:1053B000C021EF00680007008000EB001E01900094
:1053C0000091B900020178009E017800019AB900AD
:1053D00084017800030141009E0178000018B800A4
:1053E0000101410082007800008FBE00008FBE00E6
:1053F0001E00BE004008DE0001002000008FBE003D
:1054000052FF07001E0078000080FA00000006002E
:105410000800FA00500007008000EB00008FBE007B
:105420004627EF004827EF004A27EF005227EF00FA
:105430005427EF0030002800000E8800C221EF0042
:10544000C421EF0055A7A800E0002000603A8800C2
:10545000F0FF2100503A88004747A800313A800009
:10546000F0CF2F00008060000090A000303A88004C
:10547000313A8000F0F02F008080600000072000AB
:1054800001007000303A880047E7A8004627A800CE
:1054900000000000303A8000610060000000E00081
:1054A000FCFF3200C021EF006000B8002007980028
:1054B00031079800903880008000EB0020079800AA
:1054C000310798002E009000BE0090001E01780069
:1054D0000191B900020178009E019000009AB90084
:1054E00084017800030141009E0178000018B80093
:1054F00001014100820078002007980031079800E0
:105500002E009000BE00900002002000832F20009B
:105510000000510081805900200798003107980051
:105520002E009000BE009000723F2000030020007B
:1055300008090200000000002007980031079800C9
:1055400002FF07002E009000BE00900000007800CF
:105550000080FA00000006000600FA0031398000E1
:10556000010F780000002000014B20001007980078
:10557000210798001E0078008000EB000001BE00AB
:105580001E009000AE0090002609020000000000FE
:1055900010079800210798001E0090000080FA0074
:1055A000000006000000FA00303980000080FA0098
:1055B000000006000308200082C1510003600100C2
:1055C000109870001098700010987000109870007B
:1055D000109870001098700010987000109870006B
:1055E000109870001098700010987000109870005B
:1055F000109870001098700010987000109870004B
:10560000109870001098700010987000109870003A
:10561000109870001098700010987000109870002A
:10562000109870001098700010987000109870001A
:10563000109870001098700010987000109870000A
:1056400010987000109870001098700010987000FA
:1056500010987000109870001098700010987000EA
:1056600010987000109870001098700010987000DA
:1056700010987000109870001098700010987000CA
:1056800010987000109870001098700010987000BA
:1056900010987000109870001098700010987000AA
:1056A000109870001098700010987000109870009A
:1056B000109870001098700010987000109870008A
:1056C000109870001098700010987000109870007A
:1056D000109870001098700010987000109870006A
:1056E000109870001098700010987000109870005A
:1056F000109870001098700010987000109870004A
:105700001098700010987000109870001098700039
:105710001098700010987000109870001098700029
:105720001098700010987000109870001098700019
:105730001098700010987000109870001098700009
:1057400010987000109870001098700010987000F9
:1057500010987000109870001098700010987000E9
:1057600010987000109870001098700010987000D9
:1057700010987000109870001098700010987000C9
:1057800010987000109870001098700010987000B9
:1057900010987000109870001098700010987000A9
:1057A0001098700010987000109870001098700099
:1057B0001098700010987000109870001098700089
:1057C000000006000308200082C1510003600100B0
:1057D00010986000109860001098600010986000A9
:1057E0001098600010986000109860001098600099
:1057F0001098600010986000109860001098600089
:105800001098600010986000109860001098600078
:105810001098600010986000109860001098600068
:105820001098600010986000109860001098600058
:105830001098600010986000109860001098600048
:105840001098600010986000109860001098600038
:105850001098600010986000109860001098600028
:105860001098600010986000109860001098600018
:105870001098600010986000109860001098600008
:1058800010986000109860001098600010986000F8
:1058900010986000109860001098600010986000E8
:1058A00010986000109860001098600010986000D8
:1058B00010986000109860001098600010986000C8
:1058C00010986000109860001098600010986000B8
:1058D00010986000109860001098600010986000A8
:1058E0001098600010986000109860001098600098
:1058F0001098600010986000109860001098600088
:105900001098600010986000109860001098600077
:105910001098600010986000109860001098600067
:105920001098600010986000109860001098600057
:105930001098600010986000109860001098600047
:105940001098600010986000109860001098600037
:105950001098600010986000109860001098600027
:105960001098600010986000109860001098600017
:105970001098600010986000109860001098600007
:1059800010986000109860001098600010986000F7
:1059900010986000109860001098600010986000E7
:1059A00010986000109860001098600010986000D7
:1059B00010986000109860001098600010986000C7
:1059C00010986000109860001098600010986000B7
:1059D000000006000000FA0000802000A1D0220094
:1059E0001100980000802000A1D02200010878005A
:1059F00000802000A00090000110A000210098006D
:105A000000802000A00090000100A100210098006B
:105A1000008020008040EB006140980020012000C1
:105A2000C024880000002800D02488009E24EF00B5
:105A30008A20A9009A20A8000080FA000000060031
:105A40000200FA0000802000E0409000014F780042
:105A50001E4078000080FA00000006000000FA00F6
:105A60006040800066004000604088000AC8BF00B7
:105A70000040E9000AE8B7000AC8BF000004E000DF
:105A800003003A0040002000404088000200370038
:105A900010002000404088000080FA00000006004E
:105AA0000200FA00000F78009A44A80070408000BD
:105AB000200090000000E0000300320070408000F1
:105AC000200090001E0878000828EF000080FA00EF
:105AD000000006000800FA00000F78002147980037
