:108000000048040000000000C84D00000C4E0000B5
:10801000484E0000E64D00002A4E000024510000AA
:10802000245100002451000024510000245100007C
:10803000AC5000009A4D00000C4900002451000093
:10804000D45000009E4D0000245100002451000037
:1080500024510000CC4E0000664E0000F04F00009E
:108060002451000024510000245100002849000040
:10807000245100002451000024510000245100002C
:10808000245100002451000024510000FC50000045
:10809000245100002451000024510000245100000C
:1080A000984F0000324F000024510000245100007E
:1080B00024510000245100002451000024510000EC
:1080C00024510000245100002451000024510000DC
:1080D000245100005C500000845000002451000036
:1080E000245100002451000024510000424B0000A4
:1080F00024510000245100002451000024510000AC
:10810000245100002451000024510000245100009B
:10811000245100002451000024510000245100008B
:10812000245100002451000024510000284F000079
:10813000E64F0000245100002451000024510000AB
:10814000245100002451000024510000245100005B
:10815000245100002451000024510000245100004B
:10816000245100002451000024510000245100003B
:10817000245100002451000024510000245100002B
:10818000245100002451000024510000245100001B
:10819000245100002451000024510000245100000B
:1081A00024510000245100002451000024510000FB
:1081B0002451000024510000245100000C50000004
:1081C00034500000245100002451000024510000CC
:1081D00024510000245100002451000024510000CB
:1081E00024510000245100002451000024510000BB
:1081F00024510000245100002451000024510000AB
:10820000FFFFFF00FFFFFF00FFFFFF00FFFFFF007A
:109000004F4923000E7F24000E018800000000005D
:10901000000020000000E0000200320000012000FB
:109020002002880014000700890407000000E00007
:1090300003003A00005E2D0001002000020037000E
:109040000000200001002000810F700001003200AC
:1090500014000700000020000000E00002003200C1
:10906000000002000000000028FB020001000000D8
:109070000040DA000000FE004440A9002017200054
:109080000000E00003003200302020009001880042
:109090004440A800000006008A1F78008B1F78005B
:1090A00000000600A1028800800478000000EB00A8
:1090B0001F003700E284440054A0B4009905BA00B0
:1090C000E284440054A0B4009906BA00E28444004B
:1090D00054A0B4000006EB00476FDE00FD07B200AD
:1090E000AE018800636CE10003003A00EAFF07006C
:1090F0000000EB000E003700606CE10008003A0051
:10910000004DEB000A05E800020039003420EC00B5
:109110000AF0A0008B05E900F9FF3E0004003700CB
:109120006168E100010032000086EB000B000700DF
:1091300019C7BA001905BA000E04E00003003A008E
:109140000A00E000DBFF3A0000000600FE07B20064
:10915000AE0288008A047800F5FF37000CD0A30027
:10916000E20F4D001C00390089027800354DBA002D
:109170000A05E800020039003420EC000AF0A000E3
:109180008B05E9000F003200254DBA000A05E80002
:10919000020039003420EC000AF0A0008B05E90041
:1091A000080032000C00E0000600320015CDBA00C5
:1091B0000A05E800020039003420EC000AF0A000A3
:1091C0008B05E9008984E80054A0B4000B00E0009E
:1091D000E2FF3A00000006009902BA00055D78003F
:1091E0008B05E900F7FF3200C82ADE00055D780034
:1091F0008B05E900F3FF32000C00E000F1FF3200C4
:1092000019DDBA00EEFF3700CAE2040000000000DA
:10921000FCB80400000000003600F800809FBE008B
:10922000829FBE00849FBE00869FBE00D6AD020016
:10923000000000008880A9004F03BE004F02BE005E
:109240004F01BE004F00BE003600F900004006008E
:10925000809FBE00829FBE008A20A9009EE4AB00D2
:109260001E003A00404080008000EB00EB0F5000F1
:10927000E08F58000C0036000668EC009A44A80005
:1092800050408000200090000000E000020032000A
:1092900061002000010878000828EF004F01BE009F
:1092A0004F00BE00004006000060010032003700A1
:1092B0002A00370062003700120037001E00370016
:1092C0008A003700990037001B0037007300370011
:1092D000E9FF37004C0037003F0037009EE4A9004B
:1092E0000828EF0050408000200090000008EB00AC
:1092F0000A28EF004F01BE004F00BE0000400600EC
:10930000E9FF37009E04E2008F00350011C8BF005E
:109310008040E90013812000814978000004E000CA
:10932000D0003A00600020000E28B4000C48ED0088
:109330000CE8B70009003A009A44A80050408000A9
:10934000200090000000E000D3FF32002100200048
:10935000010878000828EF00D0FF37009A24A80001
:1093600020002000404088004F01BE004F00BE009A
:1093700000400600CCFF37000428AB00C7FF3A00CE
:10938000104080005040880010417800C1802000CB
:109390008248780090019000734088006600400089
:1093A0001040880001462300810F500093003200D6
:1093B0000408A9000008E3008B0032009A04A8000A
:1093C00020002000404088004F01BE004F00BE003A
:1093D00000400600B4FF37009E04E20071003D002B
:1093E0000668EC009A44A8005040800020009000DD
:1093F0000000E000A8FF32004100200001087800D2
:109400000828EF00A5FF37009E04E200F4FF3500B6
:10941000914080000100D100F00FB200B02488001C
:109420000108A3007B003200B0002000404088000B
:109430004F01BE004F00BE00004006009AFF3700FB
:1094400010C8BF00E14F500064003200714080003E
:10945000110078009040880021019000A24088000F
:10946000214190001381200082497800F10F2000F3
:10947000810F50006D003E00B02488000008A3005A
:109480006400320050002000404088004F01BE00C0
:109490004F00BE000040060083FF3700A12480007B
:1094A000A040800001587800A04088001148ED00DD
:1094B00011E8B7002F003A009AA4A800600020002D
:1094C0000E28B4000C48ED000CE8B70061003A002B
:1094D00040002000404088009A84A8004F01BE0050
:1094E0004F00BE00004006006FFF37009E04E20000
:1094F00025003D000668EC009A44A800504080001A
:10950000200090000000E000020032004100200036
:10951000010878000828EF009FE4A9004F01BE0071
:109520004F00BE00004006005FFF370080002000B3
:10953000404088009A64A8004F01BE004F00BE0062
:109540000040060058FF37000668EC009FE4A900C1
:109550009A44A80050408000200090000000E000E5
:109560004DFF320051002000010878000828EF006C
:109570004AFF37009AA4A9006000200040408800FC
:109580009A84A800D5FF37009A64A80080002000C4
:10959000404088004F01BE004F00BE000040060062
:1095A00041FF37009A24A800904080004800DE0068
:1095B00066006000100FB3009040880010C0B30038
:1095C00010E8B70020002000404088004F01BE0096
:1095D0004F00BE000040060033FF37001068EF0068
:1095E00090408000A1FF37000428A8009A04A8003A
:1095F000200020004040880073FF37006680500044
:10960000104088000408A9000008E3006BFF3A003E
:10961000F5FF370030002000404088004F01BE00B9
:109620004F00BE00004006001FFF37004800DE006C
:1096300066006000000FB300B0248800A000200086
:10964000404088004F01BE004F00BE0000400600B1
:1096500015FF370010002000404088009A84A800C1
:109660009EFF3700A0408000B080FB00B12488003E
:10967000A04088004F01BE004F00BE000040060021
:1096800009FF37003600F800809FBE00829FBE00B1
:10969000849FBE00869FBE0030C6B3002AE8B70094
:1096A0008E20A9008041800091418000610040002F
:1096B000E08048008041880091418800AE84AB0082
:1096C000090032002BC8BF00E74F500038003600B9
:1096D0004F03BE004F02BE004F01BE004F00BE0050
:1096E0003600F90000400600C0418000E20F500043
:1096F0004200320036003100AEA4AB0069003200F7
:10970000AAE4AB0065003A002D48E20065003A008B
:1097100041C6B300A282200001497800E10F500049
:10972000EBFF3A00C0C0B3002AE8B700AEA4AB001C
:10973000E7FF3200D0C0B3002AE8B700AEC4AB00E8
:10974000D8003A00E0C0B3002AE8B7002E48E20093
:10975000DF003A002D48E200DD003A002BC8BF00D0
:10976000E74F5000E2003E00AAA4A9002225800095
:109770002BC8BF000080FB00C14623008270780028
:109780002B68EC002BC8BF00E84F5000E00032000F
:109790001E68EF004F03BE004F02BE004F01BE0027
:1097A0004F00BE003600F90000400600CEFF370033
:1097B0002B68EF004F03BE004F02BE004F01BE00FA
:1097C0004F00BE003600F90000400600C6FF37001B
:1097D000E30F50002100320074F902000100000084
:1097E0004F03BE004F02BE004F01BE004F00BE003F
:1097F0003600F90000400600BBFF3700AE04E2006F
:1098000044003500AAA4A9002CC8BF000080FB00BA
:1098100041472300614078000080FB00302588002C
:109820002CC8BF00E64F500001003E002C68EC0041
:109830001F68EF00AB84A80000C1B3002AE8B7009E
:109840004F03BE004F02BE004F01BE004F00BE00DE
:109850003600F90000400600A3FF370020C1B30026
:109860002AE8B70010C0B3003AE8B70030C1B3002F
:109870002AE8B7002025800010002000C0418800A1
:109880004F03BE004F02BE004F01BE004F00BE009E
:109890003600F9000040060093FF3700AF24AB000C
:1098A00099FF3200AE44AB0027003A0013C0B3006A
:1098B000A282200003497800AFA4AB005D00320013
:1098C000D282200003497800B1C0B300A2822000F8
:1098D0000149780021258000AAA4A9001E48E200C1
:1098E0006A0032001F48E20068003A00A1C0B300DD
:1098F0001282200001497800C1C0B300A28220007A
:10990000014978002C68EF00E10F500070FF3A0029
:1099100084FF37003828EF002CC8BF00E74F500005
:1099200022003E0010C1B3002AE8B7004F03BE007A
:109930004F02BE004F01BE004F00BE003600F900CE
:109940000040060068FF370051C3B300A282200028
:1099500001497800AFA4AB001D00320011C0B30074
:10996000D28220000149780051C0B300A2822000B9
:109970000149780021258000AAA4A9002C68EF00E5
:109980001E48E200020032001F48E20034003200AC
:10999000AB84A80041C3B300A28220000149780033
:1099A000E10F50004AFF3A005EFF370010CBB300D2
:1099B0002AE8B7004F03BE004F02BE004F01BE00B1
:1099C0004F00BE003600F9000040060046FF370099
:1099D00060C0B3002AE8B70020258000AAA4A9002F
:1099E0002CC8BF000080FB00414723006140780085
:1099F0000080FB00302588002CC8BF00E64F5000D7
:109A000001003E002C68EC001F68EF00AB84A8004A
:109A100020002000C04188004F03BE004F02BE005E
:109A20004F01BE004F00BE003600F90000400600A6
:109A30002DFF37002D68EF0020258000100020004A
:109A4000C041880031C0B300A282200001497800E3
:109A5000AEA4AB0033FF32002EE8B70031FF370071
:109A6000A0C0B30020E8B70030C3B3002AE8B700B5
:109A70004F03BE004F02BE004F01BE004F00BE00AC
:109A80003600F9000040060017FF3700AB84A8003D
:109A9000D1C0B300A2822000014978002C68EF00F9
:109AA00099FF370020258000AEC4A900F0C0B300A4
:109AB0002AE8B7004F03BE004F02BE004F01BE00B0
:109AC0004F00BE003600F9000040060006FF3700D8
:109AD0002E68EF004F03BE004F02BE004F01BE00D4
:109AE0004F00BE003600F90000400600FEFE3700C1
:109AF000202580004F03BE004F02BE004F01BE0074
:109B00004F00BE003600F90000400600F6FE3700A8
:109B100010C0B3001EE8B7004F03BE004F02BE00E6
:109B20004F01BE004F00BE003600F90000400600A5
:109B3000EDFE37008860A900004006003600F800FE
:109B4000809FBE00829FBE00849FBE00869FBE0095
:109B5000D04280000000E00001003200000001005F
:109B6000104923001048E80011C0B3000000E900CC
:109B70000148780088E0A9004F03BE004F02BE00F4
:109B80004F01BE004F00BE003600F9000040060045
:109B90003600F800809FBE00829FBE00849FBE00FA
:109BA000869FBE008020A9000000EB0042E5020075
:109BB000000000004F03BE004F02BE004F01BE0078
:109BC0004F00BE003600F900004006003600F800E5
:109BD000809FBE00829FBE00849FBE00869FBE0005
:109BE00020422300800778007800400000018800B0
:109BF0008040A9001000200042E5020000000000A3
:109C00004F03BE004F02BE004F01BE004F00BE001A
:109C10003600F900004006003600F800809FBE00C4
:109C2000829FBE00849FBE00869FBE008060A90008
:109C30002000200042E50200000000004F03BE00AB
:109C40004F02BE004F01BE004F00BE003600F900BB
:109C5000004006003600F800809FBE00829FBE00D4
:109C6000849FBE00869FBE008080A9003000200037
:109C700042E50200000000004F03BE004F02BE009C
:109C80004F01BE004F00BE003600F9000040060044
:109C90003600F800809FBE00829FBE00849FBE00F9
:109CA000869FBE008600A9007000200042E50200E9
:109CB000000000004F03BE004F02BE004F01BE0077
:109CC0004F00BE003600F90000400600809FBE0035
:109CD000829FBE00F18D8100E08D8100808F500059
:109CE000220032008980A9002228230003FC2F00D3
:109CF000828141009B23AB0010003A00F08D81006F
:109D00001080FB00E01C8800F08D81000000E8005E
:109D1000F08D8900F08D8100820F50000A00320022
:109D2000008E81000080A100008E8900F18D8100ED
:109D3000E08D8100808F5000EEFF3A004F01BE00A1
:109D40004F00BE0000400600F38D8900008E8100A8
:109D50000080A100008E8900F18D8100E08D8100DE
:109D6000808F5000E3FF3A00F4FF3700008E81003F
:109D70000088A300DBFF3A00008E81000090A00065
:109D8000008E89009980A9004F01BE004F00BE00DF
:109D900000400600ECFF3700809FBE00829FBE009F
:109DA0008960A9002224230003F82F00828141004A
:109DB0009A03AB001A003200F01C80006AE8B7007A
:109DC000C18D81008048780060438000714380002D
:109DD00061004000E08048006043880071438800D3
:109DE000C08D81000000E800C08D8900C08D810019
:109DF000820F50000D003200008E81000010A10083
:109E0000008E8900C18D8100D08D8100808F50002F
:109E1000E7FF3A00008E81000000A000008E89005C
:109E20004F01BE004F00BE0000400600C38D8900F8
:109E3000008E81000010A100008E8900C18D81007C
:109E4000D08D8100808F5000D9FF3A00F1FF37009C
:109E50009A23AB00010032009A23A9009020A900A8
:109E600000400600809FBE00829FBE00419481009A
:109E700030948100808F5000220032008BE0A900D6
:109E8000C234230003FC2F0082814100B123AB00C8
:109E900010003A00409481001080FB00901D880063
:109EA000409481000000E8004094890040948100C3
:109EB000820F50000A003200509481000080A100FF
:109EC000509489004194810030948100808F50002B
:109ED000EEFF3A004F01BE004F00BE0000400600FA
:109EE00043948900509481000080A100509489001F
:109EF0004194810030948100808F5000E3FF3A004C
:109F0000F4FF3700509481000088A300DBFF3A0083
:109F1000509481000090A000509489009BE0A9001B
:109F20004F01BE004F00BE0000400600ECFF3700AE
:109F3000809FBE00829FBE008BC0A900C23023005C
:109F400003F82F0082814100B003AB001300320000
:109F500010948100A11D80000148780010948100B8
:109F60000000E8001094890010948100820F5000D6
:109F70000D003200509481000010A100509489001F
:109F80001194810020948100808F5000EEFF3A00F0
:109F9000509481000000A000509489004F01BE0041
:109FA0004F00BE00004006001394890050948100C9
:109FB0000010A10050948900119481002094810028
:109FC000808F5000E0FF3A00F1FF3700B023AB0074
:109FD00001003200B023A9009040A9000040060013
:109FE0003200F8003400F800881F780018002000C4
:109FF000A801880038202000980188004F047800CC
:10A0000089A0AB000100320089A0A9003400F9004A
:10A010003200F900004006003600F800809FBE00C4
:10A02000829FBE00849FBE00869FBE00709D8100FF
:10A030000000E000010032000000010094A0A9002F
:10A04000A4A0A9004C28EC00A03B230000C8EB0012
:10A050004F03BE004F02BE004F01BE004F00BE00C6
:10A060003600F900004006003600F800809FBE0070
:10A07000829FBE00849FBE00869FBE00609A8100C2
:10A080000000E000010032000000010094C0A900BF
:10A09000A4C0A9004E28EC008035230000C8EB00C6
:10A0A0004F03BE004F02BE004F01BE004F00BE0076
:10A0B0003600F900004006003600F800809FBE0020
:10A0C000829FBE00849FBE00869FBE00D09A810002
:10A0D0000000E00001003200000001008D60A900D6
:10A0E0009D60A9005028EC006036230000C8EB00FA
:10A0F0004F03BE004F02BE004F01BE004F00BE0026
:10A100003600F900004006003600F800809FBE00CF
:10A11000829FBE00849FBE00869FBE00409B810040
:10A120000000E00001003200000001008D80A90065
:10A130009D80A9005228EC004037230000C8EB00A6
:10A140004F03BE004F02BE004F01BE004F00BE00D5
:10A150003600F900004006003600F800809FBE007F
:10A16000829FBE00849FBE00869FBE00B09B810080
:10A170000000E00001003200000001008840A9005A
:10A180009840A9005428EC002038230000C8EB00B8
:10A190004F03BE004F02BE004F01BE004F00BE0085
:10A1A0003600F900004006003600F800809FBE002F
:10A1B000829FBE00849FBE00869FBE00209C8100BF
:10A1C0000000E000010032000000010088C0A9008A
:10A1D00098C0A9005628EC000039230000C8EB0005
:10A1E0004F03BE004F02BE004F01BE004F00BE0035
:10A1F0003600F900004006003600F800809FBE00DF
:10A20000829FBE00849FBE00869FBE00909C8100FE
:10A210000000E00001003200000001008B20A900D6
:10A220009B20A9005828EC00E039230000C8EB006F
:10A230004F03BE004F02BE004F01BE004F00BE00E4
:10A240003600F900004006000040DA000000FE0081
:10A2500000000500839F68000100E00002003D004F
:10A2600060001000E08018000300E00002003D00E4
:10A2700060011100E0811900050007004F00E000B7
:10A2800002003B0060001000E080180000000600A3
:10A290006022B800060220000000D0008180D200B9
:10A2A0000482D2008582D2000000A0000202520087
:10A2B00083825A00030031000202420083824A0076
:10A2C0000000A1000603E900F3FF3A0000000600C9
:10A2D000889FBE008A9FBE0030044200B0844A00BE
:10A2E00030054B0090854B006000B1000898BE001F
:10A2F0000A90BE000440E10005C8E10006D0E1007C
:10A3000007D8E10002003100680040001008E800B2
:10A310004F05BE004F04BE0000000600889FBE002F
:10A320008A9FBE003004BE002005BE000418540001
:10A3300005985C0006185D0007985D00110020007C
:10A340000440E10005C8E10006D0E10007D8E100C3
:10A35000010039008000EB00108810004F05BE009E
:10A360004F04BE00000006001200FA00889FBE00E5
:10A370008A9FBE008C9FBE00E0B79F00F1B79F0090
:10A3800082BF9F0093BF9F000605BE000404BE006D
:10A390000000EB00D0B79F00C0B79F00B0B79F0090
:10A3A000A0B79F0090B79F00000678005FB19700AC
:10A3B000CFB09700820141003FB097000200E0005B
:10A3C00004003D00370007007E805700C0FF0700F3
:10A3D00003003700330007007E805700CFFF0700DF
:10A3E000DFB697000D00E0000C0035006FB297005B
:10A3F000FFB297000FBB97009FBB97001000200093
:10A40000010020006011B800000272008182720019
:10A4100002037300838373001B0007000C06E8002F
:10A4200001042000810F5600E0FF3A000D00E0001B
:10A4300004003D000802BE000A03BE007E805700F3
:10A44000A3FF07005FA897000000E00005003A00A6
:10A450001FB29700AFB297003FB39700CFB39700FA
:10A46000090007006FB09700FFB097000FB9970081
:10A470009FB997004F06BE004F05BE004F04BE00B7
:10A480000080FA000000060001000700000006003E
:10A49000A4B79F00B5B79F00C6B79F00D7B79F006E
:10A4A000000006004F09DE0082817100B3B79F00F3
:10A4B0004F01DE008180400082807000A1B79F00C4
:10A4C0008FB097004F09DE000000400002007000CE
:10A4D00090B79F007FA897004F01DE008180400069
:10A4E0008280700081B79F000D0007004F3ADE00A8
:10A4F0000000400004007000F0AF9F00080007005B
:10A500000402420085824A0006034B0087834B0009
:10A51000DFFF07000802BE000A03BE0000000600BD
:10A520002FB29700BFB297004FB39700DFB39700E9
:10A5300000000600881F780018002000881F78009F
:10A5400089FF07008F87E9004F04780000000600AC
:10A55000801FEB0084FF07008F87E90000000600E2
:10A56000889FBE008A9FBE00E00F5000E08F580019
:10A57000E00F5900E08F59000C003D006044B80026
:10A580006055B8000000540081805C0002015D004D
:10A5900083815D00180020001500070008003D00C1
:10A5A000180007000004EB00050037000004EB0072
:10A5B0000F00070002003D001200070018002000F5
:10A5C000DCFF07000800E000060032006022B8004F
:10A5D0006033B8000000520081805A0002015B0025
:10A5E00083815B004F05BE004F04BE0000000600E3
:10A5F000E00F5200E08F5A00E00F5B00E08F5B003D
:10A60000000006006044B8006055B8000402540021
:10A6100085825C0006035D0087835D000000060004
:10A62000889FBE008A9FBE008C1F7800E00F5000FC
:10A63000E08F5800E00F5900E08F59000D003D00F9
:10A640006044B8006055B8000000540081805C0090
:10A6500002015D0083815D001C0020000820E100F4
:10A6600009A8E1000AB0E1000BB8E1000D003D00CF
:10A67000080037000006EB00E00F5200E08F5A00A0
:10A68000E00F5B00E08F5B0006003D006044B80017
:10A690006055B8000402540085825C0006035D002A
:10A6A00087835D00AAFF07000C00E000060032006F
:10A6B0006022B8006033B8000000520081805A0068
:10A6C00002015B0083815B004F0678004F05BE00EE
:10A6D0004F04BE0000000600889FBE008A9FBE0097
:10A6E0008C1F78000006EB00E00F5000E08F580050
:10A6F000E00F5900E08F590007003D006044B800AA
:10A700006055B8000000540081805C0002015D00CB
:10A7100083815D001C002000E00F5200E08F5A0092
:10A72000E00F5B00E08F5B0007003D006044B80075
:10A730006055B8000402540085825C0006035D0089
:10A7400087835D000C00A2000C0007000C00E000F5
:10A75000060032006022B8006033B80000005200EA
:10A7600081805A0002015B0083815B004F06780004
:10A770004F05BE004F04BE0000000600889FBE00CB
:10A780008A9FBE008C9FBE000404B8000506B80076
:10A790008904460060854E000606B8000A0546009A
:10A7A000E0854E000706B8008B054600040EB80091
:10A7B000890446000A854E00E0854D00050EB8006C
:10A7C0000A0546008B854E00060EB8008B05460034
:10A7D0000416B8000A0546008B854E000516B80021
:10A7E0008B054600041EB8008B0546000800BE001D
:10A7F0000A01BE004F06BE004F05BE004F04BE005A
:10A80000000006008001780002003700B15978008E
:10A810000201E9000200E000FCFF3A00000006002F
:10A820000200FA00D0C0B300E0FF9F00A0C0B30058
:10A83000F0FF9F001D48E20015003A008100200053
:10A84000403C230098C60200000000001D48E200C2
:10A8500003003A001C68EF000080FA0000000600C8
:10A86000210020000F80E90098C6020000000000CF
:10A87000210020000F80E90098C6020000000000BF
:10A880001C68EF000080FA0000000600F4FF3700AB
:10A89000210020000F80E90098C60200000000009F
:10A8A00081002000403C230098C602000000000008
:10A8B0001D48E200E7FF3200E9FF370052C4B30051
:10A8C000413C2300824878008100E8007EDD0200E0
:10A8D0000000000050C5B300A13C23008048780070
:10A8E0008100E8008048780031418000D0FD2F00D1
:10A8F000E18F4000010032000100E8003041880093
:10A90000B03B2300B13C230068014000D0687800D0
:10A91000820F5000FDFF3A0000000600881F7800FB
:10A92000D03B230010447800A08420000848780021
:10A930000880FB004600DD00818B22008080400003
:10A9400051448800F34F54003B003E00E340540064
:10A95000E1CF5000330036007648E2002800320094
:10A96000E13B23001181FB008001EB00FC0F510053
:10A97000E08F59000400360030002000CFFF0700B0
:10A980004F0478000000060002600100A2003700BA
:10A99000F9FF3700960037009A0037008000370033
:10A9A00084003700F4FF3700870037008B00370042
:10A9B000F1FF370025003700290037002D00370050
:10A9C0003100370035003700390037003D003700CF
:10A9D0004100370045003700E7FF3700E6FF37004A
:10A9E00047003700500037003B0037005300370066
:10A9F000570037005B0037005F0037006300370007
:10AA0000E74F540002003200E94F5400D4FF3A00EF
:10AA100070012000A9FF07004F0478000000060025
:10AA2000D9FF37007648E200F9FF3A00E94F5400B9
:10AA3000CBFF3A00F6FF3700600120009FFF0700C0
:10AA40004F04780000000600CFFF370000DB020053
:10AA5000000000004F04780000000600CAFF370025
:10AA6000D4850200000000004F04780000000600BA
:10AA7000C5FF37008C800200000000004F04780002
:10AA800000000600C0FF370090A402000000000094
:10AA90004F04780000000600BBFF3700BEE3020051
:10AAA000000000004F04780000000600B6FF3700E9
:10AAB0009A900200000000004F0478000000060099
:10AAC000B1FF37009ED70200000000004F0478005D
:10AAD00000000600ACFF370064BC0200000000006C
:10AAE0004F04780000000600A7FF3700C8BF02002F
:10AAF000000000004F04780000000600A2FF3700AD
:10AB00000040EB005699020000000000A1842000E4
:10AB10009140780040882000014878004F04780078
:10AB20000000060098FF370000B902000000000096
:10AB30004F0478000000060093FF370090D8020011
:10AB4000000000004F047800000006008EFF370070
:10AB5000C6C20200000000004F047800000006009A
:10AB600089FF370022DC0200000000004F0478005B
:10AB70000000060084FF3700BAD202000000000087
:10AB80004F047800000006007FFF3700A077020026
:10AB9000000000004F047800000006007AFF370034
:10ABA0008EE10200000000004F0478000000060063
:10ABB00075FF3700E69F0200000000004F04780098
:10ABC0000000060070FF370018E0020000000000DF
:10ABD0004F047800000006006BFF370042DF0200E0
:10ABE000000000004F0478000000060066FF3700F8
:10ABF000D4D90200000000004F04780000000600D5
:10AC000061FF3700F4D00200000000004F0478001C
:10AC1000000006005CFF3700618F220000804000CA
:10AC20000048EB00F03B230090407800084078009B
:10AC30003298020000000000003C230011C0B30065
:10AC400090CF10001800320008407800569A020099
:10AC500000000000103C230011C0B30090CF100092
:10AC60000D003200084078006E9A020000000000DB
:10AC7000203C230011C0B30090CF10000E00320022
:10AC800008407800769A0200000000004F04780027
:10AC9000000006003CFF3700084078005A9A020086
:10ACA00000000000F2FF370008407800429A0200DE
:10ACB00000000000E7FF370008407800729A0200A9
:10ACC000000000004F047800000006002EFF37004F
:10ACD000889FBE000204BE005821EF005A21EF00F9
:10ACE00059E1A80058A1A9005861A900F30F2E004E
:10ACF000D20A80008281610002F02000030171000D
:10AD0000D20A880003FE2F00D20A800082816100EF
:10AD1000F300B300D30A88005881A8001202210072
:10AD2000E20A88005E21EF00F24C2800220B880026
:10AD30006621EF000804400089844800880F500015
:10AD4000898F58002900310002802400820F5000B2
:10AD5000E08F58003100320058E1AB00FEFF3A00AE
:10AD600083E0A9000000000000000000A6028000AF
:10AD700081027800A1028800800178001002BA00E8
:10AD80000683FB00A602880083E0A8000000000004
:10AD9000000000000480FD00040B880058E1AB00B7
:10ADA000FEFF3A0083E0A900000000000000000060
:10ADB000A4028000A50288009381BA000482FB00EF
:10ADC000A402880083E0A80000000000000000004A
:10ADD0000380FD00030B880062004000E080480013
:10ADE000800F5400818F5C00D7FF3E0058E1AB001C
:10ADF000FEFF3A005881A9009060A9006021EF0091
:10AE00005881A8009060AB00FEFF32006401F8009A
:10AE10002408F9004F04BE000000060000000000F6
:10AE200058E1AB00CCFF3A00CDFF3700E887470080
:10AE3000889FBE008A9FBE008C9FBE008E1F780038
:10AE40002828EC00CD3B23001D82FB008002EB0094
:10AE50004B3C2300844D78000D06E8001C47780029
:10AE60008B04E8008E4C78000C05E8001A4178004D
:10AE70000900E800024878000A04E80098417800D8
:10AE80008980E800834878008803E80097407800CC
:10AE900063804400014878008883E8001743780005
:10AEA0000000E800064878008703E8009743780030
:10AEB00087F79F000000E80007487800640044001E
:10AEC0009043780066804400074878001402B1007F
:10AED0000580B100E00B2000800F5200E08F5A0087
:10AEE000080036005000200074FE07004F0778006D
:10AEF0004F06BE004F05BE004F04BE008F00B100DC
:10AF00000000060004600100F8FF3700F5FF37007D
:10AF1000F4FF3700F3FF3700F2FF3700F1FF37008F
:10AF2000F0FF3700EFFF3700EEFF3700EDFF37008F
:10AF3000ECFF3700EBFF3700EAFF3700E9FF37008F
:10AF4000E8FF3700E7FF3700E6FF3700E5FF37008F
:10AF5000E4FF3700E3FF3700E2FF3700E1FF37008F
:10AF6000E0FF3700DFFF3700DEFF3700DDFF37008F
:10AF7000DCFF3700DBFF3700DAFF3700D9FF37008F
:10AF8000D8FF3700D7FF3700D6FF3700D5FF37008F
:10AF9000D4FF3700D3FF3700D2FF3700D1FF37008F
:10AFA000D0FF3700CFFF3700CEFF3700CDFF37008F
:10AFB000CCFF3700CBFF3700CAFF3700C9FF37008F
:10AFC000C8FF3700C7FF3700C6FF37000A04370045
:10AFD000C4FF3700C3FF3700C2FF3700E903370063
:10AFE000C0FF3700BFFF3700BEFF3700BDFF37008F
:10AFF000BCFF3700BBFF3700BAFF3700C303370081
:10B00000B8FF3700B7FF3700B6FF3700B5FF37008E
:10B01000B4FF370077033700B2FF3700B1FF3700C6
:10B0200004043700AFFF3700AEFF3700ADFF370035
:10B03000ACFF3700ABFF3700AAFF3700A9FF37008E
:10B04000A8FF3700DB023700A6FF3700A5FF370057
:10B05000A4FF3700A3FF3700A2FF3700A1FF37008E
:10B06000A0FF37009FFF37009EFF37009DFF37008E
:10B070009CFF37009BFF37009AFF370099FF37008E
:10B0800098FF370097FF3700BB023700A302370055
:10B090007E0437004D0437002204370091FF37004B
:10B0A00090FF37008FFF37008EFF37008DFF37008E
:10B0B0008CFF37008BFF37008AFF370089FF37008E
:10B0C00088FF3700F9033700860437002A04370069
:10B0D00056043700710237003002370081FF370015
:10B0E00080FF37007FFF37007EFF37007DFF37008E
:10B0F0007CFF37007BFF37007AFF370079FF37008E
:10B1000078FF37001A0237004702370075FF370013
:10B110000D023700DE0137000F013700F90037005C
:10B12000E70037006FFF37006EFF37006DFF370015
:10B130006CFF37006BFF37006AFF370069FF37008D
:10B1400068FF3700BC0037009700370076003700F3
:10B1500053003700460037003200370061FF3700E8
:10B1600060FF37005FFF37005EFF37005DFF37008D
:10B170005CFF37005BFF37005AFF370059FF37008D
:10B1800058FF370057FF370056FF370055FF37008D
:10B1900054FF370053FF370052FF370051FF37008D
:10B1A00050FF370017003700160037001500370032
:10B1B0001400370013003700120037001100370069
:10B1C000100037000F0037000E0037000D00370069
:10B1D0000C0037000B0037000A0037000900370069
:10B1E0000800370007003700060037000500370069
:10B1F0000400370003003700020037000100370069
:10B2000000003700C5FD07004F0778004F06BE005D
:10B210004F05BE004F04BE008F00B10000000600C5
:10B2200038FF37000E04E00094053A00F34F510058
:10B230009C063E000304E0002D0532008381FB00E4
:10B24000403D2300543C23008303400006000900D6
:10B25000375A78004F0778004F06BE004F05BE00F2
:10B260004F04BE008F00B1000000060025FF37002C
:10B2700020C5B300804F57005D04320070C0B3009A
:10B280002268B4004F0778004F06BE004F05BE008D
:10B290004F04BE008F00B1000000060019FF370008
:10B2A00076CA020000000000804C780076CA0200D6
:10B2B00000000000643C2300004A780076CA0200C7
:10B2C00000000000773C2300804B780076CA020023
:10B2D00000000000813C23008048780076CA02000C
:10B2E00000000000923C23000049780076CA02006A
:10B2F00000000000A33C23008049780076CA0200C9
:10B3000000000000B43C2300004A78004F0778009A
:10B310004F06BE004F05BE004F04BE008F00B100B7
:10B3200000000600F7FE37000E407800EECA02006B
:10B33000000000001A407800EECA02000000000081
:10B3400018407800EECA020000000000073C23000D
:10B3500017407800EECA020000000000113C2300F4
:10B3600011407800EECA020000000000223C2300D9
:10B3700012407800EECA020000000000333C2300B7
:10B3800013407800EECA0200000000004F0778006A
:10B390004F06BE004F05BE004F04BE008F00B10037
:10B3A00000000600D7FE37009960AB00E9043200C8
:10B3B000DCC5020000000000804C7800DCC5020003
:10B3C00000000000643C2300004A7800DCC5020055
:10B3D00000000000773C2300804B7800DCC50200B1
:10B3E00000000000813C230080487800DCC502009A
:10B3F00000000000923C230000497800DCC50200F8
:10B4000000000000A33C230080497800DCC5020056
:10B4100000000000B43C2300004A78004F07780089
:10B420004F06BE004F05BE004F04BE008F00B100A6
:10B4300000000600B3FE37009960AB00C50432007F
:10B440000E40780050C60200000000001A4078004C
:10B4500050C60200000000001840780050C60200EC
:10B4600000000000073C23001740780050C602008F
:10B4700000000000113C23001140780050C602007B
:10B4800000000000223C23001240780050C6020059
:10B4900000000000333C23001340780050C6020037
:10B4A000000000004F0778004F06BE004F05BE00A9
:10B4B0004F04BE008F00B1000000060091FE37006F
:10B4C0000E87FB00B13C2300403C23006701400095
:10B4D000E70F570085FE3C00516878000E07E80032
:10B4E000820F5000FAFF3A004F0778004F06BE0067
:10B4F0004F05BE004F04BE008F00B10000000600E3
:10B5000080FE3700C819DD000281FB008281410006
:10B51000225B2A00828F510006003A004831DD008C
:10B520008180FB000101410011362700810F51008D
:10B53000C403320090012000E0FC07004F077800B0
:10B540004F06BE004F05BE004F04BE008F00B10085
:10B55000000006006BFE3700C810DD000E87FB0000
:10B560008E804000D0BC2A00808F5000FB043A003F
:10B570007028EF00080120006055B800B4B8020040
:10B58000000000000A054000E0854D000804E900C5
:10B59000FAFF3A00723C23000A497800C859DD00DE
:10B5A0004850DE0000807100C858DE000202E8004A
:10B5B000004A78008283E8008B4B78004858DE0010
:10B5C000E3004100804878004759DD004955DE001E
:10B5D0000A057100C95DDE008A4388008A4C780044
:10B5E0004850DE00E4815000804978002E8720001A
:10B5F0001E47780072C8BF007F405000F003B200C1
:10B600004200DD0031F02F00040E800084806000D5
:10B6100081007000010E880030C1B3004AE8B70015
:10B62000090220000D5327000D0678008800200035
:10B630006055B8003CB702000000000080382100CF
:10B64000D074020000000000A4B802000000000056
:10B6500098B70200000000008000EB00640040008A
:10B66000E08048000A0540008B8548000804E90096
:10B67000F0FF3A00CD5BDD004355DE000A85730024
:10B68000C35DDE008C0F5500270436000C05550005
:10B690008A8F5600030034002E8720001E47780052
:10B6A0008A0678007248E200010032007268ED00FC
:10B6B0008904E900DDFF3A00208720000E48780069
:10B6C00072C8BF007F405000F003B2004200DD00AE
:10B6D00031F02F00020E8000828060008100700037
:10B6E000010E88000004EB006055B8006066B800E9
:10B6F00020C1B3002EB602000000000080047800D4
:10B70000A4B80200000000000900B8004008DE00F4
:10B71000010020000C0640008D8648000040EB0030
:10B72000C8B7020000000000CF81DE000A0540001B
:10B730008B85490040062000D07402000000000004
:10B740000804E800F00F5400E9FF3A0068004600E2
:10B75000E0804E004C0ADD004400DE000000720074
:10B76000C408DE00401FB1000180B1006A09B900C1
:10B770006A02B8008502410068034500E0834D007D
:10B780004C38DD004433DE0006037000C43BDE00AD
:10B7900083E0A9000000000000000000A802800073
:10B7A00020002000A0028800818B200000002A00D9
:10B7B0000001EB0003182A009008BA0092009800DC
:10B7C000E48040000080E800830F5000FAFF3A0058
:10B7D00020002000203B880001002A00113B880047
:10B7E00031002400013B88000600FC0051052000C8
:10B7F000313B8800A10A2000313B880061E7A800A6
:10B800000000000000000000A002880081438000CA
:10B81000C1458800D245880072C8BF000080FB0087
:10B820008000EB00E0458800F1458800064688006E
:10B8300017468800244688003546880050052000B9
:10B84000A10A20007AD4020000000000828B2000B0
:10B8500000002A002100200060D502000000000046
:10B860000884FB00A802880083E0A8000000000014
:10B87000000000004F0778004F06BE004F05BE00D5
:10B880004F04BE008F00B100000006009DFD370090
:10B89000E14F5700CD043200420431000384FB0025
:10B8A0008004EB00484ADD00C842DE0085027200D9
:10B8B0004842DD008180FB000000200004024000BF
:10B8C000858248000280FB008000EB0004014000FC
:10B8D00085814800C830DD000000200002014000E2
:10B8E000838148008301D1000281D300F4FF23004B
:10B8F000840F5100E08F59008F043600233B8800ED
:10B90000123B880030002400003B88000600FC0049
:10B9100050052000303B8800A00A2000303B880002
:10B9200061E7A80000000000000000004F07780059
:10B930004F06BE004F05BE004F04BE008F00B10091
:10B94000000006006FFD37004811DD000E87FB0088
:10B9500006717F004F0778004F06BE004F05BE00FE
:10B960004F04BE008F00B1000000060065FD3700E7
:10B970004811DD000E87FB00733C2300E2497F0085
:10B980004F0778004F06BE004F05BE004F04BE00B3
:10B990008F00B100000006005AFD37000000EB00E8
:10B9A000E0B79F00F0B79F00C808DD008381FB006F
:10B9B000838040004810DD000E87FB000E00400031
:10B9C0008CCE020000000000804C78000000E000F7
:10B9D00061023200E50F5000300332007FB0970063
:10B9E000833C2300804978004800DE000302E80021
:10B9F000004A78006FB097008383E800804B78009E
:10BA00004800DE00E3804100804878004F0778005E
:10BA10004F06BE004F05BE004F04BE008F00B100B0
:10BA20000000060037FD37000283FB008003EB00B7
:10BA3000483ADD00C832DE00850272004832DD007F
:10BA40008381FB000200200004024100858249003E
:10BA50000E81FB008001EB00040241008582490059
:10BA6000C809DD0002002000040041008580490073
:10BA70000008A300A2033200A00020008FFB0700F3
:10BA80004F0778004F06BE004F05BE004F04BE00B2
:10BA90008F00B100000006001AFD37000000EB0027
:10BAA000F0B79F00E0B79F004810DD000E87FB0055
:10BAB0000E004000713C23004CCE0200000000004C
:10BAC0000000E000DA023200E50F5000DF02320031
:10BAD0006FB09700823C2300004978004800DE00E8
:10BAE0008201E800804978007FB097000282E80078
:10BAF000004A78004800DE00E3034100804B7800F4
:10BB00004F0778004F06BE004F05BE004F04BE0031
:10BB10008F00B10000000600FAFC3700C818DD00F5
:10BB20000281FB00828040000E407800FAC70200CC
:10BB300000000000273C23009780FB00C808DD00C0
:10BB40000701E9001280FB00808040008781E90046
:10BB500013407800FAC70200000000004F07780089
:10BB60004F06BE004F05BE004F04BE008F00B1005F
:10BB700000000600E3FC37000E40780044C80200D5
:10BB800000000000633C2300804978004800DE008C
:10BB90000302E800004A78004F0778004F06BE0015
:10BBA0004F05BE004F04BE008F00B100000006002C
:10BBB000D4FC37000E40780044DD02000000000095
:10BBC0006A04B9001A40780044DD02000000000059
:10BBD00000444400A3842000884978008880FB004A
:10BBE000C608DD00808B22000080400050448800A1
:10BBF000E93B2300E58544001AC6B300D94F150080
:10BC0000170032008040EB000840780008970200DF
:10BC1000000000008040EB00084078002ACA0200C3
:10BC2000000000001980FB008000EB000002B10062
:10BC30000180B10087052000870F5000E08F580079
:10BC400012003600300020001CFB07008B8F5400D0
:10BC5000A6FC32000844E800D94F1500E9FF3A007D
:10BC60008040EB000840780064990200000000006A
:10BC70008040EB0008407800AE9902000000000010
:10BC8000EEDA020000000000F0FF37000060010063
:10BC9000EEFF3700EBFF3700EAFF3700E9FF370020
:10BCA000E8FF3700E7FF3700E6FF3700E5FF370022
:10BCB000E4FF3700E3FF3700E2FF3700E1FF370022
:10BCC000E0FF3700DFFF3700DEFF3700DDFF370022
:10BCD000DCFF3700DBFF3700DAFF3700D9FF370022
:10BCE000D8FF3700D7FF3700D6FF3700D5FF370022
:10BCF000D4FF3700D3FF3700D2FF3700D1FF370022
:10BD0000D0FF3700CFFF3700CEFF3700CDFF370021
:10BD1000CCFF3700CBFF3700CAFF3700C9FF370021
:10BD2000C8FF3700C7FF3700C6FF3700C5FF370021
:10BD3000C4FF3700C3FF3700C2FF3700C1FF370021
:10BD4000C0FF3700BFFF3700BEFF3700BDFF370021
:10BD5000BCFF3700BBFF3700BAFF3700B9FF370021
:10BD6000B8FF3700B9FF3700B6FF3700B5FF37001F
:10BD7000B4FF3700B3FF3700B2FF3700B1FF370021
:10BD8000B0FF3700AFFF3700AEFF3700ADFF370021
:10BD9000ACFF3700B2FF3700AAFF3700A9FF37001A
:10BDA00000023700A7FF3700A6FF3700A5FF3700C6
:10BDB000F0013700E3013700A2FF3700A1FF370091
:10BDC000D40137009FFF37009EFF37009DFF3700EB
:10BDD0009CFF37009BFF37009AFF370009023700AE
:10BDE00098FF3700FB01370096FF3700BE01370090
:10BDF00096FF37000E40780044DD0200000000008E
:10BE0000804578001A40780044DD02000000000000
:10BE1000004578001840780044DD02000000000072
:10BE20000084FB008004EB006A44B800033C23005C
:10BE30001340780044DD0200000000000080FB0099
:10BE40008000EB0008044000898448006A48B9007B
:10BE50006A44B80089044000143C23001440780070
:10BE600044DD0200000000000080FB008000EB00C9
:10BE700008044000898448006A48B9006A44B80050
:10BE800089044000273C23001740780044DD02006D
:10BE9000000000000080FB008000EB000804400070
:10BEA000898448006A48B9006A44B800890440009F
:10BEB000313C23001140780044DD02000000000006
:10BEC0000080FB008000EB000804400089844800EB
:10BED000E10F4400E08F5C0073023E006A58B90035
:10BEE0000040450088007800FAC70200000000000A
:10BEF0004F0778004F06BE004F05BE004F04BE003E
:10BF00008F00B10000000600FEFB3700C4C4B30080
:10BF1000844F5700F5FB3A0063425200844F5100B2
:10BF2000F2FB3A00E2C4B30082CF5100EFFB3A00CB
:10BF30006941510082CF5000ECFB3A0021C4B300AC
:10BF4000814F5300E9FB3A00E9C040000FF1970030
:10BF5000814F5100E5FB3A0010C3B30080CF53007E
:10BF6000860332001D68EF004F0778004F06BE00C1
:10BF70004F05BE004F04BE008F00B1000000060058
:10BF8000E0FB370030C5B300804C780010C3B3002D
:10BF9000613C230080487800674040000101E800D0
:10BFA000004978007648E200480232006A404000CA
:10BFB0008181E8008049780020C3B300973C2300CA
:10BFC000804B780000C0E9008700E80080487800D6
:10BFD000674040000781E800004978004F0778007B
:10BFE0004F06BE004F05BE004F04BE008F00B100DB
:10BFF00000000600C3FB370054C6B300844F57004F
:10C0000003003A0072425200844F51001E01320078
:10C010004000200029FA07004F0778004F06BE00B5
:10C020004F05BE004F04BE008F00B10000000600A7
:10C03000B4FB37000E40780044DD02000000000031
:10C040006A00B900804578001A40780044DD02009B
:10C050000000000000C545006A55B900184078008E
:10C0600044DD020000000000984C780001C2B300DB
:10C07000623C2300014978000040450044C80200AA
:10C0800000000000713C23007EDD02000000000083
:10C090004F0778004F06BE004F05BE004F04BE009C
:10C0A0008F00B1000000060096FB37000604E00098
:10C0B000E7013A00C808DD008381FB00838040006F
:10C0C0004810DD000E87FB000E004000BACC0200D5
:10C0D000000000000000E0005A023A009880FB00D7
:10C0E000E8804000023C23001280FB004800DD0095
:10C0F00000804000733C2300804978004800DE0047
:10C100000302E800004A78004F0778004F06BE009F
:10C110004F05BE004F04BE008F00B10000000600B6
:10C1200078FB3700C0438000F1FF2100810F5000F1
:10C130006EFB3E0080805000E68F50007502360096
:10C14000818B200000824000D73B230006000900BD
:10C15000375A780067004000C04388004F077800D6
:10C160004F06BE004F05BE004F04BE008F00B10059
:10C170000000060063FB3700D83B2300660544003F
:10C180008044EB008E407800D043800070CD0200E8
:10C19000000000008000780001F0A7008100EA00A4
:10C1A0008100E900CF08DE000104E0000100320058
:10C1B0008944E8008A0F54006F0132000104E00056
:10C1C0006D013200D8407800EFFF37004810DD00E5
:10C1D0000E87FB000E004000C04388000381FB0077
:10C1E000E40F5100A6023E0002044000F1FF2100CE
:10C1F000810F5400E2013E00818B200001004000CD
:10C20000013C23000254020000000000C8438800E3
:10C210004F0778004F06BE004F05BE004F04BE001A
:10C220008F00B1000000060036FB3700804CEB00A9
:10C230000304E000A40232008046EB000E407800C8
:10C240008D80FB008180E800818045004811DD0081
:10C250000080FB0000004100F0CD02000000000063
:10C260000000E00001003A00994CE8008D46E8002B
:10C2700098CF16006B0136000000E00069013A001B
:10C280001C4078001A417800EDFF37004810DD00AF
:10C290000E87FB000E004000F2FF2100820F5000CD
:10C2A0002E023E0000015100E70F51000100360050
:10C2B00072002000818B200081004000503C230050
:10C2C00002540200000000004F0778004F06BE0035
:10C2D0004F05BE004F04BE008F00B10000000600F5
:10C2E00008FB37004810DD000E87FB000E00400001
:10C2F000D04388000001EB000045EB000304E000A0
:10C30000330132008A44780070CD02000000000042
:10C310008000780001F0A7008100EA008100E900B8
:10C32000CF08DE000104E000010032000A45E80009
:10C330008944E80098CF1400240136000104E0008D
:10C34000220132000980FB0064004000ED407800CB
:10C35000D0438000ECFF37000A3C23009A80FB00AA
:10C36000C808DD008A04E9001880FB000080400056
:10C37000713C23004CCE0200000000000000E000F1
:10C3800094FD3A009A80FB00C808DD001980FB008C
:10C3900000804000F280570014CD02000000000031
:10C3A0009A80FB00C808DD001980FB000080400077
:10C3B000F48057003CCD0200000000007FB09700E1
:10C3C000833C2300804978004800DE000302E80037
:10C3D000004A78006FB097008383E800804B7800B4
:10C3E0004800DE00E38041008048780087FD370088
:10C3F0006D405000804F5100A0FB3A006E4040005D
:10C4000080CF51009DFB3A0082CF50009BFB3A0049
:10C410000040E800804F530098FB3A002268EF008C
:10C4200010C0B30023E8B7004F0778004F06BE00E6
:10C430004F05BE004F04BE008F00B1000000060093
:10C44000B0FA3700C838DD000FF197000280FB001A
:10C4500080804000802F2A00808F500035FC3A00F9
:10C46000E14F57001C0232001A68EF004F077800B6
:10C470004F06BE004F05BE004F04BE008F00B10046
:10C48000000006009FFA37008ECF5100E0FE3A0010
:10C4900042C5B30082CF5000DDFE3A0011C2B300A6
:10C4A000814F5300DAFE3A0081C0E8000FF0970098
:10C4B000814F5000D6FE3A00A0C2B30080CF530097
:10C4C000D3FE3A0074F90200010000004F07780023
:10C4D0004F06BE004F05BE004F04BE008F00B100E6
:10C4E0000000060087FA37008040EB000840780023
:10C4F00064990200000000008040EB0008407800D2
:10C50000AE9902000000000060D7020000000000A9
:10C51000CEFD37008040EB000840780064990200AF
:10C52000000000008040EB0008407800AE99020057
:10C5300000000000084078005C9902000000000044
:10C54000C2FD37008040EB0008407800649902008B
:10C55000000000008040EB0008407800AE99020027
:10C560000000000008407800E4970200000000008E
:10C57000B6FD37008040EB00084078006499020067
:10C58000000000008040EB0008407800AE990200F7
:10C5900000000000084078006099020000000000E0
:10C5A000AAFD37008040EB00084078006499020043
:10C5B0000000000011C0B30008407800AE990200EE
:10C5C0000000000008407800E4970200000000002E
:10C5D0009EFD37008040EB0008407800AE990200D5
:10C5E0000000000011C0B300084078006499020008
:10C5F0000000000008407800E497020000000000FE
:10C6000092FD37008040EB000840780064990200FA
:10C61000000000008040EB0008407800AE99020066
:10C6200000000000D6D002000000000087FD3700A7
:10C630009A80FB00C808DD001C80FB0000804000E1
:10C64000F480570014CD0200000000009A80FB0027
:10C65000C808DD001C80FB0000804000F28057000D
:10C660003CCD0200000000006FB09700823C230028
:10C67000004978004800DE008201E8008049780027
:10C680007FB097000282E800004A78004800DE0090
:10C69000E3034100804B780019FD3700023C230082
:10C6A0009280FB00C808DD001880FB00008040007D
:10C6B000F48057003CCD0200000000007FB09700DE
:10C6C000833C2300804978004800DE000302E80034
:10C6D000004A78006FB097008383E800804B7800B1
:10C6E0004800DE00E380410080487800C7FC370046
:10C6F0000280FB004600DD00818B2200473D2300C5
:10C70000008140003F000900B25B78008381FB009C
:10C71000403D2300543C23008303400006000900F1
:10C72000375A7800CBFA37000A0556008A8F560030
:10C73000030034002E8720001E4778008A06780008
:10C74000C0C3B3007248E300D9FB3E007268EC003E
:10C75000D7FB3700B001200058F807004F077800DA
:10C760004F06BE004F05BE004F04BE008F00B10053
:10C7700000000600E3F93700723C23000949780005
:10C780008201E80080497800F2805700D0438000A1
:10C790003CCD0200000000007FB09700943C2300D5
:10C7A000004A78004800DE008403E800804B7800EF
:10C7B0004F0778004F06BE004F05BE004F04BE0075
:10C7C0008F00B10000000600CEF9370000017800AC
:10C7D000733C23008A4978000302E800024A78008B
:10C7E000F2805700D04380003CCD020000000000E2
:10C7F0007FB09700973C2300804B78004800DE0014
:10C800008700E800804878004F0778004F06BE0098
:10C810004F05BE004F04BE008F00B10000000600AF
:10C82000B8F93700E5CF5600B0F93E00B13C23001F
:10C83000804878004F0778004F06BE004F05BE00C5
:10C840004F04BE008F00B10000000600ADF93700B4
:10C85000E14F5300A60032000003200017F8070044
:10C860004F0778004F06BE004F05BE004F04BE00C4
:10C870008F00B10000000600A2F93700EA4F570010
:10C880007D003200C00120000CF807004F0778003F
:10C890004F06BE004F05BE004F04BE008F00B10022
:10C8A0000000060097F937002000200003F8070079
:10C8B0004F0778004F06BE004F05BE004F04BE0074
:10C8C0008F00B100000006008EF9370010C4B300DD
:10C8D000843C2300004A780020C3B300973C230027
:10C8E000804B780000C0E9008700E80080487800AD
:10C8F000674040000781E80000497800B7FD370035
:10C90000A2028000A10288009000BA00843C2300AB
:10C91000014A7800C808DE008403E800814B7800F3
:10C920001080BA008280FB00A10288008480E800A9
:10C93000804878004800DE0063014200004978002A
:10C940004F0778004F06BE004F05BE004F04BE00E3
:10C950008F00B100000006006AF937008001200056
:10C96000D6F707004F0778004F06BE004F05BE0000
:10C970004F04BE008F00B1000000060061F93700CF
:10C9800080002000CDF707004F0778004F06BE005B
:10C990004F05BE004F04BE008F00B100000006002E
:10C9A00058F93700E24F570075003200E34F570047
:10C9B0004EF93A0020418000633C23008049780012
:10C9C000204180004800DE000302E800004A7800B1
:10C9D00083E0A9000000000000000000A202800027
:10C9E00010002000A002880041802F009100BA00B2
:10C9F0000281FB00A202880083E0A8000000000082
:10CA0000000000008383E800814B7800C808DE0046
:10CA10006381410001497800E48141008049780048
:10CA200064024200004AEB004F0778004F06BE0048
:10CA30004F05BE004F04BE008F00B100000006008D
:10CA400030F93700773C2300804BEB008700E8008B
:10CA50008048EB000781E800004978004F07780024
:10CA60004F06BE004F05BE004F04BE008F00B10050
:10CA70000000060023F937000304E0000D00320037
:10CA80008381FB0040412300573C2300830040008A
:10CA900006000900B15B78004F0778004F06BE0022
:10CAA0004F05BE004F04BE008F00B100000006001D
:10CAB00014F9370002407800E2C0B3000440BC0023
:10CAC000C034230041412300020240000D00090050
:10CAD000B45878008381FB0040412300573C230079
:10CAE0008300400006000900B15B7800EAFF3700D0
:10CAF000C808DD008381FB00838040004810DD0012
:10CB00000E87FB000E004000DECC0200000000009B
:10CB100070FD37009000200068F707004F0778008D
:10CB20004F06BE004F05BE004F04BE008F00B1008F
:10CB300000000600F3F83700B00020005FF70700A0
:10CB40004F0778004F06BE004F05BE004F04BE00E1
:10CB50008F00B10000000600EAF83700B0022000A4
:10CB600056F707004F0778004F06BE004F05BE007E
:10CB70004F04BE008F00B10000000600E1F837004E
:10CB800002802B0013002000000024000100200080
:10CB90004FF8070020418000613C23008048780066
:10CBA000204180004800DE000101E80000497800D3
:10CBB0004F0778004F06BE004F05BE004F04BE0071
:10CBC0008F00B10000000600CEF837000384FB00A0
:10CBD0008004EB00484ADD00C842DE008502720096
:10CBE0004842DD008180FB0000002000040240007C
:10CBF000858248000280FB008000EB0004014000B9
:10CC000085814800C830DD0000002000020140009E
:10CC1000838148008304D1000284D300F7FF2300FE
:10CC2000870F5400E08F5C00C3FF360083E0A9004B
:10CC3000000000000000000050052000A10A2000B4
:10CC40007AD4020000000000828B20000800BE00A1
:10CC500060D502000000000083E0A8000000000092
:10CC6000000000004F0778004F06BE004F05BE00D1
:10CC70004F04BE008F00B10000000600A1F837008D
:10CC8000700020000DF707004F0778004F06BE0028
:10CC90004F05BE004F04BE008F00B100000006002B
:10CCA00098F837006001200004F707004F0778006C
:10CCB0004F06BE004F05BE004F04BE008F00B100FE
:10CCC000000006008FF837000000EB00B13C2300A5
:10CCD00080487800D7FE37007648E2001E00320018
:10CCE00000FC2F00B407B6005000B300A03D880040
:10CCF00000F82F00D807B6003000B300C03E88000F
:10CD00009AC502000000000080FF2F00AE00B600B0
:10CD10000000A00070058800F0FF2800AC00B600FD
:10CD200000C0A000600588007686A900E0CFB300AF
:10CD300067E8B700A38120008E4978004F0778008C
:10CD40004F06BE004F05BE004F04BE008F00B1006D
:10CD5000000006006BF83700A0012000D7F607009E
:10CD60004F0778004F06BE004F05BE004F04BE00BF
:10CD70008F00B1000000060062F8370010C0B30059
:10CD80001DE8B7004F0778004F06BE004F05BE00F4
:10CD90004F04BE008F00B1000000060059F83700B4
:10CDA000889FBE008A1F78007648E20002003200A9
:10CDB0001A48E200340032000000EB00ECC602002A
:10CDC00000000000004478007AC702000000000064
:10CDD0000908200000805400E70F500025003600AD
:10CDE0005AC5B3007AC7020000000000890F500046
:10CDF0000F0032008A4F54000300320000C2B3001B
:10CE0000804F54000A003A00DCC502000000000018
:10CE10000000EB00ECC602000000000000447800B7
:10CE20007AC7020000000000890F5000F1FF3A00AD
:10CE30007AC70200000000000108200000805000B6
:10CE4000E70F50000B003600B83B2300E804440015
:10CE5000DCC5020000000000006C7800890F54005F
:10CE6000FBFF3A001D48E20033003A00EFF70700ED
:10CE70006BF607007648E20003003A004F057800A1
:10CE80004F04BE00000006002BC8BF00E74F500053
:10CE9000FAFF36001F68EF00C03B2300C1462300A5
:10CEA00007000900315878002B68EF002148E200A4
:10CEB000020032002068EF00AB84A800DBF7070017
:10CEC00083E0A900000000000000000040472300AC
:10CED000413C2300070009003158780010C0B3001E
:10CEE0001FE8B7001E68EF002148E2000200320090
:10CEF0002168EF001F68EF002048E20007003200C1
:10CF00001F48E200050032002068EF002168EF00B2
:10CF1000AB84A8001F68EF002C68EF0083E0A80036
:10CF200000000000000000004F0578004F04BE0024
:10CF300000000600D4FF370081002000C03B230022
:10CF400098C6020000000000B8F7070034F607009A
:10CF5000C8FF37006E01B9008200780082352300D7
:10CF60000101410000C9EB00C234230081004100EF
:10CF70008008EB00E20F50002B0032000A00360060
:10CF8000E40F500031003200150031003022EF0074
:10CF9000C0002000901188003822EF009840A900BE
:10CFA0008840A900000006000000E00009003A00E7
:10CFB0009022EF009222EF009422EF000010200058
:10CFC000B01488009A22EF009C22EF009E22EF000E
:10CFD00000000600E10F50000A00320000000600C9
:10CFE000E50F5000FDFF3A004422EF00C000200092
:10CFF000301288004C22EF009B20A9008B20A90052
:10D0000000000600B422EF00B622EF00B822EF00C5
:10D0100000102000D0158800BE22EF00C022EF00D3
:10D02000C222EF00000006000023EF000223EF0001
:10D030000423EF0000102000301888000A23EF00BE
:10D040000C23EF000E23EF00000006003A22EF0051
:10D05000C0002000E01188004222EF0098C0A90023
:10D0600088C0A90000000600881F78000044EB007B
:10D070000880FB00B7FF07000844E800E84F5400B1
:10D08000FBFF3A004F04780000000600881F78007C
:10D09000000478004AC8BF001A980200000000008F
:10D0A0000004E00008003A00F00F2000E50F5400F3
:10D0B0000300360060002000EB0F54000F00320028
:10D0C0004F04780000000600E60F54000F00320005
:10D0D00083352300830078000000EB0000417800D6
:10D0E00000C2EB00914F12000C0032000000E8007B
:10D0F000EE804000E60F5000F8FF3A00F00F2000ED
:10D100004F04780000000600EFFF370008007800A9
:10D110004F04780000000600EBFF37006E00B900F6
:10D12000A484200014427800847178000280FB00FF
:10D130004F04780000000600E3FF37000400FA0007
:10D14000881F780000047800E60F54003300320096
:10D150004AC8BF00D2BF9F00E3BF9F001A980200D9
:10D16000000000005FB99700EFB997000004E000ED
:10D1700009003A00F00F2000E50F540003003600CC
:10D1800060002000EB0F5400460032004F0478008E
:10D190000080FA000000060060002000C1FD2F00A2
:10D1A000810F5100E08F5900F8FF3E0070802F0082
:10D1B000F1FF2F00020040008380480074D3260056
:10D1C000840F5000E08F580019003E008535230081
:10D1D00015437800A1842000914078000040EB00C6
:10D1E0008001EB00C4342300E14F430040003200D3
:10D1F000814F53003E0032000040E800E64F5000EF
:10D20000DFFF32008081FB00E2C0B3000440BC00BD
:10D210006C01410064437900F3FF37000800780097
:10D220004F0478000080FA0000000600DAFF3700A3
:10D230008535230015437800E14F43002400320078
:10D24000A184200091407800814F530022003200D9
:10D250006436230014407800E14F4000160032008D
:10D2600080CF500014003200403723001042780075
:10D27000E14F42002500320084CF500023003200ED
:10D280006000200004532700840F5100E08F5900F4
:10D29000BEFF3E000040EB008001EB00C4342300E1
:10D2A000D1FF3700F00F20004F0478000080FA0013
:10D2B00000000600B8FF3700014A78001000200087
:10D2C0004F0478000080FA0000000600B2FF37002B
:10D2D000A684200016437800864A78000000EB0000
:10D2E0004F0478000080FA0000000600AAFF370013
:10D2F0006E1BB90081727B00030078004F04780038
:10D300000080FA0000000600A3FF37000148780003
:10D31000200020004F0478000080FA000000060082
:10D320009DFF3700889FBE00000478004AC8BF00F8
:10D330001A980200000000000004E00006003A0015
:10D34000EA0F54000A003200E50F540015003600C1
:10D350004F04BE00000006008040EB004AC8BF003A
:10D36000E295020000000000EA0F5400F6FF3A00C8
:10D37000893523000044EB00194078004A48E30057
:10D380000D0032000844E800EE844400E84F5400E9
:10D39000EFFF3200194078004A48E300F9FF3A00F5
:10D3A0000500370008007800EAFE07004F04BE00C1
:10D3B00000000600E8FF37000880FB00E5FE0700DC
:10D3C0000844E800EE844400E84F5400F1FF3A00BE
:10D3D000DFFF3700881F780000017800E30F51005D
:10D3E0006A00320014003600E50F51004700320099
:10D3F0002200310000C02100D01188003C22EF0043
:10D400003E22EF00C408DD00011288004222EF0036
:10D4100088C0A90098C0A9000080E800D011880049
:10D42000E1C0B3004AC8BF00E2950200000000005E
:10D430004F04780000000600E10F51004500320063
:10D44000240036000023EF001023EF00C408DD00A5
:10D45000C118880041C1B3004AC8BF00E29502006C
:10D46000000000000C23EF002000280000188800B6
:10D470004F04780000000600EFFF3700E60F510070
:10D48000EBFF3A005844800000102E000008B8005E
:10D4900002242400F3002000485102000000000094
:10D4A000401C9800E0FF2F00501C98000000EB008B
:10D4B000201C9800301C98008040EB004AC8BF0038
:10D4C000E2950200000000004F0478000000060012
:10D4D000D9FF37009022EF00A022EF00C408DD0042
:10D4E0004115880001C1B3004AC8BF00E29502009F
:10D4F000000000009C22EF0020002800801488001B
:10D500004F04780000000600CBFF370000C0210068
:10D51000201288004622EF004822EF00C408DD00F8
:10D52000511288004C22EF008B20A9009B20A900FB
:10D530000080E80020128800F1C0B3004AC8BF0094
:10D54000E2950200000000004F0478000000060091
:10D55000B9FF3700B422EF00C422EF00C408DD0099
:10D560006116880021C1B3004AC8BF00E2950200DD
:10D5700000000000C022EF0020002800A015880055
:10D580004F04780000000600ABFF370000C0210008
:10D59000801188003222EF003422EF00C408DD0041
:10D5A000B11188003822EF008840A9009840A900F6
:10D5B0000080E80080118800D1C0B3004AC8BF00D5
:10D5C000E2950200000000004F0478000000060011
:10D5D00099FF37000400FA00889FBE00E30F500057
:10D5E000FB00320029003600E50F5000AD0032008C
:10D5F0004D0031000100E000A4003200E18F400046
:10D600001A01320080BB2000800F5100E08F5900CA
:10D610008F01360005532700850F5100E08F590018
:10D6200017003E000201410083814900019AB900C0
:10D630000208B800810042004008DE00010020001E
:10D64000E41180007F026200FF0F520027023200C7
:10D65000F4012000E4118800F21188000012880013
:10D6600088C0A90098C0A90060002000D0118800DF
:10D67000E1C0B3004AC8BF00E2950200000000000C
:10D680004F04BE000080FA0000000600E10F5000C9
:10D69000AB003200590036000100E0007B00320090
:10D6A000E18F4000F1003200807F2000800F5100A8
:10D6B000E08F59005101360085FC2000850F510094
:10D6C000E08F5900B1023E00441ADD00CC12DE00AA
:10D6D000850272004412DD00500028000003E300C0
:10D6E0004E0232000023EF001023EF001823EF005A
:10D6F000A41888005000280000188800A018800096
:10D700000100B800E118880041C1B3004AC8BF0059
:10D71000E2950200000000004F04BE000080FA0005
:10D7200000000600D9FF3700E60F5000D4FF3A0092
:10D73000E18F4000CD003200F0EB2000009AB900EC
:10D740000011B800830142000400280005002000F9
:10D750000201420083814A004019DE0003002000DC
:10D76000019AB9000114B80089044200404CDE005F
:10D770000900200050448000401A90008002EB0015
:10D78000880F5200898F5A0007003A00501A900003
:10D790008002EB000800510089805900800F520080
:10D7A000818F5A00B6FF3200C2BF9F00D3BF9F00D7
:10D7B000E29A0200000000005044800048189800DF
:10D7C0004FB997000801510052189800A019900015
:10D7D000830F54000100310028189800B018900001
:10D7E000810F5100A6FF3100321898004F04BE008F
:10D7F0000080FA0000000600A4FF37000100E000EE
:10D8000022003200E18F400098003200807F20002B
:10D81000800F5100E08F5900E300360085FC2000A6
:10D82000850F5100E08F590031023E00441ADD009F
:10D83000CC12DE00850272004412DD005000280088
:10D840009002E300E70132009022EF00A022EF00F7
:10D85000A822EF00241588005000280080148800BA
:10D86000201580000100B8006115880001C1B300D7
:10D870004AC8BF00E2950200000000004F04BE004D
:10D880000080FA000000060080FF3700E29A0200E4
:10D89000000000004F04BE000080FA0000000600F7
:10D8A0007AFF37000100E000F8FF3200E18F40000E
:10D8B0006E00320080BB2000800F5100E08F5900C5
:10D8C0009F00360005532700850F5100E08F590057
:10D8D0006BFF3E000201410083814900019AB900BB
:10D8E0000208B800810042004008DE00010020006C
:10D8F000341280007F026200FF0F52009301320059
:10D90000F40120003412880042128800501288006E
:10D910008B20A9009B20A900600020002012880015
:10D92000F1C0B3004AC8BF00E29502000000000049
:10D930004F04BE000080FA000000060053FF3700CD
:10D940000100E000D1FF3200E18F400047003200CB
:10D95000807F2000800F5100E08F59006300360067
:10D9600085FC2000850F5100E08F5900B9013E0071
:10D97000441ADD00CC12DE00850272004412DD0084
:10D9800050002800B402E30088013200B422EF0006
:10D99000C422EF00CC22EF0044168800500028007B
:10D9A000A0158800401680000100B800811688008C
:10D9B00021C1B3004AC8BF00E29502000000000088
:10D9C0004F04BE000080FA00000006002FFF370061
:10D9D0000100E000ADFF3200E18F40002300320083
:10D9E00080BB2000800F5100E08F590025003600D9
:10D9F00005532700850F5100E08F590013003E00AA
:10DA00000201410083814900019AB9000208B8006F
:10DA1000810042004008DE000100200094118000D7
:10DA20007F026200FF0F520018013200F401200053
:10DA300094118800A2118800B01188008840A900C4
:10DA40009840A9006000200080118800D1C0B30078
:10DA50004AC8BF00E2950200000000004F04BE006B
:10DA60000080FA000000060008FF37007A9A0200E2
:10DA7000000000004F04BE000080FA000000060015
:10DA800002FF3700441ADD00CC12DE00850272006E
:10DA90004412DD0001A9B9000408B800810041006A
:10DAA0004008DE0001002000921180007F0161002B
:10DAB000FF0F5100DC003200F201200092118800BB
:10DAC000A4118800B01188008840A9009840A900DE
:10DAD00060C0210080118800D1C0B3004AC8BF00D7
:10DAE000E295020000000000DCFF3700451ADD006F
:10DAF000CB12DE00850272004512DD005040280086
:10DB0000B402E3006C003200B422EF00C422EF0044
:10DB1000CC22EF004416880050402800A015880051
:10DB2000401680000100B8008116880021C1B300B2
:10DB30004AC8BF00E295020000000000A0FF3700C5
:10DB4000441ADD00CC12DE00850272004412DD00B2
:10DB500001A9B9000408B800810041004008DE00B6
:10DB600001002000321280007F016100FF0F510090
:10DB70006D003200F2012000321288004412880049
:10DB8000501288008B20A9009B20A90060C02100B2
:10DB900020128800F1C0B3004AC8BF00E29502001D
:10DBA0000000000062FF3700451ADD00CB12DE00E6
:10DBB000850272004512DD00504028009002E3000B
:10DBC0004B0032009022EF00A022EF00A822EF00CD
:10DBD00024158800504028008014880020158000FB
:10DBE0000100B8006115880001C1B3004AC8BF0038
:10DBF000E29502000000000020FF3700451ADD001A
:10DC0000CB12DE00850272004512DD005040280074
:10DC10000003E3005D0032000023EF001023EF005B
:10DC20001823EF00A418880050402800001888002E
:10DC3000A01880000100B800E118880041C1B300BD
:10DC40004AC8BF00E295020000000000B2FE3700A3
:10DC5000441ADD00CC12DE00850272004412DD00A1
:10DC600001A9B9000408B800810041004008DE00A5
:10DC700001002000E21180007F016100FF0F5100D0
:10DC800050003200F2012000E2118800F4118800F7
:10DC90000012880088C0A90098C0A90060C02100B7
:10DCA000D0118800E1C0B3004AC8BF00E29502006D
:10DCB0000000000072FE3700CC02E20092FF3A0042
:10DCC000421680008001EB00840F5100858F5900BF
:10DCD00034FF3200B422EF00C422EF00CC22EF0068
:10DCE0004416880050402800A01588008CFF37009B
:10DCF000A802E200B3FF3A00221580008001EB0089
:10DD0000840F5100858F5900D5FE32009022EF001C
:10DD1000A022EF00A822EF00241588005040280020
:10DD200080148800ADFF3700421280008001EB00B4
:10DD3000840F5100858F59008EFF3A0052128000E7
:10DD40008001EB00800F5100818F590089FF3A005C
:10DD500073C02100221280008281610062C0210014
:10DD6000828F5100EEFE3200F20120003212880054
:10DD700044128800501288008B20A9009B20A90023
:10DD800060C021002012880082FF37001803E200E3
:10DD9000A1FF3A00A21880008001EB00840F51001F
:10DDA000858F590055FE32000023EF001023EF004D
:10DDB0001823EF00A418880050402800001888009D
:10DDC0009BFF3700F21180008001EB00840F5100AF
:10DDD000858F5900ABFF3A00021280008001EB00F2
:10DDE000800F5100818F5900A6FF3A0073C02100B7
:10DDF000D21180008281610062C02100828F5100B7
:10DE00001BFE3200F2012000E2118800F4118800AC
:10DE10000012880088C0A90098C0A90060C0210035
:10DE2000D01188009FFF3700A21180008001EB0015
:10DE3000840F5100858F59001FFF3A00B2118000F6
:10DE40008001EB00800F5100818F59001AFF3A00CA
:10DE500073C02100821180008281610062C02100B4
:10DE6000828F5100F9FE3200F201200092118800E9
:10DE7000A4118800B01188008840A9009840A9002A
:10DE800060C021008011880013FF3700A4118000BA
:10DE90008002EB00820F5200838F5A00E3FE3A00AB
:10DEA000B41180008002EB00800F5200818F5A0075
:10DEB000DEFE3A0074C02100851180000502620078
:10DEC000E60F5200E1FE3200F401200094118800B8
:10DED000A2118800B01188008840A9009840A900CC
:10DEE0006000200080118800D8FE3700F411800007
:10DEF0008002EB00820F5200838F5A00D4FD3A005B
:10DF0000041280008002EB00800F5200818F5A00C3
:10DF1000CFFD3A0074C02100D511800005026200D7
:10DF2000E60F5200D2FD3200F4012000E411880017
:10DF3000F21188000012880088C0A90098C0A900CA
:10DF400060002000D0118800C9FD37004412800015
:10DF50008002EB00820F5200838F5A0068FE3A0065
:10DF6000541280008002EB00800F5200818F5A0013
:10DF700063FE3A0074C02100251280000502620091
:10DF8000E60F520066FE3200F401200034128800D1
:10DF900042128800501288008B20A9009B20A90003
:10DFA00060002000201288005DFE3700CC02E200F5
:10DFB00076FE3A00421680008001EB00840F51008B
:10DFC000858F590077FE3200B422EF00C422EF00A3
:10DFD000CC22EF004416880050002800A0158800CD
:10DFE00070FE3700A802E20017FE3A0022158000FA
:10DFF0008001EB00840F5100858F590018FE32001C
:10E000009022EF00A022EF00A822EF002415880044
:10E01000500028008014880011FE37001803E20029
:10E02000B0FD3A00A21880008001EB00840F51007F
:10E03000858F5900B1FD32000023EF001023EF005F
:10E040001823EF00A418880050002800001888004A
:10E05000AAFD3700C0FA2300800F5100E08F59005D
:10E06000B7003E00421ADD00CE12DE0085027200CB
:10E070004212DD0050042800B402E3000E0032001A
:10E08000B422EF00C422EF00CC22EF004416880037
:10E0900050042800A0158800401680000100B80038
:10E0A0008116880021C1B3004AC8BF00E295020072
:10E0B0000000000042FE3700CC02E200F0FF3A0010
:10E0C000421680008001EB00840F5100858F5900BB
:10E0D00034FE3200B422EF00C422EF00CC22EF0065
:10E0E0004416880050042800A0158800EAFF370075
:10E0F000C0FA2300800F5100E08F59006D003E00F0
:10E10000421ADD00CE12DE00850272004212DD00EE
:10E11000500428009002E3000E0032009022EF002D
:10E12000A022EF00A822EF00241588005004280048
:10E1300080148800201580000100B8006115880057
:10E1400001C1B3004AC8BF00E29502000000000010
:10E15000CAFD3700A802E200F0FF3A002215800055
:10E160008001EB00840F5100858F5900BCFD320007
:10E170009022EF00A022EF00A822EF0024158800D3
:10E180005004280080148800EAFF3700C0FA2300FA
:10E19000800F5100E08F590023003E00421ADD003D
:10E1A000CE12DE00850272004212DD00500428000B
:10E1B0000003E3000E0032000023EF001023EF0005
:10E1C0001823EF00A41888005004280000188800C5
:10E1D000A01880000100B800E118880041C1B30018
:10E1E0004AC8BF00E2950200000000004AFD370067
:10E1F0001803E200F0FF3A00A21880008001EB0053
:10E20000840F5100858F59003CFD32000023EF0040
:10E210001023EF001823EF00A418880050042800F2
:10E2200000188800EAFF370085DE2F00850F5100B7
:10E23000E08F590031FD3E00500828000003E30044
:10E240000E0032000023EF001023EF001823EF0030
:10E25000A21888005008280000188800A018800024
:10E260000100B800E118880041C1B3004AC8BF00EE
:10E27000E29502000000000027FD37001803E200CD
:10E28000F0FF3A00A41880008002EB00820F5200D9
:10E29000838F5A0019FD32000023EF001023EF0096
:10E2A0001823EF00A21888005008280000188800E2
:10E2B000EAFF370085DE2F00850F5100E08F5900FF
:10E2C00067FD3E00500828009002E3000E00320077
:10E2D0009022EF00A022EF00A822EF002215880074
:10E2E0005008280080148800201580000100B80024
:10E2F0006115880001C1B3004AC8BF00E295020061
:10E30000000000005DFD3700A802E200F0FF3A00C7
:10E31000241580008002EB00820F5200838F5A0088
:10E320004FFD32009022EF00A022EF00A822EF0064
:10E33000221588005008280080148800EAFF370062
:10E3400085DE2F00850F5100E08F590095FD3E00BE
:10E3500050082800B402E3000E003200B422EF009F
:10E36000C422EF00CC22EF0042168800500828009B
:10E37000A0158800401680000100B80081168800B2
:10E3800021C1B3004AC8BF00E295020000000000AE
:10E390008BFD3700CC02E200F0FF3A00441680000B
:10E3A0008002EB00820F5200838F5A007DFD320005
:10E3B000B422EF00C422EF00CC22EF004216880006
:10E3C00050082800A0158800EAFF3700E30F50002E
:10E3D0002E00320007003600E50F50002100320009
:10E3E0000C003900E60F5000140032000040EB0032
:10E3F00000000600E10F50001F0032000A00360046
:10E4000060188000680060000000E9004F00DE0036
:10E4100000000600400480000004B2000000E90093
:10E420004F00DE0000000600E0148000680060007D
:10E430000000E9004F00DE000000060051448000AB
:10E440002119900010C0B3000200E000E8FF3A007C
:10E450003119900071F72F00810F5100E4FF3E0049
:10E4600000000500500480000020B2000000E90018
:10E470004F00DE000000060000168000680060000B
:10E480000000E9004F00DE000000060040048000AC
:10E49000640060000000E9004F00DE00000006009C
:10E4A000E60F500001003200000006004AC8BF001D
:10E4B000FC9A0400000000000600FA00889FBE00DD
:10E4C000E50F50000E003E006E03B9006C024300E1
:10E4D000C534230065427A00E14F42004F0032000C
:10E4E000A884200018447800884F52004D00320064
:10E4F000F00F20004F04BE000080FA00000006006C
:10E50000A03B230010427800E14F42003600320069
:10E51000A584200095427800854F520034003200D7
:10E520008003B10000C2EB00904F12004A0032009D
:10E530006E004000904F1200630032006E004000F9
:10E54000904F120079003200A8FB2F000004440015
:10E55000984F12008E0032006036230000C2EB009C
:10E56000904F1200A2003200F00F20004437230029
:10E5700080C2EB002900200094CF1200DDFF3A009A
:10E5800009007800B1BF9F00C2BF9F00D3BF9F00AA
:10E5900070FA07006E4AB90004007800A4842000D5
:10E5A0001442780004747800C43423000000420050
:10E5B000DFB9970003087800800178004FB9970011
:10E5C000822978000001EB0092019800BFB8970003
:10E5D00031009800090078004F04BE000080FA0066
:10E5E00000000600C6FF3700A58420009542780091
:10E5F00005487800739D8900829D89000000EB002A
:10E60000909D8900A19D8900700020004F04BE00EC
:10E610000080FA0000000600B9FF3700A88420003F
:10E62000184478008435230008727B0086824200FB
:10E63000830A780085017800822978000001EB00C8
:10E6400092019800B10298004F04BE000080FA00C9
:10E6500000000600AAFF37003800200008007800FC
:10E66000B1BF9F00C2BF9F00D3BF9F0039FA070010
:10E670006E42B9000400780084352300A584200090
:10E6800095427800057278006C025200000042004A
:10E69000DFB9970003087800800178004FB9970030
:10E6A000822978000001EB0092019800BFB8970022
:10E6B00031009800080078004F04BE000080FA0086
:10E6C000000006008EFF3700480020000800780098
:10E6D000B1BF9F00C2BF9F00D3BF9F001DFA0700BC
:10E6E0006E42B9000400780084352300A584200020
:10E6F00095427800057278006C02520000004200DA
:10E70000DFB9970003087800800178004FB99700BF
:10E71000822978000001EB0092019800BFB89700B1
:10E720003100980008007800E3FF3700580020000F
:10E7300008007800B1BF9F00C2BF9F00D3BF9F00F9
:10E7400004FA07006E42B900040078008435230003
:10E75000A584200095427800057278006C02520072
:10E7600000004200DFB997000308780080017800BC
:10E770004FB99700822978000001EB0092019800C0
:10E78000BFB897003100980008007800CAFF370032
:10E790008004EB0009007800B1BF9F00C2BF9F005A
:10E7A000D3BF9F00EBF907006E4AB9000400780060
:10E7B000A48420001442780004747800C434230038
:10E7C00000004200DFB9970003087800800178005C
:10E7D0004FB99700822978000001EB009201980060
:10E7E000BFB8970031009800090078007AFF370021
:10E7F0001900200009007800B1BF9F00C2BF9F0030
:10E80000D3BF9F00D3F907006E4AB9000400780017
:10E81000A48420001442780004747800C4342300D7
:10E8200000004200DFB997000308780080017800FB
:10E830004FB99700822978000001EB0092019800FF
:10E84000BFB89700310098000900780062FF3700D8
:10E85000E30F5000460032000F003600E50F500075
:10E860002E0032001800310000C021008011880005
:10E870003222EF003422EF00509C8100B01188005A
:10E880003822EF008840A9009840A80020C021004D
:10E890008011880000000600E10F50002B003200BC
:10E8A0000C0036000023EF001023EF008D80A9003C
:10E8B000709B8100A01888000000280000188800C4
:10E8C0009D80A80000000600E70F50000A003200FB
