:108000000048040000000000C84D00000C4E0000B5
:10801000484E0000E64D00002A4E0000325100009C
:108020003251000032510000325100003251000044
:10803000BA5000009A4D00000C4900003251000077
:10804000E25000009E4D000032510000325100000D
:1080500032510000D24E0000664E0000FE4F00007C
:108060003251000032510000325100002849000016
:1080700032510000325100003251000032510000F4
:108080003251000032510000325100000A5100000C
:1080900032510000325100003251000032510000D4
:1080A000A64F0000404F0000325100003251000046
:1080B00032510000325100003251000032510000B4
:1080C00032510000325100003251000032510000A4
:1080D000325100006A5000009250000032510000FE
:1080E000325100003251000032510000424B00007A
:1080F0003251000032510000325100003251000074
:108100003251000032510000325100003251000063
:108110003251000032510000325100003251000053
:10812000325100003251000032510000324F000045
:10813000F44F000032510000325100003251000073
:108140003251000032510000325100003251000023
:108150003251000032510000325100003251000013
:108160003251000032510000325100003251000003
:1081700032510000325100003251000032510000F3
:1081800032510000325100003251000032510000E3
:1081900032510000325100003251000032510000D3
:1081A00032510000325100003251000032510000C3
:1081B0003251000032510000325100001A500000CC
:1081C0004250000032510000325100003251000094
:1081D0003251000032510000325100003251000093
:1081E0003251000032510000325100003251000083
:1081F0003251000032510000325100003251000073
:10820000FFFFFF00FFFFFF00FFFFFF00FFFFFF007A
:109000008F4723000E7F24000E018800000000001F
:10901000000020000000E0000200320000012000FB
:109020002002880014000700900407000000E00000
:1090300003003A00E0192C00010020000200370074
:109040000000200001002000810F700001003200AC
:1090500014000700000020000000E00002003200C1
:109060000000020000000000A4B3020000000000A5
:109070000040DA000000FE004440A900E014200097
:109080000000E00003003200302020009001880042
:109090004440A800000006008A1F78008B1F78005B
:1090A00000000600A1028800800478000000EB00A8
:1090B0001F003700E284440054A0B4009905BA00B0
:1090C000E284440054A0B4009906BA00E28444004B
:1090D00054A0B4000006EB00476FDE00FD07B200AD
:1090E000AE018800636CE10003003A00EAFF07006C
:1090F0000000EB000E003700606CE10008003A0051
:10910000004DEB000A05E800020039003420EC00B5
:109110000AF0A0008B05E900F9FF3E0004003700CB
:109120006168E100010032000086EB000B000700DF
:1091300019C7BA001905BA000E04E00003003A008E
:109140000A00E000DBFF3A0000000600FE07B20064
:10915000AE0288008A047800F5FF37000CD0A30027
:10916000E20F4D001C00390089027800354DBA002D
:109170000A05E800020039003420EC000AF0A000E3
:109180008B05E9000F003200254DBA000A05E80002
:10919000020039003420EC000AF0A0008B05E90041
:1091A000080032000C00E0000600320015CDBA00C5
:1091B0000A05E800020039003420EC000AF0A000A3
:1091C0008B05E9008984E80054A0B4000B00E0009E
:1091D000E2FF3A00000006009902BA00055D78003F
:1091E0008B05E900F7FF3200C82ADE00055D780034
:1091F0008B05E900F3FF32000C00E000F1FF3200C4
:1092000019DDBA00EEFF37003EC90400000000007F
:1092100038A00400000000003600F800809FBE0067
:10922000829FBE00849FBE00869FBE00A098020061
:10923000000000008880A9004F03BE004F02BE005E
:109240004F01BE004F00BE003600F900004006008E
:10925000809FBE00829FBE008A20A9009EE4AB00D2
:109260001E003A00404080008000EB00EB0F5000F1
:10927000E08F58000C0036000668EC009A44A80005
:1092800050408000200090000000E000020032000A
:1092900061002000010878000828EF004F01BE009F
:1092A0004F00BE00004006000060010032003700A1
:1092B0002A00370062003700120037001E00370016
:1092C0008A003700990037001B0037007300370011
:1092D000E9FF37004C0037003F0037009EE4A9004B
:1092E0000828EF0050408000200090000008EB00AC
:1092F0000A28EF004F01BE004F00BE0000400600EC
:10930000E9FF37009E04E2008F00350011C8BF005E
:109310008040E90013812000814978000004E000CA
:10932000D0003A00600020000E28B4000C48ED0088
:109330000CE8B70009003A009A44A80050408000A9
:10934000200090000000E000D3FF32002100200048
:10935000010878000828EF00D0FF37009A24A80001
:1093600020002000404088004F01BE004F00BE009A
:1093700000400600CCFF37000428AB00C7FF3A00CE
:10938000104080005040880010417800C1802000CB
:109390008248780090019000734088006600400089
:1093A0001040880041442300810F50009300320098
:1093B0000408A9000008E3008B0032009A04A8000A
:1093C00020002000404088004F01BE004F00BE003A
:1093D00000400600B4FF37009E04E20071003D002B
:1093E0000668EC009A44A8005040800020009000DD
:1093F0000000E000A8FF32004100200001087800D2
:109400000828EF00A5FF37009E04E200F4FF3500B6
:10941000914080000100D100F00FB200B02488001C
:109420000108A3007B003200B0002000404088000B
:109430004F01BE004F00BE00004006009AFF3700FB
:1094400010C8BF00E14F500064003200714080003E
:10945000110078009040880021019000A24088000F
:10946000214190001381200082497800F10F2000F3
:10947000810F50006D003E00B02488000008A3005A
:109480006400320050002000404088004F01BE00C0
:109490004F00BE000040060083FF3700A12480007B
:1094A000A040800001587800A04088001148ED00DD
:1094B00011E8B7002F003A009AA4A800600020002D
:1094C0000E28B4000C48ED000CE8B70061003A002B
:1094D00040002000404088009A84A8004F01BE0050
:1094E0004F00BE00004006006FFF37009E04E20000
:1094F00025003D000668EC009A44A800504080001A
:10950000200090000000E000020032004100200036
:10951000010878000828EF009FE4A9004F01BE0071
:109520004F00BE00004006005FFF370080002000B3
:10953000404088009A64A8004F01BE004F00BE0062
:109540000040060058FF37000668EC009FE4A900C1
:109550009A44A80050408000200090000000E000E5
:109560004DFF320051002000010878000828EF006C
:109570004AFF37009AA4A9006000200040408800FC
:109580009A84A800D5FF37009A64A80080002000C4
:10959000404088004F01BE004F00BE000040060062
:1095A00041FF37009A24A800904080004800DE0068
:1095B00066006000100FB3009040880010C0B30038
:1095C00010E8B70020002000404088004F01BE0096
:1095D0004F00BE000040060033FF37001068EF0068
:1095E00090408000A1FF37000428A8009A04A8003A
:1095F000200020004040880073FF37006680500044
:10960000104088000408A9000008E3006BFF3A003E
:10961000F5FF370030002000404088004F01BE00B9
:109620004F00BE00004006001FFF37004800DE006C
:1096300066006000000FB300B0248800A000200086
:10964000404088004F01BE004F00BE0000400600B1
:1096500015FF370010002000404088009A84A800C1
:109660009EFF3700A0408000B080FB00B12488003E
:10967000A04088004F01BE004F00BE000040060021
:1096800009FF37003600F800809FBE00829FBE00B1
:10969000849FBE00869FBE0030C6B30016E8B700A8
:1096A0008E20A900E0408000F14080006100400071
:1096B000E0804800E0408800F1408800AE84AB00C4
:1096C0000900320017C8BF00E74F500038003600CD
:1096D0004F03BE004F02BE004F01BE004F00BE0050
:1096E0003600F9000040060020418000E20F5000E3
:1096F0004200320036003100AEA4AB0069003200F7
:10970000AAE4AB0065003A001948E20065003A009F
:1097100041C6B3006281200001497800E10F50008A
:10972000EBFF3A00C0C0B30016E8B700AEA4AB0030
:10973000E7FF3200D0C0B30016E8B700AEC4AB00FC
:10974000D8003A00E0C0B30016E8B7001A48E200BB
:10975000DF003A001948E200DD003A0017C8BF00F8
:10976000E74F5000E2003E00AAA4A9002225800095
:1097700017C8BF000080FB000145230082707800FD
:109780001768EC0017C8BF00E84F5000E000320037
:109790003068EF004F03BE004F02BE004F01BE0015
:1097A0004F00BE003600F90000400600CEFF370033
:1097B0001768EF004F03BE004F02BE004F01BE000E
:1097C0004F00BE003600F90000400600C6FF37001B
:1097D000E30F5000210032003EB202000000000002
:1097E0004F03BE004F02BE004F01BE004F00BE003F
:1097F0003600F90000400600BBFF3700AE04E2006F
:1098000044003500AAA4A90018C8BF000080FB00CE
:1098100081452300614078000080FB0030258800EE
:1098200018C8BF00E64F500001003E001868EC0069
:109830003168EF00AB84A80000C1B30016E8B700A0
:109840004F03BE004F02BE004F01BE004F00BE00DE
:109850003600F90000400600A3FF370020C1B30026
:1098600016E8B70010C0B30026E8B70030C1B30057
:1098700016E8B70020258000100020002041880055
:109880004F03BE004F02BE004F01BE004F00BE009E
:109890003600F9000040060093FF3700AF24AB000C
:1098A00099FF3200AE44AB0027003A0013C0B3006A
:1098B0006281200003497800AFA4AB005D00320054
:1098C0009281200003497800B1C0B300628120007A
:1098D0000149780021258000AAA4A9003048E200AF
:1098E0006A0032003148E20068003A00A1C0B300CB
:1098F0003283200001497800C1C0B300628120009A
:10990000014978001868EF00E10F500070FF3A003D
:1099100084FF37002428EF0018C8BF00E74F50002D
:1099200022003E0010C1B30016E8B7004F03BE008E
:109930004F02BE004F01BE004F00BE003600F900CE
:109940000040060068FF370051C3B3006281200069
:1099500001497800AFA4AB001D00320011C0B30074
:10996000928120000149780051C0B300628120003B
:109970000149780021258000AAA4A9001868EF00F9
:109980003048E200020032003148E2003400320088
:10999000AB84A80041C3B300628120000149780074
:1099A000E10F50004AFF3A005EFF370010CBB300D2
:1099B00016E8B7004F03BE004F02BE004F01BE00C5
:1099C0004F00BE003600F9000040060046FF370099
:1099D00060C0B30016E8B70020258000AAA4A90043
:1099E00018C8BF000080FB0081452300614078005B
:1099F0000080FB003025880018C8BF00E64F5000EB
:109A000001003E001868EC003168EF00AB84A8004C
:109A100020002000204188004F03BE004F02BE00FE
:109A20004F01BE004F00BE003600F90000400600A6
:109A30002DFF37001968EF0020258000100020005E
:109A40002041880031C0B3006281200001497800C4
:109A5000AEA4AB0033FF32001AE8B70031FF370085
:109A6000A0C0B30032E8B70030C3B30016E8B700B7
:109A70004F03BE004F02BE004F01BE004F00BE00AC
:109A80003600F9000040060017FF3700AB84A8003D
:109A9000D1C0B30062812000014978001868EF004E
:109AA00099FF370020258000AEC4A900F0C0B300A4
:109AB00016E8B7004F03BE004F02BE004F01BE00C4
:109AC0004F00BE003600F9000040060006FF3700D8
:109AD0001A68EF004F03BE004F02BE004F01BE00E8
:109AE0004F00BE003600F90000400600FEFE3700C1
:109AF000202580004F03BE004F02BE004F01BE0074
:109B00004F00BE003600F90000400600F6FE3700A8
:109B100010C0B30030E8B7004F03BE004F02BE00D4
:109B20004F01BE004F00BE003600F90000400600A5
:109B3000EDFE37008860A900004006003600F800FE
:109B4000809FBE00829FBE00849FBE00869FBE0095
:109B5000C04280000000E00001003200000001006F
:109B6000504723001048E80011C0B3000000E9008E
:109B70000148780088E0A9004F03BE004F02BE00F4
:109B80004F01BE004F00BE003600F9000040060045
:109B90003600F800809FBE00829FBE00849FBE00FA
:109BA000869FBE008020A9000000EB0024CB0200AD
:109BB000000000004F03BE004F02BE004F01BE0078
:109BC0004F00BE003600F900004006003600F800E5
:109BD000809FBE00829FBE00849FBE00869FBE0005
:109BE0006040230080077800780040000001880072
:109BF0008040A9001000200024CB020000000000DB
:109C00004F03BE004F02BE004F01BE004F00BE001A
:109C10003600F900004006003600F800809FBE00C4
:109C2000829FBE00849FBE00869FBE008060A90008
:109C30002000200024CB0200000000004F03BE00E3
:109C40004F02BE004F01BE004F00BE003600F900BB
:109C5000004006003600F800809FBE00829FBE00D4
:109C6000849FBE00869FBE008080A9003000200037
:109C700024CB0200000000004F03BE004F02BE00D4
:109C80004F01BE004F00BE003600F9000040060044
:109C90003600F800809FBE00829FBE00849FBE00F9
:109CA000869FBE008600A9007000200024CB020021
:109CB000000000004F03BE004F02BE004F01BE0077
:109CC0004F00BE003600F90000400600809FBE0035
:109CD000829FBE007B06A800518D8100408D8100CF
:109CE000808F5000230032008980A900E2262300E3
:109CF00003FC2F00828141009B23AB0010003A003F
:109D0000508D81001080FB00E01C8800508D810088
:109D10000000E800508D8900508D8100820F5000B6
:109D20000B003200608D81000080A100608D8900F1
:109D3000518D8100408D8100808F5000EEFF3A00F0
:109D40007B06A9004F01BE004F00BE000040060088
:109D5000538D8900608D81000080A100608D890095
:109D6000518D8100408D8100808F5000E2FF3A00CC
:109D7000F3FF3700608D81000088A300DAFF3A000E
:109D8000608D81000090A000608D89009980A900FD
:109D90007B06A9004F01BE004F00BE000040060038
:109DA000EBFF3700809FBE00829FBE007B06A800AD
:109DB0008960A900E222230003F82F00828141007C
:109DC0009A03AB001A003200F01C800068E8B7006C
:109DD000218D8100804878005043800061438000DD
:109DE00061004000E08048005043880061438800E3
:109DF000208D81000000E800208D8900208D8100E9
:109E0000820F50000E003200608D81000010A10012
:109E1000608D8900218D8100308D8100808F500000
:109E2000E7FF3A00608D81000000A000608D89008E
:109E30007B06A9004F01BE004F00BE000040060097
:109E4000238D8900608D81000010A100608D890044
:109E5000218D8100308D8100808F5000D8FF3A0025
:109E6000F0FF37007B06A8009A23AB000100320008
:109E70009A23A9009020A9007B06A90000400600B3
:109E8000809FBE00829FBE00A193810090938100BD
:109E9000808F5000220032008BE0A9008233230023
:109EA00003FC2F0082814100B123AB0010003A0077
:109EB000A09381001080FB00901D8800A09381007A
:109EC0000000E800A0938900A0938100820F500059
:109ED0000A003200B09381000080A100B093890095
:109EE000A193810090938100808F5000EEFF3A0093
:109EF0004F01BE004F00BE0000400600A393890042
:109F0000B09381000080A100B0938900A1938100EB
:109F100090938100808F5000E3FF3A00F4FF3700F8
:109F2000B09381000088A300DBFF3A00B09381006A
:109F30000090A000B09389009BE0A9004F01BE00F3
:109F40004F00BE0000400600ECFF3700809FBE00BF
:109F5000829FBE008BC0A900822F230003F82F0030
:109F600082814100B003AB00130032007093810086
:109F7000A11D800001487800709381000000E80076
:109F80007093890070938100820F50000D003200A1
:109F9000B09381000010A100B093890071938100FB
:109FA00080938100808F5000EEFF3A00B0938100D3
:109FB0000000A000B09389004F01BE004F00BE001A
:109FC0000040060073938900B09381000010A10047
:109FD000B09389007193810080938100808F50003D
:109FE000E0FF3A00F1FF3700B023AB000100320080
:109FF000B023A9009040A900004006003200F800FC
:10A000003400F800881F780018002000A80188009C
:10A0100038202000980188004F04780089A0AB0008
:10A020000100320089A0A9003400F9003200F900D3
:10A03000004006003600F800809FBE00829FBE00F0
:10A04000849FBE00869FBE00D09C81000000E0007F
:10A05000010032000000010094A0A900A4A0A90002
:10A060004A28EC00603A230000C8EB004F03BE0012
:10A070004F02BE004F01BE004F00BE003600F90087
:10A08000004006003600F800809FBE00829FBE00A0
:10A09000849FBE00869FBE00C09981000000E00042
:10A0A000010032000000010094C0A900A4C0A90072
:10A0B0004C28EC004034230000C8EB004F03BE00E6
:10A0C0004F02BE004F01BE004F00BE003600F90037
:10A0D000004006003600F800809FBE00829FBE0050
:10A0E000849FBE00869FBE00309A81000000E00081
:10A0F00001003200000001008D60A9009D60A900F0
:10A100004E28EC002035230000C8EB004F03BE00B2
:10A110004F02BE004F01BE004F00BE003600F900E6
:10A12000004006003600F800809FBE00829FBE00FF
:10A13000849FBE00869FBE00A09A81000000E000C0
:10A1400001003200000001008D80A9009D80A9005F
:10A150005028EC000036230000C8EB004F03BE007F
:10A160004F02BE004F01BE004F00BE003600F90096
:10A17000004006003600F800809FBE00829FBE00AF
:10A18000849FBE00869FBE00109B81000000E000FF
:10A1900001003200000001008840A9009840A90099
:10A1A0005228EC00E036230000C8EB004F03BE004D
:10A1B0004F02BE004F01BE004F00BE003600F90046
:10A1C000004006003600F800809FBE00829FBE005F
:10A1D000849FBE00869FBE00809B81000000E0003F
:10A1E000010032000000010088C0A90098C0A90049
:10A1F0005428EC00C037230000C8EB004F03BE001A
:10A200004F02BE004F01BE004F00BE003600F900F5
:10A21000004006003600F800809FBE00829FBE000E
:10A22000849FBE00869FBE00F09B81000000E0007E
:10A2300001003200000001008B20A9009B20A90032
:10A240005628EC00A038230000C8EB004F03BE00E6
:10A250004F02BE004F01BE004F00BE003600F900A5
:10A26000004006000040DA000000FE00000005008B
:10A27000839F68000100E00002003D0060001000C4
:10A28000E08018000300E00002003D0060011100C2
:10A29000E08119006B0007004F00E00002003B0066
:10A2A00060001000E0801800000006000001BE0001
:10A2B0001B0007000470A70003F0A10003F8A3002F
:10A2C00013003A006509B1001000320009003500A2
:10A2D0006928E100020035000100280000000500A7
:10A2E00000004000818048008502E900FCFF3A0040
:10A2F00000000600F88F4200050035008100D10003
:10A300000080D3008502E800FCFF3A000000060050
:10A310008000EB00000005006011B80084013700E8
:10A32000C70ADE00F107B200F50FB20008003200E4
:10A33000E1CF4200020032000170A00024000500BD
:10A34000810F700001003200040805004400050080
:10A35000810F700002003A00140005008502E90038
:10A360000000400081C04800FCFF3B000170A000DD
:10A3700024000500889FBE008A9FBE008C1F7800C5
:10A38000C0010700C701330003866C006450E10080
:10A39000240032006420E100270032006150E10017
:10A3A000220032006120E100210032008B85420052
:10A3B000EB07B1000134B800003AB80008044200CD
:10A3C00089844A00013AB8000030B8008880400013
:10A3D00009014A0004003300000040008180480069
:10A3E000020149008B05E900C909DD008301700005
:10A3F0000100320013002000C814DE004814DD0004
:10A400004709DE001200B200C808DE0008847000B0
:10A410007601070001F0A1000CF0A70001F0A000F8
:10A42000A90137006120E100AB0132000801BE0044
:10A430000200BE00F7FF37006150E100FCFF3A0068
:10A44000A50137006022B800060220000000D000FD
:10A450008180D2000482D2008582D2000000A00058
:10A460000202520083825A000300310002024200BD
:10A4700083824A000000A1000603E900F3FF3A00CE
:10A4800000000600889FBE008A9FBE003004420084
:10A49000B0844A0030054B0090854B006000B1004D
:10A4A0000898BE000A90BE000440E10005C8E10023
:10A4B00006D0E10007D8E10002003100680040004A
:10A4C0001008E8004F05BE004F04BE000000060063
:10A4D000889FBE008A9FBE003004BE002005BE00DB
:10A4E0000418540005985C0006185D0007985D008C
:10A4F000110020000440E10005C8E10006D0E100A1
:10A5000007D8E100010039008000EB00108810003E
:10A510004F05BE004F04BE00000006001200FA0006
:10A52000889FBE008A9FBE008C9FBE00E0B79F0040
:10A53000F1B79F0082BF9F0093BF9F000605BE003A
:10A540000404BE000000EB00D0B79F00C0B79F001E
:10A55000B0B79F00A0B79F0090B79F00000678009B
:10A560005FB19700CFB09700820141003FB09700E4
:10A570000200E00004003D00370007007E80570025
:10A58000C0FF070003003700330007007E8057003C
:10A59000CFFF0700DFB697000D00E0000C0035008C
:10A5A0006FB29700FFB297000FBB97009FBB970059
:10A5B00010002000010020006011B80000027200AD
:10A5C0008182720002037300838373001B00070003
:10A5D0000C06E80001042000810F5600E0FF3A005D
:10A5E0000D00E00004003D000802BE000A03BE00AA
:10A5F0007E805700A3FF07005FA897000000E000DF
:10A6000005003A001FB29700AFB297003FB3970022
:10A61000CFB39700090007006FB09700FFB0970015
:10A620000FB997009FB997004F06BE004F05BE00B7
:10A630004F04BE000080FA00000006000100070081
:10A6400000000600A4B79F00B5B79F00C6B79F00E3
:10A65000D7B79F00000006004F09DE00828171001D
:10A66000B3B79F004F01DE00818040008280700000
:10A67000A1B79F008FB097004F09DE000000400097
:10A680000200700090B79F007FA897004F01DE0086
:10A69000818040008280700081B79F000D0007001C
:10A6A0004F3ADE000000400004007000F0AF9F0051
:10A6B000080007000402420085824A0006034B009E
:10A6C00087834B00DFFF07000802BE000A03BE00BD
:10A6D000000006002FB29700BFB297004FB397005B
:10A6E000DFB3970000000600881F780018002000E4
:10A6F000881F780089FF07008F87E9004F047800E2
:10A7000000000600801FEB0084FF07008F87E90030
:10A7100000000600889FBE008A9FBE00E00F500028
:10A72000E08F5800E00F5900E08F59000C003D0009
:10A730006044B8006055B8000000540081805C009F
:10A7400002015D0083815D001800200015000700F4
:10A7500008003D00180007000004EB00050037006A
:10A760000004EB000F00070002003D00120007008C
:10A7700018002000DCFF07000800E000060032009F
:10A780006022B8006033B8000000520081805A0097
:10A7900002015B0083815B004F05BE004F04BE00D9
:10A7A00000000600E00F5200E08F5A00E00F5B004F
:10A7B000E08F5B00000006006044B8006055B80000
:10A7C0000402540085825C0006035D0087835D00FF
:10A7D00000000600889FBE008A9FBE008C1F780084
:10A7E000E00F5000E08F5800E00F5900E08F590053
:10A7F0000D003D006044B8006055B80000005400F2
:10A8000081805C0002015D0083815D001C002000EE
:10A810000820E10009A8E1000AB0E1000BB8E1005E
:10A820000D003D00080037000006EB00E00F52006D
:10A83000E08F5A00E00F5B00E08F5B0006003D00F8
:10A840006044B8006055B8000402540085825C0082
:10A8500006035D0087835D00AAFF07000C00E0008F
:10A86000060032006022B8006033B80000005200D9
:10A8700081805A0002015B0083815B004F067800F3
:10A880004F05BE004F04BE0000000600889FBE00BA
:10A890008A9FBE008C1F78000006EB00E00F50007E
:10A8A000E08F5800E00F5900E08F590007003D008D
:10A8B0006044B8006055B8000000540081805C001E
:10A8C00002015D0083815D001C002000E00F52004A
:10A8D000E08F5A00E00F5B00E08F5B0007003D0057
:10A8E0006044B8006055B8000402540085825C00E2
:10A8F00006035D0087835D000C00A200790007005D
:10A900000C00E000060032006022B8006033B8009E
:10A910000000520081805A0002015B0083815B00CD
:10A920004F0678004F05BE004F04BE000000060031
:10A93000889FBE008A9FBE000082700004027100E2
:10A9400004827100260032000004BE000200BE0036
:10A950006011B8006B092000950220000182CF0031
:10A960000A0039000541B1000082CF00070039001C
:10A970000541B1000982CF00040039000541B10052
:10A980000882CF00010039000541B10005425200A4
:10A99000120032000A003B008281710061016400F4
:10A9A0008100D1000080D3008984D3000884D300C3
:10A9B0008B05E8000442E800F7FF3A000700370083
:10A9C0000804440089844C0000004800818048004D
:10A9D0008B05E9000442E900F9FF3A000300070093
:10A9E0004F05BE004F04BE0000000600810020009D
:10A9F000618055000B003D000B00200061FE2F0020
:10AA00000100E1001D0034008281710061016400D9
:10AA10008904D1000884D3000000E800FAFF3A005E
:10AA200071002000610064000300700002006000FB
:10AA30000900320061044400E0844C000988A5004C
:10AA4000050032008B05E8006808E10002003A00CA
:10AA50008904D1000884D300F20F20000258E100DD
:10AA600005003D00C75DDD00F907B2008980750073
:10AA700008007800000006000BF827008B00780023
:10AA8000000005000004BE0025FE07000003BE0014
:10AA90000405BE000200BE0021FE0700844F7500C1
:10AAA000000006000200BE006450E1000500360010
:10AAB0006420E100020036000968A30001003A00AA
:10AAC0000800BE000160A0004F0678004F05BE00E0
:10AAD0004F04BE0000000600F0FF2F00F1FF27002A
:10AAE000F9FF3700889FBE008A9FBE008C9FBE0082
:10AAF0000404B8000506B8008904460060854E00CD
:10AB00000606B8000A054600E0854E000706B800B4
:10AB10008B054600040EB800890446000A854E00E5
:10AB2000E0854D00050EB8000A0546008B854E00F5
:10AB3000060EB8008B0546000416B8000A0546004C
:10AB40008B854E000516B8008B054600041EB80024
:10AB50008B0546000800BE000A01BE004F06BE007D
:10AB60004F05BE004F04BE000000060080017800C3
:10AB700002003700B15978000201E9000200E0004C
:10AB8000FCFF3A00000006000200FA00D0C0B3004B
:10AB9000E0FF9F00A0C0B300F0FF9F002F48E2003D
:10ABA00015003A0081002000003B230096AE020011
:10ABB000000000002F48E20003003A002E68EF007A
:10ABC0000080FA0000000600210020000F80E9004C
:10ABD00096AE020000000000210020000F80E90076
:10ABE00096AE0200000000002E68EF000080FA0020
:10ABF00000000600F4FF3700210020000F80E9006C
:10AC000096AE02000000000081002000003B2300FF
:10AC100096AE0200000000002F48E200E7FF32007D
:10AC2000E9FF370052C4B300013B2300824878009B
:10AC30008100E80012C402000000000050C5B3000B
:10AC4000613B2300804878008100E800804878005C
:10AC5000B1418000D0FD2F00E18F400001003200A3
:10AC60000100E800B041880000000600903A23008F
:10AC70001040780048E8B7008080FB00C608DD007F
:10AC8000428A22000101410042448800F34F5000F3
:10AC900032003E0063415000E14F51002A0036006F
:10ACA0007448E20022003200A23A23001281FB0025
:10ACB0008001EB00F80F5100E08F590002003600D0
:10ACC00030002000D7FF370002600100410037004C
:10ACD000FBFF37003B0037003C00370031003700F6
:10ACE00032003700F6FF37003200370033003700FC
:10ACF000F3FF37001B0037001C0037001D00370032
:10AD00001E003700EEFF37001E0037001F0037001F
:10AD10002000370021003700E9FF3700E8FF370047
:10AD2000350037003C0037001A003700300037008C
:10AD3000E74F500002003200E94F5000DAFF3A00BE
:10AD400070012000B7FF37007448E200FCFF3A00B2
:10AD5000E94F5000D4FF3A00F9FF370060012000AE
:10AD6000B0FF3700C8C2040000000000A07A040051
:10AD7000000000003875040000000000048F04008B
:10AD8000000000002080040000000000CEC004008D
:10AD90000000000046A7040000000000D6BB04002D
:10ADA0000000000002C80400000000009E930400A0
:10ADB0000000000054C7040000000000D6C50400D5
:10ADC0000000000050F904000100000068B8040011
:10ADD00000000000228E2200810041008048EB002C
:10ADE000B13A230091407800948C040000000000E8
:10ADF0006EB60400000000000040EB00B88D0200B9
:10AE0000000000008184200091407800208820000C
:10AE100001487800000006003CA00400000000008B
:10AE2000EC874700889FBE008A9FBE008C9FBE00B3
:10AE30008E1F78003828EC008D3A23001D82FB001D
:10AE40008002EB000C3B2300044E78008D05E800E7
:10AE50001B4078008C04E800804C78000B05E8006B
:10AE60001A4178000907E800024F78000A04E80058
:10AE7000984178008980E800834878000803E8005A
:10AE800096407800E3834400814B78000883E80013
:10AE90001643780086F79F00E4834400864B7800D1
:10AEA0006303440016437800C6EF9F008703E80061
:10AEB000864B780064034400964378006683440020
:10AEC000074B78001402B1000580B100E60B2000AA
:10AED000860F5200E08F5A00080036005000200014
:10AEE00050FF07004F0778004F06BE004F05BE0019
:10AEF0004F04BE00CF00B100000006000460010056
:10AF0000F8FF3700F5FF3700F4FF3700F3FF370095
:10AF1000F2FF3700F1FF3700F0FF3700EFFF370097
:10AF2000EEFF3700EDFF3700ECFF3700EBFF370097
:10AF3000EAFF3700E9FF3700E8FF3700E7FF370097
:10AF4000E6FF3700E5FF3700E4FF3700E3FF370097
:10AF5000E2FF3700E1FF3700E0FF3700DFFF370097
:10AF6000DEFF3700DDFF3700DCFF3700DBFF370097
:10AF7000DAFF3700D9FF3700D8FF3700D7FF370097
:10AF8000D6FF3700D5FF3700D4FF3700D3FF370097
:10AF9000D2FF3700D1FF3700D0FF3700CFFF370097
:10AFA000CEFF3700CDFF3700CCFF3700CBFF370097
:10AFB000CAFF3700C9FF3700C8FF3700C7FF370097
:10AFC000C6FF370016043700C4FF3700C3FF370041
:10AFD000C2FF3700F6033700C0FF3700BFFF37005E
:10AFE000BEFF3700BDFF3700BCFF3700BBFF370097
:10AFF000BAFF3700CF033700B8FF3700B7FF37007D
:10B00000B6FF3700B5FF3700B4FF370084033700C1
:10B01000B2FF3700B1FF370065033700AFFF3700DD
:10B02000AEFF3700ADFF3700ACFF3700ABFF370096
:10B03000AAFF3700A9FF3700A8FF3700CD0237006D
:10B04000A6FF3700A5FF3700A4FF3700A3FF370096
:10B05000A2FF3700A1FF3700A0FF37009FFF370096
:10B060009EFF37009DFF37009CFF37009BFF370096
:10B070009AFF370099FF370098FF370097FF370096
:10B08000AF023700980237003D0437002404370030
:10B090000E04370091FF370090FF37008FFF370015
:10B0A0008EFF37008DFF37008CFF37008BFF370096
:10B0B0008AFF370089FF370088FF3700E703370032
:10B0C0002701370009013700F1003700CF003700B2
:10B0D00082FF370081FF370080FF37007FFF370096
:10B0E0007EFF37007DFF37007CFF37007BFF370096
:10B0F0007AFF370079FF370078FF37006F0237009B
:10B100005102370075FF37004402370073FF3700E4
:10B11000700137003900370070FF37006FFF3700CC
:10B120006EFF37006DFF37006CFF37006BFF370095
:10B130006AFF370069FF370068FF370046003700B5
:10B140008F0037006F0037004101370021013700C1
:10B150002C01370061FF370060FF37005FFF3700C9
:10B160005EFF37005DFF37005CFF37005BFF370095
:10B170005AFF370059FF370058FF370057FF370095
:10B1800056FF370055FF370054FF370053FF370095
:10B1900052FF370051FF370050FF3700E8003700FB
:10B1A000E7003700E6003700E5003700E40037002D
:10B1B000E3003700E2003700E1003700E00037002D
:10B1C000DF003700DE003700DD003700DC0037002D
:10B1D000DB003700DA003700D9003700D80037002D
:10B1E000D7003700D6003700D5003700D40037002D
:10B1F000D3003700D2003700D1003700C819DD0076
:10B200000281FB0082814100225B2A00828F510073
:10B21000F1033A008FF197004819DD008180FB00AF
:10B220000101410011362700810F5100EA033A0065
:10B230004839DD004FEA97008480FB00010141009E
:10B24000812F2A00810F5100E3033A00E14F5000A3
:10B25000690532002C68EF009960AB0009003A00E4
:10B26000B00120006FFE07004F0778004F06BE00B8
:10B270004F05BE004F04BE00CF00B1000000060025
:10B280001EFF37001B4078004EAE02000000000099
:10B290001A4078004EAE020000000000184078000E
:10B2A0004EAE020000000000C73A230017407800AD
:10B2B0004EAE020000000000D13A23001140780099
:10B2C0004EAE020000000000E23A23001240780077
:10B2D0004EAE020000000000F33A23001340780055
:10B2E0004EAE0200000000004F0778004F06BE007F
:10B2F0004F05BE004F04BE00CF00B10000000600A5
:10B30000FEFE370098B00200000000001A407800EE
:10B3100098B00200000000001840780098B00200C9
:10B3200000000000C33A23001340780098B00200E8
:10B3300000000000D43A23001440780098B00200C6
:10B3400000000000E63A23001640780098B00200A2
:10B3500000000000F73A23001740780098B0020080
:10B36000000000004F0778004F06BE004F05BE00EA
:10B370004F04BE00CF00B10000000600DFFE370022
:10B380009960AB00B6FF3200DAAD020000000000A9
:10B39000804C7800DAAD020000000000004F780019
:10B3A000DAAD020000000000343B2300004A7800C0
:10B3B000DAAD020000000000463B2300004B78009D
:10B3C000DAAD020000000000573B2300804B7800FC
:10B3D000DAAD020000000000613B230080487800E5
:10B3E000DAAD020000000000723B23000049780043
:10B3F0004F0778004F06BE004F05BE004F04BE0049
:10B40000CF00B10000000600BCFE37008001EB0059
:10B41000C3B79F0083007800D1B79F004811DD00BB
:10B420000080FB0000004100313B2300C8BE020049
:10B43000000000000000E000ED033200E50F5000C6
:10B44000F20332005FB09700443B2300004A7800CB
:10B450004800DE000403E800004B78004FB097007E
:10B460008483E800804B78004800DE00E30042005F
:10B47000804878004F0778004F06BE004F05BE0099
:10B480004F04BE00CF00B100000006009BFE370055
:10B49000804CEB000304E000D30432008046EB0054
:10B4A0008D80FB008180E800810046004811DD00AE
:10B4B0000080FB00000041006CBE020000000000A4
:10B4C0000000E00001003A00994CE8008D46E800D9
:10B4D00098CF1600200436000000E0001E043A0059
:10B4E0001B4078001A417800EDFF3700983A23009E
:10B4F000660544008044EB0080407800C043800033
:10B500001ABE0200000000008000780001F0A700D1
:10B510008100EA008100E900CF08DE000104E000BC
:10B52000010032008944E8008A0F5400DF03320032
:10B530000104E000DD033200D8407800EFFF37005F
:10B54000CAFD07004F0778004F06BE004F05BE003A
:10B550004F04BE00CF00B1000000060067FE3700B8
:10B560004811DD000080FB0000004100C04388005E
:10B570000001EB000045EB000304E000E1033200B2
:10B580008A4478001ABE02000000000080007800A3
:10B5900001F0A7008100EA008100E900CF08DE0089
:10B5A0000104E000010032000A45E8008944E80097
:10B5B00098CF1400D20336000104E000D00332001B
:10B5C0000980FB0064004000ED407800C04380002B
:10B5D000ECFF370024C5B300844F50000303320052
:10B5E00070C0B3003468B4004F0778004F06BE0047
:10B5F0004F05BE004F04BE00CF00B10000000600A2
:10B600003EFE37000004E000DE033A00F34F510035
:10B610006C043E000304E0008B0332008381FB00D6
:10B62000803B2300113B230003014000060009007A
:10B63000B25878004F0778004F06BE004F05BE0095
:10B640004F04BE00CF00B100000006002BFE370003
:10B6500020B0020000000000804C780020B0020002
:10B6600000000000004F780020B002000000000041
:10B67000313B23008048780020B002000000000029
:10B68000423B23000049780020B002000000000087
:10B69000533B23008049780020B0020000000000E6
:10B6A000643B2300004A780020B002000000000044
:10B6B000763B2300004B78004F0778004F06BE0012
:10B6C0004F05BE004F04BE00CF00B10000000600D1
:10B6D0000AFE3700C810DD000080FB0080804000BB
:10B6E000D0BC2A00808F5000EB033A006E28EF0098
:10B6F000080120006055B800FEA60200000000000E
:10B700000A054000E0854D000804E900FAFF3A0010
:10B71000303B23000A4878004859DD004850DE00DD
:10B7200000007100C858DE00433B230080497800C8
:10B730000302E8000B4A78004858DE000383E80063
:10B74000004B780068014500E0814D00C71BDD001B
:10B750004911DE0002817300C919DE0072438800BE
:10B76000824C78004810DE00004F78000E872000E1
:10B770001E47780070C8BF007F405000F003B20041
:10B780004200DD0031F02F00020E80008280600058
:10B7900081007000010E880030C1B30048E8B70096
:10B7A0008004EB000D5327000D0678000004EB0029
:10B7B0006055B80086A50200000000008038210016
:10B7C0005072020000000000EEA60200000000001F
:10B7D000E2A50200000000008000EB0064004000D1
:10B7E000E08048000A0540008B8548000804E80016
:10B7F000E80F5400EFFF3A00CD59DD004355DE005D
:10B800000A857100C35DDE008C0F55001C033600F5
:10B810000C0555008A8F5600030034000E87200067
:10B820001E4778008A0678007048E2000100320066
:10B830007068ED008904E80000022000808F540049
:10B84000DAFF3A00048720000E4A780070C8BF0073
:10B850007F405000F003B2004200DD0031F02F00C5
:10B86000070E80008780600081007000010E880054
:10B870000004EB006055B8006066B80020C1B3005A
:10B8800084A402000000000080047800EEA60200FC
:10B89000000000000900B8004008DE0001002000A0
:10B8A0000C0640008D8648000040EB0012A6020006
:10B8B00000000000CF80DE000A0540008B854800B4
:10B8C0004006200050720200000000000804E8005A
:10B8D000F00F5400E9FF3A0068004600E0804E0097
:10B8E0004C09DD004400DE0000007100C408DE00E9
:10B8F000401FB1000180B1006A09B9006A02B800B6
:10B900008502410068034500E0834D00CC39DD002D
:10B910004433DE0006837100C43BDE0083E0A900EF
:10B920000000000000000000A802800020002000AD
:10B93000A0028800418A200000002A000001EB00DC
:10B9400003182A009008BA0092009800E480400092
:10B950000080E800830F5000FAFF3A00200020002A
:10B96000203B880001002A00113B880031002400A0
:10B97000013B88000600FC0051052000313B880097
:10B98000A10A2000313B880061E7A8000000000008
:10B9900000000000A002880070438000204588005D
:10B9A0003245880070C8BF000080FB008000EB00BB
:10B9B00040458800514588006645880077458800E5
:10B9C000844588009545880050052000A10A200084
:10B9D0000ABF020000000000428A200000002A0086
:10B9E00021002000F0BF0200000000000884FB00DE
:10B9F000A802880083E0A80000000000000000000A
:10BA00004F0778004F06BE004F05BE004F04BE0032
:10BA1000CF00B1000000060038FD37004811DD00FE
:10BA20000080FB008FF19700037178004F077800CA
:10BA30004F06BE004F05BE004F04BE00CF00B10050
:10BA4000000006002DFD37000283FB008003EB00A1
:10BA5000483ADD00C832DE00850272004832DD005F
:10BA60008381FB000200200004024100858249001E
:10BA70000081FB008001EB00040241008582490047
:10BA8000C809DD0002002000040041008580490053
:10BA90000008A300C6023200A000200061FC0700DD
:10BAA0004F0778004F06BE004F05BE004F04BE0092
:10BAB000CF00B1000000060010FD37004811DD0086
:10BAC0000080FB00333B2300E24978004F077800F9
:10BAD0004F06BE004F05BE004F04BE00CF00B100B0
:10BAE0000000060005FD3700C818DD000281FB00DC
:10BAF0008280400018BA020000000000E73A2300EC
:10BB00009780FB00C808DD000701E9001280FB00F8
:10BB1000808040008781E9001340780018BA020055
:10BB2000000000004F0778004F06BE004F05BE0022
:10BB30004F04BE00CF00B10000000600EFFC37004C
:10BB400026BA020000000000004F78004800DE0026
:10BB5000363B2300004B78004F0778004F06BE00AD
:10BB60004F05BE004F04BE00CF00B100000006002C
:10BB7000E2FC3700D8C30200000000006A04B900EC
:10BB80001A407800D8C302000000000000444400BE
:10BB900080842000084878008880FB00C608DD000B
:10BBA000408A22000080400040448800A93A2300D7
:10BBB000E58544001AC6B300D94F150017003200BE
:10BBC0008040EB00084078006A8B02000000000013
:10BBD0008040EB0008407800B4BB02000000000089
:10BBE0001980FB008000EB000002B1000180B10071
:10BBF00082052000820F5000E08F580012003600AE
:10BC00003000200007FC07008B8F5400B5FC320089
:10BC10000844E800D94F1500E9FF3A008040EB00E6
:10BC200008407800C68D0200000000008040EB0054
:10BC300008407800108E02000000000076FB020031
:10BC400001000000F0FF370000600100EEFF370048
:10BC5000EBFF3700EAFF3700E9FF3700E8FF370066
:10BC6000E7FF3700E6FF3700E5FF3700E4FF370066
:10BC7000E3FF3700E2FF3700E1FF3700E0FF370066
:10BC8000DFFF3700DEFF3700DDFF3700DCFF370066
:10BC9000DBFF3700DAFF3700D9FF3700D8FF370066
:10BCA000D7FF3700D6FF3700D5FF3700D4FF370066
:10BCB000D3FF3700D2FF3700D1FF3700D0FF370066
:10BCC000CFFF3700CEFF3700CDFF3700CCFF370066
:10BCD000CBFF3700CAFF3700C9FF3700C8FF370066
:10BCE000C7FF3700C6FF3700C5FF3700C4FF370066
:10BCF000C3FF3700C2FF3700C1FF3700C0FF370066
:10BD0000BFFF3700BEFF3700BDFF3700BCFF370065
:10BD1000BBFF3700BAFF3700B9FF3700B8FF370065
:10BD2000B9FF3700B6FF3700B5FF3700B4FF370063
:10BD3000B3FF3700B2FF3700B1FF3700B0FF370065
:10BD4000AFFF3700AEFF3700ADFF3700ACFF370065
:10BD5000B2FF3700AAFF3700A9FF3700980137006C
:10BD6000A7FF3700A6FF3700A5FF3700880137007F
:10BD70007B013700A2FF3700A1FF37006C013700BD
:10BD80009FFF37009EFF37009DFF37009CFF370065
:10BD90009BFF37009AFF37005A01370098FF3700A2
:10BDA0004C01370096FF37003F01370096FF370000
:10BDB000D8C30200000000006A00B9008045780086
:10BDC0001A407800D8C302000000000000C54500FA
:10BDD0006A55B90018407800D8C30200000000007E
:10BDE000984C780001C2B300014F78000040450034
:10BDF00026BA020000000000313B230012C40200FA
:10BE0000000000004F0778004F06BE004F05BE003F
:10BE10004F04BE00CF00B1000000060037FC370021
:10BE2000D8C3020000000000804578001A40780066
:10BE3000D8C30200000000000045780018407800D8
:10BE4000D8C30200000000000084FB008004EB0067
:10BE50006A44B800C33A230013407800D8C30200F4
:10BE6000000000000080FB008000EB0008044000A0
:10BE7000898448006A48B9006A44B80089044000CF
:10BE8000D43A230014407800D8C302000000000018
:10BE90000080FB008000EB0008044000898448001B
:10BEA0006A48B9006A44B80089044000E63A2300B1
:10BEB00016407800D8C30200000000000080FB009C
:10BEC0008000EB0008044000898448006A48B900FB
:10BED0006A44B80089044000F73A2300174078000C
:10BEE000D8C30200000000000080FB008000EB00CF
:10BEF0000804400089844800E10F4400E08F5C00A2
:10BF0000CF013E006A58B900004045008800780023
:10BF100018BA0200000000004F0778004F06BE006C
:10BF20004F05BE004F04BE00CF00B1000000060068
:10BF3000F2FB3700C4C4B300844F5000E9FB3A0061
:10BF400090C4B300804F5100E6FB3A0065404000CA
:10BF500080CF5100E3FB3A006940500080CF500091
:10BF6000E0FB3A00634050008FF0970080CF500014
:10BF7000DCFB3A00694040004FE99700804F5100D8
:10BF8000D8FB3A007A40500080CF53003C02320088
:10BF90002F68EF004F0778004F06BE004F05BE0028
:10BFA0004F04BE00CF00B10000000600D3FB3700F5
:10BFB00030C5B300804C780010C3B300004F780048
:10BFC00067404000363B2300004B78007448E20095
:10BFD0008E0132006A4040008603E800804B780002
:10BFE00020C3B300523B23000049780000C0E900A1
:10BFF0008201E80080497800654040000282E80044
:10C00000004A78004F0778004F06BE004F05BE007B
:10C010004F04BE00CF00B10000000600B7FB3700A0
:10C0200054C6B300844F500003003A0072425200DD
:10C03000844F51008300320040002000F9FA0700CD
:10C040004F0778004F06BE004F05BE004F04BE00EC
:10C05000CF00B10000000600A8FB3700C808DD00D3
:10C060008381FB00838040004811DD000080FB00DD
:10C07000000041009ABD0200000000000000E00046
:10C0800078013A009880FB00E8804000C73A23001E
:10C090001780FB004800DD0000804000313B23009A
:10C0A000804878004800DE000101E800004978007F
:10C0B0004F0778004F06BE004F05BE004F04BE007C
:10C0C000CF00B100000006008CFB3700B0438000B9
:10C0D000F1FF2100810F500082FB3E008080500064
:10C0E000E68F50009C013600418A2000008240000B
:10C0F000963A230006000900365A7800670040008F
:10C10000B04388004F0778004F06BE004F05BE00C1
:10C110004F04BE00CF00B1000000060077FB3700DF
:10C120004811DD000080FB0000004100B0438800A2
:10C130000381FB00E40F510099013E00020440001E
:10C14000F1FF2100810F54005C013E00418A200074
:10C1500001004000C13A2300B65502000000000073
:10C16000B84388004F0778004F06BE004F05BE0059
:10C170004F04BE00CF00B100000006005FFB370097
:10C180004811DD000080FB0000004100F2FF2100AB
:10C19000820F500079013E0000015100E70F51006D
:10C1A0000100360072002000418A2000810040001A
:10C1B000103B2300B6550200000000004F07780036
:10C1C0004F06BE004F05BE004F04BE00CF00B100B9
:10C1D0000000060049FB37009001200091FA07009B
:10C1E0009960AB0027FC3A001DFC370050C4B30037
:10C1F000804F5100FAFC3A006E40400080CF510061
:10C20000F7FC3A0082CF5000F5FC3A000040E8000D
:10C210000FF29700804F5200F1FC3A003468EF00B3
:10C2200010C0B30035E8B7004F0778004F06BE00D6
:10C230004F05BE004F04BE00CF00B1000000060055
:10C240002EFB370080CF51007BFF3A0040C5B30082
:10C2500080CF500078FF3A0010C2B3008FF19700F2
:10C2600080CF510074FF3A0000C0E8004FEA970009
:10C27000804F520070FF3A006740400080CF53006B
:10C280006DFF3A003EB20200000000004F07780048
:10C290004F06BE004F05BE004F04BE00CF00B100E8
:10C2A0000000060015FB37008040EB0008407800D6
:10C2B000C68D0200000000008040EB0008407800BE
:10C2C000108E02000000000090C00200000000007C
:10C2D0004DFE37008040EB0008407800108E0200D1
:10C2E0000000000011C0B30008407800C68D0200B5
:10C2F0000000000008407800468C020000000000AA
:10C3000041FE37008040EB0008407800C68D0200F7
:10C31000000000008040EB0008407800108E020012
:10C32000000000004AB802000000000036FE37009E
:10C330008040EB0008407800C68D0200000000003D
:10C340008040EB0008407800108E020000000000E2
:10C3500008407800BE8D0200000000002AFE370071
:10C360008040EB0008407800C68D0200000000000D
:10C370008040EB0008407800108E020000000000B2
:10C3800008407800468C0200000000001EFE3700C6
:10C390008040EB0008407800C68D020000000000DD
:10C3A0008040EB0008407800108E02000000000082
:10C3B00008407800C28D02000000000012FE370025
:10C3C0008040EB0008407800C68D020000000000AD
:10C3D00011C0B30008407800108E02000000000079
:10C3E00008407800468C02000000000006FE37007E
:10C3F0009A80FB00C808DD001B80FB000080400025
:10C40000F6805700BEBD0200000000009A80FB00CD
:10C41000C808DD001B80FB0000804000F88057004A
:10C42000E6BD0200000000005FB09700443B23001F
:10C43000004A78004800DE000403E800004B780062
:10C440004FB0970006FC37000280FB004600DD007D
:10C45000418A2200863B2300808340003F00090080
:10C46000375B78008381FB00803B2300113B230076
:10C470000301400006000900B25878006DFC370047
:10C480000A0556008A8F5600030034000E872000EC
:10C490001E4778008A067800C0C3B3007048E300E6
:10C4A000E4FC3E007068EC00E2FC3700333B230004
:10C4B000894978000302E800004A7800F8805700B4
:10C4C000C0438000E6BD0200000000004FB09700AE
:10C4D000563B2300004B78004800DE008603E8004E
:10C4E000804B78004F0778004F06BE004F05BE0016
:10C4F0004F04BE00CF00B100000006007FFA3700F5
:10C5000000017800373B23008A4B78000700E800E1
:10C5100002487800F8805700C0438000E6BD020062
:10C52000000000004FB09700513B23008048780086
:10C530004800DE000101E800004978004F0778005C
:10C540004F06BE004F05BE004F04BE00CF00B10035
:10C550000000060069FA3700E5CF560061FA3E0098
:10C56000713B2300804878004F0778004F06BE00DB
:10C570004F05BE004F04BE00CF00B1000000060012
:10C580005EFA3700EA4F500055003200C00120002B
:10C59000A4F907004F0778004F06BE004F05BE0004
:10C5A0004F04BE00CF00B1000000060053FA370070
:10C5B00083E0A9000000000000000000A20280004B
:10C5C000A10288009000BA00443B2300014A780091
:10C5D000C808DE000403E800014B78001080BA00B0
:10C5E0008280FB00A102880083E0A8000000000018
:10C5F000000000008483E800804B78004800DE00E3
:10C60000E3004200804878009AFB370010C4B30072
:10C61000413B23008048780020C3B300523B2300F5
:10C620000049780000C0E9008201E80080497800F4
:10C63000654040000282E800004A780071FE370041
:10C640002000200077F907004F0778004F06BE0052
:10C650004F05BE004F04BE00CF00B1000000060031
:10C6600026FA3700333B23008049EB000302E80041
:10C67000004AEB000383E800004B78004F07780086
:10C680004F06BE004F05BE004F04BE00CF00B100F4
:10C690000000060019FA37008001200061F9070048
:10C6A0004F0778004F06BE004F05BE004F04BE0086
:10C6B000CF00B1000000060010FA37008000200013
:10C6C00058F907004F0778004F06BE004F05BE001F
:10C6D0004F04BE00CF00B1000000060007FA37008B
:10C6E0000304E0000D0032008381FB00803F230043
:10C6F000163B23008303400006000900375B7800E7
:10C700004F0778004F06BE004F05BE004F04BE0025
:10C71000CF00B10000000600F8F9370002407800B1
:10C72000E2C0B3000440BC0080332300813F2300FB
:10C73000020240000D000900B45878008381FB001C
:10C74000803F2300163B23008303400006000900BE
:10C75000375B7800EAFF37009000200031F90700CE
:10C760004F0778004F06BE004F05BE004F04BE00C5
:10C77000CF00B10000000600E0F93700B002200051
:10C7800028F907004F0778004F06BE004F05BE008E
:10C790004F04BE00CF00B10000000600D7F93700FB
:10C7A000700020001FF907004F0778004F06BE00F9
:10C7B0004F05BE004F04BE00CF00B10000000600D0
:10C7C000CEF937006001200016F907004F07780006
:10C7D0004F06BE004F05BE004F04BE00CF00B100A3
:10C7E00000000600C5F937000000EB00713B230094
:10C7F000804878005CFF37007448E200290032006E
:10C8000001FC2F00A63D8000868060005100B3002F
:10C81000A13D880001F82F00C73E8000878060009E
:10C820003100B300C13E8800F0B79F0098AD020010
:10C830000000000081FF2F007205800082806000F0
:10C840000100A00071058800F1FF28006305800049
:10C850008380600001C0A000610588007686A90081
:10C86000E1CFB30054862000014A78007FB09700E2
:10C870002CE8B7009960AB0082FA3A0078FA3700EA
:10C8800010C0B3002FE8B7004F0778004F06BE0076
:10C890004F05BE004F04BE00CF00B10000000600EF
:10C8A00096F93700A0012000DEF807009960AB0080
:10C8B00074FA3A006AFA3700889FBE008A1F78002F
:10C8C0007448E200020032002C48E20034003200DA
:10C8D0000000EB00EAAE0200000000000044780017
:10C8E00078AF02000000000009082000008054001A
:10C8F000E70F5000250036005AC5B30078AF02009C
:10C9000000000000890F50000F0032008A4F5400D1
:10C910000300320000C2B300804F54000A003A0006
:10C92000DAAD0200000000000000EB00EAAE0200F9
:10C93000000000000044780078AF02000000000012
:10C94000890F5000F1FF3A0078AF020000000000AC
:10C950000108200000805000E70F50000B00360057
:10C96000783A2300E8044400DAAD02000000000039
:10C97000006C7800890F5400FBFF3A002F48E2005A
:10C9800033003A0026F907007FF807007448E200F8
:10C9900003003A004F0578004F04BE000000060077
:10C9A00017C8BF00E74F5000FAFF36003168EF00AC
:10C9B000803A230001452300070009003158780020
:10C9C0001768EF003348E200020032003268EF00DF
:10C9D000AB84A80012F9070083E0A9000000000062
:10C9E0000000000080452300013B230007000900F0
:10C9F0003158780010C0B30031E8B7003068EF005C
:10CA00003348E200020032003368EF003168EF0083
:10CA10003248E200070032003148E20005003200EF
:10CA20003268EF003368EF00AB84A8003168EF0094
:10CA30001868EF0083E0A80000000000000000007C
:10CA40004F0578004F04BE0000000600D4FF3700F9
:10CA500081002000803A230096AE02000000000012
:10CA6000EFF8070048F80700C8FF37006E01B9006B
:10CA700082007800423423000101410000C9EB002C
:10CA800082332300810041008008EB00E20F500058
:10CA90002B0032000A003600E40F50003100320053
:10CAA000150031003022EF00C000200090118800F6
:10CAB0003822EF009840A9008840A9000000060035
:10CAC0000000E00009003A009022EF009222EF00FF
:10CAD0009422EF0000102000B01488009A22EF008A
:10CAE0009C22EF009E22EF0000000600E10F5000A4
:10CAF0000A00320000000600E50F5000FDFF3A007A
:10CB00004422EF00C0002000301288004C22EF00C9
:10CB10009B20A9008B20A90000000600B422EF0092
:10CB2000B622EF00B822EF0000102000D0158800D8
:10CB3000BE22EF00C022EF00C222EF00000006007C
:10CB40000023EF000223EF000423EF000010200079
:10CB5000301888000A23EF000C23EF000E23EF00AB
:10CB6000000006003A22EF00C0002000E01188001B
:10CB70004222EF0098C0A90088C0A900000006006A
:10CB8000881F78000044EB000880FB00B7FF070017
:10CB90000844E800E84F5400FBFF3A004F047800D7
:10CBA00000000600881F78000004780048C8BF0015
:10CBB0007C8C0200000000000004E00008003A0045
:10CBC000F00F2000E50F5400030036006000200045
:10CBD000EB0F54000F0032004F04780000000600F5
:10CBE000E60F54000F003200433423008300780026
:10CBF0000000EB000041780000C2EB00914F1200F2
:10CC00000C0032000000E800EE804000E60F50000B
:10CC1000F8FF3A00F00F20004F04780000000600F3
:10CC2000EFFF3700080078004F047800000006008E
:10CC3000EBFF37006E00B9008484200014427800B6
:10CC4000847178000280FB004F0478000000060029
:10CC5000E3FF37000400FA00881F78000004780022
:10CC6000E60F54003300320048C8BF00D2BF9F0017
:10CC7000E3BF9F007C8C0200000000005FB99700BA
:10CC8000EFB997000004E00009003A00F00F20001F
:10CC9000E50F54000300360060002000EB0F540045
:10CCA000460032004F0478000080FA0000000600C1
:10CCB00060002000C1FD2F00810F5100E08F59005E
:10CCC000F8FF3E0070802F00F1FF2F0002004000AF
:10CCD0008380480074D32600840F5000E08F5800F2
:10CCE00019003E004534230015437800818420005C
:10CCF000914078000040EB008001EB00843323007A
:10CD0000E14F430040003200814F53003E003200AB
:10CD10000040E800E64F5000DFFF32008081FB005A
:10CD2000E2C0B3000440BC006C01410064437900E0
:10CD3000F3FF3700080078004F0478000080FA0005
:10CD400000000600DAFF3700453423001543780061
:10CD5000E14F43002400320081842000914078009C
:10CD6000814F530022003200243523001440780004
:10CD7000E14F40001600320080CF50001400320016
:10CD80000436230014407800E14F400010003200C8
:10CD900080CF50000E0032006000200004532700B6
:10CDA000840F5100E08F5900BEFF3E000040EB00B1
:10CDB0008001EB0084332300D1FF3700F00F200007
:10CDC0004F0478000080FA0000000600B8FF37002A
:10CDD000014A7800100020004F0478000080FA001B
:10CDE00000000600B2FF370086842000164378005A
:10CDF000864A78000000EB004F0478000080FA00BB
:10CE000000000600AAFF37006E1BB90081727B008C
:10CE1000030078004F0478000080FA00000006004C
:10CE2000A3FF3700889FBE000004780048C8BF00F9
:10CE30007C8C0200000000000004E00006003A00C4
:10CE4000EA0F54000A003200E50F540015003600C6
:10CE50004F04BE00000006008040EB0048C8BF0041
:10CE6000448A020000000000EA0F5400F6FF3A0076
:10CE7000493423000044EB00194078004848E3009F
:10CE80000D0032000844E800EE844400E84F5400EE
:10CE9000EFFF3200194078004848E300F9FF3A00FC
:10CEA0000500370008007800F0FE07004F04BE00C0
:10CEB00000000600E8FF37000880FB00EBFE0700DB
:10CEC0000844E800EE844400E84F5400F1FF3A00C3
:10CED000DFFF3700881F780000017800E30F510062
:10CEE0006A00320014003600E50F5100470032009E
:10CEF0002200310000C02100D01188003C22EF0048
:10CF00003E22EF00C408DD00011288004222EF003B
:10CF100088C0A90098C0A9000080E800D01188004E
:10CF2000E1C0B30048C8BF00448A0200000000000E
:10CF30004F04780000000600E10F51004500320068
:10CF4000240036000023EF001023EF00C408DD00AA
:10CF5000C118880041C1B30048C8BF00448A02001C
:10CF6000000000000C23EF002000280000188800BB
:10CF70004F04780000000600EFFF3700E60F510075
:10CF8000EBFF3A004844800000102E000008B80073
:10CF900002242400F30020002252020000000000BE
:10CFA000401C9800E0FF2F00501C98000000EB0090
:10CFB000201C9800301C98008040EB0048C8BF003F
:10CFC000448A0200000000004F04780000000600C0
:10CFD000D9FF37009022EF00A022EF00C408DD0047
:10CFE0004115880001C1B30048C8BF00448A02004F
:10CFF000000000009C22EF00200028008014880020
:10D000004F04780000000600CBFF370000C021006D
:10D01000201288004622EF004822EF00C408DD00FD
:10D02000511288004C22EF008B20A9009B20A90000
:10D030000080E80020128800F1C0B30048C8BF009B
:10D04000448A0200000000004F047800000006003F
:10D05000B9FF3700B422EF00C422EF00C408DD009E
:10D060006116880021C1B30048C8BF00448A02008D
:10D0700000000000C022EF0020002800A01588005A
:10D080004F04780000000600ABFF370000C021000D
:10D09000801188003222EF003422EF00C408DD0046
:10D0A000B11188003822EF008840A9009840A900FB
:10D0B0000080E80080118800D1C0B30048C8BF00DC
:10D0C000448A0200000000004F04780000000600BF
:10D0D00099FF37000400FA00889FBE00E30F50005C
:10D0E000FB00320029003600E50F5000AD00320091
:10D0F0004D0031000100E000A4003200E18F40004B
:10D100001A01320080BB2000800F5100E08F5900CF
:10D110008F01360005532700850F5100E08F59001D
:10D1200017003E000201410083814900019AB900C5
:10D130000208B800810042004008DE000100200023
:10D14000E41180007F026200FF0F520027023200CC
:10D15000F4012000E4118800F21188000012880018
:10D1600088C0A90098C0A90060002000D0118800E4
:10D17000E1C0B30048C8BF00448A020000000000BC
:10D180004F04BE000080FA0000000600E10F5000CE
:10D19000AB003200590036000100E0007B00320095
:10D1A000E18F4000F1003200807F2000800F5100AD
:10D1B000E08F59005101360085FC2000850F510099
:10D1C000E08F5900B1023E00441ADD00CC12DE00AF
:10D1D000850272004412DD00500028000003E300C5
:10D1E0004E0232000023EF001023EF001823EF005F
:10D1F000A41888005000280000188800A01880009B
:10D200000100B800E118880041C1B30048C8BF0060
:10D21000448A0200000000004F04BE000080FA00B3
:10D2200000000600D9FF3700E60F5000D4FF3A0097
:10D23000E18F4000CD003200F0EB2000009AB900F1
:10D240000011B800830142000400280005002000FE
:10D250000201420083814A004019DE0003002000E1
:10D26000019AB9000114B80089044200404CDE0064
:10D270000900200040448000401A90008002EB002A
:10D28000880F5200898F5A0007003A00501A900008
:10D290008002EB000800510089805900800F520085
:10D2A000818F5A00B6FF3200C2BF9F00D3BF9F00DC
:10D2B000EA8E0200000000004044800048189800F8
:10D2C0004FB997000801510052189800A01990001A
:10D2D000830F54000100310028189800B018900006
:10D2E000810F5100A6FF3100321898004F04BE0094
:10D2F0000080FA0000000600A4FF37000100E000F3
:10D3000022003200E18F400098003200807F200030
:10D31000800F5100E08F5900E300360085FC2000AB
:10D32000850F5100E08F590031023E00441ADD00A4
:10D33000CC12DE00850272004412DD00500028008D
:10D340009002E300E70132009022EF00A022EF00FC
:10D35000A822EF00241588005000280080148800BF
:10D36000201580000100B8006115880001C1B300DC
:10D3700048C8BF00448A0200000000004F04BE00FD
:10D380000080FA000000060080FF3700EA8E0200ED
:10D39000000000004F04BE000080FA0000000600FC
:10D3A0007AFF37000100E000F8FF3200E18F400013
:10D3B0006E00320080BB2000800F5100E08F5900CA
:10D3C0009F00360005532700850F5100E08F59005C
:10D3D0006BFF3E000201410083814900019AB900C0
:10D3E0000208B800810042004008DE000100200071
:10D3F000341280007F026200FF0F5200930132005E
:10D40000F401200034128800421288005012880073
:10D410008B20A9009B20A90060002000201288001A
:10D42000F1C0B30048C8BF00448A020000000000F9
:10D430004F04BE000080FA000000060053FF3700D2
:10D440000100E000D1FF3200E18F400047003200D0
:10D45000807F2000800F5100E08F5900630036006C
:10D4600085FC2000850F5100E08F5900B9013E0076
:10D47000441ADD00CC12DE00850272004412DD0089
:10D4800050002800B402E30088013200B422EF000B
:10D49000C422EF00CC22EF00441688005000280080
:10D4A000A0158800401680000100B8008116880091
:10D4B00021C1B30048C8BF00448A02000000000038
:10D4C0004F04BE000080FA00000006002FFF370066
:10D4D0000100E000ADFF3200E18F40002300320088
:10D4E00080BB2000800F5100E08F590025003600DE
:10D4F00005532700850F5100E08F590013003E00AF
:10D500000201410083814900019AB9000208B80074
:10D51000810042004008DE000100200094118000DC
:10D520007F026200FF0F520018013200F401200058
:10D5300094118800A2118800B01188008840A900C9
:10D540009840A9006000200080118800D1C0B3007D
:10D5500048C8BF00448A0200000000004F04BE001B
:10D560000080FA000000060008FF3700828E0200EB
:10D57000000000004F04BE000080FA00000006001A
:10D5800002FF3700441ADD00CC12DE008502720073
:10D590004412DD0001A9B9000408B800810041006F
:10D5A0004008DE0001002000921180007F01610030
:10D5B000FF0F5100DC003200F201200092118800C0
:10D5C000A4118800B01188008840A9009840A900E3
:10D5D00060C0210080118800D1C0B30048C8BF00DE
:10D5E000448A020000000000DCFF3700451ADD001D
:10D5F000CB12DE00850272004512DD00504028008B
:10D60000B402E3006C003200B422EF00C422EF0049
:10D61000CC22EF004416880050402800A015880056
:10D62000401680000100B8008116880021C1B300B7
:10D6300048C8BF00448A020000000000A0FF370075
:10D64000441ADD00CC12DE00850272004412DD00B7
:10D6500001A9B9000408B800810041004008DE00BB
:10D6600001002000321280007F016100FF0F510095
:10D670006D003200F201200032128800441288004E
:10D68000501288008B20A9009B20A90060C02100B7
:10D6900020128800F1C0B30048C8BF00448A0200CD
:10D6A0000000000062FF3700451ADD00CB12DE00EB
:10D6B000850272004512DD00504028009002E30010
:10D6C0004B0032009022EF00A022EF00A822EF00D2
:10D6D0002415880050402800801488002015800000
:10D6E0000100B8006115880001C1B30048C8BF003F
:10D6F000448A02000000000020FF3700451ADD00C8
:10D70000CB12DE00850272004512DD005040280079
:10D710000003E3005D0032000023EF001023EF0060
:10D720001823EF00A4188800504028000018880033
:10D73000A01880000100B800E118880041C1B300C2
:10D7400048C8BF00448A020000000000B2FE370053
:10D75000441ADD00CC12DE00850272004412DD00A6
:10D7600001A9B9000408B800810041004008DE00AA
:10D7700001002000E21180007F016100FF0F5100D5
:10D7800050003200F2012000E2118800F4118800FC
:10D790000012880088C0A90098C0A90060C02100BC
:10D7A000D0118800E1C0B30048C8BF00448A02001D
:10D7B0000000000072FE3700CC02E20092FF3A0047
:10D7C000421680008001EB00840F5100858F5900C4
:10D7D00034FF3200B422EF00C422EF00CC22EF006D
:10D7E0004416880050402800A01588008CFF3700A0
:10D7F000A802E200B3FF3A00221580008001EB008E
:10D80000840F5100858F5900D5FE32009022EF0021
:10D81000A022EF00A822EF00241588005040280025
:10D8200080148800ADFF3700421280008001EB00B9
:10D83000840F5100858F59008EFF3A0052128000EC
:10D840008001EB00800F5100818F590089FF3A0061
:10D8500073C02100221280008281610062C0210019
:10D86000828F5100EEFE3200F20120003212880059
:10D8700044128800501288008B20A9009B20A90028
:10D8800060C021002012880082FF37001803E200E8
:10D89000A1FF3A00A21880008001EB00840F510024
:10D8A000858F590055FE32000023EF001023EF0052
:10D8B0001823EF00A41888005040280000188800A2
:10D8C0009BFF3700F21180008001EB00840F5100B4
:10D8D000858F5900ABFF3A00021280008001EB00F7
:10D8E000800F5100818F5900A6FF3A0073C02100BC
:10D8F000D21180008281610062C02100828F5100BC
:10D900001BFE3200F2012000E2118800F4118800B1
:10D910000012880088C0A90098C0A90060C021003A
:10D92000D01188009FFF3700A21180008001EB001A
:10D93000840F5100858F59001FFF3A00B2118000FB
:10D940008001EB00800F5100818F59001AFF3A00CF
:10D9500073C02100821180008281610062C02100B9
:10D96000828F5100F9FE3200F201200092118800EE
:10D97000A4118800B01188008840A9009840A9002F
:10D9800060C021008011880013FF3700A4118000BF
:10D990008002EB00820F5200838F5A00E3FE3A00B0
:10D9A000B41180008002EB00800F5200818F5A007A
:10D9B000DEFE3A0074C0210085118000050262007D
:10D9C000E60F5200E1FE3200F401200094118800BD
:10D9D000A2118800B01188008840A9009840A900D1
:10D9E0006000200080118800D8FE3700F41180000C
:10D9F0008002EB00820F5200838F5A00D4FD3A0060
:10DA0000041280008002EB00800F5200818F5A00C8
:10DA1000CFFD3A0074C02100D511800005026200DC
:10DA2000E60F5200D2FD3200F4012000E41188001C
:10DA3000F21188000012880088C0A90098C0A900CF
:10DA400060002000D0118800C9FD3700441280001A
:10DA50008002EB00820F5200838F5A0068FE3A006A
:10DA6000541280008002EB00800F5200818F5A0018
:10DA700063FE3A0074C02100251280000502620096
:10DA8000E60F520066FE3200F401200034128800D6
:10DA900042128800501288008B20A9009B20A90008
:10DAA00060002000201288005DFE3700CC02E200FA
:10DAB00076FE3A00421680008001EB00840F510090
:10DAC000858F590077FE3200B422EF00C422EF00A8
:10DAD000CC22EF004416880050002800A0158800D2
:10DAE00070FE3700A802E20017FE3A0022158000FF
:10DAF0008001EB00840F5100858F590018FE320021
:10DB00009022EF00A022EF00A822EF002415880049
:10DB1000500028008014880011FE37001803E2002E
:10DB2000B0FD3A00A21880008001EB00840F510084
:10DB3000858F5900B1FD32000023EF001023EF0064
:10DB40001823EF00A418880050002800001888004F
:10DB5000AAFD3700C0FA2300800F5100E08F590062
:10DB6000B7003E00421ADD00CE12DE0085027200D0
:10DB70004212DD0050042800B402E3000E0032001F
:10DB8000B422EF00C422EF00CC22EF00441688003C
:10DB900050042800A0158800401680000100B8003D
:10DBA0008116880021C1B30048C8BF00448A020022
:10DBB0000000000042FE3700CC02E200F0FF3A0015
:10DBC000421680008001EB00840F5100858F5900C0
:10DBD00034FE3200B422EF00C422EF00CC22EF006A
:10DBE0004416880050042800A0158800EAFF37007A
:10DBF000C0FA2300800F5100E08F59006D003E00F5
:10DC0000421ADD00CE12DE00850272004212DD00F3
:10DC1000500428009002E3000E0032009022EF0032
:10DC2000A022EF00A822EF0024158800500428004D
:10DC300080148800201580000100B800611588005C
:10DC400001C1B30048C8BF00448A020000000000C0
:10DC5000CAFD3700A802E200F0FF3A00221580005A
:10DC60008001EB00840F5100858F5900BCFD32000C
:10DC70009022EF00A022EF00A822EF0024158800D8
:10DC80005004280080148800EAFF3700C0FA2300FF
:10DC9000800F5100E08F590023003E00421ADD0042
:10DCA000CE12DE00850272004212DD005004280010
:10DCB0000003E3000E0032000023EF001023EF000A
:10DCC0001823EF00A41888005004280000188800CA
:10DCD000A01880000100B800E118880041C1B3001D
:10DCE00048C8BF00448A0200000000004AFD370017
:10DCF0001803E200F0FF3A00A21880008001EB0058
:10DD0000840F5100858F59003CFD32000023EF0045
:10DD10001023EF001823EF00A418880050042800F7
:10DD200000188800EAFF370085DE2F00850F5100BC
:10DD3000E08F590031FD3E00500828000003E30049
:10DD40000E0032000023EF001023EF001823EF0035
:10DD5000A21888005008280000188800A018800029
:10DD60000100B800E118880041C1B30048C8BF00F5
:10DD7000448A02000000000027FD37001803E2007B
:10DD8000F0FF3A00A41880008002EB00820F5200DE
:10DD9000838F5A0019FD32000023EF001023EF009B
:10DDA0001823EF00A21888005008280000188800E7
:10DDB000EAFF370085DE2F00850F5100E08F590004
:10DDC00067FD3E00500828009002E3000E0032007C
:10DDD0009022EF00A022EF00A822EF002215880079
:10DDE0005008280080148800201580000100B80029
:10DDF0006115880001C1B30048C8BF00448A020011
:10DE0000000000005DFD3700A802E200F0FF3A00CC
:10DE1000241580008002EB00820F5200838F5A008D
:10DE20004FFD32009022EF00A022EF00A822EF0069
:10DE3000221588005008280080148800EAFF370067
:10DE400085DE2F00850F5100E08F590095FD3E00C3
:10DE500050082800B402E3000E003200B422EF00A4
:10DE6000C422EF00CC22EF004216880050082800A0
:10DE7000A0158800401680000100B80081168800B7
:10DE800021C1B30048C8BF00448A0200000000005E
:10DE90008BFD3700CC02E200F0FF3A004416800010
:10DEA0008002EB00820F5200838F5A007DFD32000A
:10DEB000B422EF00C422EF00CC22EF00421688000B
:10DEC00050082800A0158800EAFF3700E30F500033
:10DED0002E00320007003600E50F5000210032000E
:10DEE0000C003900E60F5000140032000040EB0037
:10DEF00000000600E10F50001F0032000A0036004B
:10DF000060188000680060000000E9004F00DE003B
:10DF100000000600400480000004B2000000E90098
:10DF20004F00DE0000000600E01480006800600082
:10DF30000000E9004F00DE000000060041448000C0
:10DF40002119900010C0B3000200E000E8FF3A0081
:10DF50003119900071F72F00810F5100E4FF3E004E
:10DF600000000500500480000020B2000000E9001D
:10DF70004F00DE0000000600001680006800600010
:10DF80000000E9004F00DE000000060040048000B1
:10DF9000640060000000E9004F00DE0000000600A1
:10DFA000E60F5000010032000000060048C8BF0024
:10DFB0005A850400000000000600FA00889FBE0099
:10DFC000E50F50000E003E006E03B9006C024300E6
:10DFD0008533230065427A00E14F42004F00320052
:10DFE0008884200018447800884F52004D00320089
:10DFF000F00F20004F04BE000080FA000000060071
:10E00000603A230010427800E14F420036003200AF
:10E010008584200095427800854F520034003200FC
:10E020008003B10000C2EB00904F12004A003200A2
:10E030006E004000904F1200630032006E004000FE
:10E04000904F120079003200A8FB2F00000444001A
:10E05000984F12008E0032002035230000C2EB00E2
:10E06000904F1200A2003200F00F2000043623006F
:10E0700080C2EB002900200094CF1200DDFF3A009F
:10E0800009007800B1BF9F00C2BF9F00D3BF9F00AF
:10E0900076FA07006E4AB9000400780084842000F4
:10E0A0001442780004747800843323000000420096
:10E0B000DFB9970003087800800178004FB9970016
:10E0C000822978000001EB0092019800BFB8970008
:10E0D00031009800090078004F04BE000080FA006B
:10E0E00000000600C6FF37008584200095427800B6
:10E0F00005487800D39C8900E29C89000000EB0071
:10E10000F09C8900019D8900700020004F04BE0032
:10E110000080FA0000000600B9FF37008884200064
:10E12000184478004434230008727B008682420041
:10E13000830A780085017800822978000001EB00CD
:10E1400092019800B10298004F04BE000080FA00CE
:10E1500000000600AAFF3700380020000800780001
:10E16000B1BF9F00C2BF9F00D3BF9F003FFA07000F
:10E170006E42B900040078004434230085842000F6
:10E1800095427800057278006C025200000042004F
:10E19000DFB9970003087800800178004FB9970035
:10E1A000822978000001EB0092019800BFB8970027
:10E1B00031009800080078004F04BE000080FA008B
:10E1C000000006008EFF370048002000080078009D
:10E1D000B1BF9F00C2BF9F00D3BF9F0023FA0700BB
:10E1E0006E42B90004007800443423008584200086
:10E1F00095427800057278006C02520000004200DF
:10E20000DFB9970003087800800178004FB99700C4
:10E21000822978000001EB0092019800BFB89700B6
:10E220003100980008007800E3FF37005800200014
:10E2300008007800B1BF9F00C2BF9F00D3BF9F00FE
:10E240000AFA07006E42B900040078004434230043
:10E250008584200095427800057278006C02520097
:10E2600000004200DFB997000308780080017800C1
:10E270004FB99700822978000001EB0092019800C5
:10E28000BFB897003100980008007800CAFF370037
:10E290008004EB0009007800B1BF9F00C2BF9F005F
:10E2A000D3BF9F00F1F907006E4AB900040078005F
:10E2B000848420001442780004747800843323009E
:10E2C00000004200DFB99700030878008001780061
:10E2D0004FB99700822978000001EB009201980065
:10E2E000BFB8970031009800090078007AFF370026
:10E2F0001900200009007800B1BF9F00C2BF9F0035
:10E30000D3BF9F00D9F907006E4AB9000400780016
:10E31000848420001442780004747800843323003D
:10E3200000004200DFB99700030878008001780000
:10E330004FB99700822978000001EB009201980004
:10E34000BFB89700310098000900780062FF3700DD
:10E35000E30F5000460032000F003600E50F50007A
:10E360002E0032001800310000C02100801188000A
:10E370003222EF003422EF00B09B8100B011880000
:10E380003822EF008840A9009840A80020C0210052
:10E390008011880000000600E10F50002B003200C1
:10E3A0000C0036000023EF001023EF008D80A90041
:10E3B000D09A8100A018880000002800001888006A
:10E3C0009D80A80000000600E70F50000A00320000
:10E3D000000006009022EF00A022EF0094C0A900E8
:10E3E000F099810020158800000028008014880022
:10E3F000A4C0A800000006006C22EF007C22EF0001
:10E4000094A0A900009D810000148800000028004D
:10E4100060138800A4A0A8000000060000C021002E
:10E42000201288004622EF004822EF00209C810045
:10E43000501288004C22EF008B20A9009B20A800DE
:10E4400020C021002012880000000600B422EF0046
:10E45000C422EF008D60A900609A810040168800F8
:10E4600000002800A01588009D60A800000006009C
:10E4700000C02100801188003222EF003422EF001A
:10E48000409B8100B01188003822EF008840A9002D
:10E490009840A80020C021008011880000000600DC
:10E4A000613A230000C1EB00914F110001003200DE
:10E4B000000006006C22EF007C22EF0094A0A9006F
:10E4C00000148800A4A0A900000828006013880098
:10E4D00094A0AB00FEFF32006C22EF0080C8EB007E
:10E4E00000000600F623EF0090002000C01F880007
:10E4F000FC23EF000424EF0080002000402088006F
:10E500000A24EF000C24EF000E24EF001042280034
:10E51000A01F880000000600F623EF0090002000F6
:10E52000C01F8800FC23EF000424EF0080002000BF
:10E53000402088000A24EF000C24EF000E24EF0096
:10E5400010422800A01F880071C0B30048C8BF0057
:10E55000448A040000000000414480004100900013
:10E5600002C02F0002187800C000980000000600CA
:10E57000414480004100900002002E000218780003
:10E58000C0009800000006000002BE00E00F50002E
:10E59000E08F5800850032004828DD004821DE0069
:10E5A00002017000C829DE000204E0000D01350000
:10E5B000414480004100900003002E0003187800C1
:10E5C000C00098000281FB000268A3000101320034
:10E5D00003C02F0003187800C00098000258A30061
:10E5E000AE00320003C02F0003187800C00098006E
:10E5F0000248A300AE00320003C02F0003187800C9
:10E60000C00098000238A300AE00320003C02F0003
:10E6100003187800C00098000228A300AE00320062
:10E6200003C02F0003187800C00098000218A30050
:10E63000AE00320003C02F0003187800C00098001D
:10E640000208A300AE00320002C02F0002187800BA
:10E65000C0009800054178000204E000AE003500DB
:10E6600003002E0003187800C00098000281FB0010
:10E670000268A300AE00320003C02F000318780028
:10E68000C00098000258A300AE00320003C02F0063
:10E6900003187800C00098000248A300AE003200C2
:10E6A00003C02F0003187800C00098000238A300B0
:10E6B000AE00320003C02F0003187800C00098009D
:10E6C0000228A300AE00320003C02F000318780018
:10E6D000C00098000218A300AE00320003C02F0053
:10E6E00003187800C00098000208A300AE003200B2
:10E6F0000001780000C02F0000197800C2009800C7
:10E70000044078000004E000AE00350003002E0055
:10E7100003197800C20098000080FB000068A30085
:10E720005A00320003C02F0003197800C20098007D
:10E730000058A3005100320003C02F0003197800D5
:10E74000C20098000048A3004800320003C02F0018
:10E7500003197800C20098000038A300300032008E
:10E7600003C02F0003197800C20098000028A300FE
:10E770003000320003C02F0003197800C200980057
:10E780000018A3003000320003C02F0003197800E6
:10E79000C20098000008A30030003A0000002E00DC
:10E7A00000197800C2009800000006004244800072
:10E7B00000002E00C20090008018780080187800B9
:10E7C0008018780080187800801878008018780009
:10E7D00080187800801878008018780080187800F9
:10E7E00080187800801878008018780080187800E9
:10E7F00080187800801878008018780080187800D9
:10E8000080187800801878008018780080187800C8
:10E8100080187800801878004101980000000600F8
:10E8200003002E0003197800C20098000028A300FE
:10E83000D0FF3A0003002E0003197800C2009800B0
:10E840000018A300D0FF3A0003002E00031978003F
:10E85000C20098000008A300D0FF320000C02F00C3
:10E8600000197800C20098000000060003002E0086
:10E8700003197800C2009800B7FF370003002E008C
:10E8800003197800C2009800AEFF370003002E0085
:10E8900003197800C2009800A5FF370003002E007E
:10E8A00003187800C00098000248A30052FF3A0005
:10E8B00003002E0003187800C00098000238A3005F
:10E8C00052FF3A0003002E0003187800C0009800A1
