:020000040000fa
:080000000001040000000000f3
:020000040000fa
:0400080036070000b7
:020000040000fa
:04000c007a0700006f
:020000040000fa
:04001000b60700002f
:020000040000fa
:04001400540700008d
:020000040000fa
:040018009807000045
:020000040000fa
:04001c005c0900007b
:020000040000fa
:040020005c09000077
:020000040000fa
:040024005c09000073
:020000040000fa
:040028005c0900006f
:020000040000fa
:04002c005c0900006b
:020000040000fa
:040030005c09000067
:020000040000fa
:0400340008070000b9
:020000040000fa
:04003800240200009e
:020000040000fa
:04003c005c0900005b
:020000040000fa
:040040005c09000057
:020000040000fa
:040044000c070000a5
:020000040000fa
:040048005c0900004f
:020000040000fa
:04004c005c0900004b
:020000040000fa
:040050005c09000047
:020000040000fa
:040054003808000068
:020000040000fa
:04005800d4070000c9
:020000040000fa
:04005c000802000096
:020000040000fa
:040060005c09000037
:020000040000fa
:040064005c09000033
:020000040000fa
:040068005c0900002f
:020000040000fa
:04006c00400200004e
:020000040000fa
:040070005c09000027
:020000040000fa
:040074005c09000023
:020000040000fa
:040078005c0900001f
:020000040000fa
:04007c005c0900001b
:020000040000fa
:040080005c09000017
:020000040000fa
:040084005c09000013
:020000040000fa
:040088005c0900000f
:020000040000fa
:04008c005c0900000b
:020000040000fa
:040090005c09000007
:020000040000fa
:040094005c09000003
:020000040000fa
:040098005c090000ff
:020000040000fa
:04009c005c090000fb
:020000040000fa
:0400a000060900004d
:020000040000fa
:0400a400a2080000ae
:020000040000fa
:0400a8005c090000ef
:020000040000fa
:0400ac005c090000eb
:020000040000fa
:0400b0005c090000e7
:020000040000fa
:0400b4005c090000e3
:020000040000fa
:0400b8005c090000df
:020000040000fa
:0400bc005c090000db
:020000040000fa
:0400c0005c090000d7
:020000040000fa
:0400c4005c090000d3
:020000040000fa
:0400c8005c090000cf
:020000040000fa
:0400cc005c090000cb
:020000040000fa
:0400d0005c090000c7
:020000040000fa
:0400d4005c090000c3
:020000040000fa
:0400d8005c090000bf
:020000040000fa
:0400dc005c090000bb
:020000040000fa
:0400e0005c090000b7
:020000040000fa
:0400e4005c090000b3
:020000040000fa
:0400e8005c090000af
:020000040000fa
:0400ec008a04000082
:020000040000fa
:0400f0005c090000a7
:020000040000fa
:0400f4005c090000a3
:020000040000fa
:0400f8005c0900009f
:020000040000fa
:0400fc005c0900009b
:020000040000fa
:040100005c09000096
:020000040000fa
:040104005c09000092
:020000040000fa
:040108005c0900008e
:020000040000fa
:04010c005c0900008a
:020000040000fa
:040110005c09000086
:020000040000fa
:040114005c09000082
:020000040000fa
:040118005c0900007e
:020000040000fa
:04011c005c0900007a
:020000040000fa
:040120005c09000076
:020000040000fa
:040124005c09000072
:020000040000fa
:040128005c0900006e
:020000040000fa
:04012c00980800002f
:020000040000fa
:040130005209000070
:020000040000fa
:040134005c09000062
:020000040000fa
:040138005c0900005e
:020000040000fa
:04013c005c0900005a
:020000040000fa
:040140005c09000056
:020000040000fa
:040144005c09000052
:020000040000fa
:040148005c0900004e
:020000040000fa
:04014c005c0900004a
:020000040000fa
:040150005c09000046
:020000040000fa
:040154005c09000042
:020000040000fa
:040158005c0900003e
:020000040000fa
:04015c005c0900003a
:020000040000fa
:040160005c09000036
:020000040000fa
:040164005c09000032
:020000040000fa
:040168005c0900002e
:020000040000fa
:04016c005c0900002a
:020000040000fa
:040170005c09000026
:020000040000fa
:040174005c09000022
:020000040000fa
:040178005c0900001e
:020000040000fa
:04017c005c0900001a
:020000040000fa
:040180005c09000016
:020000040000fa
:040184005c09000012
:020000040000fa
:040188005c0900000e
:020000040000fa
:04018c005c0900000a
:020000040000fa
:040190005c09000006
:020000040000fa
:040194005c09000002
:020000040000fa
:040198005c090000fe
:020000040000fa
:04019c005c090000fa
:020000040000fa
:0401a0005c090000f6
:020000040000fa
:0401a4005c090000f2
:020000040000fa
:0401a8005c090000ee
:020000040000fa
:0401ac005c090000ea
:020000040000fa
:0401b0005c090000e6
:020000040000fa
:0401b4005c090000e2
:020000040000fa
:0401b8005c090000de
:020000040000fa
:0401bc005c090000da
:020000040000fa
:0401c0005c090000d6
:020000040000fa
:0401c4005c090000d2
:020000040000fa
:0401c8005c090000ce
:020000040000fa
:0401cc005c090000ca
:020000040000fa
:0401d0005c090000c6
:020000040000fa
:0401d4005c090000c2
:020000040000fa
:0401d8005c090000be
:020000040000fa
:0401dc005c090000ba
:020000040000fa
:0401e0005c090000b6
:020000040000fa
:0401e4005c090000b2
:020000040000fa
:0401e8005c090000ae
:020000040000fa
:0401ec005c090000aa
:020000040000fa
:0401f0005c090000a6
:020000040000fa
:0401f4005c090000a2
:020000040000fa
:0401f8005c0900009e
:020000040000fa
:0401fc005c0900009a
:020000040000fa
:100200002fe822000e7f24000e018800000000006d
:10021000000020000000e000020032000001200089
:100220002002880014000700250407000000e000f9
:1002300003003a0000ea220001002000020037001b
:100240000000200001002000810f7000010032003a
:1002500014000700000020000000e000020032004f
:100260000000020000000000302902000000000031
:100270000040da000000fe004440a900a007200072
:100280000000e00003003200002020009001880000
:100290004440a800000006008a1f78008b1f7800e9
:1002a00000000600a1028800800478000000eb0036
:1002b0001f003700e284440054a0b4009905ba003e
:1002c000e284440054a0b4009906ba00e2844400d9
:1002d00054a0b4000006eb00476fde00fd07b2003b
:1002e000ae018800636ce10003003a00eaff0700fa
:1002f0000000eb000e003700606ce10008003a00df
:10030000004deb000a05e800020039003420ec0043
:100310000af0a0008b05e900f9ff3e000400370059
:100320006168e100010032000086eb000b0007006d
:1003300019c7ba001905ba000e04e00003003a001c
:100340000a00e000dbff3a0000000600fe07b200f2
:10035000ae0288008a047800f5ff37000cd0a300b5
:10036000e20f4d001c00390089027800354dba00bb
:100370000a05e800020039003420ec000af0a00071
:100380008b05e9000f003200254dba000a05e80090
:10039000020039003420ec000af0a0008b05e900cf
:1003a000080032000c00e0000600320015cdba0053
:1003b0000a05e800020039003420ec000af0a00031
:1003c0008b05e9008984e80054a0b4000b00e0002c
:1003d000e2ff3a00000006009902ba00055d7800cd
:1003e0008b05e900f7ff3200c82ade00055d7800c2
:1003f0008b05e900f3ff32000c00e000f1ff320052
:1004000019ddba00eeff3700402f040000000000a5
:100410003200f8003400f800881f7800180020002f
:10042000a801880008202000980188004f04780067
:1004300089a0ab000100320089a0a9003400f900b6
:100440003200f900004006003600f800809fbe0030
:10045000829fbe00849fbe00869fbe003e160200a3
:10046000000000008880a9004f03be004f02be00bc
:100470004f01be004f00be003600f90000400600ec
:10048000809fbe00821f78008a20a9009ee4ab00f6
:1004900020003a00a06d81008000eb00eb0f5000bf
:1004a000e08f58000e003600c0da22001048e80045
:1004b0009a44a800106e8100200090000000e00027
:1004c0000200320061002000010878000000eb000b
:1004d000a06d89004f0178004f00be00004006006b
:1004e00000600100350037002d0037006b00370039
:1004f000130037002000370097003700a8003700ae
:100500001d0037007d003700e7ff3700550037003a
:10051000460037009ee4a9000000eb00a06d8900b2
:10052000116e8100a10090008008eb00106e890020
:100530004f0178004f00be0000400600e8ff370082
:100540009e04e2009d00350091dc220011407800fd
:100550008048e9000004e000e6003a00306e8100c7
:1005600066004000306e890041dc22001140e90045
:10057000804878000a003a009a44a800106e810072
:10058000200090000000e000d0ff32002100200099
:10059000010878000000eb00a06d8900cdff370056
:1005a0009a24a80020002000a06d89004f01780047
:1005b0004f00be0000400600c9ff3700a0da22004d
:1005c0001000780062006000c2ff3a00406d8100b8
:1005d000106e890041dc2200904878009000900065
:1005e000316e890066004000406d890041db2200c9
:1005f000810f5000a2003200516d81000100a10066
:10060000516d8900326d8100800f510096003200db
:100610009a04a80020002000a06d89004f017800f6
:100620004f00be0000400600adff37009e04e20010
:100630007b003d00c0da22001048e8009a44a80080
:10064000106e8100200090000000e0009fff32004b
:1006500041002000010878000000eb00a06d890037
:100660009cff37009e04e200f2ff3500516e8100ce
:100670000100d100f00fb200b02488000108a300ef
:1006800088003200b0002000a06d89004f01780082
:100690004f00be000040060091ff370080dc2200c2
:1006a00012c0b300904f11006c003200316e810017
:1006b00011007800506e890021019000626e89005f
:1006c00092dc2200a140900001497800f10f200047
:1006d000810f500079003e00b02488000008a3007c
:1006e0007000320050002000a06d89004f0178009a
:1006f0004f00be000040060079ff3700a1248000b3
:10070000606e810001587800606e890091dc2200e3
:100710001140e9008048780035003a009aa4a8000a
:10072000306e810066004000306e890041dc22009e
:100730001140e900804878006a003a00400020003b
:10074000a06d89009a84a8004f0178004f00be0078
:100750000040060062ff37009e04e20029003d00d1
:10076000c0da22001048e8009a44a800106e810008
:10077000200090000000e000020032004100200054
:10078000010878000000eb00a06d89009fe4a9003b
:100790004f0178004f00be000040060050ff3700b8
:1007a00080002000a06d89009a64a8004f017800a5
:1007b0004f00be000040060049ff3700c0da2200ab
:1007c0001048e8009fe4a9009a44a800106e810038
:1007d000200090000000e0003cff320051002000ab
:1007e000010878000000eb00a06d890039ff370098
:1007f0009aa4a90060002000a06d89009a84a80036
:10080000d1ff37009a64a80080002000a06d890005
:100810004f0178004f00be000040060030ff370057
:100820009a24a800506e81004800de006600600037
:10083000100fb300506e890011c0b30080dc22009d
:100840000148780020002000a06d89004f01780049
:100850004f00be000040060021ff37000048eb00bb
:10086000506e810099ff37000110a000516d890082
:100870009a04a80020002000a06d890067ff3700bf
:10088000e0da2200406d8900516d81000100a10075
:10089000516d8900326d8100800f51005cff3a007c
:1008a000f1ff370030002000a06d89004f01780073
:1008b0004f00be000040060009ff37004800de0080
:1008c00066006000000fb300b0248800a000200084
:1008d000a06d89004f0178004f00be000040060067
:1008e000fffe370010002000a06d89009a84a80048
:1008f00095ff3700606e8100b080fb00b124880056
:10090000606e89004f0178004f00be000040060075
:10091000f3fe37003600f800809fbe00829fbe00c5
:10092000849fbe00869fbe00e0dc220031c6b3007b
:10093000014878008e20a900a26e8100b36e81006c
:1009400061014100e0814900a26e8900b36e890017
:1009500071258000f08060000d003200f0dc220084
:1009600071c0b30090cf100001003e000048eb00c2
:100970000000eb00e06e89004f03be004f02be0096
:100980004f01be004f00be003600f90000400600d7
:10099000e26e8100e20f5100420032003600310069
:1009a000aea4ab006b003200aae4ab0067003a00d3
:1009b00011dd22001104e00066003a0043c6b300d6
:1009c00003487800e10f5100ebff3a00e2dc22001f
:1009d000c3c0b30003487800aea4ab00e6ff32000a
:1009e000d0c0b30000497800aec4ab00ec003a00c0
:1009f000e0c0b3000049780020dd22001004e000d0
:100a0000e5003a001104e000e3003a00afa4ab00b7
:100a1000d9ff3200afa4ab00d7ff3200f0dc2200d8
:100a200071c0b30090cf1000f1003e00aaa4a9004d
:100a3000232580009080fb00e2dd220003f1780096
:100a40001048e80082c0b300904f1100eb00320064
:100a500070e122000048eb00ab84a8004f03be0009
:100a60004f02be004f01be004f00be003600f9002d
:100a700000400600c6ff3700e30f5100220032009d
:100a800028280200000000004f03be004f02be00f5
:100a90004f01be004f00be003600f90000400600c6
:100aa000bbff3700ae04e2003f003500aaa4a90056
:100ab00001dd22001181fb0063de22006341790029
:100ac0000281fb003225880062c0b300914f110003
:100ad00001003e009148e80081e122008048eb00df
:100ae000ab84a80001c1b300014878004f03be00e9
:100af0004f02be004f01be004f00be003600f9009d
:100b000000400600a2ff370021c1b3000148780071
:100b100012c0b300e1de22008248780031c1b30088
:100b2000014878002025800010002000e06e890038
:100b30004f03be004f02be004f01be004f00be007b
:100b40003600f9000040060091ff3700af24ab00eb
:100b500097ff3200ae44ab0021003a00e5dc2200f2
:100b600014c0b300044878000300220071258000ff
:100b7000818161005d003a0011dd22008348780028
:100b80002225800012002000e26e890033c0b300ed
:100b9000834a7800aea4ab008cff320023dd220034
:100ba0008249780089ff3700e16e890001dd22006b
:100bb00072c0b300914f110028003e0011c1b30074
:100bc000014878004f03be004f02be004f01be0037
:100bd0004f00be003600f900004006006cff3700f1
:100be000e3dc220051c3b30001487800afa4ab009e
:100bf00023003a0060c0b3008049780020258000bf
:100c0000aaa4a90000dd22009080fb0062de220081
:100c1000e2c078008180fb003125880062c0b3000b
:100c2000904f110001003e001048e80080e12200d2
:100c30000048eb00ab84a80020002000e06e890093
:100c40004f03be004f02be004f01be004f00be006a
:100c50003600f900004006004dff370011cbb3000d
:100c6000014878004f03be004f02be004f01be0096
:100c70004f00be003600f9000040060044ff370078
:100c800011dd220014c0b3008448780054c0b300c2
:100c90008449780083e0a900000000000000000003
:100ca00024258000aaa4a90004dd2200004aeb004c
:100cb00074e122001404e0000300320084e1220009
:100cc0001404e00025003200ab84a80083e0a800f3
:100cd000000000000000000043c3b3000348780098
:100ce000e10f510024ff3a0038ff370011dd2200e8
:100cf00084487800b3c0b300834a780083e0a90039
:100d0000000000000000000023258000aaa4a90024
:100d100073e122001304e0002c00320083e1220082
:100d20001304e00029003a00a4c0b300a3e12200ac
:100d300084497800c3c0b300834a780083e0a800e8
:100d4000000000000000000003dd22008049eb00ed
:100d5000e10f510008ff3a001cff370083e0a800b4
:100d60000000000000000000a1c0b30090e12200dc
:100d70000148780030c3b300804978004f03be00bb
:100d80004f02be004f01be004f00be003600f9000a
:100d900000400600fefe37000048eb001dff370054
:100da00020258000aec4a900f0c0b300004978003f
:100db0004f03be004f02be004f01be004f00be00f9
:100dc0003600f90000400600f1fe3700ab84a800b1
:100dd000d3c0b3000348780083e0a80000000000ff
:100de0000000000003dd22008049eb00d8ff37003f
:100df00020258000ab84a80018ff370011c0b30085
:100e000070e1220001487800ab84a80013ff37008e
:100e10008860a900004006003600f800809fbe00f0
:100e2000829fbe00849fbe00869fbe00e07181004d
:100e30000000e000010032000000010050e4220048
:100e40001048e80011c0b30040e4220001487800d7
:100e500088e0a9004f03be004f02be004f01be0054
:100e60004f00be003600f900004006003600f800d2
:100e7000809fbe00829fbe00849fbe00869fbe00f2
:100e80008020a9000000eb004e31020000000000ad
:100e90004f03be004f02be004f01be004f00be0018
:100ea0003600f900004006003600f800809fbe00c2
:100eb000829fbe00849fbe00869fbe0000df22008e
:100ec0008007780080e02200000188008040a900af
:100ed000100020004e310200000000004f03be0051
:100ee0004f02be004f01be004f00be003600f900a9
:100ef000004006003600f800809fbe00829fbe00c2
:100f0000849fbe00869fbe008060a9002000200054
:100f10004e310200000000004f03be004f02be0031
:100f20004f01be004f00be003600f9000040060031
:100f30003600f800809fbe00829fbe00849fbe00e6
:100f4000869fbe008080a900300020004e31020044
:100f5000000000004f03be004f02be004f01be0064
:100f60004f00be003600f900004006003600f800d1
:100f7000809fbe00829fbe00849fbe00869fbe00f1
:100f80008600a900700020004e3102000000000021
:100f90004f03be004f02be004f01be004f00be0017
:100fa0003600f90000400600809fbe00829fbe0010
:100fb000c1608100b0608100808f5000210032004c
:100fc0008980a900c2cd2200c3c922009b23ab00a7
:100fd00010003a00c06081001080fb00e01c880017
:100fe000c06081000000e800c0608900c06081002e
:100ff000820f50000a003200d06081000080a10002
:10100000d0608900c1608100b0608100808f500095
:10101000eeff3a004f01be004f00be000040060048
:10102000c3608900d06081000080a100d060890089
:10103000c1608100b0608100808f5000e3ff3a0002
:10104000f4ff3700d06081000088a300dcff3a0085
:10105000d06081000090a000d06089009980a90034
:101060004f01be004f00be0000400600ecff3700fd
:10107000809fbe00829fbe00841f78008960a90007
:10108000c3c02200c2c92200c4c122009a03ab001f
:101090001a003200f01c80008049780091608100c5
:1010a00080487800706081008160810061004000ac
:1010b000e080480070608900816089009060810054
:1010c0000000e8009060890090608100820f50006d
:1010d0000e003200d06081000010a100d0608900b5
:1010e00091608100a0608100808f5000e7ff3a008e
:1010f000d06081000000a000d06089004f0278001d
:101100004f01be004f00be00004006009460890001
:10111000d06081000010a100d06089009160810042
:10112000a0608100808f5000d8ff3a00f0ff3700a8
:101130009a23ab00010032009a23a9009020a90055
:1011400000400600809fbe00829fbe0011678100a4
:1011500000678100808f5000210032008be0a900e1
:1011600062da220063d62200b123ab0010003a00fd
:10117000106781001080fb00901d880010678100bf
:101180000000e8001067890010678100820f50009e
:101190000a003200206781000080a10020678900da
:1011a0001167810000678100808f5000eeff3a00d8
:1011b0004f01be004f00be000040060013678900cb
:1011c000206781000080a1002067890011678100ed
:1011d00000678100808f5000e3ff3a00f4ff370082
:1011e000206781000088a300dcff3a0020678100af
:1011f0000090a000206789009be0a9004f01be007d
:101200004f00be0000400600ecff3700809fbe008c
:10121000829fbe008bc0a90062d6220063ce22004e
:10122000b003ab0013003200e0668100a11d800016
:1012300001487800e06681000000e800e06689006f
:10124000e0668100820f50000d00320020678100af
:101250000010a10020678900e1668100f06681002e
:10126000808f5000eeff3a00206781000000a00050
:10127000206789004f01be004f00be0000400600fd
:10128000e3668900206781000010a10020678900c3
:10129000e1668100f0668100808f5000e0ff3a0037
:1012a000f1ff3700b023ab0001003200b023a900ea
:1012b0009040a900004006000040da000000fe0057
:1012c00000000500839f68000100e00002003d006f
:1012d00060001000e08018000300e00002003d0004
:1012e00060011100e0811900050007004f00e000d7
:1012f00002003b0060001000e080180000000600c3
:101300006022b800060220000000d0008180d200d8
:101310000482d2008582d2000000a00002025200a6
:1013200083825a00030031000202420083824a0095
:101330000000a1000603e900f3ff3a0000000600e8
:101340008001780002003700b15978000201e900fd
:0c1350000200e000fcff3a000000060074
:020000040000fa
:10135c00000100000101000001000000000100007c
:10136c00000100000101000001010000010100006a
:10137c00010100000101000001000000010000005b
:10138c00020000000400000008000000040000003f
:10139c0008000000100000001000000020000000f9
:1013ac00400000008000000000010000000200006e
:1013bc0000040000000800000010000000200000e5
:1013cc0000400000008000001a0000000102000034
:1013dc0003ff0000ff040000ff05000006070000eb
:1013ec00080900000a0b00000c0d00000e0f000095
:1013fc00000200000304000005ff0000ffff0000d6
:10140c00ffff0000ffff0000ffff0000ffff0000d8
:10141c00080700000609000001010000010100009e
:10142c0001010000000000000000000000000000ae
:10143c00000000000000000000010000010100009d
:04144c00010000009b
:020000040000fa
:101450000080fb00e29a28008180fb00e2417800d6
:1014600062c0780000c069000080fb000000ea0054
:101470004f00de0000000600014178000080fb0004
:101480008000eb00f30f5000e08f58001b003e007f
:10149000006001001a0037001f00370024003700e9
:1014a0002a0037002f0037001400370013003700e0
:1014b0003300370011003700370037003d00370098
:1014c00042003700480037004d0037005300370016
:1014d000580037005e0037006300370069003700ae
:1014e00000003700f207b2004811dd00f00f2800bd
:1014f000e207b60000007100103f880000000600ff
:10150000f207b20000f82f00ee07b60000007100ed
:10151000703f880000000600f207b20000f82f00bc
:10152000d407b60000007100a03e8800000006004d
:10153000f207b2004811dd00f00f2800d407b60012
:1015400000007100a03e880000000600f207b20013
:1015500000f82f00d607b60000007100b03e8800ea
:1015600000000600f207b2004811dd00f00f28006d
:10157000d607b60000007100b03e880000000600eb
:10158000f207b20000f82f00d807b6000000710083
:10159000c03e880000000600f207b2004811dd00de
:1015a000f00f2800d807b60000007100c03e880088
:1015b00000000600f207b20000f82f00da07b600bc
:1015c00000007100d03e880000000600f207b20063
:1015d0004811dd00f00f2800da07b60000007100a6
:1015e000d03e880000000600f207b20000f82f008d
:1015f000dc07b60000007100e03e88000000060035
:10160000f207b2004811dd00f00f2800dc07b60039
:1016100000007100e03e880000000600f207b20002
:1016200000f82f00de07b60000007100f03e8800d1
:1016300000000600f207b2004811dd00f00f28009c
:10164000de07b60000007100f03e880000000600d2
:10165000f207b20000f82f00e007b60000007100aa
:10166000003f880000000600f207b2004811dd00cc
:10167000f00f2800e007b60000007100003f88006e
:1016800000000600f207b20000f82f00e207b600e3
:1016900000007100103f88000000060080802000dc
:1016a000904078000000eb00f3cf500004003e00b3
:1016b0008180fb0081804000209c280060807800b1
:1016c00000000600f44f50001a003e000080fb00ae
:1016d00022a12800624178000204e00015003200d7
:1016e000e29a2800624178000204e00007003a0014
:1016f0000104e0001000320000004000219c28009e
:10170000610078006a26b70000000600e14f510032
:1017100008003a000104e0000e003a00000040001a
:10172000219c2800610078000080ea007e06b60057
:10173000f03388000000060000004000219c2800d3
:10174000610078000080ea006a06b6005033880025
:101750000000060000004000219c28006100780085
:101760007e26b70000000600804078000040eb00b5
:10177000f4cf500003003e008180fb0020a1280030
:1017800060c0780000000600808020009040780053
:1017900000c0eb00f3cf500003003e008180fb004f
:1017a000e09a280060c078000000060080407800c1
:1017b0000040eb00f3cf500013003e008180fb009f
:1017c00001804000229c280062007800e29a2800f4
:1017d000e2c078000104e000060032007806b6009e
:1017e00000f0a7000000ea000000ea004f00de0061
:1017f000000006006406b60000f0a7000000ea0042
:101800000000ea004f00de00000006000080fb0040
:1018100080004000229c280062817800e19a280024
:10182000614078000004e0000b003200e14f5000fe
:1018300001003200000006000281ea00b13380009e
:1018400002806000b0338800f03380000201600045
:10185000f2338800000006000281ea0011338000a4
:101860000280600010338800503380000201600065
:1018700052338800000006000080fb00800040001a
:10188000229c2800e2807800e29a280062407800da
:101890000004e0000a003200e14f50000100320075
:1018a00000000600010078007626b7008180ea007b
:1018b000f033800081006000f133880000000600f2
:1018c000010078006226b7008180ea005033800072
:1018d00081006000513388000000060080802000f5
:1018e00010407800b1ff37006941500011c0b300cb
:1018f000ea4f510006003600e44f50000400360065
:1019000070c0b2008080fb008100e900cf08de00db
:101910000140780000000600889fbe00f34f500091
:1019200018003e000081fb0082014100249c280039
:1019300064847900e39a2800e34479008984fb00f9
:101940008904ea00cf4cde00e2cf500027003200cd
:101950000104e0000d003a000884ea00e94050006c
:10196000eacf500028003e008040eb00c2fe070096
:101970000904e0003e003200b133800008846000ba
:10198000b83388004f04be0000000600e1cf5000cd
:10199000fcff3a00e9405000eacf50003f0036001b
:1019a000e44f50003d003600e74f50003b0032004e
:1019b0000904e00043003a0088007800c08022005b
:1019c0001e26020000000000080078006626b7000e
:1019d0000884ea001133800008846000183388000e
:1019e0004f04be0000000600e8ff37000904e000d5
:1019f00025003200080078007626b7004f04be00ac
:101a000000000600e1ff3700e44f5000d6ff36002b
:101a1000e74f5000d4ff32000904e0000d0032000f
:101a200088007800c09022002627020000000000f5
:101a3000d133800008806000d0338800b03380004c
:101a400008046000b83388004f04be0000000600a0
:101a5000ceff370088007800c080220026270200d1
:101a600000000000313380000880600030338800bf
:101a70001033800008046000183388004f04be0053
:101a800000000600c1ff3700080078006226b7009a
:101a90004f04be0000000600bcff370091c1b30038
:101aa00075fe07000904e0000c003a000880ea0017
:101ab0006206b600103388004f04be000000060026
:101ac000b2ff370088007800c09022001e26020076
:101ad00000000000080078007a26b7000880ea00bd
:101ae0007606b600b03388004f04be000000060042
:101af000a6ff370080802000104078005eff37008e
:101b00008080200010407800f34f500011003e000c
:101b10000080fb0080004000229c2800e2807800ca
:101b2000e29a2800624078000004e00004003a00d5
:101b3000010078006226b7006a26b70000000600a0
:101b4000e14f500003003a00010078007626b7000c
:101b50007e26b700000006006fff37008040780047
:101b600080802000104078006bff37008040eb0041
:101b700069ff370011c0b30067ff3700f34f500013
:101b800016003e000080fb00e29a280062417800c7
:101b90000204e00007003a000104e00010003200f7
:101ba00000004000219c2800610078007226b700e8
:101bb00000000600e14f510008003a000104e00077
:101bc0000e003a0000004000219c280061007800cf
:101bd0000080ea008606b600303488000000060067
:101be00000004000219c2800610078000080ea008d
:101bf0007206b60090338800000006000000400026
:101c0000219c2800610078008626b70000000600ad
:101c1000f34f500016003e000080fb00e29a2800bf
:101c2000624178000204e00007003a000104e0008d
:101c30001000320000004000219c28006100780064
:101c40007426b70000000600e14f510008003a007a
:101c50000104e0000e003a0000004000219c280032
:101c6000610078000080ea008806b60040348800f1
:101c70000000060000004000219c28006100780060
:101c80000080ea007406b600a03388000000060059
:101c900000004000219c2800610078008826b700e1
:101ca00000000600f34f500016003e000080fb00cd
:101cb000e29a2800624178000204e00007003a003e
:101cc0000104e0001000320000004000219c2800c8
:101cd000610078006826b70000000600e14f51005f
:101ce00008003a000104e0000e003a000000400045
:101cf000219c2800610078000080ea007c06b60084
:101d0000e03388000000060000004000219c28000d
:101d1000610078000080ea006806b6004033880061
:101d20000000060000004000219c280061007800af
:101d30007c26b70000000600881f78000044780069
:101d40008040eb0008407800b1ff070011c0b300ed
:101d50000840780089ff07004f0478000000060063
:101d60008040eb0085ff3700881f78000044780032
:101d70008040eb000840780080ff070011c0b300ee
:101d800008407800a2ff07004f047800000006001a
:101d90008040eb009eff370011c0b300c1ff370049
:101da0008040eb00bfff370011c0b30080802000ef
:101db00010407800d8fe3700889fbe0000447800ad
:101dc000f34f54001d003e000880fb0080004000df
:101dd000229c2800e28478008984ea00e19a2800a5
:101de000614078000004e0001600320089007800ad
:101df000c09022002627020000000000d13380009e
:101e000009806000d0338800b0338000890460000e
:101e1000b933880069405400ea4f50000200360090
:101e2000e44f540012003e008040eb000840780070
:101e300091fd07000840780074fe07004f04be00c3
:101e40000000060089007800c080220026270200da
:101e500000000000313380000980600030338800ca
:101e6000103380008904600019338800e9ff3700cf
:101e7000e74f5400ecff32000840780063fe070093
:101e8000eeff3700889fbe0000447800f34f5400f7
:101e900018003e000880fb0080004000229c2800c3
:101ea000e2847800e19a2800614078000004e000b4
:101eb0001200320089007800c09022001e26020025
:101ec00000000000090078007a26b700694054003d
:101ed000ea4f500002003600e44f54000e003e006e
:101ee0008040eb000840780063fd07000840780060
:101ef00046fe07004f04be0000000600890078007f
:101f0000c08022001e2602000000000009007800a8
:101f10006626b700edff3700e74f5400f0ff3200b0
:101f20000840780039fe0700f2ff3700889fbe00a6
:101f30008a1f780000447800f34f54001e003e00d2
:101f40000880fb0080004000229c2800e28478008a
:101f5000e19a2800614578000a85fb000a05ea003d
:101f60004f55de0069405400ea4f500015003e0016
:101f700091c1b300084078003ffd07008984ea0062
:101f80000a04e0001e00320089007800c0902200a0
:101f90002627020000000000d13380000980600085
:101fa000d0338800b033800089046000b9338800e2
:101fb0000840780015fe07004f0578004f04be006a
:101fc00000000600e44f5400e9ff3600e74f5400dc
:101fd000e7ff32000a04e0001600320089007800b2
:101fe000c09022001e2602000000000009007800b8
:101ff0007a26b7000840780004fe0700eeff37009d
:1020000089007800c080220026270200000000001e
:102010003133800009806000303388001033800045
:10202000890460001933880008407800f7fd070034
:10203000e1ff370089007800c08022001e260200e0
:1020400000000000090078006626b700084078000c
:10205000eefd0700d8ff37008040eb0080802000b5
:10206000104078002cfe370080802000104078005f
:1020700031ff37008040eb00808020001040780066
:10208000befe3700808020001040780036ff370009
:102090008040eb008080200010407800dcfe37009c
:1020a00000000600000006000200fa00881f780009
:1020b000d0c0b300c0ff9f00a0c0b300d0ff9f00fe
:1020c00068e122001804e00019003a0081002000b5
:1020d00060e2220070220200000000001804e0000c
:1020e00005003a0050e122000048eb004f04780060
:1020f0000080fa00000006002100200064805700e4
:1021000070220200000000002100200064805700bf
:10211000702202000000000050e122000048eb00a5
:102120004f0478000080fa0000000600f2ff37003c
:10213000210020006480570070220200000000008f
:102140008100200060e222007022020000000000f6
:102150001804e000e3ff3200e7ff370052c4b30089
:1021600061e222008248780071e22200402b0200e6
:102170000000000050c5b300c1e222008048780092
:10218000d1e22200804878000000060021c4b3009c
:10219000814f50000f00320061c4b300814f5000e6
:1021a000090032008000eb0052c5b300824f50009e
:1021b00002003200010078000000060050552500a2
:1021c00000000600fdff3700409c200000000600d4
:1021d000faff37002621020000000000000178000d
:1021e0008001eb004a18dd00c610de00810070009f
:1021f0004a10dd00024b200003002000800902008d
:102200000000000000000600ecff3700889fbe00c1
:102210008a9fbe008c9fbe008e1f7800e0e12200e6
:102220009040780060e2220001487800fce1220042
:102230001c40780076e22200004b780002e2220087
:102240009241780082e222000349780012e22200e3
:102250001242780092e222000449780022e2220031
:1022600092427800abe22200854d780032e22200f3
:1022700092437800bae22200074d780042e2220041
:1022800012477800c9e222008e4c780052e2220008
:1022900092467800d8e222000d4c780012c8b300b4
:1022a00082cf5000ee0032001100360052c8b30059
:1022b00082cf50009c0032002b00360012cab300bf
:1022c00082cf5000ad00320042cab30082cf50002e
:1022d0004b00320050002000a0ff07004f0778009d
:1022e0004f06be004f05be004f04be0000000600b2
:1022f0002cc4b3008ccf5000bc0032003a00360032
:1023000022c5b30082cf50007900320060c5b3000f
:1023100080cf5000efff3a000c4b780010c3b300a1
:1023200083e222008049780080c3b30091e222005a
:10233000804878008c4d780020c3b300004d7800b1
:1023400000c3b300804c780030c3b300004c780069
:102350004f0778004f06be004f05be004f04be0079
:1023600000000600e2ff370032c8b30082cf500001
:102370004b00320042c8b30082cf5000d5ff3a0074
:10238000c819dd000080fb00008041004073890017
:102390000484fb00e40f540036013e0008014000b5
:1023a000f1ff2100810f5100db003e0031728100fe
:1023b000008040000801780021e22200a00902000c
:1023c0000000000040738100080440004873890049
:1023d0004f0778004f06be004f05be004f04be00f9
:1023e00000000600c2ff370010c2b30080cf5000cb
:1023f000baff32005000200058ff0700b7ff370037
:10240000e14f500023013200cb003900e24f500071
:102410004f013200e34f5000b0ff3a0010408000ff
:1024200083e2220080497800104080004800de00ee
:1024300091e222008048780083e0a90000000000bb
:1024400000000000a102800010002000a00288000f
:1024500040802f001000ba008180fb00a10288009c
:1024600083e0a8000000000000000000804d78001c
:102470004800de00004d7800e0708100804c78005c
:102480004800de00004c78004f0778004f06be0081
:102490004f05be004f04be000000060094ff370049
:1024a000c819dd000080fb0000804100f1ff210021
:1024b000810f500089ff3e0000815000e70f51005e
:1024c000cf003e00317281008080400070e2220027
:1024d000a0090200000000004f0778004f06be0070
:1024e0004f05be004f04be000000060080ff37000d
:1024f00051c6b300814f500003003a0031c5b3000c
:1025000081cf5100c50032004000200013ff0700ba
:102510004f0778004f06be004f05be004f04be00b7
:102520000000060072ff370040738100f1ff2100b8
:10253000810f500069ff3e0080805000e68f500000
:10254000a70036003172810000814000f3e12200d3
:10255000060009003359780040738100670040008d
:10256000407389004f0778004f06be004f05be003c
:102570004f04be00000006005dff37000383fb0030
:102580008003eb004839dd00c831de0083017100b3
:102590004831dd008483fb00060020000203430075
:1025a00083834b000081fb008001eb0006004100ab
:1025b00087804900c829dd0002002000000041009a
:1025c000818049000008a3003b003200a0002000e9
:1025d000e2fe07004f0778004f06be004f05be0021
:1025e0004f04be000000060041ff3700f1c6b300f3
:1025f000814f500039ff3a00f1c4b30081cf510040
:1026000036ff3a0041c7b300814f520033ff3a0012
:10261000c1c4b30081cf520030ff3a0080cf5300d5
:102620002eff3a0010c4b300804f57002bff3a0032
:1026300040c6b30080cf560028ff3a0011c0b30057
:1026400010802000014878004f0778004f06be0038
:102650004f05be004f04be000000060024ff3700f7
:10266000cafe070082e22200004978004800de002e
:1026700093e22200804978001c40e800c3fe070076
:10268000804d78004800de00004d78001cc0e80056
:10269000befe0700804c78004800de00004c780049
:1026a0004f0778004f06be004f05be004f04be0026
:1026b000000006000eff370083e0a90000000000c4
:1026c00000000000a2028000a10288009000ba0071
:1026d000814d7800c808de00014d78001080ba00f6
:1026e0008280fb00a102880083e0a80000000000b7
:1026f00000000000804c78004800de00004c7800ac
:102700004f0778004f06be004f05be004f04be00c5
:1027100000000600f6fe3700800020008ffe070054
:102720004f0778004f06be004f05be004f04be00a5
:1027300000000600eefe37000480fb008000eb0086
:10274000480cdd00c804de00890474004804dd0084
:102750008580fb00000020000800400089804800c0
:102760000381fb008001eb000000410081804900f3
:10277000c839dd00020020000000410081804900ce
:102780008100d1000080d300f2ff2300820f5000af
:10279000e08f580081003600213b8800103b880004
:1027a00030002400003b88000600fc00500520009b
:1027b000303b8800a00a2000303b880061e7a80079
:1027c00000000000000000004f0778004f06be0028
:1027d0004f05be004f04be0000000600c4fe3700d7
:1027e000900020005dfe07004f0778004f06be00f6
:1027f0004f05be004f04be0000000600bcfe3700bf
:1028000072002000317281008080400070e222005e
:10281000a0090200000000002fff3700804f520087
:1028200039ff3a0040c5b30080cf520036ff3a006e
:1028300010c2b30080cf530033ff3a0030c2b30060
:10284000804f570030ff3a00a0c2b30080cf56003f
:102850002dff3a0028280200000000004f077800f2
:102860004f06be004f05be004f04be00000006002c
:102870009ffe37007000200038fe07004f077800e9
:102880004f06be004f05be004f04be00000006000c
:1028900097fe37000480fb008000eb00480cdd0051
:1028a000c804de00890474004804dd008580fb0054
:1028b0000000200008044000898448000380fb00d9
:1028c0008000eb000804400089844800c838dd001f
:1028d0000000200008044000898448008904d100d9
:1028e0000884d300f3ff2300830f5400e08f5c00c3
:1028f0002a00360083e0a90000000000000000006c
:1029000050052000a10a2000a029020000000000bc
:10291000327281000800be00862a0200000000001a
:1029200083e0a8000000000000000000e0708100cb
:102930000000e800e07089004f0778004f06be00f5
:102940004f05be004f04be000000060068fe3700c1
:1029500002802b0013002000000024000100200052
:1029600082280200000000001040800081e2220066
:1029700080487800104080004800de0092e222008b
:10298000004978004f0778004f06be004f05be0093
:102990004f04be000000060055fe3700b0002000c6
:1029a000eefd07004f0778004f06be004f05be0042
:1029b0004f04be00000006004dfe3700889fbe0099
:1029c0008a9fbe0068e622001804e000070032007b
:1029d000f0dc220071c0b30090cf10001e003e005a
:1029e0004f05be004f04be00000006000000eb00d3
:1029f000c42202000000000080447800522302003c
:102a0000000000000a08200000005500e70f5000f9
:102a1000590036005bc5b3005223020000000000dd
:102a20008a0f50003e0032008bcf5400030032006a
:102a300000c2b30080cf540039003a00b421020034
:102a4000000000000000eb00c422020000000000b3
:102a500080447800f0ff370088e12200004ceb0052
:102a6000e2e12200e1dd220007000900315978008f
:102a70000048eb00a9e122009ae122001904e000dd
:102a800002003200004deb00ab84a800dffd070020
:102a900083e0a900000000000000000062de2200c8
:102aa00060e22200070009003059780010c0b3002e
:102ab000004c780070e122000048eb001904e000af
:102ac00004003200a0e122000048eb0080e1220077
:102ad0000048eb001a04e0000a0032001804e0008d
:102ae0000800320090e122000048eb00804ceb002f
:102af000ab84a80080e122000048eb0000dd22004a
:102b00000048eb0083e0a800000000000000000087
:102b10004f05be004f04be0000000600b3ff3700a3
:102b20005223020000000000010820000080500035
:102b3000e70f500010003600d9e122005ae22200cf
:102b4000b421020000000000806c78008a8f5400dd
:102b5000fbff3a0060e122001004e00004003200b4
:102b600081002000e0e1220070220200000000004d
:102b7000a6fd07004cfd07001804e00094ff3a0092
:102b80004f05be004f04be000000060097ff37004f
:102b900010002000202688000080200040268800a9
:102ba000caa4ef00423420006226880001302600cb
:102bb00071268800c0802200802688006066200080
:102bc0009026880000082000a02688008880a900a0
:102bd000b2268800c1268800c2902200d226880032
:102be000a2672000e2268800f026880089c0a9009c
:102bf0004231200002278800112788004366200008
:102c000023278800c3a0220033278800402788009c
:102c10008b00a90052278800612788008167200067
:102c200071278800c1b02200812788009027880082
:102c30008c80a900f424ef00f624ef00f824ef00c4
:102c4000fa24ef00e02788008dc0a900fe24ef00e1
:102c50000025ef000225ef000425ef000625ef0018
:102c60008fa0a900c5e4a800cc04a800d604a80041
:102c7000e004a800ea04a800000006000000060026
:102c80000000060089c0ab0001003a000000060009
:102c9000401602000000000089c0a90000000600e4
:102ca000000006008b00ab0001003a0000000600a7
:102cb00050160200000000008b00a9000000060072
:102cc000000006008c80ab0001003a000000060006
:102cd00060160200000000008c80a90000000600c1
:102ce000000006008dc0ab0001003a0000000600a5
:102cf00070160200000000008dc0a9000000060050
:102d0000000006008fa0ab0001003a0000000600a2
:102d100080160200000000008fa0a900000006003d
:102d2000e20f50001300320005003600e40f50009f
:102d30001200320009003100ea04a8000000060079
:102d40000000e00002003a00cc04a80000000600e9
:102d5000e10f50000500320000000600e50f5000b2
:102d6000fdff3a00fe04a80000000600d604a800fb
:102d700000000600e004a80000000600f404a8001b
:102d800000000600e20f500013003200050036007c
:102d9000e40f50001200320009003100ea04a900db
:102da000000006000000e00002003a00cc04a90088
:102db00000000600e10f5000050032000000060090
:102dc000e50f5000fdff3a00fe04a90000000600d8
:102dd000d604a90000000600e004a90000000600d7
:102de000f404a90000000600e20f500013003200b6
:102df00005003600e40f50001200320009003100d7
:102e000091278800000006000000e00002003a0060
:102e1000a126880000000600e10f500005003200e6
:102e200000000600e50f5000fdff3a003128880041
:102e300000000600f12688000000060041278800f7
:102e400000000600e127880000000600e20f5000a5
:102e50001300320005003600e40f5000120032006b
:102e60000900310090278000000006000000e0000b
:102e700002003a00a026800000000600e10f50008a
:102e80000500320000000500e50f5000fdff3a008c
:102e90003028800000000600f026800000000600b8
:102ea0004027800000000600e027800000000600a8
:102eb000e20f50001300320005003600e40f50000e
:102ec0001200320009003100eb04a80000000600e7
:102ed0000000e00002003a00cd04a8000000060057
:102ee000e10f50000500320000000600e50f500021
:102ef000fdff3a00ff04a80000000600d704a80068
:102f000000000600e104a80000000600f504a80087
:102f100000000600e20f50001300320005003600ea
:102f2000e40f5000120032000900310071278800c0
:102f3000000006000000e00002003a008126880040
:102f400000000600e10f50000500320000000600fe
:102f5000e50f5000fdff3a00112888000000060030
:102f6000d126880000000600212788000000060006
:102f7000c127880000000600e20f50001300320055
:102f800005003600e40f5000120032000900310045
:102f900081278800000006000000e00002003a00df
:102fa0009126880000000600e10f50000500320065
:102fb00000000600e50f5000fdff3a0021288800c0
:102fc00000000600e1268800000006003127880086
:102fd00000000600d127880000000600e20f500024
:102fe0001b00320007003600e40f50001c003200c6
:102ff0000d003100502780004800de006140600075
:10300000000006000000e00004003a006026800096
:103010004800de006140600000000600e10f500043
:103020000700320000000500e50f5000fdff3a00e8
:10303000f02780004800de006140600000000600cc
:10304000b02680004800de006140600000000600fd
:10305000002780004800de0061406000000006009c
:10306000a02780004800de006140600000000600ec
:10307000e20f50001700320006003600e40f500047
:10308000170032000b003100602780004f00de0087
:10309000000006000000e00003003a0070268000f7
:1030a0004f00de0000000600e10f50000600320075
:1030b00000000500e50f5000fdff3a0000288000e9
:1030c0004f00de0000000600c02680004f00de003a
:1030d00000000600102780004f00de000000060000
:1030e000b02780004f00de0000000600e20f500015
:1030f0001b00320007003600e40f50001c003200b5
:103100000d003100602780004700de006140600054
:10311000000006000000e00004003a007026800075
:103120004700de006140600000000600e10f500033
:103130000700320000000500e50f5000fdff3a00d7
:10314000002880004700de006140600000000600ab
:10315000c02680004700de006140600000000600dd
:10316000102780004700de0061406000000006007c
:10317000b02780004700de006140600000000600cc
:10318000e20f50001b00320007003600e40f500031
:103190001c0032000d003100602780004600de0078
:1031a00061406000000006000000e00004003a00fa
:1031b000702680004600de006140600000000600ce
:1031c000e10f50000700320000000500e50f50003d
:1031d000fdff3a00002880004600de0061406000ec
:1031e00000000600c02680004600de00614060004e
:1031f00000000600102780004600de0061406000ed
:1032000000000600b02780004600de00614060003c
:1032100000000600e20f50001b00320007003600dd
:10322000e40f50001c0032000d00310060278000c8
:103230004500de0061406000000006000000e00084
:1032400004003a00702680004500de006140600006
:1032500000000600e10f50000700320000000500ea
:10326000e50f5000fdff3a00002880004500de0019
:103270006140600000000600c02680004500de00be
:103280006140600000000600102780004500de005d
:103290006140600000000600b02780004500de00ad
:1032a0006140600000000600e20f50001b00320089
:1032b00007003600e40f50001c0032000d00310002
:1032c000602780004300de006140600000000600cf
:1032d0000000e00004003a00702680004300de0099
:1032e0006140600000000600e10f5000070032005e
:1032f00000000500e50f5000fdff3a0000288000a7
:103300004300de006140600000000600c02680002f
:103310004300de00614060000000060010278000ce
:103320004300de006140600000000600b02780001e
:103330004300de006140600000000600e20f500024
:103340001b00320007003600e40f50001c00320062
:103350000d003100602780004400de006140600005
:10336000000006000000e00004003a007026800023
:103370004400de006140600000000600e10f5000e4
:103380000700320000000500e50f5000fdff3a0085
:10339000002880004400de0061406000000006005c
:1033a000c02680004400de0061406000000006008e
:1033b000102780004400de0061406000000006002d
:1033c000b02780004400de0061406000000006007d
:1033d0005821ef005a21ef005e21ef005c21ef0041
:1033e0006621ef006421ef005821ef00f00020007b
:1033f000d00a880059e1a80010022100e00a8800e4
:103400005e21ef00f04c2800200b88006621ef00c1
:103410006000b800a0718900b171890000e322004a
:103420000008eb0000000600c40a80004322de0012
:1034300061436200d40a80004822de00ff4262003d
:10344000e10f510030003200d20a80007f0161009c
:103450004811dd00f40f2e00d70a80000702620039
:1034600004027100d40a8800e1816100c319dd0003
:10347000c20a80000230a10002817100c20a8800e5
:10348000f2e2220012417800e84f510015003600a8
:10349000f04f510017003e00000b88009060a9001b
:1034a0005881a8009060ab00feff32005881a9004f
:1034b000610363004333dd00c00a80000030a100d7
:1034c00000007300c00a88009060a900c82add00cf
:1034d000f00f2e005a01b60000807200d00a88005a
:1034e0000000060060e1b7009060a9005881a800c4
:1034f000ecff3700000b8800110b88009060a900da
:103500005881a800e7ff3700200b8800310b8800a6
:1035100000000600d40a80004822de007f426200dc
:10352000e1e222008448e800d40a80007f42620081
:10353000f1e222008448e800a2718900b371890099
:10354000c07189000000eb008071890021e3220036
:10355000804878005881a80000000600d50a800045
:10356000c82ade00ffc26200e4e22200054ae80049
:10357000d50a8000ffc26200f4e22200054ae8009a
:10358000a2718900b3718900c0718900d17189006d
:1035900000e322000008eb0011c0b30020e322008a
:1035a0000148780000f021005a21b7005881a80096
:1035b0000000060000000600889fbe0080718100a8
:1035c000e10f5000410032000a003900e20f5000c4
:1035d00055003200e30f5000020032005821ef0086
:1035e0005a21ef009060ab0033003a004f04be0058
:1035f0000000060020e322001004e0005c0032001e
:10360000c0718100d1718100a70280005881a9009a
:103610009060a900a102880058e1ab0083003a0045
:10362000a2718100b3718100e00f5100e08f590059
:10363000880032000082ea001b00320086e322008c
:1036400045e322009001ba00180020000900200084
:1036500036004400a6804c001081ba006100400092
:10366000e0804800c0718900d1718900030b880097
:10367000120b8800d8ff2f00f9ff2f0035014400fe
:10368000a5814c00a2718900b371890058e1ab009b
:1036900068003a00e00f5100e08f59006d003200e1
:1036a0000482e900e7ff3a00a70288005881a800d9
:1036b0009060ab00cdff3200da1a0200000000007b
:1036c0004f04be0000000600caff37009060ab0048
:1036d000c4ff32005881a9009060a900f0e22200e6
:1036e000104078008040e900ff806000c808dd00dd
:1036f000f20f2e00d30a80000301610002817000e6
:10370000d20a8800e84f50003b003e006061ef00a5
:103710005881a80020002000807189009060ab00d3
:10372000b2ff3200e4ff37009060ab00adff320023
:10373000e0e222001040e9007f0060004800dd0068
:10374000f10f2e00d40a8000848060008100700098
:10375000d10a88005881a9009060a900300020009b
:10376000807189009060ab00a0ff3200d2ff37006b
:1037700058e1ab009bff3a009060a900e0e2220014
:1037800010407800e84f500037003e0058e1ab0091
:103790006e003a00a0718100b1718100e00f50000d
:1037a000e08f58000e003200c2718100b2417800f3
:1037b00009162000834c780061005000e08058001a
:1037c00058e1ab0042003a00e00f5000e08f580093
:1037d000f6ff3a00a0718900b1718900c2718900b9
:1037e0005881a80010002000807189009060ab0013
:1037f0007eff3200b0ff3700f04f500005003e0062
:103800006021ef005881a80020002000807189000d
:10381000c2ff37006021ef006221ef005881a8004d
:103820002000200080718900bcff3700a271810058
:10383000b3718100a70288005881a800e00f5100f1
:10384000e08f5900e7ff32009060ab0067ff320065
:1038500099ff3700a70288005881a80010002000b7
:1038600080718900e1ff3700f04f500022003600e0
:1038700058e1ab0035003a00a0718100b1718100c0
:10388000e00f5000e08f5800d5ff3200c271810078
:1038900012047800080b880092049000190b88002d
:1038a0006401410064005000e080580058e1ab0022
:1038b00007003a00e00f5000e08f5800f4ff3a0094
:1038c000a0718900b1718900c2718900c4ff3700fd
:1038d000a0718900b1718900c27189005881a80066
:1038e000e00f5000e08f5800beff32009060ab0048
:1038f0003eff320070ff370058e1ab0013003a0082
:10390000a0718100b1718100e00f5000e08f58007c
:10391000b3ff3200c271810032027800040b8800cc
:1039200062005000e080580058e1ab00e8ff3a0028
:10393000e00f5000e08f5800f7ff3a00a0718900b7
:10394000b1718900c2718900a5ff3700a0718100a3
:10395000b17181005881a800e00f5000e08f58003d
:10396000e2ff3a009fff370000e3220010007800da
:103970006300680000f0a7000000ea000000e90012
:103980004f00de0000000600f0e222001040780048
:10399000e84f50000f003600f04f5000080036008e
:1039a000310b80000000eb00220b80008001eb0057
:1039b00002017000838170000200be00000006005a
:1039c000220b80008001eb000200be000000060018
:1039d000fbff3700f10f2000200b8000808060008b
:1039e0000000eb0001017800800178000200be00b9
:1039f00000000600f2ff3700e3ff0700f2e22200ba
:103a0000124278006011b800e00f5000e08f5800bb
:103a10001b0032000481fb000201e90016002000b7
:103a200007002000f001110004003b008301ea00c0
:103a30008332dd000002eb00040037008331de003a
:103a40000232dd00823add00858271006011b8002b
:103a50000008a3000200320004017100858171009a
:103a60008100d1000080d300e00f5000e08f5800ab
:103a7000030032008502d1000482d300f4ff370036
:103a80000200be0000000600889fbe008a9fbe00a4
:103a90000004be00bcff07000005be00f1e22200ea
:103aa0001183fb008003eb006011b80010003200ae
:103ab0006022b8006011b800020141008381490012
:103ac0000200a00061024200e0824a00860f52001c
:103ad000878f5a00f8ff390008046d0089846d0053
:103ae0000202640083806400040178008101780090
:103af0000200be004f05be004f04be0000000600dd
:103b00000400fa00889fbe008a9fbe00004478002f
:103b1000a2bf9f00b3bf9f009bff07002fb9970074
:103b2000bfb997000804e0001e003200b2ff070092
:103b30000005be002fb99700bfb99700f1e222003f
:103b40001184fb008004eb006022b80010003200fa
:103b50006033b8006022b8000402420085824a0047
:103b60000400a00061034300e0834b00880f530072
:103b7000898f5b00f8ff390002036d0083836d00bd
:103b8000840163008580630003027800810278006d
:103b90000400be004f05be004f04be000080fa00c6
:103ba00000000600a2bf9f00b3bf9f0076ff070082
:103bb0000005be00bfb997002fb99700dfff37009f
:103bc0004627ef004827ef004a27ef005227ef0073
:103bd0005427ef004e27ef005027ef0000000600ab
:103be000a102800020002000a002880000002a001e
:103bf0001000ba008180fb00a102880072c12f0072
:103c000000014100e1182000810f5100060036003c
:103c100001738100813eb10000192000808f5000a7
:103c200002003600004b20000073890020e62200cd
:103c3000e1c3b30090cf100019003e004627ef000b
:103c40004827ef004a27ef005227ef005427ef00e4
:103c50004e27ef005027ef0000672000303a880021
:103c60004c27ef00f03f2000803a88000000210040
:103c7000703a8800a0f02100503a8800c04220002d
:103c8000403a88005427ef0047e7a80089a0a90020
:103c900099a0a800f442a8004647a800000006002a
:103ca000a202800023002000a302880023002a0033
:103cb0009301ba00034878000281fb00a202880049
:103cc0001041780090cf1000dcff3600f1c1b30046
:103cd000014878004627ef004827ef004a27ef0009
:103ce0005227ef005427ef004e27ef005027ef0038
:103cf00000672000303a88004c27ef00f03f20009a
:103d0000803a880000002100703a8800a0f021006d
:103d1000503a8800c0422000403a88005427ef0003
:103d200047e7a80089a0a90099a0a800f442a8002c
:103d30004647a80000000600d9ff3700e44f5000b6
:103d4000280032000e003600f14f50001f003200f4
:103d500014003600f24f50001a003200f34f5000aa
:103d600016003200d60b02000000000080407800f0
:103d70000000eb000104e0001c003a000000060017
:103d8000e14f5000150032000a003900e24f5000a8
:103d900010003200e34f5000f2ff3a00d0388000ac
:103da00000000600f04f5000eeff3a00103980008e
:103db00000000600903880000000060020398000d6
:103dc00000000600f0388000000006000039800086
:103dd00000000600c038800000000600b0388000f7
:103de00000000600e0388000000006000080eb00c4
:103df000000006000400fa00889fbe004627ef007e
:103e00004827ef004a27ef005227ef005427ef0022
:103e1000c1e1a800c161a90030002000c021b700a5
:103e2000c201a900c301a800c321a90055a7a80089
:103e300010002000603a8800c121a8006000b8008e
:103e400060738900717389006073810071738100f0
:103e5000f2702200820f5000e08f58000c003c00ee
:103e6000607381007173810061004000e080480050
:103e700060738900717389006073810071738100c0
:103e8000f2702200820f5000e08f5800f4ff3400df
:103e9000c121a900c321a900f0ff2100503a8800e8
:103ea0004747a800f0cf2f004607b6000090a000bb
:103eb000303a8800f0f02f004627b60047e7a80008
:103ec0004627a8006000b800c0bf9f00d1bf9f0078
:103ed0004fb89700dfb89700f2702200820f5000b1
:103ee000e08f58000c003e004fb89700dfb89700f5
:103ef00061004000e0804800c0bf9f00d1bf9f002c
:103f00004fb89700dfb89700f2702200820f500080
:103f1000e08f5800f4ff36004627a9004607ab00a3
:103f2000feff320098388000c021ef003239800057
:103f30008001eb000300780001738100800902001a
:103f4000000000000044b80025ff070009007800c9
:103f50004f04be000080fa000000060080802000b0
:103f60001080fb00e19f280061417800e14f410093
:103f7000280032004627ef004827ef004a27ef00cd
:103f80005227ef005427ef00c1e1a800c161a9004a
:103f900030002000c021b700c201a900c301a80061
:103fa000c321a90055a7a8000280fb00603a880041
:103fb000c121a900c321a90020e6220010407800f9
:103fc0007f405000f003b2004200dd0031f02f00ce
:103fd000020e80008280600081007000010e880067
:103fe000a0f02900503a88004747a800f0cf2f00e2
:103ff0004607b6000090a000303a8800f0f02f008d
:104000004607b6000007b300303a880047e7a8002b
:104010004627a800000006000400fa00000178000e
:104020004607ab00feff320091388000c021ef0050
:104030000111b80004002800050020000201420020
:1040400083814a00607024000018b800e0bf9f0020
:10405000f1bf9f00e2fe0700823e20000300200027
:104060006fb89700ffb897008009020000000000b9
:104070000080fa0000000600ea874700881f7800e9
:104080008e1f78000044780000e5220080c0eb001d
:1040900090cf100005003200207381004f07780098
:1040a0004f047800af00b1000000060032398000f4
:1040b0008001eb0003007800017381008009020099
:1040c000000000004627ef004827ef004a27ef00d6
:1040d0005227ef005427ef0031002800010e88001e
:1040e000c221ef00c421ef0055a7a800e100200085
:1040f000613a880001f22100513a88004747a80040
:10410000f1cf2f00323a8000828060000190a00041
:10411000313a8800f1f02f00333a8000838060004c
:104120000107b300313a880047e7a8004627a800f6
:104130004607ab00feff3200c021ef006011b8005f
:10414000c2bf9f00d3bf9f00923880008001eb0068
:10415000c2bf9f00d3bf9f004fb99700dfb9970040
:10416000009ab9000200b80081004200c0bf9f0061
:10417000d1bf9f004fb89700dfb897000200200022
:10418000832f20000000510081805900c0bf9f0094
:10419000d1bf9f004fb89700dfb89700723f200053
:1041a0000300200062090200000000000001be00c0
:1041b000c2bf9f00d3bf9f000200be0020738900d2
:1041c0000804e00007003a0085fe07002073810024
:1041d0004f0778004f047800af00b10000000600e0
:1041e000b2ff3700a002800021002000a102880059
:1041f00041002a009100ba006c875700011f780027
:1042000061002a00110fba000080fb00a0028800a4
:104210004fb89700dfb897003fb99700afb9970044
:104220000301510000004100207389006cfe07006b
:10423000e6ff3700323980008001eb000300780090
:104240000173810080090400000000003039800003
:1042500000000600881f78004627ef004827ef007f
:104260004a27ef005227ef005427ef006a06a80004
:10427000c0012000603a8800f0ff2100503a880019
:104280004747a800f0cf2f004627b600f0f02f00d8
:104290004607b6000007b300303a8800f0ff23005d
:1042a0004807b60000e0a000403a880047e7a800b1
:1042b00001c1b3000004eb004627a8004607ab008d
:1042c000feff320090388000000444008140e90085
:1042d000f9ff3a0042fe0700080078004f0478001a
:1042e0000000060080002000c01c88009a23ef0018
:1042f00020022000001d8800a223ef0099e3a800ff
:104300009b43a800c0c92200c0608900b06089003a
:10431000c0c12200a060890090608900d060810047
:104320000010a000d0608900d06081000090a00043
:10433000d0608900d06081000080a100d060890039
:10434000d06081000000a100d06089009a03ab001a
:1043500003003200f01c80009a03ab00fdff3a001e
:104360009960a80000000600a0608100104078005d
:10437000a16081008100e800a1608900a260810045
:10438000c1c92200810f510010003200a2608100db
:1043900091608100810f510004003200d1608100e2
:1043a0000100a100d160890000000600d1608100f9
:1043b0000110a000d1608900d16081000100a1003e
:1043c000d160890000000600f8ff3700c1c122005b
:1043d000a1608900a260810091608100810f51007d
:1043e000eeff3a00f1ff3700889fbe008a1f780079
:1043f000010578000004eb009960ab00100032006a
:104400009960a9000a00e0000c003200d160810030
:104410000118a30009003a0080047800d2ff0700c9
:10442000805c78000804e800880f5500030036001f
:10443000d06081000018a300f8ff32009960a80046
:10444000080078004f0578004f04be000000060009
:104450009960ab00120032009980a900b160810020
:1044600080487800b06081000000e800b0608900fa
:10447000b1608100c0cd2200808f50000e0032005c
:10448000d06081000090a100d0608900c1608100ef
:10449000b0608100808f5000020032009980a80037
:1044a00000000600d06081000080a000d06089007c
:1044b0009980a800faff3700c0c92200b0608900c7
:1044c000d06081000090a100d0608900c1608100af
:1044d000b0608100808f5000f0ff3a00f1ff37009c
:1044e000889fbe008a1f7800010578000004eb0059
:1044f0009960ab000e0032000a00e0000c003200b0
:10450000d16081000188a30009003a00800478008e
:10451000394078000804e800cdff0700880f5500f7
:1045200003003600d06081000088a300f8ff32004d
:10453000080078004f0578004f04be000000060018
:10454000d1608100000120000198a30001003a0021
:104550000000eb00d16081000180a7000030a000c6
:10456000d16081000100a7000000a000d16081009f
:104570000118a30002003a000010a000000006008d
:104580000020a00000000600800078000040eb0042
:104590009960ab0007003200a26081000101410078
:1045a000c0c92200800f510003003100a0608100cb
:1045b00060c0780000000600a26081000000510089
:1045c00081004000c0c1220060c0780000000600e9
:1045d000881f7800000478000040eb009960ab0071
:1045e00003003200f2072000828f500002003600e4
:1045f0004f04780000000600d26081000218a3007a
:10460000fbff3a000800e000f9ff3200a3608100e0
:10461000a260810090608100800f51000e00310087
:10462000a360810092608100818141000201e90064
:104630000040eb00828f5100edff3e00010078004a
:10464000d1ff0700004c780010c0b3004f04780081
:1046500000000600e8ff3700a26081009060810042
:10466000800f5100f5ff3600c0c12200808151004b
:1046700081814100f307b20000804100a260810007
:10468000820f5000edff310092608100820f5000d8
:10469000eaff39000040eb004f04780000000600fc
:1046a000d5ff3700000820009960ab000c003200f5
:1046b000d16081000000eb000108a30008003a006f
:1046c000a160810090608100808f500005003e0055
:1046d000a160810090608100008050000008b0005f
:1046e00000000600a1608100906081000080500001
:1046f000000006000000eb009960ab000b003200e8
:10470000d16081000188a30008003a00c1608100e7
:10471000b0608100808f500005003e00c1608100c4
:10472000b0608100008050000004b000000006006e
:10473000c1608100b0608100008050000000060070
:1047400010c0b3009960ab0003003200d06081005c
:104750000000d10061406000000006000040eb0056
:104760009960ab0003003200d06081004800de0099
:104770006140600000000600d01c800000000600c0
:1047800099e3a8009b43a800000006009960a900d7
:104790009980a90099e3a9009b43a90000000600a5
:1047a00080002000701d8800b023ef002002200050
:1047b000b01d8800b823ef00afe3a800b143a80004
:1047c00060d62200106789000067890060ce220051
:1047d000f0668900e066890040ce22001010a0003b
:1047e0001090a0001080a1001000a1009bc0a800a4
:1047f000000006000040eb009bc0ab001000320040
:10480000f066810010407800f16681008100e800c8
:10481000f1668900f266810061d62200810f5100a5
:104820000f003200f2668100e1668100810f5100c5
:1048300004003200216781000100a1002167890086
:1048400000000600216781000110a0002167890097
:10485000216781000100a10021678900f8ff37006e
:1048600061ce2200f1668900f2668100e166810076
:10487000810f5100efff3a00f2ff3700889fbe0022
:104880008a1f7800010578000004eb009bc0ab0094
:10489000100032009bc0a9000a00e0000c003200aa
:1048a000216781000118a30009003a008004780004
:1048b000d0ff0700805c78000804e800880f5500ee
:1048c00003003600206781000018a300f8ff3200c3
:1048d0009bc0a800080078004f0578004f04be0078
:1048e000000006009bc0ab00120032009be0a90054
:1048f0000167810080487800006781000000e800bf
:10490000006789000167810060da2200808f500013
:104910000e003200206781000090a100206789000e
:104920001167810000678100808f50000200320013
:104930009be0a80000000600206781000080a00026
:10494000206789009be0a800faff370060d62200ac
:1049500000678900206781000090a100206789001e
:104960001167810000678100808f5000f0ff3a00de
:10497000f1ff3700889fbe008a1f7800010578008c
:104980000004eb009bc0ab000e0032000a00e00008
:104990000c003200216781000188a30009003a0061
:1049a00080047800394078000804e800cdff070053
:1049b000880f550003003600206781000088a3009f
:1049c000f8ff3200080078004f0578004f04be0061
:1049d0000000060021678100000120000198a3006b
:1049e00001003a000000eb00216781000180a70070
:1049f0000030a000216781000100a7000000a00096
:104a0000216781000118a30002003a000010a000f5
:104a1000000006000020a0000000060080007800d2
:104a20000040eb009bc0ab0007003200f266810043
:104a30000101410060d62200800f510003003100c7
:104a4000f066810060c0780000000600f266810018
:104a5000000051008100400060ce220060c078005c
:104a600000000600881f7800000478000040eb007a
:104a70009bc0ab0003003200f2072000828f500081
:104a8000020036004f047800000006002267810013
:104a90000218a300fbff3a000800e000f9ff320013
:104aa000f3668100f2668100e0668100800f5100ac
:104ab0000e003100f3668100e266810081814100d1
:104ac0000201e9000040eb00828f5100edff3e0043
:104ad00001007800d1ff0700004c780010c0b3003f
:104ae0004f04780000000600e8ff3700f2668100fe
:104af000e0668100800f5100f5ff360060ce220095
:104b00008081510081814100f307b20000804100a3
:104b1000f2668100820f5000edff3100e2668100f5
:104b2000820f5000eaff39000040eb004f0478008c
:104b300000000600d5ff37000000eb009bc0ab0073
:104b40000b003200216781000108a30008003a0031
:104b5000f1668100e0668100808f500005003e0014
:104b6000f1668100e0668100008050000008b0001e
:104b700000000600f1668100e066810000805000c0
:104b8000000006000000eb009bc0ab000b003200f1
:104b9000216781000188a30008003a0011678100a5
:104ba00000678100808f500005003e001167810082
:104bb00000678100008050000004b0000000060083
:104bc000116781000067810000805000000006002e
:104bd00010c0b3009bc0ab0003003200206781000f
:104be0000000d10061406000000006000040eb00c2
:104bf0009bc0ab0003003200206781004800de004c
:104c00006140600000000600801d8000000006007a
:104c1000afe3a800b143a800000006009bc0a900b4
:104c20009be0a900afe3a900b143a9000000060082
:104c30000308200082c15100036001001098700039
:104c40001098700010987000109870001098700004
:104c500010987000109870001098700010987000f4
:104c600010987000109870001098700010987000e4
:104c700010987000109870001098700010987000d4
:104c800010987000109870001098700010987000c4
:104c900010987000109870001098700010987000b4
:104ca00010987000109870001098700010987000a4
:104cb0001098700010987000109870001098700094
:104cc0001098700010987000109870001098700084
:104cd0001098700010987000109870001098700074
:104ce0001098700010987000109870001098700064
:104cf0001098700010987000109870001098700054
:104d00001098700010987000109870001098700043
:104d10001098700010987000109870001098700033
:104d20001098700010987000109870001098700023
:104d30001098700010987000109870001098700013
:104d40001098700010987000109870001098700003
:104d500010987000109870001098700010987000f3
:104d600010987000109870001098700010987000e3
:104d700010987000109870001098700010987000d3
:104d800010987000109870001098700010987000c3
:104d900010987000109870001098700010987000b3
:104da00010987000109870001098700010987000a3
:104db0001098700010987000109870001098700093
:104dc0001098700010987000109870001098700083
:104dd0001098700010987000109870001098700073
:104de0001098700010987000109870001098700063
:104df0001098700010987000109870001098700053
:104e00001098700010987000109870001098700042
:104e10001098700010987000109870001098700032
:104e20001098700010987000109870001098700022
:104e30001098700010987000109870000000060024
:104e40000308200082c15100036001001098600037
:104e50001098600010986000109860001098600032
:104e60001098600010986000109860001098600022
:104e70001098600010986000109860001098600012
:104e80001098600010986000109860001098600002
:104e900010986000109860001098600010986000f2
:104ea00010986000109860001098600010986000e2
:104eb00010986000109860001098600010986000d2
:104ec00010986000109860001098600010986000c2
:104ed00010986000109860001098600010986000b2
:104ee00010986000109860001098600010986000a2
:104ef0001098600010986000109860001098600092
:104f00001098600010986000109860001098600081
:104f10001098600010986000109860001098600071
:104f20001098600010986000109860001098600061
:104f30001098600010986000109860001098600051
:104f40001098600010986000109860001098600041
:104f50001098600010986000109860001098600031
:104f60001098600010986000109860001098600021
:104f70001098600010986000109860001098600011
:104f80001098600010986000109860001098600001
:104f900010986000109860001098600010986000f1
:104fa00010986000109860001098600010986000e1
:104fb00010986000109860001098600010986000d1
:104fc00010986000109860001098600010986000c1
:104fd00010986000109860001098600010986000b1
:104fe00010986000109860001098600010986000a1
:104ff0001098600010986000109860001098600091
:105000001098600010986000109860001098600080
:105010001098600010986000109860001098600070
:105020001098600010986000109860001098600060
:105030001098600010986000109860001098600050
:105040001098600010986000109860000000060042
:105050000000fe000000fe00fdff37005821ef00b9
:105060005a21ef0059e1a80058a1a9005861a900f0
:10507000f10f2e00d00a80008080600000f0200038
:1050800001007000d00a880000fe2f005a01b6000f
:10509000f000b300d00a88005881a8001002210057
:1050a000e00a88005e21ef00f04c2800200b880009
:1050b0006621ef0061e42200e2e4220058e1ab0047
:1050c000feff3a00510078000080fd00000b8800d0
:1050d000828f5000f9ff3a0058e1ab00feff3a0022
:1050e0005881a9009060a9006021ef005881a800b4
:1050f0009060ab00feff3200200b80001040880063
:1051000000000600889fbe000204be005821ef0088
:105110005a21ef0059e1a80058a1a9005861a9003f
:10512000f30f2e00d20a80008281610002f020007d
:1051300003017100d20a880003fe2f00d20a80000a
:1051400082816100f300b300d30a88005881a8006f
:1051500012022100e20a88005e21ef00f24c2800d2
:10516000220b88006621ef00080440008984480073
:10517000880f5000898f58002900310002802400d8
:10518000820f5000e08f58003100320058e1ab0030
:10519000feff3a0083e0a9000000000000000000cc
:1051a000a602800081027800a102880080017800b8
:1051b0001002ba000683fb00a602880083e0a80064
:1051c00000000000000000000480fd00040b8800c7
:1051d00058e1ab00feff3a0083e0a90000000000a8
:1051e00000000000a4028000a50288009381ba009c
:1051f0000482fb00a402880083e0a80000000000f5
:10520000000000000380fd00030b880062004000e6
:10521000e0804800800f5400818f5c00d7ff3e0083
:1052200058e1ab00feff3a005881a9009060a90048
:105230006021ef005881a8009060ab00feff3200b3
:10524000200b8000104088004f04be0000000600c4
:105250000000000058e1ab00ccff3a00cdff370062
:10526000889fbe008a1f7800002e02000000000008
:10527000c424ef0083e0a80000000000000000004c
:1052800001402000a208800002806000fdff320083
:1052900083e0a9000000000000000000a0028000e0
:1052a00011002000a10288000a802f001a05ba0010
:1052b0000080fb00a002880083e0a800000000003e
:1052c000000000001880200039d22c0000728100fc
:1052d00011728100c2032000820f5000e08f58003d
:1052e000040036001804e00002003a00890f55005f
:1052f00003003200de14020000000000f3ff37005c
:1053000083e0a9000000000000000000aa24ef00d4
:105310008300a800000024001000ba00210024002f
:105320009100ba00504089000000010010002000e8
:0c5330004f0578004f04be00000006008e
:020000040000fa
:10533c000000fe00c2e72200001978000109780085
:10534c00000006000000fe000000eb008000eb00f7
:10535c00f8ff07006627ef00000006000000fe00c3
:10536c000000fe00801f7800811f7800c1e722003a
:10537c000600fc0031007800303b880011007800fa
:10538c00303b880061e7a80000000000000000002e
:10539c00cf0078004f007800000006000000fe00ef
:1053ac00a2028000a10288009080ba001000ba000e
:1053bc00a2028800000006000000fe00a20280008d
:1053cc00a10288001000ba00a202880000000600aa
:1053dc000000fe0061e7af00feff3700f27f200007
:1053ec00000161000a003a0032002400023b8800f0
:1053fc00103b8800213b8800b82902000000000007
:10540c0061e7af00feff37001000200061a7af007e
:10541c0000002000000006000000fe0061e7af0065
:10542c00feff37000000a700150037000010a70092
:10543c0013003700213b8800103b8800100024002b
:10544c00003b8800a0028000a10f2000a102880070
:10545c00010020008208bb008398bb008408bb00bd
:10546c008598bb00b82902000000000061e7af007e
:10547c00feff3700a00288001000200061a7af00db
:10548c0000002000000006000000fe0061e7af00f5
:10549c00feff37000000a700160037000010a70021
:1054ac0014003700213b8800103b8800a1028000cb
:1054bc0010002400003b8800a00f2000a0028800f0
:1054cc00000020000208bb00f20f20000298bb0075
:1054dc000308bb000298bb00b829020000000000c2
:1054ec0061e7af00feff3700a1028800100020002a
:1054fc0061a7af0000002000000006000000fe00c5
:10550c0061e7af00feff3700f30f200080816100e0
:10551c0014003a00103b8800213b8800a102800057
:10552c00a00f2000a002880020002400003b88006f
:10553c0000002000031020003208bb003298bb0092
:10554c000018e100fcff3a00b8290200000000003e
:10555c0061e7af00feff3700a102880010002000b9
:10556c0061a7af0000002000000006000000fe0054
:10557c0061e7af00feff3700f30f20008081610070
:10558c0015003a00103b8800213b8800a1028000e6
:10559c00a00f2000a002880020002400003b8800ff
:1055ac000000200003102000f40f20003208bb0084
:1055bc000498bb000018e100fcff3a00b829020077
:1055cc000000000061e7af00feff3700a102880079
:1055dc001000200061a7af000000200000000600b2
:1055ec00f27f2000000061000000060002802f0006
:1055fc0000006100f2ff2f00810061000000060036
:020000040000fa
:10560c0002c3b3008040eb00824f50000e00360006
:10561c0091c3b300814f50000d003600f1cbb300a5
:10562c0081404000e5cf50000d003600f2c9b300b8
