:100000006F30006900000000C6240000E6240000F4
:1000100000000000000000000000000000000000E0
:1000200000000000000000000000000000000000D0
:1000300008350000000000008E36000000000000BF
:100040008E3600008E3600008E3600008E360000A0
:100050008E3600008E3600008E3600008E36000090
:100060008E3600008E3600008E3600008E36000080
:100070008E3600008E3600008E3600008E36000070
:100080008E3600008E3600008E3600008E36000060
:100090008E3600008E3600008E3600000000000014
:1000A000511126C022C206C4828282441244A24058
:1000B000310182802A86014593F6150091C232955E
:1000C00085810606F5F9828000000000634E050276
:1000D00063C305042E86AA857D5515C285466378BF
:1000E000B6006356C00006068606E36CB6FE014500
:1000F00063E4C500918D558D85820582F5FA828075
:100100008682C93F2E8582823305A04063D70500D1
:10011000B305B040C1B7B305B0408682653F330533
:10012000A0408282868263C70500634905005D376F
:100130002E858282B305B040E35B05FE3305A04007
:10014000513F3305B040828200003D432A876373EC
:10015000C3029377F700BDEFADE5937606FF3D8AC6
:10016000BA960CC34CC30CC74CC74107E36BD7FE10
:1001700011E28280B306C3408A0697020000969679
:100180006780A6002307B700A306B7002306B700C1
:10019000A305B7002305B700A304B7002304B700E5
:1001A000A303B7002303B700A302B7002302B700DD
:1001B000A301B7002301B700A300B7002300B700D5
:1001C000828093F5F50F93968500D58D9396050162
:1001D000D58D61B793962700970200009696868288
:1001E000E78086FA9680C1171D8F3E96E374C3F8A8
:1001F000A5B7EFF2FFEA83C781DD9306800C638425
:10020000D70403A5C1AC89460346E5056306D600BD
:100210003545EF20F0198DA09306B00C638FD706FB
:1002200063E8F6009306900C6389D7041545D5B7AB
:100230001307C00C6386E7081307300DE398E7FE49
:10024000EF00501F15A8EF103046EF10D04683A4E2
:10025000C1AC8947238FF40403C541E0EF20C0748B
:10026000239EA40403A5C1ACEF00007503A7C1AC95
:100270003E3B93E727003EBB0DBD938781DDD8232E
:10028000B433220736971AA5F823D43322073697BA
:100290003AA1FC332308F502C5B73635938701DE52
:1002A000B4B3A182D4A35635D4B3A182F4A3938767
:1002B00081DDBC33F1D3FD573EB5231605026DBF7A
:1002C0005A25938701DEB8B32183D8A31A21D8B366
:1002D0002183F8A355B7EFF2BFDC03A7C1ACB70782
:1002E000002023A8E70003C541E0EF20E06BC167D1
:1002F0001387F7FB9385F7FF6363A700AA8503A421
:10030000C1AC2285EF00806D231EA40479BBEFF2FF
:100310003FD9AE8489657111938505712A845D3B4F
:10032000131705014183F9759385058F3A853AC006
:10033000513302472A94420413070703418098A0CF
:100340009305803E228579334205418193175500FC
:10035000898F8A07AA978E071D8C42044180130556
:10036000050388B0930540062285AD3342054181DF
:100370009377F50F139717003E970E07BA978A07E2
:100380001D8C4204418013050503A8A0A9452285C0
:10039000913342054181930705031375F50FBCB0F6
:1003A000931725003E9506053305A4401305050364
:1003B000C8A01101DDB9EFF2BFCE83C681DD1307FE
:1003C000800C6394E602938781DD03A4C1ACA8335B
:1003D000231E040428A0EF20006583A7C1AC0AA057
:1003E00013078002238FE704C9B13145EF20407C19
:1003F000E5BFEFF2FFCA03A4C1AC8357C4058DC7A4
:10040000FD17231EF4042820EF20E0611E20638CDA
:10041000A70083A7C1AC0AA07947239EE70403C5C0
:1004200041E0EF10102F51B103C541E0EF10B029AA
:10043000D9BFEFF2FFC683C781DD1307800C03A588
:10044000C1AC6385E7028346E50529476386E6007C
:100450003545EF20E075B1A81307900C638FE704D2
:100460001307300D638FE7061545E5B7A947230F3E
:10047000F504EF107023938781DDFC33138481DD55
:10048000858B8DCBEF10904903A5C1AC3C30210585
:10049000A30EF5FE5C30232C05FE230E05FE858B96
:1004A000139717008347E5FFF59BD98F230FF5FEC0
:1004B0002123E5BEEF107047C1BF7A21938701DE8B
:1004C000058BB8B33A21138481DDD8A32183D8B337
:1004D0001A21F8A32183F8B33C30E1DF2311050092
:1004E000C9BF2105EF000075E9B7EFF27FBB03A696
:1004F000C1ACC166FD161A223E846304D70005070D
:100500001AA2EF10901903A4C1AC7C2068B0898BAB
:1005100081C71345150068B07E207830858B630253
:10052000F7045C205430850793F7F70F5CA063EE67
:10053000D7007C20058B23020400F99BD98F7CA077
:100540003E202310040085073EA06C201305840084
:100550008589B305B040C205C1814921231EA40489
:10056000A9B623020400D5B7EFF29FB383C781DD9C
:100570001307800C6385E70203A5C1AC0347E505BB
:1005800009C73545EF20C062A5A81307200D638673
:10059000E70C1307300D638BE70C1545E5B7938720
:1005A00081DDA4338547138481DD638CF40491C419
:1005B00089476388F4064545F1B703C541E0EF106C
:1005C000D02E03A5C1AC8547230AF502EF00807841
:1005D00083A7C1AC239E07045820854703C541E08B
:1005E000631DF704EF10F0267820854703C541E02E
:1005F0006312F706EF10F02983A7C1AC238F07041D
:100600006DB403C541E0EF10B02C03A5C1AC230AC3
:100610009502EF00207483A7C1AC7D57239EE704A9
:1006200065BF83A7C1AC238A070203C541E0EF1071
:10063000902C03A5C1AC492645B758306315F70087
:10064000EF10302355B7EF10102203C541E0EF1033
:10065000902359BFEF10B02445B78347450381C7A6
:10066000EF00702271BF1305400329BF8347450384
:1006700081C71305500339B7752B59B7EFF25FA245
:1006800003A5C1AC8347450385CBEF00607103A789
:10069000C1ACAA8703C541E08346E7026384A60094
:1006A000231EF7041397070163550700EF10700628
:1006B000EDBAEF105001EDBFEF10207E03A4C1ACE6
:1006C000B305A040C205C1812285092E231EA404C2
:1006D000C5B7EFF2FF9C83A7C1AC37070020B70472
:1006E0000020232AF700DC2B4111139517003E95BB
:1006F00016059387042E3E9523A4A18031054D2530
:10070000AA8703A5C1AC1387042E3AC0231EF504A3
:10071000702981EF6309060E7D1613361600330625
:10072000C04042064182014705A8C166FD16639D8F
:10073000D70071CE7D16133616003306C04013174E
:1007400006014183014609A82167639CE706054726
:100750006311E60C368736860E293EC63AC4EF2072
:10076000106C83A5C1AC03C541E0EF10D03183A567
:10077000C1AC22478247D02903C341E08E2913151B
:100780001600329516052382C1E03E953A861AC2BC
:10079000EF20F06803A7C1AC824703C541E0582BA6
:1007A00093151700BA959605BE95EF10D02D1243FC
:1007B000B24703A7C1AC238261E03EAB41016FF0B9
:1007C000DF8E6371F70201E61396170099BF0547A4
:1007D0006311E604139617001346F6FF42064182A2
:1007E00036879DBF09E61D8F1316170089BF854503
:1007F0006311B6021D8F06071346F7FF1317060194
:100800004183368691BF416701467D17B1B73E8669
:1008100019BF014705BFEFF2BF8883A7C1AC3707F7
:1008200000201306800C232AF70083C681DD6111A6
:100830006382C60203C4E705194635456318C4023E
:100840001306200D638AC6141306C00D6386C610F6
:10085000154529A8138781DD28339D4663E7A60047
:10086000268483C641E06396A6004545EF204034C8
:10087000C9A8582399466176238FD704239EC704BD
:10088000C8ABF8AB93171500AA97370700201303DE
:10089000072E96079A97854523A4F18036C0EF204E
:1008A000802F03A6C1AC03C541E0370700204C2AC6
:1008B00082461303072E93971500AE9796079A97D3
:1008C000238DA70254BA34A6814536C2EF105022B8
:1008D00003A6C1AC370700209246482A83C741E0EF
:1008E0001303072E131615002A9616061A9634A619
:1008F00081452382A1E03EC0EF10901F83A6C1ACCA
:10090000824737070020F42A2382F1E03E859304D2
:10091000072E9DEAEF10607983A7C1ACC82BEF10BA
:10092000C07883A7C1AC1307803E9AAB2399070018
:10093000DC2B139517003E951605269531051929D0
:10094000493B21016FF06FF6EF10807883A7C1ACAF
:10095000C82BEF10E077F1B7D02B138781DD93160A
:100960001600B296370600201306062E9606B2969B
:1009700023A4D18054233833A20636979AAB03C5FB
:1009800041E0EF10C03E03A6C1AC03C541E040BA50
:100990008145EF10F01575B7DC2B139517003E95C8
:1009A000B70700209387072E16053E9523A4A18044
:1009B0003105EF00406D71B7930700041EA5930742
:1009C00000F818593EA1FD571CD5C1775CD5B70773
:1009D000F9F0F98F231305021CD98280EFF24FEC56
:1009E00023A6A1803E393111AA843EC0898B2E8472
:1009F000638F07221E3563E5B7007E3163F3F50090
:100A0000C2308247C2B0858B89C71344F4FF4204C9
:100A1000418083C7140389466389D70C8D46638C54
:100A2000D70E85466391D702AE286378B41E9E2800
:100A300063F8871E3305F4409D8D4205EFF08FE982
:100A400013140501418082478E2413F7470001C724
:100A5000BE2463F7F500C2A423A20400239504007A
:100A6000BE24C8408507C2072295C183C8C0BEA462
:100A70006390B7023AC0EFF0EFE5C16702476373D6
:100A8000F51AC8C0DC402395040023A20400DEA4AC
:100A900011E382A0BE208A20BE853EC2EFF08FE126
:100AA00092472AC041657D151D8DA285EFF08FE02C
:100AB000024783C7040385463A9541818AA063862D
:100AC000D71689466393D700C224BE3893E7470000
:100AD000BEB8BE346373F400A2B4DE3463F387009F
:100AE000C2B4228551016FF04FDC8C482285EFF0B3
:100AF0006FDC1354F5411374F40F2A94C848218411
:100B00002A94635304000144C1676344F4001384CE
:100B1000F7FF420405BF83C7240283A681E0F58F57
:100B2000639B070ED2289E30636986009628958FB6
:100B3000BE8563D1070E8145F1A8F62832C663EE63
:100B40008602AE288A2836C28D8F0D8D4205B38568
:100B5000864041813EC4EFF0EFD592463246B385E0
:100B6000C640C205C181EFF0EFD6A247898FC166AA
:100B70009385F6FF63D0D70A65BF922C32C6637E99
:100B8000C400AA28B305D44036C23EC4EFF08FD2C9
:100B900092463246B305D640E9B7F62CE3FA86F81A
:100BA00003D3C40163756402AA28B305D4401AC4F0
:100BB00036C23EC6EFF00FD092462243B305D34073
:100BC000C205C181EFF00FD1B247AA974DB7B62C3D
:100BD0008E2836C8637AD402B228330564404205B1
:100BE000918DC205C181418132C23EC61AC4EFF067
:100BF0006FCC2243C246B3856640C205C181EFF087
:100C0000EFCC12463295C9B7BE95C16763C4F500F3
:100C1000C165FD158EB082303DB541647D1425B5AA
:100C2000014415B5FD17DCC0B1BD2A8479BD8247EA
:100C3000ED9B79BD138781DD3833AD4663E4E61063
:100C400091660A07938606E836971843938781DDF5
:100C50000287DC23858B139717003E39F59BD98FCC
:100C60003EB913F72700ED9B15CF8280D833D423EC
:100C7000220736971AA5F833FC232207BA973EA11C
:100C80008280D833D423220736977AB1F833FC23F5
:100C90002207BA971EB58280DC2313F717003E396E
:100CA000F99BD98F3EB98280DC232308F50282802C
:100CB0000547A308E502D833D423220736971AA99B
:100CC000F833FC232207BA973EA98280D833F42355
:100CD0002207C2063697D423FC333697E207BA9729
:100CE0001CC982800947F423A308E502D833C20651
:100CF00022073697D423FC333697E207BA975CC9AC
:100D000082803635138701DEDC2354A3A18254B3DD
:100D1000A9DFFD573EB582805635138701DEDC23FF
:100D200054A3A18254B3B1D32316050282805A255D
:100D3000938701DED8A32183D8B31A21F8A3218396
:100D4000F8B38280EFF2CFB51305D002EF105066F2
:100D50006FF0AFB5EFF2CFB42A8403C541E0C1779D
:100D60005CC81CCC834704032307A402231E040091
:100D700093F707FC2308F40223160402231104024C
:100D800023120402EF10304A834704032AB493F776
:100D9000F7FB2308F402FD57A307F4026FF0EFB04E
:100DA000EFF20FB023A8A180AA840345E502411108
:100DB000EF10704703C704032A84098B6305071AE1
:100DC00003C5F4021307F00F6305E500EF10B0450B
:100DD0008AB4D4484177638BE600F628CE28416771
:100DE00022857D170146EF00D06D2A8483C7040356
:100DF0003EC213F7170009C741677D1733048740C8
:100E00009C5883C6D4023EC06384060E13D71700D5
:100E10001376E7011167130707EB32971A2303A62E
:100E200081E0718F6312071C1147638DE60A154735
:100E3000638CE6140D47639DE60A96348C40818EE0
:100E400023AED180BA24B6958CC03A8536C43AC652
:100E5000EFF04FA61354F5414A0449802A9439848F
:100E600023A2818237060040A246634AC50032476A
:100E700037C5FF3FBA85EFF0EFA5A24688C0904086
:100E8000CC40CA2423A0C182B385B640D4C036C6A4
:100E9000EFF04FA21357F541B2461377F70F2A9799
:100EA0008A24218723AAE180B6853AC4EFF08FA077
:100EB0009356F54193F6F60F36952185224723A4E4
:100EC000A182830641002A943A941387818163C5E5
:100ED000060A00C31043C1666343D60AFD1614C355
:100EE000022339A09A206364E408DA209AA48224B9
:100EF000B63091C6DA30637BD70E0507DAB0D62C50
:100F00008DCA03C6C40215C6824713D7170093754E
:100F1000E7011167130707EB2E971A2383A581E0DA
:100F20006D8F6310071205476304E60C09476303DE
:100F3000E60E82471315040141819983AAB4858B7B
:100F400063930710944C4177638DE6009E2CAA2C86
:100F5000A2853EC01D8DEFF0EF958247418133841D
:100F6000A70042044180228541016FF00F94BA200E
:100F7000E36F87F6FA209DBFA166369499BFE351CF
:100F800006F623200700A9BF98248546AA2063EB14
:100F9000E602F6209234A29663D1C602839604003C
:100FA000369505C72A8463530500014441676344AD
:100FB000E4001304F7FFA2A025BFE354C4FE839608
:100FC0004400F9BF8946E31FD7FCFA209634330763
:100FD000E44063D6E60003970400198DE1B7E3D33C
:100FE00086FC03974400D5BFA23419B7E23001BF95
:100FF000BA343306E4406357C000E3DCC6F233047E
:10100000D70005BFF62CB305D040E354B6F2330445
:10101000D74005B7AE34368536C4EFF0AF89A24667
:101020002AC241657D15A285158DEFF0AF88124764
:101030003A9541776374E50021673A9513540501A9
:10104000CDBDA234FDB59E2C138741E1BA97414630
:101050000147D62363F78600E305C7F0910705072C
:10106000CDBF4146E30FC7EE8E2363948500A223D4
:10107000CDBDFA23639486003A84E5B5B223EF0030
:1010800050442A84F9BDEFF2AF81938781DDB833F4
:101090009306400371112A84630ED72263E8E608A1
:1010A0009946630FD71863E5E6048946630BD714A6
:1010B00063EAE6006303071085466307D71213054A
:1010C000C002D1AA91466301D71663F7E614D8335C
:1010D000D423220736971AADF833FC232207BA9798
:1010E0003EAD8347050393F7F7FB2308F402EDA019
:1010F000A946630BD71663EEE600A1466301D71637
:1011000063F6E6143A35938701DED8A32183D8B37A
:10111000E1A0930620036303D71863EFE618930753
:101120001003E31EF7F8A30605027DA093068006D0
:101130006308D72063E7E604930640066301D71EE1
:1011400063E7E6029306C0036303D71A9306D0034E
:10115000E317D7F68346D5021547639FE606D833D3
:10116000D423220736971AA1FC231CA5B5A0930609
:101170006006630DD72063FFE61A11469385C1818F
:10118000F9A29306C006630DD71C63ECE600930733
:10119000A0066303F71C63F9E71A114693854181A2
:1011A0007DA29306E006630ED71C6368D71C9307E5
:1011B000F006E316F7F01A35B9B7D823058B931666
:1011C000170003470503759B558F2308E502098B1C
:1011D00001CBDC332307F502014511016FE0FFEC81
:1011E000FC23FDDB853ECDBFD833D423231205027B
:1011F000220736973AB1F833FC232207BA977EB11B
:10120000E1BFD833D423220736975AA9F833FC23F9
:101210002207BA977EA9C9B7DC2313F717008347C3
:101220000503F99BD98FD1B5D8232306E502F8230E
:10123000DC332207BA97C207C1835EAD7EAC69BFBB
:10124000D833DC232207BA971EB579B7DC23BD8BD0
:10125000139727008347050393F737FCE1B7D8338B
:10126000DC232207BA97D9BFD823DC331305300318
:10127000A207BA9713F7170019EF1307F003634A91
:10128000F700034704031EAC136707042308E402B6
:10129000A1B71305B002EF10B0113DBF1147A3066F
:1012A000E502D833D423220736971AA1F833FC235A
:1012B0002207BA975EA10DB71147A306E502D833FE
:1012C000D423220736973AA1F833FC232207BA9792
:1012D0007EA119B71147A306E502D833DC23220704
:1012E000BA971EA58347050393F737FCFDBB154747
:1012F000A306E502D833D423220736974207418755
:101300005AA1F433FC231AA1A206B6977EA103C505
:1013100041E0EF1040712AA02304040075BDD833CA
:10132000D423220736971AA5F833FC232207BA974D
:101330003EA55DB5D833DC232207BA975EA569BD0B
:101340001146938501822DBD1146938541821385F7
:1013500041DEEF20D02549B5114693858182C5BF76
:1013600083A78181030705033EC0635507006177AA
:10137000BA973EC011468A8521B5DC23A307F50242
:10138000A1BDD833DC232207BA971EB52320040061
:10139000A1B5EFE2FFD003A5C1AC03C781DD930681
:1013A000800C6303D7028346E505B9476387F600DF
:1013B0003545EF10E07F6FE05FCF9307300DE31C02
:1013C000F7FEEFF03F87C5BF938781DDB833230A6F
:1013D000E502D833DC232207BA977EB9B947230F39
:1013E000F504EFF06FDDC1BFEFE29FCB03A4C1AC0A
:1013F000BE840345440323A681821307F00F631CB8
:10140000E5006E3883A4C1AC2285EFF02FDD239E6A
:10141000A4046FE09FC9EF100061AA85E5B7EFE271
:101420003FC803A4C1AC83C781DD1306800C7111D2
:101430006387C7020346E405BA8649473545631307
:10144000E6129387770393F7F70F2947636BF71239
:1014500011678A07130747EDBA979C4382879384E5
:1014600081DDDC20231E0404A3000404858B139774
:10147000170083470404231A0402231D0402F59B6A
:10148000D98F2300F404C947230FF404EF00D021BF
:10149000BC3089CBEF0090482285EFF0EFD11101ED
:1014A0006FE0BFC0EF007048C5BF834704040A3C2B
:1014B000898B938401DE81CFA8B05A382181C8A0DE
:1014C000F8B06A3895C7C8B02181E8A0C9BF89655E
:1014D0009385952B3EC0EFE0FFBD25814167824794
:1014E0006364E5001305F7FFA8B042054181F1B739
:1014F00089659385952BEFE0FFBB2581C167636408
:10150000F5001385F7FFC8B04205418175BF8347D9
:1015100004040355C405898B938401DE99CBA8B0DC
:101520005E382181C8A0DCB0A183A3830400FCA0A5
:10153000BDB789659385952BEFE0DFB72581C1673E
:101540006364F5001385F7FFA8B042054181C9BF68
:10155000138781DD3C3325476365F700A300F4045E
:101560003DBF4545EF10C0641DBF138781DD5C237F
:101570003833A207BA975EBC1DB72285EFF08FEB18
:1015800039BF1545C5B7EFE2BFB103A4C1AC7111B6
:10159000563C23A881828DCA7E3C41677D176384B7
:1015A000E70085077EBC834714040547ED1793F7D2
:1015B000F70F636BF7007E3C63F8F60081452285E8
:1015C000EFF0CFC1231EA40483470404898B8DEF61
:1015D00003C541E0EF009055034704043E3C937679
:1015E0001700630F050E85CE138517002ABC098BE3
:1015F00019CF094583470404898B81E78947E31D97
:10160000F5FC11016FE07FAAEF003009F1B703C5C7
:1016100041E0EF00B0573E3C3E952ABC91AA85467A
:1016200036BC83461404136717002300E4041387B1
:10163000F6FF7EB81377F70F21466366E612116650
:101640000A07130606F03297184302873E85834740
:101650000404898B91EF89659385952B36C0EFE063
:101660007FA52581C16782466364F5001385F7FF76
:10167000A547639EF60CA167636BF50C1385F7FF16
:10168000F9A00A3C3E9583470404898B99E7896554
:101690009385952BEFE01FA22581C167F1BF0E3C1A
:1016A000BE9583470404898BE9EF71651305052016
:1016B000EFE05FA20505058159A80A3C03A7C1AC6C
:1016C000B305F5003AC04205EFE0DFA09315050130
:1016D000C1812285EFF08FB00247231EA70461A0CD
:1016E000F9C2799B2300E4045A3803461404854662
:1016F00005074207418336BC1EBC5AB8231F0402AB
:10170000A54663E2C606916593162600938545F2C9
:10171000AE96944282863E8583470404898B91EF7E
:1017200089659385952B32C0EFE0DF982581C167ED
:1017300002466364F5001385F7FFA5476319F600B9
:10174000A1676364F5001385F7FFA1675D8D83A72B
:10175000C1AC93150501C18122853EC0EFF00FA8F1
:101760008247239EA70483470404898BE39307E8F9
:1017700003C541E0EF00903BB5BD6A3821B76E3834
:1017800005B71305803EEFE0FF94D1B703A7C1ACC6
:101790006E38139507013AC0BE953DB783A7C1AC1B
:1017A000239EE704C9B7138517002ABC098BE312EF
:1017B00007E403C541E0EF005044B1BDEFE25F8EA6
:1017C00003A5C1ACEFF0CFDD2A8603A5C1AC83C66B
:1017D00041E08345E502BE846384D500231EC50431
:1017E0002C4113054503EF10906383A5C1AC03C5DD
:1017F00041E093854503EF0010296FE01F8BEFE276
:101800003F8A03C781DD1306800C83A6C1AC630445
:10181000C70283C5E60541463545639BC5001306EF
:10182000200D6308C70A1306C00D630EC7061545D1
:10183000EF100038BDA0938781DD4147238FE60478
:10184000D833D023FC2322073297239EE60413F7D4
:10185000170083C7760403C541E0F99BD98FA383A2
:10186000F6042387A602212303C541E0EF00F0031D
:1018700003A6C1AC03C541E09947230FF602814599
:1018800013064603EF00D02603A5C1AC8357C50558
:1018900085072312F5049307803E3CC1EFF08FCB00
:1018A000313F6FE09F80938781DDD823D0332207BB
:1018B00042063297B033FC233297E207BA97BCC294
:1018C00003C541E06D2183A7C1AC1947238FE7020F
:1018D000C9BF3685EFF02FFBE9B703A7C1AC0356AC
:1018E0006704563FB307D64019C1B307D600163F69
:1018F00081C663D3F600B687363F41667D166385A1
:10190000C60063D3D700B6872313F7048280EFE2C3
:101910002FF903C781DD9306800C611103A4C1ACCC
:101920006306D7020346E405954635456317D61E80
:10193000130777031377F70FA94663EFE61C916649
:101940000A079386C6F4369718430287138781DD0A
:101950009547230FF4045C2334334833A207B6972A
:101960005EB87C23854513F73700A305E4040347DD
:10197000840493B747008607759BD98F2304F4042A
:1019800083C741E02305A404231E04042306F404B2
:101990009307803E7EBC231B0402232004042312F1
:1019A0000404EF10401F2285EFF00F81F529034555
:1019B000A4048D2183478404138781DD898BB68439
:1019C00081CB563893973600958F8E07B6975EB8C1
:1019D0007C338DC70547638CE702C1771CDCFD2E85
:1019E00083478404AA86898BA5E745298347840415
:1019F0000589F99BC98F2304F404A5A003C541E020
:101A0000814585230345A4048145A12BF9B703C56E
:101A100041E08545B9230345A4048545992303C5C1
:101A200041E08145592B0345A4048145792303C531
:101A300041E005250345A404292D45B73C83F58FD6
:101A40003337F00083478404F99BD98F2304F404CF
:101A500003C541E09305610036C0EF00F0208246E7
:101A600071FD85475EBC21016FE02FE4938781DD26
:101A7000D823BC332207BA97F5B7938681DDD822E5
:101A8000BC3222073E97FC22D4324207A207B69707
:101A9000C2078356C4054183C1833ABC1EBC63F4AC
:101AA000E600231EE4040357C40563F4E700231E85
:101AB000F4049547230FF4047DB7938781DDBC338D
:101AC0001307F00F2306F404E39FE7F883C741E010
:101AD0002306F40449BF938781DDD823BC33232038
:101AE00004042207BA977EBC23120404ADBF035737
:101AF0004404938701DEB8B32183D8A3ADB793879D
:101B000081DDD823BC332207BA972313F404A1BF85
:101B10002285EFF02F9281BF1545EF106009A1B724
:101B2000EFE20FD803A4C1AC21114D2C0347A4044C
:101B30009166938686F7060736971E233A382AC29F
:101B40003EC43C44231B0100098B858B3EC026C646
:101B500019E70345C404EF00106D2313A4040347E1
:101B60008404098B05CF824703C541E08DC7EF0090
:101B7000F00103C541E093056101EF00F00EB88369
:101B80009247AA843376F700A2473336C0007D8F90
:101B90003337E00021A8EF005006E1BFFD2C2AC832
:101BA0000345A4048544892C42462A87B1EC0347A7
:101BB00084048247763C799B858BD98F2304F40477
:101BC00085C6035724040507420741832311E40413
:101BD000636CD700835504040345A4042320040444
:101BE0002312B404EF00705F3A3883556404098B04
:101BF00061C7B247228583A4C1ACEFE03FDE239EDC
:101C0000A40461016FE06FCA834684048247898A15
:101C10002DC2C5E37238050672B891CA03C541E00A
:101C20003AC8EF00A0767638424736956AB87238DF
:101C300056386367D602835604040546850623108A
:101C4000D4048346B404FD1693F6F60F6367D600FA
:101C5000054511E30145EFF05FC8231B040226C0D0
:101C600003478404098B21D79305610103C541E033
:101C700029B7A1C37238050672B891CA03C541E0FD
:101C80003AC8EF0080777638424736956AB872389E
:101C90005638E3F7C6FC8346B40493F6D60F91E6B4
:101CA000014511E30545EFF05FC3231B040202C0A9
:101CB00045BF231B04026DB70345C404EF00F05178
:101CC00089B763F6A5046373D504EFE26FBD33846F
:101CD000B640B305B540939705017111118F63D8D4
:101CE00007009317070163D40700058705843A8529
:101CF00032C0EFE02FBCA285EFE04FBD02461101DC
:101D00002A964206418232856FE02FBA3A863285A2
:101D100082809396050193C6F6FF05C22A96138723
:101D2000418B0A050A063A9532971C411105CD8F61
:101D3000F58F232EF5FEE31AE5FE828093C5F5FFAD
:101D4000C205C1819396050193C5F5FF05C22A9688
:101D50001387418B0A050A063A9532971C411105F3
:101D6000D58FED8F232EF5FEE31AE5FE8280916775
:101D70000605938787F7AA979E23139707015D8F20
:101D80009387418B1347F7FF1386072094439107EE
:101D9000F98E23AED7FEE39BC7FE82809387418BEB
:101DA00001479386418313060008B385E60023A00C
:101DB00007002380050005079107E318C7FE82800E
:101DC000B717014003A7074091670A05938787FA71
:101DD000AA978843798D3335A000828083C741E07C
:101DE0001D4701456369F7001397170091679387B3
:101DF00087F7BA978A238280B717014003A78740E5
:101E000091670605938787F7AA978A23798D3335DB
:101E1000A0008280A14763ECA702EFE26FA8916760
:101E2000938787F706053E951E215111371501400E
:101E30007C8091473EC48A858D47130505403EC28C
:101E400023110100EF10D04C31016FE00FA682800A
:101E500021476363A704EFE2AFA451112A845D3FD9
:101E6000931714001164130484F7A2979E23371567
:101E700001408A85130505407C802311010023124F
:101E80000100231301002314010023150100EF10AA
:101E9000304831016FE06FA18280EFE26FA003C58F
:101EA00041E0993F6FE06FA0EFE28F9F03C541E0F3
:101EB00095376FE08F9FEFE2AF9E03C541E0854508
:101EC000413F6FE08F9EA14763E4A704916713171A
:101ED0001500938787F7BA97962393172500116506
:101EE00037170140130585FA232AD7403E951C4138
:101EF00003260740B3F5C70081E95D8E8A0793C7C3
:101F0000F7FFF18F2320F740B717014023AAD740EE
:101F10008280A14763E6A704916713171500938792
:101F200087F7BA979A239167B716014013162500D1
:101F3000938787FA23A8E640B2979C4383A506407F
:101F400033F5B70011E91165130585F83295104195
:101F5000CD8FF18F23A0F640B717014023A8E740AB
:101F600082802147636AA704EFE28F934111AA841C
:101F70002E84B9351DED23130100914719C0930735
:101F800080043EC6939714009164938484F7A697C7
:101F90009E23B71401400D474C00138504407C82FA
:101FA0003EC03AC4EF10D03609C48247938404403F
:101FB0009CC841016FE06F8F828021476364A70452
:101FC000EFE20F8E51112A84AE84DD3B0DE923111F
:101FD00001009307800291E091473EC493171400DB
:101FE0001164130484F7A2979E23371501408A8554
:101FF0007C80130505408D473EC2EF1070313101E2
:102000006FE0AF8A828021476364A704EFE24F89C3
:1020100051112A84AE84EFF0BFDA05C92311010003
:10202000D14791E0C1473EC49317140011641304D3
:1020300084F7A2979E23371501408A857C8013057B
:1020400005408D473EC2EF10B02C31016FE0EF85A7
:102050008280EFE2EF8481452A8485378545228599
:1020600009376FE08F84EFE2AF838145DD3D6FE09C
:10207000CF83EFE2EF8281452A84E53585452285CD
:102080002D3F6FE08F82EFE2AF8181453D376FE0FA
:10209000CF81EFE2EF808545BD376FE00F81EFE242
:1020A0002F8081458D376FE04F80EFD27FFF2A84EC
:1020B00001E9370701405C43B7060004D58F5CC3D4
:1020C0002285EFF0DFCA2285EFF0FFDF6FD0FFFD42
:1020D000EFD21FFD2A8401E9370701405C43B706B0
:1020E0000004D58F5CC32285EFF07FC82285EFF016
:1020F0005FE26FD09FFBEFD2BFFA2A8401E9370776
:1021000001405C43B7060004D58F5CC32285EFF025
:102110001FC62285EFF01FD06FD03FF9EFD25FF8D6
:1021200003C541E03D376FD05FF8EFD27FF703C5BD
:1021300041E08145EFF0FFE26FD03FF7EFD25FF66D
:1021400011670605130787F72A971E232111370702
:1021500002403EC093C7F7FFC207C1833EC27C4F17
:10216000130700082EC4B307F7403EC89C3236C69A
:102170008DE7802283470101B28485463ECA094625
:102180006387C6066364D6020546638CC604B247FD
:10219000268580A361016FD05FF1B247A38007005D
:1021A000C2471387A7001374F707E9B70D46638F7B
:1021B000C6061946E39DC6FCD24733868740137690
:1021C000F60F637F9608B387C44093940701A24734
:1021D000C180C1C382452285EFF0BFB3A1465244FE
:1021E00025A8C247894663C98702994635A01306C8
:1021F00000F8018E1376F60F8D46637F9600B38745
:10220000C44093940701A247C18099CB824522859F
:102210000144EFF01FB099462146E392C6F685BF10
:10222000924522850144EFF07FB1C1B7A2472686CF
:1022300081CF82452285EFF0DFADB307940013F420
:10224000F70791468144C9BF92452285EFF01FAF41
:10225000EDB792452285EFF07FAEA14652446DBFA7
:10226000A247268681CF82452285EFF09FAAB30739
:10227000940013F4F70F9D46814479BF924522855F
:10228000EFF0DFABEDB7EFD2BFE1FE212E84A9C3A3
:102290009E25B9C7B221AA840DE25220A2868145AB
:1022A0002685EFF0BFE94AA019E572201E2432A06E
:1022B0005EA0D18FF5F36FD05FDFA28685452685BE
:1022C000EFF0DFE712242AA052A069D96FD0FFDD1A
:1022D000AE86130600088145EFF05FE66FD0FFDCA5
:1022E000AE86130600088545EFF05FE56FD0FFDB93
:1022F000EFD21FDB91670605938787F7AA97328491
:102300009E2399C913060008BE850145EFF07FA002
:1023100085471CB06FD07FD993C5F7FFC205130660
:102320000008C1810145EFF07FA1DDB7B70602408B
:1023300098527DDF93151500370700202E9516055E
:102340001307072E90522A978347B7059306000874
:10235000918E0945638BD7029166138641839386DC
:1023600086F73E96AE968A221022850793F7F70FDE
:1023700093968701718DE1863335A00063C5060011
:10238000A30DF7048280A30D070482809166931742
:102390001500938686F7BE9603D3060037060240E3
:1023A0001452FDDE185213060008AA97198E37073B
:1023B000002096071307072E81463E979385418399
:1023C0008347B7056394C700368582803385F5005F
:1023D00008213375A3006DD9850793F7F70F13957F
:1023E0008701618563480500A30DF704850693F610
:1023F000F60FF9B7A30D0704D5BF91669317150023
:10240000938686F7BE9603D3060037060240145221
:10241000FDDE185213060008AA97198E3707002010
:1024200096071307072E81463E979385418383477E
:10243000B7056394C700368582803385F50008218F
:102440003375A3006DF9850793F7F70F139587018F
:10245000618563480500A30DF704850693F6F60F22
:10246000F9B7A30D0704D5BFB706024098527DDF28
:10247000131715002A97B707002016079387072E12
:1024800003A30602BA9703C6B70593060008B386EE
:10249000664001456308D6021387418332971823AB
:1024A0009AA103C7B70505071377F70F931687019E
:1024B000E18663C60600A38DE70405458280A38DEF
:1024C00007040545828013077004938741AB9C2362
:1024D000E30DF7FEB707EFBE37E700E09387070885
:1024E0003CC773002030C53773002030EFD25FBB8C
:1024F000130181FB0545EF1060698545054502C65E
:1025000002C802CE02D023120102EF10E07393073B
:10251000003405446C08370500403ED02302810298
:1025200002CEEF102077854537050040EF10700789
:10253000930760027C866800854740873EC8EF109D
:10254000406585471307001902C602C86C003705AD
:1025500000407C87F88102CA02CCEF108078854564
:1025600037050040EF101000814537050040EF109F
:102570007002854537050040EF1030001306C00299
:1025800081456808EFD07FBC85450545EF100068A0
:102590003704024013058405EF10C030B716014020
:1025A000138706413ACE370700201307470C3AD06D
:1025B00085644147930200020D6313060020938453
:1025C0000480130584053AD26C08130700083AD436
:1025D0003AD816DE9AC032DA26DC02D682C2EF1072
:1025E0008035130584058545EF1060381306C00259
:1025F00081456808EFD07FB585450545EF1000613E
:102600001305C401EF10002AB716014093868640D7
:1026100036CEB7060020930200020D6313070008B0
:10262000938646041305C4016C0816DE9AC036D0A2
:102630003AD43AD802D202D602DA02DC82C2EF10D1
:10264000802F1305C4018545EF106032854537059D
:102650000040EF10A06FB7060040DA2637060140B1
:10266000854513670730DAA65842E176FD16758F67
:1026700058C213055003EF10405B85451305002039
:10268000EF10A05A316537240140EF10E0561305D2
:102690000440EF10600885473ED03ED2B7070E00D9
:1026A0003ED46C08A547130504402308F10226D642
:1026B00002CEEF10C0089D4605468945130504402B
:1026C000EF10A0129D4609468D4513050440EF10FA
:1026D000C0119D460D46914513050440EF10E010D2
:1026E0009D4611469D4513050440EF1000109D4680
:1026F0001546954513050440EF10200F9D461946D9
:10270000994513050440EF10400E9D461D46854532
:1027100013050440EF10600D9D46214681451305C9
:102720000440EF10800C9D462546A145130504404A
:10273000EF10A00B854513050440EF1020068545DA
:1027400013050440EF10800413050440EF10200629
:10275000930404402685EF1020066DFD1305044008
:1027600037240140EF10C005930404402685EF1084
:10277000C0056DFDB714014089478A851385048023
:102780007C8002C4EF10C03891478A85138504808D
:102790007C80EF10E037C1478A85371501407C8087
:1027A000EF1000371306C00281456808EFD0FF998B
:1027B00085450545EF108045B70702401385870022
:1027C000EF10400E1307C4443ACE138781AB3AD0C2
:1027D00025473AD4130700083AD8130700103ADA0D
:1027E00013070040B70702403ADC130700021385C5
:1027F00087003ADE6C080567BAC002D202D682C2F0
:10280000EF106013B7070240138587008545EF106E
:102810000016130504408545EF00B07BB707002084
:1028200083C747801307F00F2385F1AC1384A1AC55
:10283000639FE708930780043ED29307100EFC863F
:102840006C088D47371501403ED0231F0100EF1063
:10285000202C9307100E9CC83D67930700061CA010
:10286000231001001307F7A53C806379F712B7170F
:1028700001409C47858B81E7930710061CA0B71782
:1028800001409C4793F7070281E71C2089071CA0A1
:10289000B71701409C4793F7070481E71C20910775
:1028A0001CA0B71701409C4793F7070881E71C203D
:1028B000A1071CA0930780026C08371501403ED287
:1028C000EF100025B71701401307100ED8CBB7172C
:1028D0000240984FB706200011661367170198CF82
:1028E000D84F558FD8CFB71601409C427D773D0712
:1028F000F98F09674117D98F9CC2B757004003D79A
:10290000474042074183137707FC1367070323926D
:10291000E74003D7074042074183799B4207418341
:102920002390E74013072003239EE74003D7074087
:10293000136717002390E74003D7074042074183FE
:10294000137757BF136707402390E740182037F4E9
:1029500000E00607518F2394E74003D70740136731
:1029600017002390E740EF00D01BB7E700E00567B2
:1029700023A0E7105C409305803EF99B5CC0B7073D
:10298000002003A5C700EFD0EFF47D1508C823246D
:102990000400BD471CC0EF00D026F5BF3C80850772
:1029A000C207C1837C80C9B50605938781ABAA970E
:1029B0008A23C1671387F7FB6374A7001385F7FFAA
:1029C0008280EFD2EFED83D581AC3705B004EFD034
:1029D0006FF0420541816FD04FED9D4763EBA7003B
:1029E00093171500AA979607138501AD3E95231EF0
:1029F000B50482801C41370600C0C146014713065A
:102A0000B60293F51700858391C1B18F060742077F
:102A1000FD16418393F5170093F6F60F4D8FF5F2EF
:102A20001CC13A8582809D4763EDA700931715006E
:102A30003E9593175500138501AD3E950355C50589
:102A40008280930710046319F500938701DD8A23C0
:102A5000130715009AA38280930730046315F500CD
:102A600003D581E08280930740046315F50003D508
:102A7000A1E08280930770046315F50003D541DD62
:102A80008280930780046315F50003D521DD8280E1
:102A9000EFD20FE19307B00471116317F500EFF067
:102AA0005FF211016FD06FE01307C5F99376F70F4E
:102AB000CD4763E4D70293171700BA9713975700CF
:102AC000938701ADBA9783D5C7052EC0EFF07FEF8E
:102AD0008245EFD02FDE4181E9B79307400A6318A2
:102AE000F50003A581E05E057D854205EDB79307FE
:102AF000700A6316F50003A581E05A05F5B7930740
:102B0000A00A6316F50003A581E05605F1BF9307FF
:102B1000D00A6316F50003A581E04E05F1B79307CF
:102B2000500A6316F50003A581E01E057DBF9307DB
:102B3000800A6316F50003A581E01A057DB79307A7
:102B4000B00A6316F50003A581E0160579BF930767
:102B5000E00A6316F50003A581E00E0579B7930737
:102B6000E0046319F5003705002013054500EFF078
:102B70007FE805BF9307F0046315F50003C5A1AC1A
:102B80000DB7930750056304F500014519BF15659E
:102B90001305555539B79D4763EBA70093171500EB
:102BA000AA979607138501AD3E95230FB504828041
:102BB000EFD20FCF138401DE420593075004930533
:102BC000140041811CA0EFD08FF49567938757556F
:102BD0007EA083D621DD41677D17938721DD639534
:102BE000E6001307C0FD9AA39A23938681DF0507A9
:102BF0009AA38147138781DD21463305F700082119
:102C0000B385F600850788A1E399C7FE6FD0EFC9A9
:102C1000EFD20FC9138781DD143359452382D1E0E8
:102C20009D4763EAD70293971600B697B706002030
:102C30009386062E9607B69723A6F1AC3C23294728
:102C40006389E7066365F70209476381E7066367FF
:102C5000F700B9C30D45EFF0BFF589A015476381B3
:102C6000E7041947E398E7FEEFD0FFBA05A841470C
:102C7000638BE7026368F7003947E39DE7FCEFE009
:102C80004FF129A849476389E70213078002E393BC
:102C9000E7FCEFD04FF219A0EFD01F8D6FD0EFC03F
:102CA000EFE0FFC6E5BFEFE09FB5CDBFEFD06FD43B
:102CB000F5B7EFD00FF8DDB7EFE06FF6C5B7EFD29D
:102CC0002FBE938681DDEC2201112EC0EC3293875A
:102CD00041DD9A2383A306002EC2938401DE0507FB
:102CE0001EC423A0740083A346009AA398221EC684
:102CF00023A27400930350088832BC22B03203C36D
:102D0000460083C25600630C772E138481DD63EA8C
:102D1000E30E93053005630AB72063E4E5069306E6
:102D200000046300D71A63E8E6009307100263000B
:102D3000F71A1545F5A2930620046300D71A9306E7
:102D40002005E318D7FE13075006631EE51C639C9D
:102D5000B71C930750066318F61C930740056314CD
:102D6000F31C930710026390F21C02479307300292
:102D7000631BF71A12479307A0026316F71A512B29
:102D8000B9A213032008630B671E636EE300930769
:102D90006005630AF71C93071008E31CF7F8EFF0CF
:102DA0009FC8AAA02DA293063008630BD7209306D4
:102DB0004008E310D7F8A207AA9793940701C180AF
:102DC000B70700209316060123949700C18211478C
:102DD0001D456367D71436C03387C4009305F007D9
:102DE00063CDE520138541E1269593054400EF006E
:102DF000107C8246B707002093878700B69486A38D
:102E0000F9A09303700A630F772C63E0E30693063F
:102E1000F0086302D72263E9E6029307E0088544DD
:102E2000E319F7F01C301385F4FF3E951375F50F89
:102E3000EFF07FBF938701DEA697218188A38504E9
:102E4000A147E391F4FE61A09306000A6300D72234
:102E50009306300AE31FD7EC22064203B29713977A
:102E600082019A97BA9788A39DA09305900B630C53
:102E7000B72863EEE5029306400B6304D720930660
:102E8000800BE318D7EA0547639DE722EFF06F9CBC
:102E90003C300547639CE7220830EFF08F9D5C20B3
:102EA0000547639BE7220830EFF0AF9E0DA01307A4
:102EB00087031377F70FDD47E3EDE7E6EFF05FD524
:102EC00039A009C99387C1DE9843050798C30561F6
:102ED0006FD0AF9D938781DEC5BF2247B7774F7410
:102EE000938727F4631CF7023247B77741649387CF
:102EF000C7F46315F702ED7737070020A907231001
:102F0000F700EF0030581165EF00303CB707EFBE17
:102F100037E700E0938707083CC755BF13056003F8
:102F2000EFF01FC96DB71145E5BF1307C006631960
:102F3000E502130750046395E702930750066311F7
:102F4000F60293070005631DF300930710026399CF
:102F5000F20092470247A207BA97239AF1E885BF89
:102F60001305800375BF916793870783BEA0B737AA
:102F70003233938727248CB0DCC091BFEFF0BFAA17
:102F8000938681DDAAA0C822EFF0FFA9938681DD98
:102F9000AC32BC22C8B0A2052181E8A0BE9588321F
:102FA000C205C181EFF07FA3938681DDEC22DC3284
:102FB000C822A205BE95C205C181EFF01FA201BFC4
:102FC000A207AA97C207C1831307F0076364F70239
:102FD0001D8F420741839D46138514003A8663F393
:102FE000E6001D464206938541E14182BE95EF0011
:102FF000105CF1BD1305B00225B7214515B7B70424
:1030000000209384840082209307F007E3E187EC9B
:10301000818FC207C1831947637DF700138541E1A2
:1030200022951D46938516001D04EF00505882A07E
:1030300079BD2545F5B5A38004002391040023A2A2
:103040000400138401DE814413F5F40F91E00504BC
:10305000EFF07F9D19C518208547B3979700D98F4A
:103060001CA08504A147E391F4FE95B5A207AA9799
:1030700042063385C70062032A9383470300BCB02E
:10308000B9B593062005138731E06318D50293067E
:1030900050046394D702930730056310F602930738
:1030A0005004631CF300930740056398F20023006B
:1030B000070005472381E1E019BD1C239D071CA3E0
:1030C00039B5E39707DCEFE01FFAD9B3E39907DCE2
:1030D0000830EFE05FFBE1B3E39B07DE0830EFE091
:1030E0001FFCF5B3938781DF982398B09833B8A07D
:1030F000B823B8B0B833D8A0D823D8B0D833FC237D
:10310000F8A0FCB0E9B337040020930704804146DF
:10311000BE850808EF00B049E247D245C2443EC42C
:10312000F2472EC03EC2EF00D00C938681DD82456F
:10313000983293F505F0B3E7E5003EC0B7070020ED
:10314000938707803E8593F5F40FEF00B01293D577
:10315000040193F5F50F13052480EF00B0110C80E6
:1031600013054480EF00101182471305648093D546
:10317000070193F5F50FEF00F00F0C841305848021
:10318000EF00500FA2471305A48093D5070193F5D4
:10319000F50FEF00300E0C821305C480EF00900D88
:1031A00092471305E48093D5070193F5F50FEF00DF
:1031B000700C31BBEFC2DFEEB7570040938707407A
:1031C000711123A8F1DEB757004093870740DE2B2B
:1031D000138601E02390F1E0A9A083C761DF1547C2
:1031E000138461DF6361F708375700408355074157
:1031F000138781DD3E97850793F7F70F0CA31CA07B
:103200002147639AE700EFF09FABA38B01DE230019
:103210000400138601E0B757004093870740DE2B78
:103220001EA203D741DF05451E22938541DF6319A6
:10323000A70413F7070455F313F627048947631C03
:10324000F60883C761DF1D476390E706231101007D
:103250001307301F3C81E368F7F63C818507C207FE
:10326000C1837C81C5BF231101009305703E388165
:10327000E3ECE5F638810507420741837881C5BF55
:103280008946E31BD7FA13F707085DD7138771DF69
:103290001423938701DEB6979023B7570040850625
:1032A0002398C74014A305B7E39F07F037570040A2
:1032B00013070740162F938771DF23800700918A39
:1032C00081E685479EA101B783C601DE92A116ABB8
:1032D000054798A3CDBD11016FC03FDDEFC25FDC94
:1032E000138781DD930680FC14A39306002036A388
:1032F000B706005554C30544938481DD80B0EFF0D8
:103300003F9105041374F40FA147E319F4FE6FC055
:10331000DFD9B707EFBE37E700E0938707083CC760
:103320008280EFC2FFD7130600088145138541E173
:10333000EFC0BFE1370500201306003081451305BB
:10334000052EEFC09FE0EFE07FA5EFF03FF96FC0E3
:10335000DFD5EFC2FFD4238201E0138441E01820BF
:103360009D4763F4E7006FC05FD493171700BA97C7
:10337000370700201307072E9607BA9723A6F1AC4C
:1033800083C7E70529476388E7066365F7020947AE
:103390006380E7066367F700B9C31C2085071CA09C
:1033A0007DBF15476383E7041947E398E7FEEFD035
:1033B0004FB2E5B741476387E7026368F7003947D3
:1033C000E39DE7FCEFE04F82C9BF49476388E7020E
:1033D00013078002E393E7FCEFD0AF817DBFEFD00E
:1033E000EFA965BFEFE08FBD4DBFEFE06FF375B79D
:1033F000EFC07FEE5DB7EFD04F8F45B7EFE0AF98EE
:1034000069BFEFC2FFC9EFF0FFDA9387C1E09823ED
:103410001377F70F65CB23800700938781E09843EC
:10342000050798C3EFF0FFF2138741E91E23F9CB9C
:10343000FD17C207C1831EA3F1E7B75700402390D1
:103440000740B707004023900700B727014023A497
:103450000740B787888837170140938747441CC3C4
:10346000D9471CC7B70701401307000298C7114787
:1034700023A2E74023A6E740B7E600E09307000455
:10348000238AF640B707100023A0F610B777004054
:103490009843759B98C398431367270098C3B7F761
:1034A00000E003A707D11367470023A8E7D003A6CE
:1034B00007D103A707D1137606021367870223A853
:1034C000E7D003A707D11377F7FD518F23A8E7D0E3
:1034D00003A707D11367870023A8E7D07300501014
:1034E00003A707D11367870023A8E7D07300501004
:1034F00003A707D16D9B23A8E7D0B707EFBE93873B
:103500000708BCC66FC07FBA938701E198430507DF
:1035100098C31387C1E0142393F6F60F81CA9386EC
:1035200061E09E228507C207C1839EA285471CA336
:10353000B7F700E023A2070073002030EFC25FB6A8
:10354000371402401C403707FFF8414593E7170046
:103550001CC05C40F98F5CC01C403707F7FE7D172C
:10356000F98F1CC01C403707FCFF7D17F98F1CC06A
:103570005C4041777D17F98F5CC0B7079F001CC482
:103580009D251C4C93E707021CCCB717014003A7ED
:103590000740938607401377F7F023A0E74003A77F
:1035A00007401367070823A0E74089479CCAB7F77D
:1035B000FF1F03C5477D9307F00F6304F5007D8966
:1035C0001D25B72702409843C176FD16719B98C30D
:1035D00098431367170098C3B7170240D843D8C35E
:1035E000D843758FD8C3D843B7060001D8C39843D2
:1035F000558F98C3984393166700E3DD06FED843C2
:10360000B7160240719BD8C3D84313672700D8C3AD
:103610002147DC42B18BE39EE7FE6FC01FA9EFC2DA
:103620003FA8139445000D8C0A040D8C1A040D8CD0
:10363000A1652E94AA84418011E602A523130500FA
:103640006FC0BFA6C167FD176316F60023140500FF
:1036500062A1FDB73285A285EFC0DFA5FE204181C2
:103660006397A7009A24B307A440E30BF7FC420535
:103670004181098C4204BE204180EAA082A4637388
:10368000F500AAA0DE20E37DF4FAC2A055BF01A098
:1036900097D1FF1F93810118138101FF17150000B7
:1036A0001305C59297D5FF1F9385059617D6FF1F63
:1036B0001306469663FAC5008322050023A0550031
:1036C00011059105E3EAC5FE17D5FF1F1305859483
:1036D0009385C1E96377B500232005001105E36DEB
:1036E000B5FEB722000093820288739002308D42AB
:1036F0007390428097D2FFFF9382C29093E2320090
:1037000073905230EFF09FE397F2FFFF938242DE17
:103710007390123473002030B7270140938707401D
:10372000631EF500EFC2DF97854513050020252BAA
:10373000814513050020052B6FC03F9782805C41B7
:103740003707F1FF1307F7EF7D8FDC419441A207A4
:10375000D58FD98F5CC11C4537F7F1FF1307D77F91
:10376000D4457D8F9C49D58F94458606D58FD98FBA
:103770001CC55C55370710FF7D177D8FDC29FD17B1
:1037800093F7F70FD207D98F5CD582801C4589C586
:1037900093E717001CC58280F99BEDBF1C4589C5C6
:1037A00093E707101CC5828093F7F7EFE5BF1C4530
:1037B00093E787001CC5828008450D8105898280BA
:1037C0001C4593E747001CC582800845098105898F
:1037D00082801C4591C537075000D98F1CC5828057
:1037E0003707B0FF7D17F98FD5BFA54763F8B7043A
:1037F000138765FF931717008322C500BA971D43EF
:103800003313F3001343F3FF33735300B397F600FE
:10381000B3E767005CC5994763E3C7047D16931758
:1038200026003E965859FD47B397C70093C7F7FF48
:10383000F98FB395C500DD8D4CD982809397150023
:1038400003230501AE971D473317F7001347F7FF12
:1038500033776700B397F6005D8F18C96DBFB14726
:1038600063E2C7026516931726003E961859FD4776
:10387000B397C70093C7F7FFF98FB395C500DD8DE8
:103880000CD982804D161317260054553A96FD47E1
:10389000B397C70093C7F7FFF58FB395C500DD8DCC
:1038A0004CD582801C4141677917F98F1CC12320B8
:1038B00005002322050023240500B7070240232624
:1038C0000500138787006317E500D8431367F700E7
:1038D000D8C382801387C7016316E500D8431367F6
:1038E000070FFDB7138707036318E500D843856604
:1038F000938606F0558FE9BF138747046315E500EB
:10390000D843BD66C5BF138787056316E500D84356
:10391000B7060F00C5B71387C7066316E500D8437F
:10392000B706F000C1BF13870708E314E5FAD843D0
:10393000B706000FC1B71841E177BD0794517D8FDD
:103940009C45D58F9449D58FD449D58F944DD58F2B
:10395000D44DD58FD451D58F9455D58FD98F1CC1C7
:10396000DC455CC19C411CC5DC415CC582801C41BE
:1039700089C593E717001CC1828041677917F98FC9
:10398000DDBFB707674537270240938737125CC30F
:10399000B797EFCD9387B79A5CC3828037270240F1
:1039A0001C4B93E707081CCB8280B7270240C84F07
:1039B000058105898280372702405C470545858B54
:1039C00091E748474189133515000D058280EFC204
:1039D0002FED2A84EFF03FFE85476319F50019E0CB
:1039E000154531A0EFF03FFD7D14FDB775D86FC0D0
:1039F000CFEBEFC2EFEAEFF05FFB814419E19304F4
:103A0000500A37050B00EFF09FFC11476312E506E3
:103A1000B707674537240240938737121CC4B7970E
:103A2000EFCD9387B79A1CC41C4837050B0093E76A
:103A300007021CC81C4893E707041CC8EFF03FF9B5
:103A400011476311E5021C48096593F7F7FD1CC88F
:103A50001C4893E707011CC8B707002023909780F4
:103A6000EFF0FFF695476305F5001C48BD9B1CC8A9
:103A70006FC0AFE3EFC2CFE27111AA8409652EC017
:103A8000EFF0FFF491478245631EF502B7076745E3
:103A900037240240938737121CC4B797EFCD938722
:103AA000B79A1CC41C48C205C18193E707011CC812
:103AB0008EA00965EFF0BFF195476305F5001C483E
:103AC000BD9B1CC811016FC04FDEEFC26FDD7111CD
:103AD0002AC0EFF01FEBB7066745B7270240938671
:103AE000361294D7B796EFCD9386B69A94D7D4472B
:103AF00071767D160245F18ED4C711676315E50016
:103B0000D847498FD8C7EFF07FE911016FC0EFD9CF
:103B1000944593F7060193F2F60081C7DC41B3E2C6
:103B2000F20083D3050093F7F30FA5C30323050029
:103B3000611122C226C081471304800293048004CD
:103B400005473316F70033F7C3006312E602939577
:103B500027003D473317B7001347F7FF337367005C
:103B6000B395B20033E36500639D860050C98507B5
:103B70002147E397E7FC124423206500824421019A
:103B80008280E39696FE10C9DDB7828023ACA1E85F
:103B9000828083A681E9854718216390F6021C3153
:103BA000639CD7023C219A0793E707F8B7E600E049
:103BB00093F7F70FBA962380F64085469357570040
:103BC0003397E600544189CE938707048A07B7E606
:103BD00000E0B69798C38280EDF33C219A07F9B7CD
:103BE00093870706E5B7371702401C430E0593F786
:103BF00077F05D8D08C38280B7160240DC424177C2
:103C00001307F77FF98F5D8DC8C2828099C537177A
:103C100002405C4B5D8D48CB8280B7170240D84B89
:103C20001345F5FF798DC8CB828099C537170240BF
:103C30001C4F5D8D08CF8280B7170240984F134507
:103C4000F5FF798D88CF828099C5371702405C4F88
:103C50005D8D48CF8280B7170240D84F1345F5FFDE
:103C6000798DC8CF828099C5371702405C475D8D3A
:103C700048C78280B7170240D8471345F5FF798DB2
:103C8000C8C78280371702405C53B7060001D58F42
:103C90005CD382801E2137370140130707C0C2075B
:103CA000C1836306E500370700406316E500BA21CB
:103CB00093F7F7F8D98FFA2193F7F7CFC207C183AB
:103CC000D98F1EA1DE215EB59E211EB5B7370140FA
:103CD000938707C06314F5009C251EB985475EA92C
:103CE00082801E31922103D32500C207C183F99B34
:103CF000C207C1831EB11E3156211A2DC207C183CE
:103D0000420741831377C7F8518F9225F59BC2066E
:103D100033666600D18F37360140130606C0C18274
:103D20006310C502B225DD9B03D3E500D18FD221FC
:103D3000ED9B93F6F6CFD18FD22533666600D18EF8
:103D400056A11AADFA2158D91EB182801E2189C50B
:103D500093E717001EA18280C207C183F99BC207A7
:103D6000C183CDBF8357450491C52167D98F2312E5
:103D7000F5048280C607C583DDBF1E2189C593E790
:103D800007081EA18280C207C18393F7F7F7C20715
:103D9000C183C5BF1E2DC207C183DD9BDD8D0EAD66
:103DA000828093C5F5FFC205C1810EA98280B3C789
:103DB000A5008D8B3307C50081E78D4763E7C702F8
:103DC000AA87637EE50A942185078505A38FD7FE20
:103DD000E3EBE7FE8280942185078505A38FD7FE5C
:103DE000E3EBE7FE02441101828093763500AA8757
:103DF00089CA942185078505A38FD7FE93F63700DE
:103E0000C5BF9376C7FF138606FE63F5C70671111B
:103E100022C0C04903A3050083A38500C0CB804D09
:103E200023A0670003A3450080CFC04D23A26700F5
:103E300083A2C50003A3050193854502C0CF03A457
:103E4000C5FF23A4770023A6570023A86700938704
:103E5000470223AE87FEE3EEC7FAE3F3D7F89041BB
:103E60009107910523AEC7FECDBF90419107910503
:103E700023AEC7FEE3EBD7FEE3E7E7F48280828060
:103E8000520C00006C0C0000820C0000980C00002A
:103E9000A80C0000440D0000B00C0000CC0C000089
:103EA000E40C0000020D0000180D00002E0D0000B3
:103EB00000000100030007000F001F003F007F000B
:103EC000FF00FF01FF03FF07FF0FFF1FFF3FFF7F03
:103ED000FFFF0000AA1400000E150000501500009E
:103EE0006A1500008215000082150000821500008E
:103EF0008215000082150000821500007A1500006E
:103F00004C160000661700008216000066170000BD
:103F10009E16000066170000BA1600006617000023
:103F20004C16000016170000661700009C170000D2
:103F3000661700007A170000661700007E17000061
:103F4000661700008C170000161700006C1A00009E
:103F50007A1A0000BA1A0000D61A0000EE1A000001
:103F6000FE1A0000181B0000181B0000181B0000A0
:103F7000181B0000101B00000200040008001000C5
:103F800020004000800001003FFFFFFFFFF3FFFF24
:103F9000FF3FFFFFFFFFF3FFFFFF3FFFFFFFFFF3C9
:103FA000FFFFFF3FF3FFFFFF3000000000030000B2
:103FB000003000000000030000003000000000039B
:103FC000000000300300000001000000FFFF0000BF
:103FD000006CDC020000FFFFFFFFFFFFFFFFFFFFA1
:103FE000FFFFFFFFFFFFFFFFFFFFFFFFFFFFFFFFE1
:103FF000FFFFFFFFFFFFFFFFFFFFFFFF1101252076
:00000001FF
