:100000006F00E04B00000000B4000000B6000000EC
:1000100000000000000000000000000000000000E0
:1000200000000000000000000000000000000000D0
:10003000BC04000000000000BC0400000000000040
:10004000BC040000BC040000BC040000BC040000B0
:10005000BC040000BC040000BC040000BC040000A0
:10006000BC040000BC040000BC040000BC04000090
:10007000BC040000BC040000BC040000BC04000080
:10008000BC040000BC040000BC040000BC04000070
:10009000BC040000BC040000BC0400000000000020
:1000A000511126C022C206C4828282441244A24058
:1000B0003101828001A001A0B7270240D847058BFB
:1000C00075FF984BC176FD16758F98CB82803727C8
:1000D00002405C47858BF5FF1145828071113D67B9
:1000E000231101001307F7A53C816374F700110188
:1000F00082803C818507C207C1837C81F5B7EFF21E
:100100003FFA371702401C4F51113714014093E753
:1001100017011CCFE137B7878488938787441CC0B9
:100120009307900E1CC85D3FB707002003D7070058
:10013000AD67A9076306F702B747000803A7C7FF23
:10014000B707252093871711631CF7001C44A18B68
:1001500081CBB707EFBE37E700E0938707083CC7BE
:10016000B707002003C747809306F00F9387018DE0
:100170006387E6129AA337170240B706200054CFD0
:10018000371601401842FD76BD06758F8966C11687
:10019000558F18C23757004083564740C206C18268
:1001A00093F606FC93E606032312D74083560740D6
:1001B000C206C182F99AC206C1822310D7409306B3
:1001C0002003231ED7408356074093E616002310D2
:1001D000D74083560740C206C18293F656BF93E6C6
:1001E00006402310D7409E2391668607D58FC2070D
:1001F000C1832314F7408357074093E71700231068
:10020000F740B757004093870740DA2B1384218DBE
:10021000098B630B0710962F239B018C1387818D0D
:1002200023200700918AF9E285471EA0B7570040B6
:1002300003D74741938707401377070479D3938601
:10024000618D8A2B9E22B705002093858500338619
:10025000F5008507C207C1831387618D9EA208A29E
:10026000A1463AC0E39FD7F89C41938481809CC00B
:10027000DC4113074008DCC09C216381E714636EF6
:10028000F70A13072005638EE70E13076005638CDA
:10029000E71082472390070023AC018C51A8130775
:1002A00000069AA3371701401847058B01E713078B
:1002B00010069AA33717014018471377070201E782
:1002C0009A2309079AA337170140184713770704A1
:1002D00001E79A2311079AA33717014018471377AC
:1002E0000708E31A07E89A23210769B5894616A08B
:1002F000B706002083C6860096AB85471CC33756D9
:100300000040835746411306064093F70708E38AE7
:1003100007EE1387818D144393878180B6979C23C2
:1003200085061EAA14C3F1BD1A208547E300F7F025
:100330001A208947E317F7ECD9B71307100A63822D
:10034000E70A1307400A6385E70A13075008E39298
:10035000E7F41387418D06239307F00BE3EB97F245
:10036000858FC207C1839946E3F5F6F213850181B3
:1003700026951D46850581249D041387418D06A37E
:1003800009BFB747000803A7C7FFB7072520938712
:100390001711E310F7F0B707EFBE37E700E09387D8
:1003A00007083CC7FDB5B7473038938767259CC021
:1003B000B737303493872724DCC0E1BDA4219C31BA
:1003C000A204BE94BC31C204C180138501813E8663
:1003D000269591053EC2C5229247BE94239A918CE0
:1003E0004DBD114685052800F922A2479C43E9B777
:1003F0009C3105476386E70481CB1147E39BE7E81F
:100400005D2201458D2271B537076745B72402404B
:1004100013073712B797EFCDD8C09387B79ADCC0D0
:10042000D8D0DCD06D319C4893E747009CC89C48ED
:1004300093E707049CC861399C48ED9B9CC891BD1B
:10044000BE21C1667C84DE217C85B7270240984BA3
:10045000A244558F98CB984BB706080093F404FC40
:10046000558F98CB9139014713860181B7270240F8
:10047000944BC1653305E600CD8E94CB0841B3861D
:10048000E4003AC288C2944B37050400C98E94CB6D
:1004900025311247930600041107B727024013863F
:1004A0000181C165E314D7FC984B4D8F98CBC4CB29
:1004B000984B1367070498CB0131E1BB01A097016A
:1004C00000209381A134138181FF13058068970573
:1004D0000020938565B317060020130626B363FA40
:1004E000C5008322050023A0550011059105E3EA0C
:1004F000C5FE17050020130565B19385C18D63778F
:10050000B500232005001105E36DB5FEB7220000FC
:1005100093820288739002308D42739042809702DA
:100520000000938222AE93E2320073905230970221
:100530000000938202BD7390123473002030B7071D
:10054000674537270240938737125CC3B797EFCDD3
:100550009387B79A5CC38280372702401C4B93E78E
:1005600007081CCB8280EFF2BFB371112AC0C13FD4
:10057000B7066745B72702409386361294D7B796D9
:10058000EFCD9386B69A94D7D44771767D160245FF
:10059000F18ED4C711676315E500D847498FD8C7D6
:1005A000653F110119B6371702405C53B7060001C9
:1005B000D58F5CD38280B3C7A5008D8B3307C50070
:1005C00081E78D4763E7C702AA87637EE50A942126
:1005D00085078505A38FD7FEE3EBE7FE8280942194
:1005E00085078505A38FD7FEE3EBE7FE02441101E3
:1005F000828093763500AA8789CA9421850785056C
:10060000A38FD7FE93F63700C5BF9376C7FF138637
:1006100006FE63F5C706711122C0C04903A3050099
:1006200083A38500C0CB804D23A0670003A34500B2
:1006300080CFC04D23A2670083A2C50003A305019C
:1006400093854502C0CF03A4C5FF23A4770023A64A
:10065000570023A867009387470223AE87FEE3EE87
:10066000C7FAE3F3D7F890419107910523AEC7FE8F
:10067000CDBF90419107910523AEC7FEE3EBD7FEB6
:08068000E3E7E7F482808280C9
:02068800000070
:00000001FF
