:1000000000010400000000000402000004020000DF
:1000100004020000040200000402000004020000C8
:1000200004020000040200000402000004020000B8
:1000300004020000040200000402000004020000A8
:100040000402000004020000040200000402000098
:100050000402000004020000040200000402000088
:100060000402000004020000040200000402000078
:100070000402000004020000040200000402000068
:100080000402000004020000040200000402000058
:100090000402000004020000040200000402000048
:1000A0000402000004020000040200000402000038
:1000B0000402000004020000040200000402000028
:1000C0000402000004020000040200000402000018
:1000D0000402000004020000040200000402000008
:1000E00004020000040200000402000004020000F8
:1000F00004020000040200000402000004020000E8
:1001000004020000040200000402000004020000D7
:1001100004020000040200000402000004020000C7
:1001200004020000040200000402000004020000B7
:1001300004020000040200000402000004020000A7
:100140000402000004020000040200000402000097
:100150000402000004020000040200000402000087
:100160000402000004020000040200000402000077
:100170000402000004020000040200000402000067
:100180000402000004020000040200000402000057
:100190000402000004020000040200000402000047
:1001A0000402000004020000040200000402000037
:1001B0000402000004020000040200000402000027
:1001C0000402000004020000040200000402000017
:1001D0000402000004020000040200000402000007
:1001E00004020000040200000402000004020000F7
:1001F00004020000040200000402000004020000E7
:100200002F8020000E7F24000E01880000000000D7
:10021000000020000000E000020032000001200089
:100220002002880014000700790007000000E000A9
:1002300003003A00E0242000010020000200370003
:100240000000200001002000810F7000010032003A
:1002500014000700000020000000E000020032004F
:100260000000020000000000100202000000000078
:100270000040DA000000FE004440A90020002000F9
:100280000000E00003003200100020009001880010
:100290004440A800000006008A1F78008B1F7800E9
:1002A00000000600A1028800800478000000EB0036
:1002B0001F003700E284440054A0B4009905BA003E
:1002C000E284440054A0B4009906BA00E2844400D9
:1002D00054A0B4000006EB00476FDE00FD07B2003B
:1002E000AE018800636CE10003003A00EAFF0700FA
:1002F0000000EB000E003700606CE10008003A00DF
:10030000004DEB000A05E800020039003420EC0043
:100310000AF0A0008B05E900F9FF3E000400370059
:100320006168E100010032000086EB000B0007006D
:1003300019C7BA001905BA000E04E00003003A001C
:100340000A00E000DBFF3A0000000600FE07B200F2
:10035000AE0288008A047800F5FF37000CD0A300B5
:10036000E20F4D001C00390089027800354DBA00BB
:100370000A05E800020039003420EC000AF0A00071
:100380008B05E9000F003200254DBA000A05E80090
:10039000020039003420EC000AF0A0008B05E900CF
:1003A000080032000C00E0000600320015CDBA0053
:1003B0000A05E800020039003420EC000AF0A00031
:1003C0008B05E9008984E80054A0B4000B00E0002C
:1003D000E2FF3A00000006009902BA00055D7800CD
:1003E0008B05E900F7FF3200C82ADE00055D7800C2
:1003F0008B05E900F3FF32000C00E000F1FF320052
:1004000019DDBA00EEFF37000040DA000000FE0000
:10041000000005000000FA000000FE00FEFF3700AB
:100420000600FA00AA24EF00100480000080A0005B
:10043000100488006000B800008FBE000000EB00D0
:1004400020079800000024001000BA002007980040
:100450002E00900000408800200024001000BA0008
:100460008000EB00008FBE001E00BE00C000DD005B
:1004700000002000008FBE00014080001E007800B8
:100480000080400000408800004080000000010023
:10049000100020000080FA000000060000080000A4
:0C04A000020000008000000000000000CE
:108000000048040000000000E44D00002C4E000079
:10801000704E0000064E00004E4E0000924F0000D1
:10802000924F0000924F0000924F0000924F0000CC
:10803000924F0000A24D000008490000924F00003E
:10804000924F0000AE4D0000924F0000924F000092
:10805000924F0000FE4E0000924E00006C4F000058
:10806000924F0000924F0000924F000028490000FC
:10807000924F0000924F0000924F0000924F00007C
:10808000924F0000924F0000924F0000924F00006C
:10809000924F0000924F0000924F0000924F00005C
:1080A000924F0000924F0000924F0000924F00004C
:1080B000924F0000924F0000924F0000924F00003C
:1080C000924F0000924F0000924F0000924F00002C
:1080D000924F0000924F0000924F0000924F00001C
:1080E000924F0000924F0000924F0000884B00001A
:1080F000924F0000924F0000924F0000924F0000FC
:10810000924F0000924F0000924F0000924F0000EB
:10811000924F0000924F0000924F0000924F0000DB
:10812000924F0000924F0000924F0000564F000007
:10813000924F0000924F0000924F0000924F0000BB
:10814000924F0000924F0000924F0000924F0000AB
:10815000924F0000924F0000924F0000924F00009B
:10816000924F0000924F0000924F0000924F00008B
:10817000924F0000924F0000924F0000924F00007B
:10818000924F0000924F0000924F0000924F00006B
:10819000924F0000924F0000924F0000924F00005B
:1081A000924F0000924F0000924F0000924F00004B
:1081B000924F0000924F0000924F0000924F00003B
:1081C000924F0000924F0000924F0000924F00002B
:1081D000924F0000924F0000924F0000924F00001B
:1081E000924F0000924F0000924F0000924F00000B
:1081F000924F0000924F0000924F0000924F0000FB
:109000006F1323000E7F24000E0188000000000073
:10901000000020000000E0000200320000012000FB
:109020002002880014000700C00307000000E000D1
:1090300003003A0060F3290001002000020037001D
:109040000000200001002000810F700001003200AC
:1090500014000700000020000000E00002003200C1
:1090600000000200000000009EAF020000000000AF
:109070000040DA000000FE004440A9002013200058
:109080000000E00003003200002020009001880072
:109090004440A800000006008A1F78008B1F78005B
:1090A00000000600A1028800800478000000EB00A8
:1090B0001F003700E284440054A0B4009905BA00B0
:1090C000E284440054A0B4009906BA00E28444004B
:1090D00054A0B4000006EB00476FDE00FD07B200AD
:1090E000AE018800636CE10003003A00EAFF07006C
:1090F0000000EB000E003700606CE10008003A0051
:10910000004DEB000A05E800020039003420EC00B5
:109110000AF0A0008B05E900F9FF3E0004003700CB
:109120006168E100010032000086EB000B000700DF
:1091300019C7BA001905BA000E04E00003003A008E
:109140000A00E000DBFF3A0000000600FE07B20064
:10915000AE0288008A047800F5FF37000CD0A30027
:10916000E20F4D001C00390089027800354DBA002D
:109170000A05E800020039003420EC000AF0A000E3
:109180008B05E9000F003200254DBA000A05E80002
:10919000020039003420EC000AF0A0008B05E90041
:1091A000080032000C00E0000600320015CDBA00C5
:1091B0000A05E800020039003420EC000AF0A000A3
:1091C0008B05E9008984E80054A0B4000B00E0009E
:1091D000E2FF3A00000006009902BA00055D78003F
:1091E0008B05E900F7FF3200C82ADE00055D780034
:1091F0008B05E900F3FF32000C00E000F1FF3200C4
:1092000019DDBA00EEFF3700F8B8040000000000D6
:109210003600F800809FBE00829FBE00849FBE0083
:10922000869FBE000000FA0060710200000000008E
:109230008880A9000080FA004F03BE004F02BE00E4
:109240004F01BE004F00BE003600F900004006008E
:109250003600F800809FBE00829FBE00849FBE0043
:10926000869FBE000000FA008A20A900F124800039
:1092700000082000008060000000E00008003200CC
:109280009EE4A9000828EF007040800020009000B4
:109290008000EB00010878000E28EF001501370070
:1092A000404080008000EB00B2002000030020005E
:1092B000820F5000838F580003013E0000600100C0
:1092C0000B00370039003700770037009E00370069
:1092D000F9003700CC003700DE003700F600370019
:1092E000E0003700F8003700340037005100370045
:1092F0000080200020009000620060000000E0007C
:10930000FB003A00008020001000900070408800B0
:109310000080200010009000104078000AE8B7009C
:109320000080200010009000100090006040880035
:109330000080200010009000E60040000080200027
:10934000110098000080200090009000200F230062
:10935000808F500003003A0000802000C10E2300DF
:109360001100980000802000A00090000100A100E2
:1093700021009800008020009000900000802000D4
:1093800010007800808F500004003A000080200018
:10939000A00090000110A000210098009A04A800ED
:1093A0002000200040408800D20037009A24A80006
:1093B0002000200040408800CE003700F1248000CB
:1093C00000002800008060000000E000090032007A
:1093D00000802000604090008040E8000080200075
:1093E000614098004000200034AC02000000000002
:1093F000C0003700804080008000D100F00F2000C6
:1094000000806000B024880080408000610060001F
:10941000004078000004E00003003200B0002000AB
:1094200040408800B30037003000200040408800F2
:10943000B0003700F12480000000280000806000A8
:109440000000E00009003200008020006040900031
:109450008040E8000080200061409800400020002B
:1094600034AC020000000000A20037009A24A800DB
:10947000804080004800DE00E6006000000F200011
:109480000100700080408800804080000000A00043
:109490008040880010C0B30012E8B7002000200010
:1094A000404088009300370012C8BF00E14F5000D1
:1094B0000A00320060408000100078008040880080
:1094C0006040800020009000A04088006040800044
:1094D0002040900016E8B700010037001268EF0046
:1094E00081408000F00F2000808F5000090036007E
:1094F000804080004800DE00E6006000000F200091
:1095000001007000B0248800A000200040408800C6
:109510007800370080408000B024880080408000C0
:1095200061006000004078000004E00003003200A9
:1095300050002000404088006E00370030002000BE
:10954000404088006B003700F124800000002800B4
:10955000008060000000E0000A003200008020006F
:10956000604090008040E80000802000614098004A
:109570009FE4A9005000200034AC0200000000006D
:109580005C00370016C8BF008080FB008100E90046
:10959000CF08DE00814078000040E90016E8B700FF
:1095A0000104E000110032006040800066004000CD
:1095B000604088000AC8BF000040E9000AE8B70020
:1095C0000AC8BF000004E00004003A0020002000A8
:1095D00034AC020000000000460037009A24A800C6
:1095E000200020004040880042003700A04080005A
:1095F000904078008180FB00B12488000000E800E2
:10960000A04088003B003700F124800000002800C3
:10961000008060000000E0000A00320000802000AE
:10962000604090008040E800008020006140980089
:109630004000200034AC0200000000009FE4A900BC
:109640002C0037009A64A800800020004040880069
:109650002800370080002000404088009A64A8005D
:1096600024003700A0408000A124800081407800C1
:10967000014878000000E800A040880016C8BF003C
:109680000040E90016E8B70016C8BF000004E0007B
:10969000040032009AA4A900600020004040880025
:1096A000030037009AA4A80012AC020000000000DA
:1096B0009A84A8000F0037002000200034AC02007C
:1096C000000000000B003700008020006040900088
:1096D0008040E80000802000614098006000200089
:1096E00034AC020000000000000000000100370060
:1096F000000000000080FA004F03BE004F02BE00D1
:109700004F01BE004F00BE003600F90000400600C9
:10971000809FBE00821F78000400FA0030C6B300AC
:109720001AE8B7008E20A900004180001141800096
:1097300061004000E080480000418800114188003D
:1097400070258000700060000000E000050032001D
:109750001BC8BF00E74F5000F1003E001B68EF0040
:10976000F4003700C0408000E20F5000CA00320011
:10977000E20F500003003900E30F5000B800320040
:10978000E6003700712580000002200000806000A4
:109790000000E0000D00320051258000000820008C
:1097A000008060000000E0000500320071258000AC
:1097B00000202000008060000000E00003003A006C
:1097C0001DC8BF000004E000670032007025800063
:1097D000640060000000E0002E003A0010C0B300FA
:1097E0001AE8B700712580000000220000806000A8
:1097F0000000E0001800320010C0B3001DE8B70000
:10980000B0C0B3001AE8B70020258000004F7800F0
:10981000AAA4A90031C8BF000004E000090032007A
:1098200032C8BF000004A2000004E00005003200BE
:10983000A0C0B30034E8B700C0C0B3001AE8B70056
:1098400003003700AB84A800D0C0B3001AE8B7000B
:109850001C68EF00480037001D68EF0020258000DD
:10986000004F780010002000C040880030C0B300D6
:109870001AE8B70071258000000220000080600017
:109880000000E0003B00320010C0B3001EE8B7004B
:109890003900370050C3B3001AE8B70071258000C3
:1098A00000002200008060000000E000180032008C
:1098B00010C0B3001DE8B70050C0B3001AE8B700ED
:1098C00020258000004F7800AAA4A9001C68EF00A2
:1098D00031C8BF000004E0000900320032C8BF00F8
:1098E0000004A2000004E00005003200A0C0B300A4
:1098F00033E8B70030C3B3001AE8B7008D00370073
:10990000AB84A80040C3B3001AE8B7001A003700C0
:1099100060C0B3001AE8B70020258000004F78002F
:10992000AAA4A9001CC8BF000080FB00611023008E
:10993000614078000080FB00302588001CC8BF0013
:10994000E64F500003003E001CC8BF000040E80086
:109950001CE8B7003268EF00AB84A80020002000AC
:10996000C04088000400370040C6B3001AE8B700C2
:109970000100370000000000C0408000E10F5000EF
:1099800069003A00C0C0B3001AE8B7007125800032
:1099900000022000008060000000E000640032004F
:1099A000D0C0B3001AE8B700712580000004200081
:1099B000008060000000E00023003A00E0C0B30037
:1099C0001AE8B7001EC8BF000004E00003003A0018
:1099D0001DC8BF000004E000020032001E68EF0056
:1099E000540037001BC8BF00E74F500013003E0073
:1099F000AAA4A90020258000104798001BC8BF001A
:109A00000080FB00E10F23001E419000827078006F
:109A10001BC8BF000040E8001BE8B7001BC8BF0020
:109A2000E84F500003003A0010C0B30031E8B7001F
:109A3000400037003168EF003E00370020258000ED
:109A4000204798003B00370020258000004F780019
:109A5000AEC4A900F0C0B3001AE8B7003500370063
:109A600020C1B3001AE8B70010C0B30028E8B7005F
:109A70005EC8BF000004E0000400320030C1B30043
:109A80001AE8B70020258000004F78001000200061
:109A9000C0408800270037007125800000002800A2
:109AA000008060000000E00012003A00AAA4A900B3
:109AB0001CC8BF000080FB006110230061407800DB
:109AC0000080FB00302588001CC8BF00E64F500016
:109AD00003003E001CC8BF000040E8001CE8B700BF
:109AE0003268EF00AB84A80000C1B3001AE8B700E9
:109AF000100037001828EF001CC8BF00E74F5000C7
:109B000003003E0010C1B3001AE8B7000900370097
:109B100010CBB3001AE8B70006003700FFFF37008C
:109B200000000000030037000000000001003700C3
:109B3000000000000080FA004F0178004F00BE00D6
:109B4000004006000000FA008860A900C121A900B9
:109B50009421EF000080FA00004006003600F80073
:109B6000809FBE00829FBE00849FBE00869FBE0075
:109B70000000FA00504280000000E00002003200C5
:109B80005042800000000100301323001040780094
:109B90008040E800301323000148780020132300A0
:109BA00011C0B3000148780088E0A9000080FA00E5
:109BB0004F03BE004F02BE004F01BE004F00BE006B
:109BC0003600F900004006003600F800809FBE0015
:109BD000829FBE00849FBE00869FBE000000FA00E8
:109BE0008020A9000000EB0096BC020000000000ED
:109BF0000080FA004F03BE004F02BE004F01BE00BE
:109C00004F00BE003600F900004006003600F800A4
:109C1000809FBE00829FBE00849FBE00869FBE00C4
:109C20000000FA00A6BC0200000000008040A9006D
:109C30001000200096BC0200000000000080FA0026
:109C40004F03BE004F02BE004F01BE004F00BE00DA
:109C50003600F900004006003600F800809FBE0084
:109C6000829FBE00849FBE00869FBE000000FA0057
:109C70008060A9002000200096BC020000000000C7
:109C80000080FA004F03BE004F02BE004F01BE002D
:109C90004F00BE003600F900004006003600F80014
:109CA000809FBE00829FBE00849FBE00869FBE0034
:109CB0000000FA008080A9003000200096BC02005D
:109CC000000000000080FA004F03BE004F02BE00FB
:109CD0004F01BE004F00BE003600F90000400600F4
:109CE0003600F800809FBE00829FBE00849FBE00A9
:109CF000869FBE000000FA008600A90070002000C8
:109D000096BC0200000000000080FA004F03BE0075
:109D10004F02BE004F01BE004F00BE003600F900EA
:109D200000400600809FBE000000FA00817D810097
:109D3000707D8100808F500010003A00917D81007D
:109D400000102000008060000000E0000B003A00DE
:109D500000000000D11C8000001020000080600086
:109D60000000E000FBFF3200907D81000090A00029
:109D7000907D89009980A9001D0037008980A90085
:109D800014003700807D8100104078000080FB00C7
:109D9000E01C8800807D81000000E800807D890053
:109DA000817D810040FF2200808F500002003A0038
:109DB00040FB2200807D8900907D81000080A10011
:109DC000907D8900817D8100707D8100808F5000B1
:109DD00006003200D11C80000020200000806000BE
:109DE0000000E000E7FF3200010037000000000043
:109DF0000080FA004F00BE0000400600809FBE00B9
:109E00000000FA008960A90021003700F01C8000E2
:109E10000040780060E8B700507D81000186200096
:109E20009140780001487800104380002143800071
:109E300061004000E0804800104388002143880012
:109E4000507D81000000E800507D8900517D810037
:109E500040072300808F500002003A0040FF22009C
:109E6000507D8900907D81000010A100907D8900C7
:109E7000517D8100607D8100808F500004003A0098
:109E8000907D81000000A000907D890004003700D3
:109E9000D01C8000610060000000E000DBFF3A00A1
:109EA0000080FA004F00BE0000400600801F7800CE
:109EB0000000FA00D01C8000620060000000E0009A
:109EC000010032009A23A9009020A9000080FA0026
:109ED0004F00780000400600809FBE003200F8006E
:109EE0003400F80010002000A001880000202000AD
:109EF000900188000000FA00410480000000220068
:109F0000008060000000E0000100320089A0A9008C
:109F10000080FA003400F9003200F9004F00BE0062
:109F2000004006000040DA000000FE0000000500CE
:109F3000839F68000100E00002003D006000100007
:109F4000E08018000300E00002003D006001110005
:109F5000E08119006B0007004F00E00002003B00A9
:109F600060001000E0801800000006000001BE0044
:109F70001B0007000470A70003F0A10003F8A30072
:109F800013003A006509B1001000320009003500E5
:109F90006928E100020035000100280000000500EA
:109FA00000004000818048008502E900FCFF3A0083
:109FB00000000600F88F4200050035008100D10046
:109FC0000080D3008502E800FCFF3A000000060094
:109FD0008000EB00000005006011B8005900370058
:109FE000C70ADE00F107B200F50FB2000800320028
:109FF000E1CF4200020032000170A0002400050001
:10A00000810F7000010032000408050044000500C3
:10A01000810F700002003A00140005008502E9007B
:10A020000000400081C04800FCFF3B000170A00020
:10A0300024000500889FBE008A9FBE008C1F780008
:10A04000950007009C00330003866C006450E1001B
:10A05000240032006420E100270032006150E1005A
:10A06000220032006120E100210032008B85420095
:10A07000EB07B1000134B800003AB8000804420010
:10A0800089844A00013AB8000030B8008880400056
:10A0900009014A00040033000000400081804800AC
:10A0A000020149008B05E900C909DD008301700048
:10A0B0000100320013002000C814DE004814DD0047
:10A0C0004709DE001200B200C808DE0008847000F4
:10A0D0004B00070001F0A1000CF0A70001F0A00068
:10A0E0007E0037006120E100800032000801BE00E0
:10A0F0000200BE00F7FF37006150E100FCFF3A00AC
:10A100007A0037006022B800060220000000D0006C
:10A110008180D2000482D2008582D2000000A0009B
:10A120000202520083825A00030031000202420000
:10A1300083824A000000A1000603E900F3FF3A0011
:10A1400000000600889FBE008A9FBE00008270004B
:10A150000402710004827100260032000004BE0077
:10A160000200BE006011B8006B09200095022000BB
:10A170000182CF000A0039000541B1000082CF0002
:10A18000070039000541B1000982CF000400390001
:10A190000541B1000882CF00010039000541B1003E
:10A1A00005425200120032000A003B008281710019
:10A1B000610164008100D1000080D3008984D30054
:10A1C0000884D3008B05E8000442E800F7FF3A005A
:10A1D000070037000804440089844C000000480050
:10A1E000818048008B05E9000442E900F9FF3A004C
:10A1F000030007004F05BE004F04BE00000006002C
:10A2000081002000618055000B003D000B00200004
:10A2100061FE2F000100E1001D0034008281710009
:10A22000610164008904D1000884D3000000E800C3
:10A23000FAFF3A0071002000610064000300700022
:10A24000020060000900320061044400E0844C0018
:10A250000988A500050032008B05E8006808E100C8
:10A2600002003A008904D1000884D300F20F2000D4
:10A270000258E10005003D00C75DDD00F907B200AE
:10A280008980750008007800000006000BF82700A0
:10A290008B007800000005000004BE0050FF07009E
:10A2A0000003BE000405BE000200BE004CFF070014
:10A2B000844F7500000006000200BE006450E100FB
:10A2C000050036006420E100020036000968A300A2
:10A2D00001003A000800BE000160A0004F067800AF
:10A2E0004F05BE004F04BE0000000600F0FF2F0027
:10A2F000F1FF2700F9FF37008001780002003700E6
:10A30000B15978000201E9000200E000FCFF3A00C8
:10A3100000000600800178000200370081597800B3
:10A320000201E9000200E000FCFF3A000000060024
:10A330000000000001000000020000000400000016
:10A3400008000000000000000000000010000000F5
:10A35000000000002000000040000000800000001D
:10A3600000010000000200000004000000080000DE
:10A3700000100000002000000040000000800000ED
:10A3800002000000000000000000000000000000CB
:10A3900000000000040000000800000000000000B1
:10A3A000100000000000000000000000000000009D
:10A3B000000000000000000000000000000000009D
:10A3C000000000000000000000000000000000008D
:10A3D0000001000001010000010000000001000078
:10A3E0000001000001010000010100000101000066
:10A3F0000101000001010000020000000100000056
:10A40000020000000400000008000000040000003A
:10A4100008000000100000001000000020000000F4
:10A420004000000080000000000100000002000069
:10A4300000040000000800000010000000200000E0
:10A440000040000000800000010200000304000042
:10A4500005FF0000FFFF0000FFFF0000FFFF0000FE
:10A46000FFFF0000FFFF00000807000006090000D2
:10A470003F0600005B4F0000666D00007D07000096
:10A480007F670000777C0000395E00007971000072
:10A4900000000000000000000000000000000000BC
:10A4A00000000000000000000000000000000000AC
:10A4B00000020000221000006D6400001002000085
:10A4C000390F00000110000004400000104A000095
:10A4D0003F0600005B4F0000666D00007D07000036
:10A4E0007F67000010100000184800000C100000EA
:10A4F000107700007C3900005E790000717D00005B
:10A50000763000001E76000038540000545C0000D5
:10A5100073670000506D0000781C00001C1C0000D8
:10A52000766E00005B390000640F00002308000015
:10A53000207700007C3900005E790000717D00000A
:10A54000763000001E76000038540000545C000095
:10A5500073670000506D0000781C00001C1C000098
:10A56000766E00005B390000300F00000100000033
:10A570002A0A00000482000040A00000CF8A0000E8
:10A58000436800001A0D00000603000001000000EF
:10A59000000000000000FA0083E0A80000000000B6
:10A5A000000000000080FA00000006000000FA0031
:10A5B00083E0A90000000000000000000080FA0015
:10A5C000000006000200FA00D0C0B300004F78007F
:10A5D000A0C0B3001047980030C8BF000004E000DE
:10A5E00004003200210020000E0078007098020064
:10A5F000000000008100200060112300709802001C
:10A600000000000030C8BF000004E0000800320075
:10A61000210020000E007800709802000000000069
:10A62000210020000E007800709802000000000059
:10A630002F68EF000080FA00000006000200FA0018
:10A64000000F78006011230051C4B3000148780066
:10A65000711123001E00780030A6020000000000E7
:10A66000C011230051C5B30001487800D011230068
:10A6700051C5B30001487800C0418000E10F40009F
:10A6800002003A00C0FD2F00C0418800C041800098
:10A690000000E800C04188000080FA0000000600C9
:10A6A0002600FA00D04180000000E800D041880078
:10A6B000E0102300904078006011230001487800EA
:10A6C000F0102300904078007011230001487800BA
:10A6D0000011230090407800801123000148780089
:10A6E0001011230090407800901123000148780059
:10A6F0002011230090407800A01123000148780029
:10A700003011230090407800B011230001487800F8
:10A710004011230090407800C011230001487800C8
:10A720005011230090407800D01123000148780098
:10A73000E0102300104078000080FB006101B900A8
:10A74000F0FD2F00F1FF2F00020040008380480041
:10A75000D20D200003002000820F5000838F58008C
:10A76000A3043E0000600100A5043700A0043700E8
:10A770009F0437009E0437009D0437009C04370077
:10A780009B0437009A043700990437009804370077
:10A790009704370096043700950437009404370077
:10A7A0009304370092043700910437009004370077
:10A7B0008F0437008E0437008D0437008C04370077
:10A7C0008B0437008A043700890437008804370077
:10A7D0008704370086043700850437008404370077
:10A7E0008304370082043700810437008004370077
:10A7F0007F043700E20037007D0437007C04370017
:10A80000770137007A04370079043700780437007D
:10A810007704370076043700750437007404370076
:10A8200073043700850137007104370002023700D6
:10A830006F0437006E0437006D04370027023700BD
:10A840006B0437006A043700690437006804370076
:10A85000670437006604370065043700A00037003E
:10A860006304370062043700610437006004370076
:10A870005F0437005E0437005D0437005C04370076
:10A880005B0437005A043700590437005804370076
:10A890005704370056043700550437005404370076
:10A8A0005304370052043700510437005004370076
:10A8B0004F0437004E0437004D0437004C04370076
:10A8C0004B0437004A043700490437004804370076
:10A8D0004704370046043700450437004404370076
:10A8E0004304370042043700120237003E023700AB
:10A8F00056023700730237009A0237003C043700D3
:10A900003B0437003A043700390437003804370075
:10A910003704370036043700350437003404370075
:10A9200033043700AB023700BD023700D9023700CD
:10A93000F50237002E0437002D0437002C043700B1
:10A940002B0437002A043700290437002804370075
:10A950002704370026043700250437002404370075
:10A96000230437000C033700190337002004370095
:10A97000660337001E0437001D0437001C0437002F
:10A980001B0437001A043700190437001804370075
:10A990001704370016043700150437001404370075
:10A9A0001304370091033700AD033700C9033700A4
:10A9B000E5033700630337000D0437000C0437004C
:10A9C0000B0437000A043700090437000804370075
:10A9D0000704370006043700050437000404370075
:10A9E0000304370002043700010437000004370075
:10A9F000FF033700FE033700FD033700FC03370079
:10AA0000FB033700F8033700F7033700F60337007E
:10AA1000F5033700F4033700F3033700F203370080
:10AA2000F1033700F0033700EF033700EE03370080
:10AA3000ED033700EC033700EB033700EA03370080
:10AA4000E9033700E8033700E7033700E603370080
:10AA5000E5033700E4033700E3033700E203370080
:10AA6000E1033700E2033700E1033700E00337007A
:10AA7000DF033700DE033700DD033700DC03370078
:10AA8000DB033700DA033700D9033700D803370078
:10AA9000D7033700D6033700D5033700D403370078
:10AAA000D3033700D2033700D1033700D003370078
:10AAB000CF033700CE033700CD033700CC03370078
:10AAC000CB033700CA033700C9033700C803370078
:10AAD000C7033700C6033700C5033700B703370085
:10AAE000F010230090407800C0C4B30080CF500025
:10AAF000C5033A00001123009040780090C4B300D1
:10AB000080CF5000C2033A0010112300904078001B
:10AB1000E0C4B30080CF5000BF033A0020112300EF
:10AB20009040780050C4B30080CF5000BC033A007E
:10AB3000301123009040780020C4B30080CF500033
:10AB4000B9033A004011230090407800B0C4B3002C
:10AB500080CF5000B6033A00501123009040780097
:10AB600010C3B30080CF500003003A0010C0B30000
:10AB700030E8B700B30337003068EF00B1033700A7
:10AB8000F010230010407800E0A502000000000053
:10AB9000204F98002E4890006A00B900000078000D
:10ABA000204F98000011230010407800E0A502001B
:10ABB00000000000AE48900000C04000204F980008
:10ABC0001011230010407800E0A5020000000000F2
:10ABD0000080FB008000EB00600798007107980080
:10ABE0007E0090006A00B900000178006E009000BD
:10ABF0006000B9000000780000014100EE00900004
:10AC0000A00020000008B800010141008200780087
:10AC10006007980071079800600798007107980016
:10AC20002011230010407800E0A502000000000081
:10AC30000080FB008000EB006E019000FE019000A0
:10AC40000200400083804800600798007107980068
:10AC50007E0090006A00B900000178006E0090004C
:10AC60006000B9000000780000014100EE00900093
:10AC7000A00020000008B800010141008200780017
:10AC800060079800710798006007980071079800A6
:10AC90003011230010407800E0A502000000000001
:10ACA0000080FB008000EB006E019000FE01900030
:10ACB00002004000838048006007980071079800F8
:10ACC0007E0090006A00B900000178006E009000DC
:10ACD0006000B9000000780000014100EE00900023
:10ACE000A00020000008B8000101410082007800A7
:10ACF0006007980071079800600798007107980036
:10AD00004011230010407800E0A502000000000080
:10AD10000080FB008000EB006E019000FE019000BF
:10AD20000200400083804800600798007107980087
:10AD30007E0090006A00B900000178006E0090006B
:10AD40006000B9000000780000014100EE009000B2
:10AD5000A00020000008B800010141008200780036
:10AD600060079800710798006007980071079800C5
:10AD70005011230010407800E0A502000000000000
:10AD80000080FB008000EB006E019000FE0190004F
:10AD90000200400083804800600798007107980017
:10ADA0006E019000FE019000F0FF2F0001002000D6
:10ADB000800F5100818F590006003E006E00900008
:10ADC000800078002E489000DEB3020000000000F2
:10ADD0001C0337002000200018FE0700190337006D
:10ADE000F010230010407800E0A5020000000000F1
:10ADF000005798000E5090006A00B90000007800DB
:10AE0000005798000011230010407800E0A50200D0
:10AE1000000000008E50900000C0400000579800D5
:10AE20000E509000FEB302000000000091112300BC
:10AE300030A602000000000002033700F0102300DB
:10AE400010407800E0A5020000000000004F7800EC
:10AE50001E4078006A00B90000007800004F7800BA
:10AE60000011230010407800E0A50200000000005F
:10AE70001E4F400030C0B300104798006A003700F2
:10AE80001E4090000080FB00E1102300E1407800AC
:10AE900010C6B30080CF500011003A001E41780068
:10AEA000C1832000824878003CC8BF008080FB003E
:10AEB000800220000088B90080007800A08822006D
:10AEC00000804000A0438800E010230081CCB30044
:10AED00001487800429A0200000000004E0037004E
:10AEE0008040EB001E407800407A02000000000025
:10AEF0008040EB001E407800DAB402000000000041
:10AF00001E4090000080FB00E110230061407800AB
:10AF10000080FB00C1062000810F5000220032009B
:10AF2000C1062000810F50000A003C00810620006D
:10AF3000810F50002000320091062000810F500048
:10AF40001500320041062000810F5000220032001F
:10AF50002D00370051072000810F50001A003200E9
:10AF600051072000810F500004003C0031072000F1
:10AF7000810F50001C0032002300370071072000B1
:10AF8000810F50001C00320081072000810F50000B
:10AF9000200032001C0037001E407800907B020029
:10AFA000000000001C0037001E4078002C7E0200CC
:10AFB00000000000180037001E4078003A7E0200B2
:10AFC00000000000140037001E407800907B020053
:10AFD00000000000100037001E407800907B020047
:10AFE000000000000C0037001E407800AA93020009
:10AFF00000000000080037001E4078003A9302006D
:10B000000000000004003700300020008BFD070026
:10B0100001003700000000001E4090000040E800E2
:10B02000104798001E4FE8001E409000E74F500068
:10B0300093FF360083023700F01023009040780021
:10B0400050C6B30080CF500021003A000011230009
:10B050009040780030C5B30080CF50001C003A000B
:10B06000101123009040780050C6B30080CF5000EC
:10B0700017003A00201123009040780040C5B3002B
:10B0800080CF500012003A00301123009040780029
:10B0900010C2B30080CF50000D003A0040112300D1
:10B0A0009040780030C2B30080CF500008003A00D2
:10B0B0005011230090407800A0C2B30080CF500010
:10B0C00003003A0098AF0200000000005D02370064
:10B0D0004000200059FD07005A023700701123007C
:10B0E00031C5B300014878008011230011C3B300BB
:10B0F000014878009011230081C3B3000148780013
:10B10000A011230021C4B30001487800B01123002E
:10B1100021C3B30001487800C011230001C3B3006C
:10B1200001487800D011230031C3B30001487800F2
:10B1300044023700F010230010407800FEB30200F4
:10B1400000000000100F98001E089000804078005A
:10B1500080112300014878001E0890004800DE009E
:10B16000804078009011230001487800F0102300FF
:10B17000104078000040E800FEB30200000000002C
:10B18000100F98001E08900080407800A011230046
:10B19000014878001E0890004800DE0080407800DA
:10B1A000B011230001487800F0102300104078000F
:10B1B00000C0E800FEB3020000000000100F98007D
:10B1C0001E08900080407800C011230001487800DC
:10B1D0001E0890004800DE0080407800D011230057
:10B1E0000148780017023700001123001040780052
:10B1F0008080FB0010112300104078000080FB00CD
:10B200004800DD0080804000F010230010407800EE
:10B21000DEB302000000000030112300104078006F
:10B220008080FB0040112300104078000080FB006C
:10B230004800DD008080400020112300104078008D
:10B24000DEB3020000000000FE013700F010230012
:10B25000104078008080FB0000112300104078002F
:10B260000080FB004800DD0000804000200F9800B7
:10B27000AE089000F0FF2100808F5000EE013E00EC
:10B28000F1FF21002E089000008050001007980068
:10B290001E009000E70F50000200360070002000F2
:10B2A00010079800AE089000A08820008080400021
:10B2B000701123001E0190007C510200000000006C
:10B2C000E0013700F0102300104078008080FB0080
:10B2D00000112300104078000080FB004800DD00D2
:10B2E0000080400040438800101123001040780087
:10B2F0000080FB00300F98003E089000E40F5000E3
:10B300000300360070002000CCFC0700CD013700A0
:10B31000414380003E08900080804000F0FF210003
:10B32000808F50000C003E0021112300424380001A
:10B33000A0882000000041003E0990007C510200DE
:10B3400000000000414380003E0890000080400063
:10B3500040438800BB01370080002000B7FC070095
:10B36000B801370041438000F0FF2100808F50007A
:10B37000B3013E0040438000F1FF210000805000F7
:10B38000400F98004E089000E60F50000E00360067
:10B3900070002000400F9800F1102300424380000D
:10B3A000A0882000000041004E0990007C5102005E
:10B3B00000000000414380004E08900000804000E3
:10B3C000404388009F013700900020009BFC07004D
:10B3D0009C01370000112300104078008080FB00A2
:10B3E00010112300104078000080FB004800DD00B1
:10B3F00080804000F0102300104078000081FB00A6
:10B4000000112300104078000080FB004800DD00A0
:10B4100000004100EEA70200000000008901370093
:10B42000F0102300104078008080FB000011230002
:10B43000104078000080FB004800DD0000804000E4
:10B44000504388000040EB00404798000B00370055
:10B450004E4090000080FB0064004000E11023009B
:10B46000E1407800504380001AA90200000000006B
:10B470004E4090000040E800404798001011230023
:10B48000904078004E40900080CF5000F0FF3E008A
:10B490006C013700F0102300104078008080FB0022
:10B4A00000112300104078000080FB004800DD0000
:10B4B00000804000504388000040EB005047980057
:10B4C0000B0037005E4090000080FB0064004000ED
:10B4D000E1102300E1407800504380001AA90200E7
:10B4E000000000005E4090000040E80050479800D7
:10B4F00010112300904078005E40900080CF5000F3
:10B50000F0FF3E004F0137000000EB0030079800CD
:10B510000040EB00004F9800130037000E489000E9
:10B520000080FB000080E80061112300E14078000A
:10B53000F0102300104078000081FB000011230070
:10B54000104078000080FB004800DD000000410052
:10B550001AA9020000000000300798000E48900071
:10B560000040E800004F9800101123009040780040
:10B570000E48900080CF5000030036003E0090003F
:10B580000000E000E5FF3200701123008E489000BB
:10B59000014878002B013700F0102300104078009C
:10B5A0008080FB0000112300104078000080FB0029
:10B5B0004800DD0000804000500F98005E089000B9
:10B5C0009040780090112300014878001D01370059
:10B5D000F0102300104078000081FB008001EB0098
:10B5E00000112300104078000082FB008002EB0075
:10B5F0004828DD00C820DE00810070004820DD0002
:10B60000020140008381480010112300104078009F
:10B610000080FB008000EB00C000DD000000200087
:10B62000020140008381480020112300104078006F
:10B630000080FB008000EB00C800DD00000020005F
:10B640000200400083804800600F9800710F98004E
:10B650000000EB00001798006E0890006100600089
:10B66000004078000004E00003003200A000200049
:10B67000F2FB0700F3003700CCFB0700A0028000BC
:10B68000206798006E089000FE0890004008DE00D9
:10B6900000007800A00288006E0890001000BA0038
:10B6A000001798000E10900080407800A011230031
:10B6B000014878000E1090004800DE0080407800BD
:10B6C000B0112300014878006E0890001080BA0085
:10B6D000001798002E6090000080FB00A0028800F8
:10B6E000ACFB07000E10900080407800C0112300D2
:10B6F000014878000E1090004800DE00804078007D
:10B70000D011230001487800CE003700F01023004C
:10B71000104078008080FB0000112300104078006A
:10B720000080FB004800DD000080400020179800EA
:10B730002E109000311123009140780001487800CC
:10B74000C0003700701123009040780020C5B3007E
:10B7500080CF500018003A008011230090407800FC
:10B7600050C4B30080CF500013003A009011230062
:10B770009040780030C5B30080CF50000E003A00F2
:10B78000A01123009040780050C4B30080CF500037
:10B7900009003A00B01123009040780040C5B30082
:10B7A00080CF500004003A003668EF0010C0B300AC
:10B7B00037E8B700A300370010C0B300104F98005F
:10B7C0000600370036C8BF000040E80036E8B70082
:10B7D0001E4890000040E800104F98001E4890005E
:10B7E000E74F5000F7FF360096003700F0102300B7
:10B7F000104078003A980200000000000011230079
:10B80000104078003A980200000000001011230058
:10B81000104078003A980200000000002011230038
:10B82000104078003A980200000000003011230018
:10B83000104078003A9802000000000040112300F8
:10B84000104078003A9802000000000050112300D8
:10B85000104078003A98020000000000790037009C
:10B86000CC9702000000000071112300804878008E
:10B87000CC9702000000000081112300804878006E
:10B88000CC9702000000000091112300804878004E
:10B89000CC97020000000000A1112300804878002E
:10B8A000CC97020000000000B1112300804878000E
:10B8B000CC97020000000000C111230080487800EE
:10B8C000CC97020000000000D111230080487800CE
:10B8D0005C003700F010230010407800D0BB02005D
:10B8E000000000000011230010407800D0BB0200CF
:10B8F000000000001011230010407800D0BB0200AF
:10B90000000000002011230010407800D0BB02008E
:10B91000000000003011230010407800D0BB02006E
:10B92000000000004011230010407800D0BB02004E
:10B93000000000005011230010407800D0BB02002E
:10B94000000000003F003700B2BB02000000000012
:10B950007111230080487800B2BB02000000000093
:10B960008111230080487800B2BB02000000000073
:10B970009111230080487800B2BB02000000000053
:10B98000A111230080487800B2BB02000000000033
:10B99000B111230080487800B2BB02000000000013
:10B9A000C111230080487800B2BB020000000000F3
:10B9B000D1112300804878002200370080088000E1
:10B9C00080407800701123000148780080088000D2
:10B9D0004800DE0080407800801123000148780094
:10B9E0001021EF0017003700AC00070015003700EA
:10B9F0005000200011FB070000000000110037007C
:10BA0000000000000F003700000000000D003700AC
:10BA1000000000000B0037000000000009003700A4
:10BA2000000000000700370000000000050037009C
:10BA30000000000003003700000000000100370094
:10BA4000000000000080FA00000006000600FA0076
:10BA500066C8BF000004E00054003A002EC8BF00D2
:10BA6000E74F50003D003E000040EB00404798008B
:10BA70002EC8BF000080FB00680010008000780026
:10BA80002EC8BF000081FB00E01023000000410031
:10BA900002980200000000004047980030C8BF0034
:10BAA0000004E000080032004E4090008080FB005F
:10BAB0002EC8BF000081FB00E01023000000410001
:10BAC0007098020000000000E182200091407800A0
:10BAD0004E40900000C040002EE8B700170037002D
:10BAE0000040EB00004F7800080037001E80FB008C
:10BAF0009E80FB008100E800E210230062C1780014
:10BB0000E1102300827078001E4FE8001E4078008C
:10BB1000E64F5000F5FF36002EC8BF000040E90098
:10BB20002EE8B70050418000614180006100400074
:10BB3000E080480050418800614188002EC8BF0065
:10BB40000004E00005003200E0102300904078007F
:10BB500050C5B30080CF5000E1FF32002EC8BF00B7
:10BB6000E74F500011003600CDFA07002E68EF00B5
:10BB70000000EB001007980008003700E1102300D8
:10BB80001E00900000804000E1CFB3000148780023
:10BB90001E0090000000E800100798001E009000B2
:10BBA000E70F5000F5FF340086FA070066C8BF00B3
:10BBB0000004E000370032001BC8BF00E74F500010
:10BBC000340036003268EF0082002000E10F2300CD
:10BBD000E01023007C510200000000001B68EF0011
:10BBE00034C8BF000004E000020032003368EF00F8
:10BBF000AB84A800AAFA0700F01023009040780058
:10BC000010C2B30080CF500008003A00E0102300BB
:10BC10009040780010C2B30080CF50000300320083
:10BC200035C8BF000040E80035E8B7005FFA0700FC
:10BC30008200200061112300601023007C5102006B
:10BC40000000000010C0B30032E8B7003168EF0018
:10BC500034C8BF000004E000020032003468EF0086
:10BC60003268EF0033C8BF000004E0000800320073
:10BC700032C8BF000004E000050032003368EF0066
:10BC80003468EF00AB84A8003268EF001C68EF0056
:10BC900040FA07000080FA00000006000200FA00E7
:10BCA000F0102300104078003CE8B7003CC8BF000B
:10BCB0008080FB00800220000088B90080007800AE
:10BCC000A088220000804000A04388003CC8BF003C
:10BCD000F34F500052003E00001123001040780046
:10BCE0000080FB00CF80DE00620120000300200006
:10BCF000820F5000838F580045003E000060010015
:10BD00001F003700420037002F00370019003700AE
:10BD10003F003700110037003D0037002700370093
:10BD20003B0037003A0037000F0037002F00370084
:10BD30003100370036003700350037003400370057
:10BD40000C003700320037001900370009003700B7
:10BD50002F0037001F0037002A003700A87F02009D
:10BD6000000000002F0037008AB20200000000002F
:10BD70002C003700C68F02000000000029003700A9
:10BD8000F0102300104F7800A04380008040EB00AB
:10BD90006160980010112300104078008040780006
:10BDA0001E407800067C0200000000001D003700E5
:10BDB000D89C0200000000001A0037001EB50200E7
:10BDC0000000000017003700429A02000000000047
:10BDD000140037000040EB001E7E0200000000004F
:10BDE0003CC8BF0070E8B7000E0037001C690200B5
:10BDF000000000000B003700AE61020000000000F0
:10BE000008003700FE8A020000000000050037002D
:10BE10003000200009FA0700000000000100370090
:10BE2000000000000080FA00000006000000FA0098
:10BE3000F623EF0090002000C01F8800FC23EF00D5
:10BE40000424EF0080002000402088000A24EF0036
:10BE50000C24EF000E24EF0010422800A01F8800E1
:10BE60000080FA00000006000000FA00EFFF070063
:10BE70003CC8BF0071C0B30066780200000000003B
:10BE80000080FA00000006000000FA00A0438000D5
:10BE90004000900001C02F0001087800A0438000FE
:10BEA000C00090008180E800410098000080FA0006
:10BEB000000006000000FA00A0438000400090004F
:10BEC00001002E0001087800A0438000C00090000F
:10BED0008180E800410098000080FA000000060020
:10BEE0000800FA0020079800310798002E00900003
:10BEF000BE0090004008DE00004F78002E00900049
:10BF0000BE0090004809DD004800DE00000071001E
:10BF1000C808DE00104798002E00900020479800C7
:10BF20002E009000BE009000E00F5000E08F5800FF
:10BF300019003A00DFFF0700DEFF0700DDFF070002
:10BF4000DCFF0700DBFF0700DAFF0700D9FF07006F
:10BF5000D8FF0700D7FF0700D6FF0700D5FF07006F
:10BF6000D4FF0700D3FF0700D2FF0700D1FF07006F
:10BF7000D0FF0700CFFF0700CEFF0700CDFF07006F
:10BF8000CCFF0700CBFF0700CAFF0700C9FF07006F
:10BF9000C8FF0700BC0037001E4090000004E0000E
:10BFA00002003D00B8FF070001003700C1FF070095
:10BFB0001E4090008080FB00000420000080600094
:10BFC0000000E00002003200AFFF07000100370070
:10BFD000B8FF07001E4090008080FB000002200098
:10BFE000008060000000E00002003200A6FF0700B1
:10BFF00001003700AFFF07001E4090000080FB00EB
:10C00000700060000000E000020032009EFF0700A8
:10C0100001003700A7FF07001E4090000080FB00D2
:10C02000680060000000E0000200320096FF070098
:10C03000010037009FFF07001E4090000080FB00BA
:10C04000640060000000E000020032008EFF070084
:10C050000100370097FF07001E4090000080FB00A2
:10C06000620060000000E0000200320086FF07006E
:10C07000010037008FFF07001E4090000080FB008A
:10C0800061006000004078000004E000020032001F
:10C090007DFF07000100370086FF07001E40780083
:10C0A0000004E00002003D0077FF070001003700B8
:10C0B00080FF07009E80FB000004200000806000DD
:10C0C0000000E000020032006FFF070001003700AF
:10C0D00078FF07009E80FB000002200000806000C7
:10C0E0000000E0000200320067FF07000100370097
:10C0F00070FF07001E80FB00700060000000E00081
:10C100000200320060FF07000100370069FF0700EE
:10C110001E80FB00680060000000E00002003200AA
:10C1200059FF07000100370062FF07001E80FB0077
:10C13000640060000000E0000200320052FF0700CF
:10C14000010037005BFF07001E80FB0062006000FB
:10C150000000E000020032004BFF07000100370042
:10C1600054FF07001E80FB00610060000040780063
:10C170000004E0000200320043FF07000100370026
:10C180004CFF07002E4090000004E00002003D003C
:10C190003DFF07000100370046FF07002E409000DA
:10C1A0008080FB0000042000008060000000E000B0
:10C1B0000200320034FF0700010037003DFF070096
:10C1C0002E4090008080FB00000220000080600074
:10C1D0000000E000020032002BFF070001003700E2
:10C1E00034FF07002E4090000080FB0070006000CC
:10C1F0000000E0000200320023FF070001003700CA
:10C200002CFF07002E4090000080FB0068006000BB
:10C210000000E000020032001BFF070001003700B1
:10C2200024FF07002E4090000080FB0064006000A7
:10C230000000E0000200320013FF07000100370099
:10C240001CFF07002E4090000080FB006200600091
:10C250000000E000020032000BFF07000100370081
:10C2600014FF07002E4090000080FB00610060007A
:10C27000004078000004E0000200320002FF0700E6
:10C28000010037000BFF07000080FA0000000600E5
:10C290000200FA000040EB00004F78000900370070
:10C2A000A0438000400090008000EB00010878006F
:10C2B000A0438000C00090008180E8004100980009
:10C2C0001E4FE8001E407800E14F5000F4FF36009A
:10C2D0000080FA00000006000000FA00FE04A90039
:10C2E000A0438000405090008080FB0000032000AD
:10C2F0000088B90000007800302888000040200045
:10C3000020288800A1882000A043800050009000D1
:10C31000008040001028880000142000F0278800CA
:10C320000070220000288800FE04A800A0438000BE
:10C33000A2882000A1438000D1009000810041002C
:10C34000410098000080FA00000006000000FA009A
:10C35000FE04A9000080FA00000006000C00FA00AC
:10C36000A043800030448800E01023001040780093
:10C370000080FB00B10C2000810F5000F50032005E
:10C38000B10C2000810F50000A003C00910C2000ED
:10C39000810F500058003200910C2000810F500096
:10C3A000CF003C00810C2000810F50000E003200B5
:10C3B000A0013700D10C2000810F5000360132005F
:10C3C000D10C2000810F50001C013500E10C200031
:10C3D000810F50005D013200F10C2000810F5000F0
:10C3E0007701320093013700A04380001111230030
:10C3F000914078000181FB002111230091407800D9
:10C400008180FB00C808DD008100410051009800D8
:10C41000A04380000100280061009800A043800034
:10C420008040EB0001589800A043800031112300A8
:10C430009140780041509800A0438000A2882000DD
:10C44000A1438000D100900081004100410098008C
:10C45000A04380008040EB0051509800A043800032
:10C460008040EB0061509800A04380008000EB000A
:10C4700071009800A04380008040EB00715098004C
:10C48000A04380008080EB0001089800A04380005A
:10C490008000EB00110898007DFF07000040EB00D2
:10C4A000004F7800030037006000B8008CFE0700E2
:10C4B0001E4FE800A0438000405090009E4F500067
:10C4C000F9FF3E00A0438000A2882000A143800025
:10C4D000D10090008100410041009800A0438000FD
:10C4E000C1C0B30061609800727F020000000000CC
:10C4F0005DFE070055013700A0438000606090009A
:10C50000EC4F500072003A002011230010407800D8
:10C510000081FB008001EB00301123001040780007
:10C520000082FB008002EB004828DD00C820DE000E
:10C53000810070004820DD00020140008381480036
:10C5400040112300104078000080FB008000EB00C9
:10C55000C000DD000000200002014000838148008F
:10C5600050112300104078000080FB008000EB0099
:10C57000C800DD0000002000020140008381480067
:10C58000F0FF2F00F10F2000020278000301780075
:10C590008001780001007800030262000000610061
:10C5A0008000EB00C000DD00000020000001BE00A4
:10C5B0006120B800000171008181710012079800AC
:10C5C00023079800A0438000500190001011230021
:10C5D000104078008080FB00000320000088B90034
:10C5E000000078000000410064004000300798001F
:10C5F0001011230090407800A0438000405090002C
:10C6000080CF500004003900E00020001E530200DB
:10C61000000000000D0137003E00900001032000E3
:10C620008080400000002200808F5000040036000F
:10C63000800020001E5302000000000003013700AC
:10C6400010112300104078000004E00005003A00BB
:10C65000A04380001E019000AE0190000288BE0041
:10C66000090037001011230010407800E14F5000FE
:10C6700005003A00A04380001E019000AE0190002A
:10C680002200980033009800A0438000A288200078
:10C69000BE00900081004100410098001E00900003
:10C6A000AE0090000EFE0700A0438000A28820008C
:10C6B000A1438000D100900081004100410098001A
:10C6C000A04380008000EB0071009800DF0037007D
:10C6D000D00020001E53020000000000DB003700E5
:10C6E000A043800060609000EC4F500015003A00BD
:10C6F0001011230090407800000320000088B9004A
:10C700000000780000407800E440400090112300D1
:10C710000148780010112300104078008080FB0051
:10C72000000320000088B900000078006400400089
:10C730004800DE0080407800A01123000148780006
:10C74000C2003700D00020001E530200000000008D
:10C75000BE003700A043800060609000EC4F5000A6
:10C7600032003A00A04380006001900020112300B5
:10C77000104078000080FB006300B9008001780061
:10C7800010112300104078000082FB00A0438000BD
:10C79000405090000080FB006300B900000078006A
:10C7A0000080E80000A0B90000007800008041008F
:10C7B000000041000080E800400798004E00900013
:10C7C000E300400000002200808F5000040036008B
:10C7D000800020001E530200000000009B00370074
:10C7E0003011230090407800A28820004E00900075
:10C7F00000004100014878004E0090000000E80071
:10C800004111230011417800A18820008270780036
:10C810004E0090000080E800511123001141780083
:10C82000A18820008270780088003700D0002000A6
:10C830001E5302000000000084003700A043800067
:10C8400060609000EC4F50000F003A00A043800061
:10C8500011112300914078000181FB002111230078
:10C86000914078008180FB00C808DD008100410014
:10C8700061009800A04380003111230091407800AE
:10C880000158980071003700D00020001E530200AC
:10C89000000000006D003700A04380006060900041
:10C8A000EC4F500025003A00A0438000600190004A
:10C8B00010112300104078008081FB00A04380000D
:10C8C000405090000080FB006300B9000000780039
:10C8D0000080E8000098B9000000780000004100E6
:10C8E000500798005E0090008080E8000000220061
:10C8F000808F500004003600800020001E5302008C
:10C900000000000051003700201123009040780003
:10C91000A28820005E0090000000410001487800DD
:10C920005E0090000000E800311123001141780002
:10C93000A18820008270780044003700D0002000D9
:10C940001E5302000000000040003700A04380009A
:10C9500060609000EC4F500015003A001011230069
:10C9600010407800E34F50000D003E00A0438000CF
:10C97000111123009140780071509800A04380006D
:10C9800070509000E34F50002F003A00A043800009
:10C990002111230091407800215898002B00370086
:10C9A000100120001E530200000000002700370085
:10C9B000D00020001E5302000000000023003700BA
:10C9C000A043800060609000EC4F500015003A00DA
:10C9D000A043800011112300914078000181FB00E9
:10C9E00021112300914078008180FB00C808DD0000
:10C9F0008100410011089800A043800031112300FC
:10CA0000914078000181FB004111230091407800A2
:10CA10008180FB00C808DD0081004100010898000A
:10CA20000A003700D00020001E5302000000000062
:10CA300006003700C00020001E5302000000000066
:10CA40000000000001003700000000000080FA0034
:10CA5000000006000A00FA00A0438000304488006D
:10CA6000A0438000700090000000E000040032004D
:10CA7000A0438000F00090008100E9007100980060
:10CA8000A0438000F0009000A04380004050900040
:10CA90000080FB00808F500000013E00A04380001A
:10CAA000700090000000E000FC003200A043800015
:10CAB00070509000E24F500017003A00A0438000F1
:10CAC000F0009000A0438000405090000081FB00E7
:10CAD000A0438000605090000080FB0000005100E7
:10CAE000808F500009003A00A04380005050900011
:10CAF0000080FB00C200DD00400D230000804000EC
:10CB00001000BE00F6FC0700E40037006000B8002B
:10CB1000F3FC0700E1003700A04380007050900054
:10CB2000E14F500037003A00A043800060019000C0
:10CB3000A0438000105890008081FB00A04380003B
:10CB4000405090000080FB006300B90000007800B6
:10CB50000080E8000098B900000078000001410062
:10CB6000A0438000405090008080FB00A0438000E4
:10CB700070009000008050006300B9000000780051
:10CB800000004100008FE800A08820001E00400047
:10CB9000104078000081FB008001EB001E00E800DF
:10CBA000A1882000614078000082FB008002EB0039
:10CBB0004828DD00C820DE00810070004820DD002C
:10CBC00002014000838148001E80E800A188200007
:10CBD000614078000080FB008000EB00C000DD00B9
:10CBE00000002000020040008380480010079800E9
:10CBF000210798001E009000AE009000B8FC0700CE
:10CC0000A6003700A043800070509000E34F500012
:10CC1000A2003A00A0438000F0009000A0438000F2
:10CC2000405090000080FB00808F500088003A0048
:10CC3000A04380008040EB0031589800A043800062
:10CC400020589000FEB30200000000008000EB00BE
:10CC50003007980041079800A0438000000890002A
:10CC60006101B8003E009000CE009000800F51009E
:10CC7000818F590005003E00A0438000A143800041
:10CC8000C15090003158980071003700A0438000D7
:10CC9000100890006101B8003E009000CE009000A6
:10CCA000800F5100818F590004003900A04380009B
:10CCB0008040EB003158980065003700A0438000A9
:10CCC000100890000000E00004003A00A04380003B
:10CCD00000089000E10F400006003200A0438000F1
:10CCE00080089000A043800010089000808F5000C2
:10CCF0001E003A00A0438000405090000080FB00DE
:10CD00008000EB004E0190000091B9000201780014
:10CD1000BE019000019AB90084017800030141002E
:10CD2000BE0190000018B8000101410082007800A7
:10CD30003007980041079800300798004107980095
:10CD40003E009000CE0090004008DE000100200070
:10CD50003007980041079800A0438000BE00900073
:10CD6000814078003158980039003700A043800096
:10CD7000100890008000EB003E019000CE01900072
:10CD80000000510081805900300798004107980049
:10CD90003E009000CE009000C000DD0000002000AA
:10CDA0003007980041079800A04380008008900059
:10CDB000A043800010089000008050008000EB002D
:10CDC0000001BE003E009000CE00900082500200A4
:10CDD000000000003007980041079800A043800041
:10CDE000405090000080FB008000EB004E0190005E
:10CDF0000091B90002017800BE019000019AB900CB
:10CE00008401780003014100BE0190000018B800C1
:10CE10000101410082007800300798004107980026
:10CE200030079800410798003E009000CE00900027
:10CE30004008DE00010020003007980041079800FC
:10CE4000A0438000BE0090008140780031589800D7
:10CE5000A0438000405090008080FB00A0438000F1
:10CE60007000900080805000A043800030589000F7
:10CE70000080FB00808F500004003900A043800038
:10CE80001000BE0016FC070004003700A04380001D
:10CE9000B00090002000900011FC0700A04380002B
:10CEA000700090000000E00059003A0054C8BF0034
:10CEB000E14F400056003A0053C8BF00E14F400028
:10CEC00053003A00A043800070509000E24F5000A1
:10CED0001C003A00A0438000810C200071009800E3
:10CEE000A0438000E05090008140E800615098002D
:10CEF000A0438000E0509000A0438000405090008C
:10CF000080CF50003B003900A04380008040EB0000
:10CF100061509800A0438000D05090008140E8000C
:10CF200051509800A043800050509000E64F5000B0
:10CF300030003600A04380008040EB005150980044
:10CF40002C003700A043800070509000E14F50004B
:10CF500022003A00A043800000017800A38820004E
:10CF6000A043800060029000A04380001058900011
:10CF70008082FB00A0438000405090000080FB00B6
:10CF80006300B900000078000080E80000A8B90044
:10CF9000000078000000420000804100100078008E
:10CFA00070019800A0438000905890008140E800F4
:10CFB00011589800A043800090589000A043800032
:10CFC0000058900080CF50000A003A00A043800033
:10CFD0008040EB001158980006003700A043800005
:10CFE000A1438000C15090008180FB00EA80400096
:10CFF000710098003CC8BF0054E8B7003CC8BF00AF
:10D0000053E8B70098FB0700A1FC0700B2FC07003B
:10D0100031852000914078003CC8BF0080CF50008F
:10D020000E003A000128800000022000008060000D
:10D030000000E00009003200C4FC07003CC8BF004B
:10D040008040EB00667802000000000000C0EB00AA
:10D0500053E8B70000C0EB0054E8B7000080FA00C6
:10D06000000006000000FA00A04380003058900045
:10D070002C7E0200000000000080FA000000060084
:10D080000000FA003CC8BF008040EB00147D0200A5
:10D0900000000000A0438000305890008040EB006A
:10D0A000147D020000000000687F02000000000004
:10D0B000A0438000305890003A7E0200000000003B
:10D0C0000080FA00000006000400FA0020479800E3
:10D0D0000040EB00004F78001A0037003CC8BF004A
:10D0E0008040EB00147D0200000000002E40900004
:10D0F0000080FB00E100600010C0B3000100E00010
:10D1000001003C000040EB00A14380003159900039
:10D110008040780002407800147D0200000000008A
:10D120003CC8BF0011C0B300147D02000000000025
:10D130002E4090000080FB000000D10020479800A6
:10D140001E4FE8001E407800E74F5000E3FF360016
:10D150003CC8BF008040EB00147D020000000000CE
:10D16000A0438000305890002C7E02000000000098
:10D17000687F0200000000000080FA000000060046
:10D180000000FA00687F020000000000A043800059
:10D19000305890003A7E0200000000000080FA0043
:10D1A000000006000200FA000040EB00004F78008B
:10D1B0000D003700A0438000800078001E80FB0037
:10D1C00072004000E1407800A04380000001780038
:10D1D0001E80FB006C0040006240780080CF500051
:10D1E00005003A001E4FE8001E407800E54F500051
:10D1F000F0FF3600010037000000000000CCB30053
:10D200001E404000B0FF07001E4078000080FA007A
:10D21000000006000200FA00004F78001E4078006F
:10D22000E740600080C8B30000C07000A6FF0700A0
:10D230000080FA00000006000200FA00881F780053
:10D24000E0102300104078000080FB00B10C2000AB
:10D25000810F5000D1003200B10C2000810F50002E
:10D260000A003C00910C2000810F5000A100320008
:10D27000910C2000810F5000BB003C00810C20006D
:10D28000810F50000E00320037013700D10C200012
:10D29000810F50000D013200D10C2000810F500091
:10D2A000ED003500E10C2000810F50001401320028
:10D2B000F10C2000810F50001E0132002A013700BE
:10D2C00010112300104078000080FB00811E2D000B
:10D2D00061447800DE7A020000000000804F5400B4
:10D2E00007003200A043800011C0B30061609800C5
:10D2F000100020001E530200000000002001370033
:10D30000A04380001111230091407800315898000B
:10D31000A04380003058900011C0B300DAB402007E
:10D3200000000000A04380002111230091407800FC
:10D330008140E900EFC060008180FB00EF80600069
:10D34000F009900002FF2F000281610082807000CE
:10D3500071089800A04380003111230091407800AB
:10D36000EFC060008180FB00CC08DD00F009900078
:10D37000F2FF200002816100828070007108980035
:10D38000A0438000F008900000002F0000806000A3
:10D390000000E00007003200A0438000F008900089
:10D3A00000002F008080600000002100808F50006E
:10D3B00005003A00A043800041112300914078000D
:10D3C0000148780012003700A04380008040EB0045
:10D3D00001487800A04380008040EB001140980095
:10D3E000A04380008040EB0021409800A0438000D3
:10D3F0008040EB0031409800A04380008040EB006B
:10D4000041409800A04380008040EB0051409800CC
:10D41000A043800001CFB30021589800A0438000B2
:10D420005111230091407800EFC060008180FB0023
:10D43000EF806000C408DD00F0099000F2F02F00DA
:10D44000028161008280700071089800A043800012
:10D450007009900001F0200082807000710898002F
:10D46000A04380008040EB0041589800A04380001A
:10D470008000EB0041089800A043800080109000DD
:10D480000100A10001109800A04380008040EB0043
:10D49000515898000040EB00004F78000D00370015
:10D4A000A0438000800078001E80FB0000804000C8
:10D4B0009E40780061409800A04380008000780082
:10D4C0001E80FB00008040008040EB00215098004F
:10D4D0001E4FE8001E407800E54F5000F0FF360078
:10D4E000A0438000B1C0B3006160980024FF070032
:10D4F000A3003700A043800060609000EB4F500015
:10D5000015003A00A04380001111230091407800DB
:10D5100061409800A04380002111230091407800D1
:10D5200071409800A04380003111230091407800A1
:10D5300001489800A04380004111230091407800E9
:10D5400011489800A04380005111230091407800B9
:10D55000214898008A003700D00020001E530200A6
:10D560000000000086003700A0438000606090004B
:10D57000EB4F500005003A00A0438000111123003A
:10D5800091407800314898007D003700D00020009D
:10D590001E5302000000000079003700A043800005
:10D5A00060609000EB4F500027003A0010112300FC
:10D5B0009040780050C5B30080CF50000F0032007B
:10D5C000A0438000800078001011230010407800F4
:10D5D0006F406000674060006F4060000080FB00AB
:10D5E0006F0060004400DD00F1099000F2F02F00B0
:10D5F0000281610002007000F008980020112300F1
:10D600009040780050C5B30080CF50005B003200DE
:10D61000A043800021112300914078008180FB000D
:10D620008100EA00CF08DE00814078008180FB00A5
:10D63000E1806000001190000200A1008280700073
:10D64000011098004E003700D00020001E53020049
:10D65000000000004A003700A04380006060900096
:10D66000EB4F500015003A00A04380001111230039
:10D670009140780001487800A043800021112300E8
:10D680009140780011409800A043800031112300A0
:10D690009140780021409800A04380004111230070
:10D6A0009140780031409800A04380005111230040
:10D6B000914078004140980031003700D0002000B0
:10D6C0001E530200000000002D003700A043800020
:10D6D00060609000EB4F500005003A00A0438000CE
:10D6E0001111230091407800514098002400370028
:10D6F000D00020001E530200000000002000370070
:10D70000A043800060609000EB4F500005003A009D
:10D71000A0438000111123009140780041589800E7
:10D7200017003700D00020001E5302000000000048
:10D7300013003700A043800060609000EB4F500062
:10D7400005003A00A04380001111230091407800A9
:10D75000515898000A003700D00020001E530200E4
:10D760000000000006003700C00020001E53020029
:10D770000000000000000000010037000000000071
:10D780004F0478000080FA00000006001200FA0042
:10D7900010C0B300004F7800A0438000F008900054
:10D7A00000002F00008060000000E00049003A0007
:10D7B00000C3B300404F9800A043800010407800A1
:10D7C000FEB3020000000000EC0047008100E8000A
:10D7D00030A60200000000000040EB001047980057
:10D7E0003800370010C0B300204798001E4090005A
:10D7F0000080FB0000004700C048900000C3B30059
:10D8000080CF50001C003A00A04380000010900020
:10D81000610060000000E000190032001E40780046
:10D820000004E00016003200A04380007008900061
:10D830006F406000804078001E40900080CF500014
:10D840000F003200A0438000505890000004E00018
:10D850000B003A001E4090000080FB0081252D0047
:10D860009140780000004700414898000040EB00DC
:10D8700020479800020037000040EB00004F78007E
:10D880002E4090000004E0000B0032001E4090008B
:10D890000080FB009E4090008180FB0081004700DB
:10D8A000C14890008180FB0082232D00E2C07800F7
:10D8B00000004700414898001E4090000040E800EA
:10D8C000104798001E409000E54F5000C5FF3600FD
:10D8D000BB003700A0438000F008900000002F003C
:10D8E0008080600000002100808F500021003A00FD
:10D8F00000C2B300404F980000C2B300504F9800E0
:10D90000A043800010407800FEB302000000000039
:10D91000EC0047008180E800A8A70200000000009A
:10D920000040EB00304798000E0037003E4090006A
:10D930000080FB00BE4090008180FB00810047001A
:10D94000C14890008180FB0082232D00E2C0780056
:10D9500000004700414898003E4090000040E80029
:10D96000304798003E409000E54F5000EFFF3600F2
:10D9700093003700A0438000F008900000002F00C3
:10D980008080600000002300808F500013003A0068
:10D99000A043800010407800404F9800A0438000D2
:10D9A00010409000504F9800A0438000204090000D
:10D9B000604F9800A043800030409000704F980066
:10D9C000A04380004040900000579800A043800092
:10D9D000504090001057980079003700A043800015
:10D9E000F008900000002F008080600000002200FE
:10D9F000808F500021003A000040EB004047980023
:10DA00001A003700A0438000800078004E4090004C
:10DA10000080FB0061417800524798005E40900012
:10DA20000004E000060035005E4090000080FB002E
:10DA300081232D0061417800524798000300370090
:10DA40005E4090000074A100504798004E40900046
:10DA50000080FB0000004700DE4090004148980035
:10DA60004E4090000040E800404798004E40900033
:10DA7000E54F5000E3FF360051003700A04380001F
:10DA8000F008900000002F0080806000000024005B
:10DA9000808F50004A003A00A04380005040900020
:10DAA0000080FB006600B90080007800A043800081
:10DAB000104078000080FB0000804000800078006B
:10DAC000A0438000104090000080FB004800DD0073
:10DAD0000080400050079800A18820005E00900060
:10DAE0000080400010407800404F98005E00900099
:10DAF0000000E80050079800A18820005E00900018
:10DB00000080400010407800504F98005E00900068
:10DB10000000E80050079800A18820005E009000F7
:10DB20000080400010407800604F98005E00900038
:10DB30000000E80050079800A18820005E009000D7
:10DB40000080400010407800704F98005E00900008
:10DB50000000E80050079800A18820005E009000B7
:10DB60000080400010407800005798005E00900050
:10DB70000000E80050079800A18820005E00900097
:10DB8000008040001040780010579800A0438000AB
:10DB9000D04090008140E80051409800A0438000B0
:10DBA000D0409000A04380004040900080CF5000C3
:10DBB00003003900A04380008040EB0051409800F2
:10DBC000A0438000505890000004E0002D00320077
:10DBD0000242800013428000003820000100200033
:10DBE00002027800030178008001780001007800CB
:10DBF00003026200000061008000EB00C000DD0055
:10DC0000000020000001BE006120B800000171008A
:10DC100081817100E00F5100E08F590019003A0036
:10DC20000040EB006047980013003700A0438000DD
:10DC3000505890008080FB006E4090000080FB00F8
:10DC40000088DE0061006000004078000004E00011
:10DC5000060032006E4090000080FB0081252D0000
:10DC60009140780000004700414898006E409000C5
:10DC70000040E800604798006E409000E54F50007B
:10DC8000EAFF3600A0438000405890000004E00006
:10DC90001C0032000040EB0070479800160037006F
:10DCA000A0438000405890008080FB007E409000A0
:10DCB0000080FB000088DE0061006000004078000A
:10DCC0000004E000090032007E4090000080FB006C
:10DCD000FE4090008180FB0081004700C148900019
:10DCE0000174A00000004700414898007E40900069
:10DCF0000040E800704798007E409000E54F5000DB
:10DD0000E7FF36000040EB00004F9800120037009C
:10DD1000A0438000000178000E4890000080FB00C6
:10DD2000A1438000810178008E4890008180FB0033
:10DD3000E6804000E3C078008180FB00810047005E
:10DD4000C148900000004100414898000E489000F2
:10DD50000040E800004F98000E489000E54F50004A
:10DD6000EBFF36000080FA00000006000400FA0015
:10DD7000881F7800A043800020448800A0438000D2
:10DD8000205890000080FB00010F2000810F500000
:10DD900011003200010F2000810F500004003C00F0
:10DDA00060004000E50F5000FB003E0075003700AA
:10DDB000210F2000810F5000DC003200210F2000D5
:10DDC000810F50004B003500410F2000810F5000A3
:10DDD000E1003200F00037006CFE0700A043800035
:10DDE000A0509000A04380004048900080CF500099
:10DDF00038003A00A0438000B0509000A04380005B
:10DE00005048900080CF500032003A00A04380007C
:10DE1000C0509000A04380006048900080CF500028
:10DE20002C003A00A0438000D0509000A043800016
:10DE30007048900080CF500026003A00A043800038
:10DE4000E0509000A04380000050900080CF500030
:10DE500020003A00A0438000F0509000A0438000D2
:10DE60001050900080CF50001A003A00A04380006C
:10DE7000F008900000002F00808060000000240067
:10DE8000808F50000C003A00A043800078004000D2
:10DE9000A1438000A140900001487800A043800089
:10DEA000780040000000E800A1438000B1409000ED
:10DEB0000148780003003700A043800041012000A2
:10DEC00041089800A043800041CFB300215898003A
:10DED000B100370063FC070000C4B3007AFC070000
:10DEE00067FC0700A043800011CFB30021589800C1
:10DEF000A90037005BFC0700A04380000004780005
:10DF0000A8FC0700205C9800A043800020589000E7
:10DF1000E64F50009D003A0059FC0700A0438000E6
:10DF2000F008900000002F008080600000002400B6
:10DF3000808F50000C003A00A04380007800400021
:10DF4000A1438000A140900001487800A0438000D8
:10DF5000780040000000E800A1438000B14090003C
:10DF60000148780003003700A043800041012000F1
:10DF700041089800A043800041CFB3002158980089
:10DF8000850037000040EB0020479800A043800048
:10DF900080007800A0438000205890000080FB00A3
:10DFA0006C00400061417800224798002E409000AC
:10DFB00045FC0700A043800080007800A04380005B
:10DFC000205890000080FB0000804000AE40900090
:10DFD00021509800A0438000A05890008140E800A4
:10DFE0002158980010C0B30010479800A04380004B
:10DFF00020599000024F780010003700A0438000A5
:10E00000800078001E80FB0072004000E140780034
:10E01000A0438000000178001E80FB006C004000DF
:10E020006240780080CF5000030032000040EB00D7
:10E0300010479800080037001E4FE8009E80FB0044
:10E04000A0438000700890006F4060000080FB00DB
:10E05000808F5000E9FF3400A043800020589000DA
:10E060008080FB00A0438000700890006F4060003B
:10E070000080FB00808F500003003C001E40900099
:10E080000004E00043003200FDFB0700A0438000D5
:10E09000F008900000002F00808060000000240045
:10E0A000808F50000C003A00A043800078004000B0
:10E0B000A1438000A140900001487800A043800067
:10E0C000780040000000E800A1438000B1409000CB
:10E0D0000148780003003700A04380004101200080
:10E0E00041089800A0438000700890004800DE00BE
:10E0F000EF406000A0438000700890004400DE0004
:10E100006F40600080CF500004003200A0438000C8
:10E1100021CFB300215898001F003700A043800092
:10E1200041CFB300215898001B003700CDFB0700FA
:10E13000A0438000700890004400DE006F40600043
:10E1400034FC0700CEFB0700A043800041CFB300A2
:10E150002158980010003700A0438000400890002C
:10E160000000E00005003200A0438000C0089000DD
:10E170008100E9004108980007003700A0438000B3
:10E1800001CFB300215898000300370000000000C1
:10E1900001003700000000004F0478000080FA0002
:10E1A000000006000000FA00100020002026880071
:10E1B00000802000402688000080EB005026880068
:10E1C0004034200060268800003026007026880039
:10E1D000A0BA220080268800606620009026880071
:10E1E00000082000A02688008880A9004034200074
:10E1F000B026880000302600C0268800A0CA220071
:10E20000D0268800A0672000E026880000082000B3
:10E21000F026880089C0A90040312000002788002E
:10E220000030260010278800406620002027880044
:10E23000A0DA22003027880000082000402788004C
:10E240008B00A900403120005027880000302600B4
:10E25000602788008067200070278800A0EA2200DD
:10E260008027880000082000902788008C80A90063
:10E27000F424EF00F624EF00F824EF00FA24EF0076
:10E2800000082000E02788008DC0A900FE24EF00D0
:10E290000025EF000225EF000425EF000625EF0022
:10E2A0008FA0A900C5E4A800CC04A800D604A8004B
:10E2B000E004A800EA04A8000080FA0000000600BC
:10E2C0000000FA000080FA00000006000000FA00DA
:10E2D0000080FA00000006000000FA0041048000FF
:10E2E00000002400008060000000E0000300320015
:10E2F000667102000000000089C0A9000080FA00D9
:10E30000000006000000FA000080FA00000006008D
:10E310000000FA005104800000102000008060001E
:10E320000000E000030032008271020000000000E3
:10E330008B00A9000080FA00000006000000FA002F
:10E340000080FA00000006000000FA00600480006F
:10E35000700060000000E000030032009E710200C7
:10E36000000000008C80A9000080FA000000060078
:10E370000000FA000080FA00000006000000FA0029
:10E380006104800000002400008060000000E000C4
:10E3900003003200B8710200000000008DC0A90027
:10E3A0000080FA00000006000000FA000080FA0079
:10E3B000000006000000FA00710480000000220046
:10E3C000008060000000E00003003200D471020011
:10E3D000000000008FA0A9000080FA0000000600E5
:10E3E0000200FA00000F78001E007800E20F5000D3
:10E3F00012003200E20F500005003E000000E00075
:10E400000A003200E10F50000A003200130037000A
:10E41000E40F50000D003200E40F500009003900F5
:10E42000E50F50000B0032000C003700CC04A800B0
