:1000000000010400000000000402000004020000DF
:1000100004020000040200000402000004020000C8
:1000200004020000040200000402000004020000B8
:1000300004020000040200000402000004020000A8
:100040000402000004020000040200000402000098
:100050000402000004020000040200000402000088
:100060000402000004020000040200000402000078
:100070000402000004020000040200000402000068
:100080000402000004020000040200000402000058
:100090000402000004020000040200000402000048
:1000A0000402000004020000040200000402000038
:1000B0000402000004020000040200000402000028
:1000C0000402000004020000040200000402000018
:1000D0000402000004020000040200000402000008
:1000E00004020000040200000402000004020000F8
:1000F00004020000040200000402000004020000E8
:1001000004020000040200000402000004020000D7
:1001100004020000040200000402000004020000C7
:1001200004020000040200000402000004020000B7
:1001300004020000040200000402000004020000A7
:100140000402000004020000040200000402000097
:100150000402000004020000040200000402000087
:100160000402000004020000040200000402000077
:100170000402000004020000040200000402000067
:100180000402000004020000040200000402000057
:100190000402000004020000040200000402000047
:1001A0000402000004020000040200000402000037
:1001B0000402000004020000040200000402000027
:1001C0000402000004020000040200000402000017
:1001D0000402000004020000040200000402000007
:1001E00004020000040200000402000004020000F7
:1001F00004020000040200000402000004020000E7
:100200002F8020000E7F24000E01880000000000D7
:10021000000020000000E000020032000001200089
:100220002002880014000700790007000000E000A9
:1002300003003A00E0242000010020000200370003
:100240000000200001002000810F7000010032003A
:1002500014000700000020000000E000020032004F
:100260000000020000000000100202000000000078
:100270000040DA000000FE004440A90020002000F9
:100280000000E00003003200100020009001880010
:100290004440A800000006008A1F78008B1F7800E9
:1002A00000000600A1028800800478000000EB0036
:1002B0001F003700E284440054A0B4009905BA003E
:1002C000E284440054A0B4009906BA00E2844400D9
:1002D00054A0B4000006EB00476FDE00FD07B2003B
:1002E000AE018800636CE10003003A00EAFF0700FA
:1002F0000000EB000E003700606CE10008003A00DF
:10030000004DEB000A05E800020039003420EC0043
:100310000AF0A0008B05E900F9FF3E000400370059
:100320006168E100010032000086EB000B0007006D
:1003300019C7BA001905BA000E04E00003003A001C
:100340000A00E000DBFF3A0000000600FE07B200F2
:10035000AE0288008A047800F5FF37000CD0A300B5
:10036000E20F4D001C00390089027800354DBA00BB
:100370000A05E800020039003420EC000AF0A00071
:100380008B05E9000F003200254DBA000A05E80090
:10039000020039003420EC000AF0A0008B05E900CF
:1003A000080032000C00E0000600320015CDBA0053
:1003B0000A05E800020039003420EC000AF0A00031
:1003C0008B05E9008984E80054A0B4000B00E0002C
:1003D000E2FF3A00000006009902BA00055D7800CD
:1003E0008B05E900F7FF3200C82ADE00055D7800C2
:1003F0008B05E900F3FF32000C00E000F1FF320052
:1004000019DDBA00EEFF37000040DA000000FE0000
:10041000000005000000FA000000FE00FEFF3700AB
:100420000600FA00AA24EF00100480000080A0005B
:10043000100488006000B800008FBE000000EB00D0
:1004400020079800000024001000BA002007980040
:100450002E00900000408800200024001000BA0008
:100460008000EB00008FBE001E00BE00C000DD005B
:1004700000002000008FBE00014080001E007800B8
:100480000080400000408800004080000000010023
:10049000100020000080FA000000060000080000A4
:0C04A000020000008000000000000000CE
:108000000048040000000000444D0000884D0000BE
:10801000C44D0000624D0000A64D0000A4500000B9
:10802000A4500000A4500000A4500000A450000080
:108030002C500000164D00000C490000A450000018
:10804000545000001A4D0000A4500000A45000003D
:10805000A4500000484E0000E24D0000704F0000A8
:10806000A4500000A4500000A450000028490000C3
:10807000A4500000A4500000A4500000A450000030
:10808000A4500000A4500000A45000007C50000048
:10809000A4500000A4500000A4500000A450000010
:1080A000184F0000AE4E0000A4500000A450000085
:1080B000A4500000A4500000A4500000A4500000F0
:1080C000A4500000A4500000A4500000A4500000E0
:1080D000A4500000DC4F000004500000A450000039
:1080E000A4500000A4500000A4500000424B000027
:1080F000A4500000A4500000A4500000A4500000B0
:10810000A4500000A4500000A4500000A45000009F
:10811000A4500000A4500000A4500000A45000008F
:10812000A4500000A4500000A4500000A44E000081
:10813000664F0000A4500000A4500000A4500000AE
:10814000A4500000A4500000A4500000A45000005F
:10815000A4500000A4500000A4500000A45000004F
:10816000A4500000A4500000A4500000A45000003F
:10817000A4500000A4500000A4500000A45000002F
:10818000A4500000A4500000A4500000A45000001F
:10819000A4500000A4500000A4500000A45000000F
:1081A000A4500000A4500000A4500000A4500000FF
:1081B000A4500000A4500000A45000008C4F000008
:1081C000B44F0000A4500000A4500000A4500000D0
:1081D000A4500000A4500000A4500000A4500000CF
:1081E000A4500000A4500000A4500000A4500000BF
:1081F000A4500000A4500000A4500000A4500000AF
:109000008F4723000E7F24000E018800000000001F
:10901000000020000000E0000200320000012000FB
:109020002002880014000700490407000000E00047
:1090300003003A00002B2B00010020000200370043
:109040000000200001002000810F700001003200AC
:1090500014000700000020000000E00002003200C1
:10906000000002000000000052A202000000000008
:109070000040DA000000FE004440A900C0152000B6
:109080000000E00003003200002020009001880072
:109090004440A800000006008A1F78008B1F78005B
:1090A00000000600A1028800800478000000EB00A8
:1090B0001F003700E284440054A0B4009905BA00B0
:1090C000E284440054A0B4009906BA00E28444004B
:1090D00054A0B4000006EB00476FDE00FD07B200AD
:1090E000AE018800636CE10003003A00EAFF07006C
:1090F0000000EB000E003700606CE10008003A0051
:10910000004DEB000A05E800020039003420EC00B5
:109110000AF0A0008B05E900F9FF3E0004003700CB
:109120006168E100010032000086EB000B000700DF
:1091300019C7BA001905BA000E04E00003003A008E
:109140000A00E000DBFF3A0000000600FE07B20064
:10915000AE0288008A047800F5FF37000CD0A30027
:10916000E20F4D001C00390089027800354DBA002D
:109170000A05E800020039003420EC000AF0A000E3
:109180008B05E9000F003200254DBA000A05E80002
:10919000020039003420EC000AF0A0008B05E90041
:1091A000080032000C00E0000600320015CDBA00C5
:1091B0000A05E800020039003420EC000AF0A000A3
:1091C0008B05E9008984E80054A0B4000B00E0009E
:1091D000E2FF3A00000006009902BA00055D78003F
:1091E0008B05E900F7FF3200C82ADE00055D780034
:1091F0008B05E900F3FF32000C00E000F1FF3200C4
:1092000019DDBA00EEFF37000ABA040000000000C2
:10921000E2900400000000003600F800809FBE00CD
:10922000829FBE00849FBE00869FBE00AE85020066
:10923000000000008880A9004F03BE004F02BE005E
:109240004F01BE004F00BE003600F900004006008E
:10925000809FBE00829FBE008A20A9009EE4AB00D2
:109260001E003A00404080008000EB00EB0F5000F1
:10927000E08F58000C0036000668EC009A44A80005
:1092800050408000200090000000E000020032000A
:1092900061002000010878000828EF004F01BE009F
:1092A0004F00BE00004006000060010032003700A1
:1092B0002A00370062003700120037001E00370016
:1092C0008A003700990037001B0037007300370011
:1092D000E9FF37004C0037003F0037009EE4A9004B
:1092E0000828EF0050408000200090000008EB00AC
:1092F0000A28EF004F01BE004F00BE0000400600EC
:10930000E9FF37009E04E2008F00350011C8BF005E
:109310008040E90013812000814978000004E000CA
:10932000D0003A00600020000E28B4000C48ED0088
:109330000CE8B70009003A009A44A80050408000A9
:10934000200090000000E000D3FF32002100200048
:10935000010878000828EF00D0FF37009A24A80001
:1093600020002000404088004F01BE004F00BE009A
:1093700000400600CCFF37000428AB00C7FF3A00CE
:10938000104080005040880010417800C1802000CB
:109390008248780090019000734088006600400089
:1093A0001040880041442300810F50009300320098
:1093B0000408A9000008E3008B0032009A04A8000A
:1093C00020002000404088004F01BE004F00BE003A
:1093D00000400600B4FF37009E04E20071003D002B
:1093E0000668EC009A44A8005040800020009000DD
:1093F0000000E000A8FF32004100200001087800D2
:109400000828EF00A5FF37009E04E200F4FF3500B6
:10941000914080000100D100F00FB200B02488001C
:109420000108A3007B003200B0002000404088000B
:109430004F01BE004F00BE00004006009AFF3700FB
:1094400010C8BF00E14F500064003200714080003E
:10945000110078009040880021019000A24088000F
:10946000214190001381200082497800F10F2000F3
:10947000810F50006D003E00B02488000008A3005A
:109480006400320050002000404088004F01BE00C0
:109490004F00BE000040060083FF3700A12480007B
:1094A000A040800001587800A04088001148ED00DD
:1094B00011E8B7002F003A009AA4A800600020002D
:1094C0000E28B4000C48ED000CE8B70061003A002B
:1094D00040002000404088009A84A8004F01BE0050
:1094E0004F00BE00004006006FFF37009E04E20000
:1094F00025003D000668EC009A44A800504080001A
:10950000200090000000E000020032004100200036
:10951000010878000828EF009FE4A9004F01BE0071
:109520004F00BE00004006005FFF370080002000B3
:10953000404088009A64A8004F01BE004F00BE0062
:109540000040060058FF37000668EC009FE4A900C1
:109550009A44A80050408000200090000000E000E5
:109560004DFF320051002000010878000828EF006C
:109570004AFF37009AA4A9006000200040408800FC
:109580009A84A800D5FF37009A64A80080002000C4
:10959000404088004F01BE004F00BE000040060062
:1095A00041FF37009A24A800904080004800DE0068
:1095B00066006000100FB3009040880010C0B30038
:1095C00010E8B70020002000404088004F01BE0096
:1095D0004F00BE000040060033FF37001068EF0068
:1095E00090408000A1FF37000428A8009A04A8003A
:1095F000200020004040880073FF37006680500044
:10960000104088000408A9000008E3006BFF3A003E
:10961000F5FF370030002000404088004F01BE00B9
:109620004F00BE00004006001FFF37004800DE006C
:1096300066006000000FB300B0248800A000200086
:10964000404088004F01BE004F00BE0000400600B1
:1096500015FF370010002000404088009A84A800C1
:109660009EFF3700A0408000B080FB00B12488003E
:10967000A04088004F01BE004F00BE000040060021
:1096800009FF3700809FBE00829FBE0030C6B30036
:109690002AE8B7008E20A900804180009141800017
:1096A00061004000E08048008041880091418800CE
:1096B000AE84AB00060032002BC8BF00E74F50005D
:1096C000330036004F01BE004F00BE0000400600D0
:1096D000C1418000E28F500032003200460031006C
:1096E000AEA4AB0054003200AAE4AB00020032008A
:1096F000AF24AB0050003A002D48E2004E003A0083
:1097000040C6B3002AE8B700E18F5000EDFF3A00F1
:10971000C0C0B3002AE8B700AEA4AB00E9FF320036
:10972000D0C0B3002AE8B700AEC4AB0098003A003E
:10973000E0C0B3002AE8B7002E48E2008F003A00EC
:109740002D48E2008D003A002BC8BF00E74F5000C3
:1097500085003E00AAA4A900232580002BC8BF00D5
:109760000080FB0002452300037178002B68EC00A9
:109770002BC8BF00E84F5000750032001E68EF0094
:109780004F01BE004F00BE0000400600D0FF370072
:109790002B68EF004F01BE004F00BE0000400600E6
:1097A000CBFF3700AE04E20081003500AAA4A90077
:1097B0002CC8BF000080FB00814523006140780079
:1097C0000080FB00302588002CC8BF00E64F500009
:1097D00001003E002C68EC001F68EF00AB84A8007D
:1097E00000C1B3002AE8B7004F01BE004F00BE0021
:1097F00000400600B6FF3700E38F50000100320042
:10980000FFFF370020C1B3002AE8B70010C0B30043
:109810003AE8B70030C1B3002AE8B700202580003D
:1098200010002000C04188004F01BE004F00BE0064
:1098300000400600A6FF3700AE44AB0013003A001C
:1098400010C0B3002AE8B700AFA4AB00620032003A
:109850002DE8B700B0C0B3002AE8B700202580008B
:10986000AAA4A9001E48E2006C0032001F48E200D2
:109870006A003A00A0C0B30021E8B700C0C0B3003E
:109880002AE8B7002C68EF009FFF370050C3B300F1
:109890002AE8B700AFA4AB000F00320010C0B3003D
:1098A0002DE8B70050C0B3002AE8B700202580009B
:1098B000AAA4A9002C68EF001E48E20002003200B2
:1098C0001F48E2001A003200AB84A80040C3B30076
:1098D0002AE8B7008CFF370060C0B3002AE8B70061
:1098E00020258000AAA4A9002CC8BF000080FB008E
:1098F00081452300614078000080FB00302588000E
:109900002CC8BF00E64F500001003E002C68EC0060
:109910001F68EF00AB84A80020002000C041880031
:109920004F01BE004F00BE000040060068FF370038
:10993000A0C0B30020E8B70030C3B3002AE8B700E6
:109940004F01BE004F00BE000040060060FF370020
:10995000E2812000014978004F01BE004F00BE00A7
:10996000004006005AFF3700202580004F01BE004E
:109970004F00BE000040060055FF37002E68EF0084
:109980004F01BE004F00BE000040060050FF3700F0
:1099900020258000AEC4A900F0C0B3002AE8B700BB
:1099A0004F01BE004F00BE000040060048FF3700D8
:1099B0003828EF002CC8BF00E74F500011003E00D0
:1099C00010C1B3002AE8B7004F01BE004F00BE002F
:1099D000004006003EFF37002D68EF002025800084
:1099E00011002000C141880030C0B3002AE8B70050
:1099F000AEA4AB0044FF3200E282200001497800AF
:109A000041FF370010CBB3002AE8B7004F01BE007A
:109A10004F00BE00004006002DFF3700AB84A800B9
:109A2000D0C0B3002AE8B70096FF37008860A900CD
:109A3000004006003600F800809FBE00829FBE00F6
:109A4000849FBE00869FBE00D04280000000E000E0
:109A50000100320000000100504723001048E800D8
:109A600011C0B3000000E9000148780088E0A900B7
:109A70004F03BE004F02BE004F01BE004F00BE00AC
:109A80003600F900004006003600F800809FBE0056
:109A9000829FBE00849FBE00869FBE008020A900DA
:109AA0000000EB0008BC0200000000004F03BE00F5
:109AB0004F02BE004F01BE004F00BE003600F9004D
:109AC000004006003600F800809FBE00829FBE0066
:109AD000849FBE00869FBE00604023008007780000
:109AE00078004000000188008040A900100020009C
:109AF00008BC0200000000004F03BE004F02BE0081
:109B00004F01BE004F00BE003600F90000400600C5
:109B10003600F800809FBE00829FBE00849FBE007A
:109B2000869FBE008060A9002000200008BC0200C3
:109B3000000000004F03BE004F02BE004F01BE00F8
:109B40004F00BE003600F900004006003600F80065
:109B5000809FBE00829FBE00849FBE00869FBE0085
:109B60008080A9003000200008BC02000000000036
:109B70004F03BE004F02BE004F01BE004F00BE00AB
:109B80003600F900004006003600F800809FBE0055
:109B9000829FBE00849FBE00869FBE008600A900F3
:109BA0007000200008BC0200000000004F03BE004F
:109BB0004F02BE004F01BE004F00BE003600F9004C
:109BC00000400600809FBE00829FBE00518D810034
:109BD000408D8100808F5000220032008980A900D2
:109BE000E226230003FC2F00828141009B23AB006F
:109BF00010003A00508D81001080FB00E01C8800AE
:109C0000508D81000000E800508D8900508D81004A
:109C1000820F50000A003200608D81000080A10098
:109C2000608D8900518D8100408D8100808F5000B2
:109C3000EEFF3A004F01BE004F00BE00004006009C
:109C4000538D8900608D81000080A100608D8900A6
:109C5000518D8100408D8100808F5000E3FF3A00DC
:109C6000F4FF3700608D81000088A300DBFF3A001D
:109C7000608D81000090A000608D89009980A9000E
:109C80004F01BE004F00BE0000400600ECFF370051
:109C9000809FBE00829FBE008960A900E22223004F
:109CA00003F82F00828141009A03AB001A003200B2
:109CB000F01C80006AE8B700218D810080487800A0
:109CC000604380007143800061004000E0804800F4
:109CD0006043880071438800208D81000000E80007
:109CE000208D8900208D8100820F50000D003200F0
:109CF000608D81000010A100608D8900218D8100A0
:109D0000308D8100808F5000E7FF3A00608D810028
:109D10000000A000608D89004F01BE004F00BE0012
:109D200000400600238D8900608D81000010A10095
:109D3000608D8900218D8100308D8100808F5000E1
:109D4000D9FF3A00F1FF37009A23AB00010032003F
:109D50009A23A9009020A90000400600809FBE0021
:109D6000829FBE00A193810090938100808F50005C
:109D7000220032008BE0A9008233230003FC2F0075
:109D800082814100B123AB0010003A00A093810012
:109D90001080FB00901D8800A09381000000E80067
:109DA000A0938900A0938100820F50000A00320026
:109DB000B09381000080A100B0938900A19381003D
:109DC00090938100808F5000EEFF3A004F01BE005B
:109DD0004F00BE0000400600A3938900B0938100AD
:109DE0000080A100B0938900A1938100909381002D
:109DF000808F5000E3FF3A00F4FF3700B0938100FA
:109E00000088A300DBFF3A00B103AB00FEFF320085
:109E1000B09381000090A000B09389009BE0A9005E
:109E20004F01BE004F00BE0000400600EAFF3700B1
:109E3000809FBE00829FBE008BC0A900822F23009E
:109E400003F82F0082814100B003AB001300320001
:109E500070938100A11D80000148780070938100FB
:109E60000000E8007093890070938100820F500019
:109E70000D003200B09381000010A100B093890062
:109E80007193810080938100808F5000EEFF3A0033
:109E9000B09381000000A000B09389004F01BE0084
:109EA0004F00BE000040060073938900B09381000C
:109EB0000010A100B093890071938100809381000C
:109EC000808F5000E0FF3A00F1FF3700B023AB0075
:109ED00001003200B023A9009040A9000040060014
:109EE0003200F8003400F800881F780018002000C5
:109EF000A801880008202000980188004F047800FD
:109F000089A0AB000100320089A0A9003400F9004B
:109F10003200F900004006003600F800809FBE00C5
:109F2000829FBE00849FBE00869FBE00D09C8100A1
:109F30000000E000010032000000010094A0A90030
:109F4000A4A0A9004C28EC00603A230000C8EB0054
:109F50004F03BE004F02BE004F01BE004F00BE00C7
:109F60003600F900004006003600F800809FBE0071
:109F7000829FBE00849FBE00869FBE00C099810064
:109F80000000E000010032000000010094C0A900C0
:109F9000A4C0A9004E28EC004034230000C8EB0008
:109FA0004F03BE004F02BE004F01BE004F00BE0077
:109FB0003600F900004006003600F800809FBE0021
:109FC000829FBE00849FBE00869FBE00309A8100A3
:109FD0000000E00001003200000001008D60A900D7
:109FE0009D60A9005028EC002035230000C8EB003C
:109FF0004F03BE004F02BE004F01BE004F00BE0027
:10A000003600F900004006003600F800809FBE00D0
:10A01000829FBE00849FBE00869FBE00A09A8100E2
:10A020000000E00001003200000001008D80A90066
:10A030009D80A9005228EC000036230000C8EB00E8
:10A040004F03BE004F02BE004F01BE004F00BE00D6
:10A050003600F900004006003600F800809FBE0080
:10A06000829FBE00849FBE00869FBE00109B810021
:10A070000000E00001003200000001008840A9005B
:10A080009840A9005428EC00E036230000C8EB00FB
:10A090004F03BE004F02BE004F01BE004F00BE0086
:10A0A0003600F900004006003600F800809FBE0030
:10A0B000829FBE00849FBE00869FBE00809B810061
:10A0C0000000E000010032000000010088C0A9008B
:10A0D00098C0A9005628EC00C037230000C8EB0048
:10A0E0004F03BE004F02BE004F01BE004F00BE0036
:10A0F0003600F900004006003600F800809FBE00E0
:10A10000829FBE00849FBE00869FBE00F09B8100A0
:10A110000000E00001003200000001008B20A900D7
:10A120009B20A9005828EC00A038230000C8EB00B1
:10A130004F03BE004F02BE004F01BE004F00BE00E5
:10A140003600F900004006000040DA000000FE0082
:10A1500000000500839F68000100E00002003D0050
:10A1600060001000E08018000300E00002003D00E5
:10A1700060011100E08119006B0007004F00E00052
:10A1800002003B0060001000E080180000000600A4
:10A190000001BE001B0007000470A70003F0A1002F
:10A1A00003F8A30013003A006509B1001000320063
:10A1B000090035006928E10002003500010028008F
:10A1C0000000050000004000818048008502E90091
:10A1D000FCFF3A0000000600F88F42000500350041
:10A1E0008100D1000080D3008502E800FCFF3A0026
:10A1F000000006008000EB00000005006011B800C0
:10A2000059003700C70ADE00F107B200F50FB200AF
:10A2100008003200E1CF4200020032000170A000CD
:10A2200024000500810F70000100320004080500C1
:10A2300044000500810F700002003A001400050080
:10A240008502E9000000400081C04800FCFF3B009F
:10A250000170A00024000500889FBE008A9FBE00F8
:10A260008C1F7800950007009C00330003866C006B
:10A270006450E100240032006420E1002700320035
:10A280006150E100220032006120E1002100320033
:10A290008B854200EB07B1000134B800003AB800EA
:10A2A0000804420089844A00013AB8000030B8002E
:10A2B0008880400009014A0004003300000040008B
:10A2C00081804800020149008B05E900C909DD00D1
:10A2D000830170000100320013002000C814DE006A
:10A2E0004814DD004709DE001200B200C808DE0095
:10A2F000088470004B00070001F0A1000CF0A700DB
:10A3000001F0A0007E0037006120E10080003200F3
:10A310000801BE000200BE00F7FF37006150E100F7
:10A32000FCFF3A007A0037006022B80006022000E5
:10A330000000D0008180D2000482D2008582D20049
:10A340000000A0000202520083825A000300310084
:10A350000202420083824A000000A1000603E900D5
:10A36000F3FF3A0000000600889FBE008A9FBE00EF
:10A370000082700004027100048271002600320025
:10A380000004BE000200BE006011B8006B0920008E
:10A39000950220000182CF000A0039000541B1007A
:10A3A0000082CF00070039000541B1000982CF00CB
:10A3B000040039000541B1000882CF0001003900D6
:10A3C0000541B10005425200120032000A003B0074
:10A3D00082817100610164008100D1000080D3009E
:10A3E0008984D3000884D3008B05E8000442E80088
:10A3F000F7FF3A00070037000804440089844C0046
:10A4000000004800818048008B05E9000442E90013
:10A41000F9FF3A00030007004F05BE004F04BE00DD
:10A420000000060081002000618055000B003D0007
:10A430000B00200061FE2F000100E1001D00340030
:10A4400082817100610164008904D1000884D30015
:10A450000000E800FAFF3A0071002000610064008B
:10A460000300700002006000090032006104440033
:10A47000E0844C000988A500050032008B05E80047
:10A480006808E10002003A008904D1000884D30082
:10A49000F20F20000258E10005003D00C75DDD001D
:10A4A000F907B200898075000800780000000600F6
:10A4B0000BF827008B007800000005000004BE00A8
:10A4C00050FF07000003BE000405BE000200BE00EE
:10A4D0004CFF0700844F7500000006000200BE001C
:10A4E0006450E100050036006420E10002003600FF
:10A4F0000968A30001003A000800BE000160A00046
:10A500004F0678004F05BE004F04BE000000060055
:10A51000F0FF2F00F1FF2700F9FF370080017800DE
:10A5200002003700B15978000201E9000200E000A2
:10A53000FCFF3A00000006000000000001000000DF
:10A5400002000000040000000800000000000000FD
:10A5500000000000100000000000000020000000CB
:10A560004000000080000000000100000002000028
:10A57000000400000008000000100000002000009F
:10A58000004000000080000001000000000000000A
:10A5900000000000000000000000000004000000B7
:10A5A0000800000000000000100000000000000093
:10A5B000000000000000000000000000000000009B
:10A5C000000000000000000000000000000000008B
:10A5D0000000000000000000000100000101000078
:10A5E0000100000000010000000100000101000066
:10A5F0000101000001010000010100000101000053
:10A600000100000001000000020000000400000042
:10A610000800000004000000080000001000000016
:10A62000100000002000000040000000800000003A
:10A63000000100000002000000040000000800000B
:10A64000001000000020000000400000008000001A
:10A650001A0000000102000003FF0000FF040000D8
:10A66000FF05000006070000080900000A0B0000B3
:10A670000C0D00000E0F000000020000030400009B
:10A6800005FF0000FFFF0000FFFF0000FFFF0000CC
:10A69000FFFF0000FFFF00000807000006090000A0
:10A6A00001010000010100000101000000000000A4
:10A6B000000000000000000000000000000000009A
:10A6C0000001000001010000010000003F06000041
:10A6D0005B4F0000666D00007D0700007F67000093
:10A6E000777C0000395E00007971000000000000F6
:10A6F000000000000000000000000000000000005A
:10A700000000000000000000000000000002000047
:10A71000221000006D64000010020000390F0000DC
:10A720000110000004400000104A00003F06000035
:10A730005B4F0000666D00007D0700007F67000032
:10A7400010100000184800000C10000010770000E6
:10A750007C3900005E790000717D000076300000D9
:10A760001E76000038540000545C0000736700003F
:10A77000506D0000781C00001C1C0000766E00006C
:10A780005B390000640F0000230800002077000000
:10A790007C3900005E790000717D00007630000099
:10A7A0001E76000038540000545C000073670000FF
:10A7B000506D0000781C00001C1C0000766E00002C
:10A7C0005B390000300F000001000000143400006D
:10A7D000040D00008206000040030000A0010000FC
:10A7E000CF000000670000004400000022000000CD
:10A7F0000200FA00D0C0B300E0FF9F00A0C0B30089
:10A80000F0FF9F001D48E20015003A008100200083
:10A81000003B23009A9D0200000000001D48E2005A
:10A8200003003A001C68EF000080FA0000000600F8
:10A83000210020000F80E9009A9D02000000000026
:10A84000210020000F80E9009A9D02000000000016
:10A850001C68EF000080FA0000000600F4FF3700DB
:10A86000210020000F80E9009A9D020000000000F6
:10A8700081002000003B23009A9D020000000000A0
:10A880001D48E200E7FF3200E9FF370052C4B30081
:10A89000013B2300824878008100E80034B60200C2
:10A8A0000000000050C5B300613B230080487800E1
:10A8B0008100E8008048780031418000D0FD2F0001
:10A8C000E18F4000010032000100E80030418800C3
:10A8D00000000600903A2300104078004AE8B700D4
:10A8E0008080FB00C608DD00428A22000101410091
:10A8F00052448800F34F500032003E006341500044
:10A90000E14F51002A0036007648E2002200320072
:10A91000A23A23001281FB008001EB00F80F5100E6
:10A92000E08F59000200360030002000D7FF3700CA
:10A930000260010047003700FBFF3700410037008D
:10A9400042003700F8FF370036003700F6FF3700C7
:10A9500036003700F4FF3700F3FF370035003700CB
:10A9600036003700190037001A003700EEFF3700B5
:10A97000EDFF3700190037001A0037001B003700C1
:10A980001C003700E8FF37001C00370023003700A9
:10A990001400370036003700E74F50000200320045
:10A9A000E94F5000DAFF3A0070012000B7FF37008E
:10A9B0007648E200FCFF3A00E94F5000D4FF3A002D
:10A9C000F9FF370060012000B0FF3700FC71040080
:10A9D000000000007EB104000000000064AF04002D
:10A9E00000000000C697040000000000BAA80400A0
:10A9F000000000000CA30400000000000040EB0079
:10AA00004E84020000000000A184200091407800E4
:10AA1000408820000148780000000600E69004000D
:10AA2000000000004C7C040000000000D4B30400CF
:10AA300000000000EAB40400000000006477040095
:10AA40000000000000A504000000000004AC0400A9
:10AA500000000000228E2200810041008048EB00AF
:10AA6000B13A2300914078002883040000000000E0
:10AA7000DEA6040000000000EA874700889FBE00B1
:10AA80008A9FBE008C9FBE008E1F78002828EC0095
:10AA90008B3A23001B82FB008002EB000C3B23005F
:10AAA000044E78000B05E8001A4078008C00E8009E
:10AAB000804878008A04E800194178008C86E80014
:10AAC000824E78000904E80098417800630346004C
:10AAD000034B78008803E800974078000607E800F9
:10AAE000014F78008883E800174378000E07E800DC
:10AAF000064F78008703E8009743780087F79F00A8
:10AB00000E07E800074F7800E40344001747780079
:10AB1000E70346008E4B78001402B1000580B100B7
:10AB2000D70D2000870F5200E08F5A000800360032
:10AB30005000200055FF07004F0778004F06BE0069
:10AB40004F05BE004F04BE00AF00B100000006007C
:10AB500004600100F8FF3700F5FF3700F4FF37000D
:10AB6000F3FF3700F2FF3700F1FF3700F0FF370047
:10AB7000EFFF3700EEFF3700EDFF3700ECFF370047
:10AB8000EBFF3700EAFF3700E9FF3700E8FF370047
:10AB9000E7FF3700E6FF3700E5FF3700E4FF370047
:10ABA000E3FF3700E2FF3700E1FF3700E0FF370047
:10ABB000DFFF3700DEFF3700DDFF3700DCFF370047
:10ABC000DBFF3700DAFF3700D9FF3700D8FF370047
:10ABD000D7FF3700D6FF3700D5FF3700D4FF370047
:10ABE000D3FF3700D2FF3700D1FF3700D0FF370047
:10ABF000CFFF3700CEFF3700CDFF3700CCFF370047
:10AC0000CBFF3700CAFF3700C9FF3700C8FF370046
:10AC1000C7FF3700C6FF370001013700C4FF370008
:10AC2000C3FF3700C2FF37005A023700C0FF3700AA
:10AC3000BFFF3700BEFF3700BDFF3700BCFF370046
:10AC4000BBFF3700BAFF370034023700B8FF3700C8
:10AC5000B7FF3700B6FF3700B5FF3700B4FF370046
:10AC600080013700B2FF3700B1FF370060013700C5
:10AC7000AFFF3700AEFF3700ADFF3700ACFF370046
:10AC8000ABFF3700AAFF3700A9FF3700A8FF370046
:10AC90006A023700A6FF3700A5FF3700A4FF370080
:10ACA000A3FF3700A2FF3700A1FF3700A0FF370046
:10ACB0009FFF37009EFF37009DFF37009CFF370046
:10ACC0009BFF37009AFF370099FF370098FF370046
:10ACD00097FF37004C023700620337004B03370001
:10ACE000320337001C03370091FF370090FF370015
:10ACF0008FFF37008EFF37008DFF37008CFF370046
:10AD00008BFF37008AFF370089FF370088FF370045
:10AD10008C03370098013700F2023700AD0037008E
:10AD2000CF02370082FF370081FF370080FF3700F6
:10AD30007FFF37007EFF37007DFF37007CFF370045
:10AD40007BFF37007AFF370079FF370078FF370045
:10AD5000E7013700C901370075FF3700BD01370033
:10AD600073FF3700E10037005800370070FF3700ED
:10AD70006FFF37006EFF37006DFF37006CFF370045
:10AD80006BFF37006AFF370069FF370068FF370045
:10AD900065003700B1003700F60037004703370081
:10ADA00092013700E000370061FF370060FF370095
:10ADB0005FFF37005EFF37005DFF37005CFF370045
:10ADC0005BFF37005AFF370059FF370058FF370045
:10ADD00057FF370056FF370055FF370054FF370045
:10ADE00053FF370052FF370051FF370050FF370045
:10ADF000D1023700D0023700CF023700CE02370031
:10AE0000CD023700CC023700CB023700CA02370030
:10AE1000C9023700C8023700C7023700C602370030
:10AE2000C5023700C4023700C3023700C202370030
:10AE3000C1023700C0023700BF023700BE02370030
:10AE4000BD023700BC023700BB023700BA02370030
:10AE500037FF370036FF370035FF370034FF370044
:10AE600033FF370032FF370031FF370030FF370044
:10AE70002FFF37002EFF37002DFF37002CFF370044
:10AE80002BFF37002AFF370029FF370028FF370044
:10AE900027FF370026FF370025FF370024FF370044
:10AEA00023FF370022FF370021FF370020FF370044
:10AEB0001FFF37001EFF37001DFF37001CFF370044
:10AEC0001BFF37001AFF370054013700C819DD0097
:10AED0000281FB0082814100225B2A00828F5100A7
:10AEE00034033A004831DD008180FB00010141005C
:10AEF00011362700810F51002E033A000E0378000F
:10AF00004831DD000FF797008E83FB0007014100F9
:10AF1000812F2A00810F510026033A00E14F500093
:10AF2000930432001A68EF009960AB0009003A0000
:10AF3000B001200055FE07004F0778004F06BE0005
:10AF40004F05BE004F04BE00AF00B1000000060078
:10AF5000FFFE37001A407800529D020000000000FA
:10AF600019407800529D020000000000184078004F
:10AF7000529D020000000000C13A230011407800F9
:10AF8000529D020000000000D23A230012407800D7
:10AF9000529D020000000000E33A230013407800B5
:10AFA000529D020000000000F43A23001440780093
:10AFB000529D0200000000004F0778004F06BE00BF
:10AFC0004F05BE004F04BE00AF00B10000000600F8
:10AFD000DFFE37008045EB000304E0005803320039
:10AFE0008B80FB008180E800810046004811DD0075
:10AFF0000080FB000000410050AB02000000000098
:10B000008B45E80098CF1500820336000000E00071
:10B0100080033A001A40780019417800F0FF3700A9
:10B0200054C6B300844F500003003A0072425200ED
:10B03000844F5100F90232004000200013FE070047
:10B040004F0778004F06BE004F05BE004F04BE00FC
:10B05000AF00B10000000600BDFE37009960AB00F4
:10B06000B3FF3200DE9C020000000000163B23000C
:10B07000004B7800DE9C020000000000804E78004B
:10B08000DE9C020000000000373B2300804B78006C
:10B09000DE9C0200000000004E3B2300004F7800C1
:10B0A000DE9C0200000000008E00E800804878006E
:10B0B000DE9C0200000000000E81E80000497800DC
:10B0C000DE9C020000000000E30147008049780098
:10B0D0004F0778004F06BE004F05BE004F04BE006C
:10B0E000AF00B1000000060099FE3700C810DD0077
:10B0F0000080FB0080804000D0BC2A00808F500080
:10B10000A303320080012000E0FD07004F07780014
:10B110004F06BE004F05BE004F04BE00AF00B10099
:10B12000000006008AFE37000004E0004D033A00EC
:10B13000F34F510005043E000304E000F202320028
:10B140008381FB00803B2300163B230083034000E8
:10B1500006000900375B78004F0778004F06BE00F5
:10B160004F05BE004F04BE00AF00B1000000060056
:10B1700077FE37000E9B02000000000019407800A7
:10B180000E9B020000000000184078000E9B020099
:10B1900000000000C43A2300144078000E9B020017
:10B1A00000000000D63A2300164078000E9B0200F3
:10B1B00000000000E73A2300174078000E9B0200D1
:10B1C00000000000FE3A23001E4078000E9B0200A3
:10B1D000000000004F0778004F06BE004F05BE007C
:10B1E0004F04BE00AF00B1000000060058FE37005B
:10B1F000FAB50200000000006A05B90019407800A5
:10B20000FAB5020000000000004045006A00B900E5
:10B210008044780018407800FAB502000000000071
:10B22000173B2300984B780001C2B300814E780091
:10B2300000C0440044B0020000000000313B230085
:10B2400034B60200000000004F0778004F06BE0031
:10B250004F05BE004F04BE00AF00B1000000060065
:10B260003BFE3700FAB50200000000000045780000
:10B2700019407800FAB5020000000000804578000F
:10B2800018407800FAB50200000000000084FB00BE
:10B290008004EB006A44B800C23A230012407800F0
:10B2A000FAB50200000000000080FB008000EB0007
:10B2B00008044000898448006A48B9006A44B8001C
:10B2C00089044000D33A230013407800FAB5020005
:10B2D000000000000080FB008000EB00080440003C
:10B2E000898448006A48B9006A44B800890440006B
:10B2F000E43A230014407800FAB502000000000090
:10B300000080FB008000EB000804400089844800B6
:10B310006A48B9006A44B80089044000F63A23003C
:10B3200016407800FAB50200000000000080FB0023
:10B330008000EB000804400089844800E10F4400CD
:10B34000E08F5C00BE023E006A50B90000C04500BC
:10B350008800780036B00200000000004F07780037
:10B360004F06BE004F05BE004F04BE00AF00B10047
:10B3700000000600F6FD37004811DD000080FB00EC
:10B3800000004100D04388000041EB0002457800F6
:10B390000304E0007B02320082447800FEAA02002F
:10B3A000000000008000780001F0A7008100EA00A2
:10B3B0008100E900CF08DE000104E0000100320056
:10B3C0000A45E8008944E80098CF14006C02360072
:10B3D0000104E0006A0232000980FB0064004000C2
:10B3E000EB407800D0438000ECFF370024C5B30069
:10B3F000844F5000F401320070C0B3002368B400E1
:10B400004F0778004F06BE004F05BE004F04BE0038
:10B41000AF00B10000000600CDFD370080088000BD
:10B420001E3B2300004F7800800880004800DE00AB
:10B43000804E78001021EF004F0778004F06BE00C5
:10B440004F05BE004F04BE00AF00B1000000060073
:10B45000BFFD37004811DD000080FB000671780059
:10B460004F0778004F06BE004F05BE004F04BE00D8
:10B47000AF00B10000000600B5FD37000283FB00FD
:10B480008003EB00483ADD00C832DE00850272001E
:10B490004832DD008381FB000200200004024100ED
:10B4A000858249000081FB008001EB00040241001D
:10B4B00085824900C809DD00020020000400410027
:10B4C000858049000008A30071023200A00020001E
:10B4D000EEFC07004F0778004F06BE004F05BE0088
:10B4E0004F04BE00AF00B1000000060098FD370019
:10B4F0004811DD000080FB00343B2300624A7800E5
:10B500004F0778004F06BE004F05BE004F04BE0037
:10B51000AF00B100000006008DFD3700C4C4B300C9
:10B52000844F500084FD3A0090C4B300804F510016
:10B5300081FD3A006540400080CF51007EFD3A0019
:10B540006940500080CF50007BFD3A0063405000BE
:10B55000804F530078FD3A00694040008FF097001B
:10B5600080CF500074FD3A007A405000804F570061
:10B57000260332001D68EF004F0778004F06BE001B
:10B580004F05BE004F04BE00AF00B1000000060032
:10B590006FFD370030C5B300143B2300004A78002C
:10B5A00010C3B300804E7800674040000483E80079
:10B5B000004B78007648E200520232006A404000B8
:10B5C000E3034200804B780020C3B300513B2300CB
:10B5D0008048780000C0E9000101E80000497800D7
:10B5E000644040008181E800804978004F0778007E
:10B5F0004F06BE004F05BE004F04BE00AF00B100B5
:10B600000000060052FD370044B0020000000000B8
:10B61000804E78004800DE00343B2300004A78006A
:10B620004F0778004F06BE004F05BE004F04BE0016
:10B63000AF00B1000000060045FD3700FAB502007A
:10B64000000000006A00B90000447800194078004A
:10B65000FAB502000000000000444400AE8420005F
:10B66000084F78008880FB00C608DD00408A220071
:10B670000080400050448800A93A230065864400B9
:10B680001AC6B3008DCCB300D94F1500B8013200F3
:10B690008040EB0008407800FE81020000000000BE
:10B6A0008040EB00084078005CB102000000000020
:10B6B0001980FB008000EB000002B1000180B100A6
:10B6C00082052000820F5000E08F580006003600EF
:10B6D000300020006DFC07008C8F540016FD3200F6
:10B6E0000844E800E8FF370000600100FAFF370077
:10B6F000F7FF3700F6FF3700F5FF3700F4FF37009C
:10B70000F3FF3700F2FF3700F1FF3700F0FF37009B
:10B71000EFFF3700EEFF3700EDFF3700ECFF37009B
:10B72000EBFF3700EAFF3700E9FF3700E8FF37009B
:10B73000E7FF3700E6FF3700E5FF3700E4FF37009B
:10B74000E3FF3700E2FF3700E1FF3700E0FF37009B
:10B75000DFFF3700DEFF3700DDFF3700DCFF37009B
:10B76000DBFF3700DAFF3700D9FF3700D8FF37009B
:10B77000D7FF3700D6FF3700D5FF3700D4FF37009B
:10B78000D3FF3700D2FF3700D1FF3700D0FF37009B
:10B79000CFFF3700CEFF3700CDFF3700CCFF37009B
:10B7A000CBFF3700CAFF3700C9FF3700C8FF37009B
:10B7B000C7FF3700C6FF3700C5FF3700C4FF37009B
:10B7C000C5FF3700C2FF3700C1FF3700C0FF370099
:10B7D000BFFF3700BEFF3700BDFF3700BCFF37009B
:10B7E000BBFF3700BAFF3700B9FF3700B8FF37009B
:10B7F000B7FF3700B6FF3700B5FF3700140037003A
:10B80000B3FF3700B2FF3700B1FF37002501370023
:10B810000F003700AEFF3700ADFF37001A013700C9
:10B82000ABFF3700AAFF3700A9FF3700A8FF37009A
:10B83000A7FF3700A6FF370010013700A4FF37002D
:10B8400003003700A2FF370013013700A2FF3700C3
:10B8500008407800DA820200000000009EFF3700F6
:10B860008003EB00D7B79F0087007800E1B79F0007
:10B870004811DD000080FB0000004100313B230047
:10B88000ACAB0200000000000000E0000901320043
:10B89000E50F50000E0132006FB097004E3B2300C1
:10B8A000004F78004800DE008E00E80080487800F5
:10B8B0005FB097000E81E800004978004800DE0084
:10B8C000E3014700804978004F0778004F06BE002B
:10B8D0004F05BE004F04BE00AF00B10000000600DF
:10B8E0009BFC3700983A2300660544008044EB0037
:10B8F00080407800D0438000FEAA020000000000D3
:10B900008000780001F0A7008100EA008100E900D2
:10B91000CF08DE000104E000010032008944E800A5
:10B920008A0F54002C0132000104E0002A01320089
:10B93000D8407800EFFF3700E6FB07004F0778009C
:10B940004F06BE004F05BE004F04BE00AF00B10061
:10B95000000006007EFC3700C0438000F1FF21009C
:10B96000810F500074FC3E0080805000E68F500034
:10B97000E4013600418A200000814000933A230010
:10B98000060009003359780067004000C043880072
:10B990004F0778004F06BE004F05BE004F04BE00A3
:10B9A000AF00B1000000060069FC37004811DD005F
:10B9B0000080FB0000004100C04388000381FB00C1
:10B9C000E40F5100D8013E0002044000F1FF2100C5
:10B9D000810F540065013E00418A200001004000B3
:10B9E000C13A23008E52020000000000C8438800C4
:10B9F0004F0778004F06BE004F05BE004F04BE0043
:10BA0000AF00B1000000060051FC37004811DD0016
:10BA10000080FB0000004100F1FF2100810F500079
:10BA200045FC3E0000815000E70F51000100360048
:10BA300072002000418A200081004000103B23005A
:10BA40008E520200000000004F0778004F06BE0033
:10BA50004F05BE004F04BE00AF00B100000006005D
:10BA60003BFC3700C818DD000281FB0082804000EB
:10BA700036B0020000000000E63A23009680FB008A
:10BA8000C808DD008603E9001780FB0080804000C5
:10BA90000687E9001E40780036B002000000000072
:10BAA0004F0778004F06BE004F05BE004F04BE0092
:10BAB000AF00B1000000060025FC3700969A020096
:10BAC00000000000113B230080487800969A020095
:10BAD00000000000804E7800969A020000000000EE
:10BAE000323B230000497800969A020000000000D3
:10BAF000433B230080497800969A02000000000032
:10BB0000543B2300004A7800969A0200000000008F
:10BB1000663B2300004B7800969A0200000000006C
:10BB2000773B2300804B78004F0778004F06BE001C
:10BB30004F05BE004F04BE00AF00B100000006007C
:10BB400003FC3700C808DD008381FB0083804000D0
:10BB50004811DD000080FB00000041007EAA0200C9
:10BB6000000000000000E000F3003A009880FB00B5
:10BB7000E8804000C43A23001480FB004800DD0048
:10BB800000804000363B2300004B78004800DE0078
:10BB90008603E800804B78004F0778004F06BE0010
:10BBA0004F05BE004F04BE00AF00B100000006000C
:10BBB000E7FB37009001200034FB07009960AB00E1
:10BBC000E4FC3A00DAFC370050C4B300804F510067
:10BBD00009FE3A006E40400080CF510006FE3A0058
:10BBE00082CF500004FE3A000040E800804F53002E
:10BBF00001FE3A002368EF0010C0B30024E8B7004C
:10BC00004F0778004F06BE004F05BE004F04BE0030
:10BC1000AF00B10000000600CDFB370080CF51001F
:10BC200005FD3A0040C5B30080CF500002FD3A0048
:10BC300010C2B300804F5300FFFC3A0000C0E80080
:10BC40008FF1970080CF5100FBFC3A006740400025
:10BC5000804F5700F8FC3A0008A1020000000000E5
:10BC60004F0778004F06BE004F05BE004F04BE00D0
:10BC7000AF00B10000000600B5FB3700ECAB0200DE
:10BC80000000000094FE3700084078005484020051
:10BC90000000000090FE370024AF0200000000000A
:10BCA0008DFE370008407800588402000000000034
:10BCB00089FE37009980FB00C808DD001A80FB0070
:10BCC00000804000F4805700A2AA0200000000009B
:10BCD0009980FB00C808DD001A80FB00008040004E
:10BCE000F6805700CAAA0200000000006FB097005B
:10BCF0004E3B2300004F78004800DE008E00E80035
:10BD000080487800EAFE37000280FB004600DD0034
:10BD1000418A2200823B2300008240003F0009004C
:10BD2000345978008381FB00803B2300163B2300BD
:10BD30008303400006000900375B780006FD3700EA
:10BD4000103B2300034878000040EB00763B2300C3
:10BD5000004B78004F0778004F06BE004F05BE002D
:10BD60004F04BE00AF00B1000000060078FB3700B2
:10BD70008D4D780000A502000000000056FE37003F
:10BD800000417800333B23008A4978000302E80031
:10BD9000024A7800F6805700D0438000CAAA020009
:10BDA000000000005FB09700563B2300004B780076
:10BDB0004800DE008603E800804B78004F077800DB
:10BDC0004F06BE004F05BE004F04BE00AF00B100DD
:10BDD000000006005EFB37003E3B2300094F780061
:10BDE0008E00E80080487800F6805700D04380003D
:10BDF000CAAA0200000000005FB097000E81E800B0
:10BE0000004978004800DE00E301470080497800DF
:10BE1000ADFE3700143B23000B4A7800E5CF5500F8
:10BE2000CAFF36004F0778004F06BE004F05BE0020
:10BE30004F04BE00AF00B1000000060044FB370015
:10BE40002000200091FA07004F0778004F06BE003F
:10BE50004F05BE004F04BE00AF00B1000000060059
:10BE60003BFB3700EA4F500088003200C001200041
:10BE700086FA07004F0778004F06BE004F05BE0048
:10BE80004F04BE00AF00B1000000060030FB3700D9
:10BE900083E0A9000000000000000000A202800072
:10BEA000A10288009000BA00463B2300014B7800B5
:10BEB000C808DE008603E800814B78001080BA00D5
:10BEC0008280FB00A102880083E0A800000000003F
:10BED000000000000687E800004F78004800DE0000
:10BEE000E3004300804878004F0778004F06BE000B
:10BEF0004F05BE004F04BE00AF00B10000000600B9
:10BF000013FB370010C4B3004E3B2300004F7800F2
:10BF100020C3B300513B23008048780000C0E900F3
:10BF20000101E80000497800644040008181E80098
:10BF300080497800ADFD37003E3B2300004FEB0009
:10BF40008E00E8008048EB000E81E8000049780090
:10BF50004F0778004F06BE004F05BE004F04BE00DD
:10BF6000AF00B10000000600F9FA370080002000A1
:10BF700046FA07004F0778004F06BE004F05BE0087
:10BF80004F04BE00AF00B10000000600F0FA370019
:10BF900083E0A9000000000000000000A90280006A
:10BFA00020002000A0028800448A2000840078003D
:10BFB00000002A000001EB0003182A009008BA00D4
:10BFC00092009800E48040000080E800830F500059
:10BFD000FAFF3A0020002000203B880001002A00E0
:10BFE000113B880031002400013B88000600FC0062
:10BFF00051052000313B8800A10A2000313B880018
:10C0000061E7A8000000000000000000A002880016
:10C010001880FB004200DD0000004200DE3A2300F1
:10C020009E81FB00C819DD000E02E9009480FB0030
:10C03000018841001200980050052000A10A20004C
:10C040006CAD020000000000428A200000002A00BF
:10C050002100200052AE0200000000008984FB0095
:10C06000A902880083E0A800000000000000000092
:10C070004F0778004F06BE004F05BE004F04BE00BC
:10C08000AF00B10000000600B1FA37000304E00081
:10C090000D0032008381FB00803F2300163B23000C
:10C0A0008303400006000900375B78004F077800E3
:10C0B0004F06BE004F05BE004F04BE00AF00B100EA
:10C0C00000000600A2FA370002407800E2C0B30088
:10C0D0000440BC0080332300813F23000202400063
:10C0E0000D000900B45878008381FB00803F2300D5
:10C0F000163B23008303400006000900375B7800ED
:10C10000EAFF370090002000E0F907004F077800B1
:10C110004F06BE004F05BE004F04BE00AF00B10089
:10C12000000006008AFA370070002000D7F90700E7
:10C130004F0778004F06BE004F05BE004F04BE00FB
:10C14000AF00B1000000060081FA37006001200056
:10C15000CEF907004F0778004F06BE004F05BE001E
:10C160004F04BE00AF00B1000000060078FA3700AF
:10C170007648E2002000320001FC2F00A23D800042
:10C18000828060005100B300A13D880001F82F00BB
:10C19000C33E8000838060003100B300C13E880050
:10C1A000F0B79F00B49C02000000000081FF2F0048
:10C1B00074058000848060000100A0007105880083
:10C1C000F1FF2800660580008680600001C0A000A5
:10C1D000610588007686A900E1CFB300778620004C
:10C1E000814B78007FB097001AE8B7009960AB00E8
:10C1F00058FB3A004EFB3700A0012000A3F90700CE
:10C200009960AB0053FB3A0049FB370010C0B30004
:10C210001DE8B7004F0778004F06BE004F05BE006F
:10C220004F04BE00AF00B1000000060048FA37001E
:10C23000889FBE007648E200020032001A48E20001
:10C240001B0032001BC8BF00883A2300E74F500094
:10C250004700360008FA07001B68EF00E0CFB30084
:10C26000004C7800913A2300804878008100E80073
:10C27000804878008100E800804878008100E8006C
:10C28000804878008100E800804878008100E8005C
:10C29000804878008100E8008048780054F9070061
:10C2A0007648E20002003A004F04BE00000006009B
:10C2B0002BC8BF00E74F5000FBFF36001F68EF00A0
:10C2C000803A230001452300070009003158780017
:10C2D0002B68EF002148E200020032002068EF00E6
:10C2E000AB84A800E4F90700903A230010407800DE
:10C2F00011C2B300814F50005000320083E0A9000A
:10C30000000000000000000080452300013B2300E6
:10C31000070009003158780010C0B3001FE8B700CB
:10C320001E68EF002148E200020032002168EF00A1
:10C330001F68EF002048E200070032001F48E200BB
:10C34000050032002068EF002168EF00AB84A800F0
:10C350001F68EF002C68EF0083E0A80000000000D9
:10C36000000000004F04BE0000000600D0FF3700B0
:10C370000080FB00E8001000000044001E9D020049
:10C3800000000000804478001D48E2003C003A00B4
:10C390001BC8BF0080C44400B08120000948780059
:10C3A0000904E000BEFF3200B4408000C5408000B8
:10C3B00053C5B30006C2B30018407800834F500045
:10C3C00002003200864F500013003A000040EB009C
:10C3D0008080FB000101E800E2707C000040E80082
:10C3E000E74F5000FAFF3A008944E9006102420039
:10C3F000E0824A000904E000EFFF3A00B08120002B
:10C4000009487800B4408800C54088007648E200BA
:10C41000A5FF3200A6FF3700B08120000948780050
:10C42000B4408800C5408800E7CF540089FF3E0033
:10C430007648E2009CFF32009DFF3700813A2300DE
:10C44000914F1000ADFF32002268EC0083E0A9009C
:10C45000000000000000000080452300013B230095
:10C46000070009003158780010C0B3001FE8B7007A
:10C470001E68EF002148E200AEFF3200ABFF37003C
:10C480008980FB001BC8BF000080FB000800400043
:10C490009A9D020000000000BDFF37006E01B90048
:10C4A00082007800423423000101410000C9EB0002
:10C4B00082332300810041008008EB00E20F50002E
:10C4C0002B0032000A003600E40F50003100320029
:10C4D000150031003022EF00C000200090118800CC
:10C4E0003822EF009840A9008840A900000006000B
:10C4F0000000E00009003A009022EF009222EF00D5
:10C500009422EF0000102000B01488009A22EF005F
:10C510009C22EF009E22EF0000000600E10F500079
:10C520000A00320000000600E50F5000FDFF3A004F
:10C530004422EF00C0002000301288004C22EF009F
:10C540009B20A9008B20A90000000600B422EF0068
:10C55000B622EF00B822EF0000102000D0158800AE
:10C56000BE22EF00C022EF00C222EF000000060052
:10C570000023EF000223EF000423EF00001020004F
:10C58000301888000A23EF000C23EF000E23EF0081
:10C59000000006003A22EF00C0002000E0118800F1
:10C5A0004222EF0098C0A90088C0A9000000060040
:10C5B000881F78000044EB000880FB00B7FF0700ED
:10C5C0000844E800E84F5400FBFF3A004F047800AD
:10C5D00000000600881F7800000478004AC8BF00E9
:10C5E00010830200000000000004E00008003A0090
:10C5F000F00F2000E50F540003003600600020001B
:10C60000EB0F54000F0032004F04780000000600CA
:10C61000E60F54000F0032004334230083007800FB
:10C620000000EB000041780000C2EB00914F1200C7
:10C630000C0032000000E800EE804000E60F5000E1
:10C64000F8FF3A00F00F20004F04780000000600C9
:10C65000EFFF3700080078004F0478000000060064
:10C66000EBFF37006E00B900A4842000144278006C
:10C67000847178000280FB004F04780000000600FF
:10C68000E3FF37000400FA00881F780000047800F8
:10C69000E60F5400330032004AC8BF00D2BF9F00EB
:10C6A000E3BF9F0010830200000000005FB9970005
:10C6B000EFB997000004E00009003A00F00F2000F5
:10C6C000E50F54000300360060002000EB0F54001B
:10C6D000460032004F0478000080FA000000060097
:10C6E00060002000C1FD2F00810F5100E08F590034
:10C6F000F8FF3E0070802F00F1FF2F000200400085
:10C700008380480074D32600840F5000E08F5800C7
:10C7100019003E004534230015437800A184200011
:10C72000914078000040EB008001EB00843323004F
:10C73000E14F430040003200814F53003E00320081
:10C740000040E800E64F5000DFFF32008081FB0030
:10C75000E2C0B3000440BC006C01410064437900B6
:10C76000F3FF3700080078004F0478000080FA00DB
:10C7700000000600DAFF3700453423001543780037
:10C78000E14F430024003200A18420009140780052
:10C79000814F5300220032002435230014407800DA
:10C7A000E14F40001600320080CF500014003200EC
:10C7B0000436230014407800E14F4000100032009E
:10C7C00080CF50000E00320060002000045327008C
:10C7D000840F5100E08F5900BEFF3E000040EB0087
:10C7E0008001EB0084332300D1FF3700F00F2000DD
:10C7F0004F0478000080FA0000000600B8FF370000
:10C80000014A7800100020004F0478000080FA00F0
:10C8100000000600B2FF3700A6842000164378000F
:10C82000864A78000000EB004F0478000080FA0090
:10C8300000000600AAFF37006E1BB90081727B0062
:10C84000030078004F0478000080FA000000060022
:10C85000A3FF3700889FBE00000478004AC8BF00CD
:10C8600010830200000000000004E00006003A000F
:10C87000EA0F54000A003200E50F5400150036009C
:10C880004F04BE00000006008040EB004AC8BF0015
:10C89000D880020000000000EA0F5400F6FF3A00C2
:10C8A000493423000044EB00194078004A48E30073
:10C8B0000D0032000844E800EE844400E84F5400C4
:10C8C000EFFF3200194078004A48E300F9FF3A00D0
:10C8D0000500370008007800F0FE07004F04BE0096
:10C8E00000000600E8FF37000880FB00EBFE0700B1
:10C8F0000844E800EE844400E84F5400F1FF3A0099
:10C90000DFFF3700881F780000017800E30F510037
:10C910006A00320014003600E50F51004700320073
:10C920002200310000C02100D01188003C22EF001D
:10C930003E22EF00C408DD00011288004222EF0011
:10C9400088C0A90098C0A9000080E800D011880024
:10C95000E1C0B3004AC8BF00D88002000000000058
:10C960004F04780000000600E10F5100450032003E
:10C97000240036000023EF001023EF00C408DD0080
:10C98000C118880041C1B3004AC8BF00D880020066
:10C99000000000000C23EF00200028000018880091
:10C9A0004F04780000000600EFFF3700E60F51004B
:10C9B000EBFF3A005844800000102E000008B80039
:10C9C00002242400F3002000945102000000000023
:10C9D000401C9800E0FF2F00501C98000000EB0066
:10C9E000201C9800301C98008040EB004AC8BF0013
:10C9F000D8800200000000004F047800000006000C
:10CA0000D9FF37009022EF00A022EF00C408DD001C
:10CA10004115880001C1B3004AC8BF00D880020098
:10CA2000000000009C22EF002000280080148800F5
:10CA30004F04780000000600CBFF370000C0210043
:10CA4000201288004622EF004822EF00C408DD00D3
:10CA5000511288004C22EF008B20A9009B20A900D6
:10CA60000080E80020128800F1C0B3004AC8BF006F
:10CA7000D8800200000000004F047800000006008B
:10CA8000B9FF3700B422EF00C422EF00C408DD0074
:10CA90006116880021C1B3004AC8BF00D8800200D7
:10CAA00000000000C022EF0020002800A015880030
:10CAB0004F04780000000600ABFF370000C02100E3
:10CAC000801188003222EF003422EF00C408DD001C
:10CAD000B11188003822EF008840A9009840A900D1
:10CAE0000080E80080118800D1C0B3004AC8BF00B0
:10CAF000D8800200000000004F047800000006000B
:10CB000099FF37000600FA00E30F5000E5003200FD
:10CB100028003600E50F5000990032004B0031002C
:10CB20000100E00091003200E18F4000030132007B
:10CB300080BB2000800F5100E08F59007701360044
:10CB400005532700850F5100E08F590017003E0064
:10CB50000201410083814900019AB9000208B8002E
:10CB6000810042004008DE0001002000E411800046
:10CB70007F026200FF0F52000F023200F40120001A
:10CB8000E4118800F21188000012880088C0A90012
:10CB900098C0A90060002000D0118800E1C0B30057
:10CBA0004AC8BF00D8800200000000000080FA00E0
:10CBB00000000600E10F50009700320048003600E8
:10CBC0000100E00069003200E18F4000DB0032002C
:10CBD000807F2000800F5100E08F59003A0136001D
:10CBE00085FC2000850F5100E08F59009A023E001D
:10CBF000441ADD00CC12DE00850272004412DD0012
:10CC0000500028000003E300370232000023EF0049
:10CC10001023EF001823EF00A4188800500028000C
:10CC200000188800A01880000100B800E1188800F2
:10CC300041C1B3004AC8BF00D88002000000000014
:10CC40000080FA0000000600DAFF3700E60F50000F
:10CC5000D6FF3A00E18F4000B8003200F1BF9F00DC
:10CC6000D2BF9F00E3BF9F001E85020000000000AE
:10CC7000F0EB20005FB99700EFB99700009AB90078
:10CC80000011B800830142000400280005002000C4
:10CC90000201420083814A0003017800FFB8970037
:10CCA0000112B80050448000451898000501510059
:10CCB00052189800A0199000838F52000100310093
:10CCC00025189800B0189000810F5100B7FF31006F
:10CCD000321898000080FA0000000600B5FF370007
:10CCE0000100E00021003200E18F4000930032009B
:10CCF000807F2000800F5100E08F5900DD0036005A
:10CD000085FC2000850F5100E08F59002B023E006A
:10CD1000441ADD00CC12DE00850272004412DD00F0
:10CD2000500028009002E300E10132009022EF0061
:10CD3000A022EF00A822EF00241588005000280050
:10CD400080148800201580000100B800611588005B
:10CD500001C1B3004AC8BF00D88002000000000033
:10CD60000080FA000000060092FF37001E850200D6
:10CD7000000000000080FA00000006008DFF370070
:10CD80000100E000F9FF3200E18F40006B0032004B
:10CD900080BB2000800F5100E08F59009B003600BF
:10CDA00005532700850F5100E08F59007FFF3E009B
:10CDB0000201410083814900019AB9000208B800CC
:10CDC000810042004008DE00010020003412800093
:10CDD0007F026200FF0F52008F013200F401200039
:10CDE0003412880042128800501288008B20A9005B
:10CDF0009B20A9006000200020128800F1C0B30031
:10CE00004AC8BF00D8800200000000000080FA007D
:10CE10000000060067FF37000100E000D3FF32008A
:10CE2000E18F400045003200807F2000800F5100DC
:10CE3000E08F59006000360085FC2000850F51000E
:10CE4000E08F5900B6013E00441ADD00CC12DE002E
:10CE5000850272004412DD0050002800B402E30095
:10CE600085013200B422EF00C422EF00CC22EF0093
:10CE70004416880050002800A01588004016800045
:10CE80000100B8008116880021C1B3004AC8BF0064
:10CE9000D8800200000000000080FA0000000600B8
:10CEA00044FF37000100E000B0FF3200E18F400096
:10CEB0002200320080BB2000800F5100E08F59001B
:10CEC0002300360005532700850F5100E08F5900DD
:10CED00013003E000201410083814900019AB9001C
:10CEE0000208B800810042004008DE000100200076
:10CEF000941180007F026200FF0F52001601320081
:10CF0000F401200094118800A2118800B01188005B
:10CF10008840A9009840A900600020008011880086
:10CF2000D1C0B3004AC8BF00D88002000000000092
:10CF30000080FA00000006001EFF3700188502007E
:10CF4000000000000080FA000000060019FF370012
:10CF5000441ADD00CC12DE00850272004412DD00AE
:10CF600001A9B9000408B800810041004008DE00B2
:10CF700001002000921180007F016100FF0F51002D
:10CF8000DC003200F201200092118800A411880018
:10CF9000B01188008840A9009840A90060C0210015
:10CFA00080118800D1C0B3004AC8BF00D8800200F9
:10CFB00000000000DEFF3700451ADD00CB12DE0066
:10CFC000850272004512DD0050402800B402E300E3
:10CFD0006C003200B422EF00C422EF00CC22EF003C
:10CFE0004416880050402800A01588004016800094
:10CFF0000100B8008116880021C1B3004AC8BF00F3
:10D00000D880020000000000A3FF3700441ADD00B2
:10D01000CC12DE00850272004412DD0001A9B900C5
:10D020000408B800810041004008DE000100200033
:10D03000321280007F016100FF0F51006D0032004D
:10D04000F201200032128800441288005012880039
:10D050008B20A9009B20A90060C02100201288001D
:10D06000F1C0B3004AC8BF00D88002000000000031
:10D0700066FF3700451ADD00CB12DE008502720024
:10D080004512DD00504028009002E3004B003200C2
:10D090009022EF00A022EF00A822EF0024158800C4
:10D0A0005040280080148800201580000100B8003E
:10D0B0006115880001C1B3004AC8BF00D8800200D2
:10D0C0000000000026FF3700451ADD00CB12DE000D
:10D0D000850272004512DD00504028000003E30085
:10D0E0005D0032000023EF001023EF001823EF0053
:10D0F000A41888005040280000188800A01880005C
:10D100000100B800E118880041C1B3004AC8BF005F
:10D11000D880020000000000C9FE3700441ADD007C
:10D12000CC12DE00850272004412DD0001A9B900B4
:10D130000408B800810041004008DE000100200022
:10D14000E21180007F016100FF0F510050003200AA
:10D15000F2012000E2118800F4118800001288001A
:10D1600088C0A90098C0A90060C02100D011880023
:10D17000E1C0B3004AC8BF00D88002000000000030
:10D180008AFE3700CC02E20092FF3A00421680008D
:10D190008001EB00840F5100858F590037FF32006A
:10D1A000B422EF00C422EF00CC22EF004416880026
:10D1B00050402800A01588008CFF3700A802E2002C
:10D1C000B3FF3A00221580008001EB00840F51006C
:10D1D000858F5900DBFE32009022EF00A022EF0085
:10D1E000A822EF00241588005040280080148800F1
:10D1F000ADFF3700421280008001EB00840F510028
:10D20000858F59008EFF3A00521280008001EB009A
:10D21000800F5100818F590089FF3A0073C02100AF
:10D22000221280008281610062C02100828F510041
:10D23000F2FE3200F201200032128800441288000F
:10D24000501288008B20A9009B20A90060C02100FB
:10D250002012880082FF37001803E200A1FF3A0085
:10D26000A21880008001EB00840F5100858F5900C7
:10D270006CFE32000023EF001023EF001823EF00B4
:10D28000A418880050402800001888009BFF370031
:10D29000F21180008001EB00840F5100858F59004E
:10D2A000ABFF3A00021280008001EB00800F5100BA
:10D2B000818F5900A6FF3A0073C02100D21180006F
:10D2C0008281610062C02100828F510033FE3200F2
:10D2D000F2012000E2118800F41188000012880099
:10D2E00088C0A90098C0A90060C02100D0118800A2
:10D2F0009FFF3700A21180008001EB00840F5100D6
:10D30000858F59001FFF3A00B21180008001EB00A9
:10D31000800F5100818F59001AFF3A0073C021001D
:10D32000821180008281610062C02100828F5100E1
:10D33000FBFE3200F201200092118800A411880047
:10D34000B01188008840A9009840A90060C0210061
:10D350008011880013FF3700A41180008002EB00C9
:10D36000820F5200838F5A00E5FE3A00B41180000C
:10D370008002EB00800F5200818F5A00E0FE3A00DD
:10D3800074C021008511800005026200E60F520082
:10D39000E3FE3200F401200094118800A2118800FD
:10D3A000B01188008840A9009840A90060002000C2
:10D3B00080118800DAFE3700F41180008002EB0053
:10D3C000820F5200838F5A00ECFD3A000412800055
:10D3D0008002EB00800F5200818F5A00E7FD3A0077
:10D3E00074C02100D511800005026200E60F5200D2
:10D3F000EAFD3200F4012000E4118800F2118800F7
:10D400000012880088C0A90098C0A9006000200010
:10D41000D0118800E1FD3700441280008002EB004B
:10D42000820F5200838F5A006CFE3A005412800023
:10D430008002EB00800F5200818F5A0067FE3A0095
:10D4400074C021002512800005026200E60F520020
:10D450006AFE3200F4012000341288004212880073
:10D46000501288008B20A9009B20A900600020009A
:10D470002012880061FE3700CC02E20079FE3A00FB
:10D48000421680008001EB00840F5100858F590007
:10D490007AFE3200B422EF00C422EF00CC22EF006B
:10D4A0004416880050002800A015880073FE37003D
:10D4B000A802E2001DFE3A00221580008001EB0068
:10D4C000840F5100858F59001EFE32009022EF001C
:10D4D000A022EF00A822EF002415880050002800A9
:10D4E0008014880017FE37001803E200C7FD3A00D9
:10D4F000A21880008001EB00840F5100858F590035
:10D50000C8FD32000023EF001023EF001823EF00C6
:10D51000A41888005000280000188800C1FD3700BA
:10D52000C0FA2300800F5100E08F5900B7003E0081
:10D53000421ADD00CE12DE00850272004212DD00CA
:10D5400050042800B402E3000E003200B422EF00C1
:10D55000C422EF00CC22EF004416880050042800BB
:10D56000A0158800401680000100B80081168800D0
:10D5700021C1B3004AC8BF00D880020000000000EB
:10D5800045FE3700CC02E200F0FF3A004216800070
:10D590008001EB00840F5100858F590037FE320067
:10D5A000B422EF00C422EF00CC22EF004416880022
:10D5B00050042800A0158800EAFF3700C0FA2300B5
:10D5C000800F5100E08F59006D003E00421ADD00CF
:10D5D000CE12DE00850272004212DD0050042800E7
:10D5E0009002E3000E0032009022EF00A022EF0034
:10D5F000A822EF0024158800500428008014880019
:10D60000201580000100B8006115880001C1B30039
:10D610004AC8BF00D880020000000000D0FD3700DB
:10D62000A802E200F0FF3A00221580008001EB0022
:10D63000840F5100858F5900C2FD32009022EF0007
:10D64000A022EF00A822EF00241588005004280033
:10D6500080148800EAFF3700C0FA2300800F5100D1
:10D66000E08F590023003E00421ADD00CE12DE009A
:10D67000850272004212DD00500428000003E3001E
:10D680000E0032000023EF001023EF001823EF00FC
:10D69000A41888005004280000188800A0188000F2
:10D6A0000100B800E118880041C1B3004AC8BF00BA
:10D6B000D88002000000000061FD37001803E2007E
:10D6C000F0FF3A00A21880008001EB00840F5100A7
:10D6D000858F590053FD32000023EF001023EF0027
:10D6E0001823EF00A41888005004280000188800B0
:10D6F000EAFF370085DE2F00850F5100E08F5900CB
:10D7000048FD3E00500828000003E3000E003200F0
:10D710000023EF001023EF001823EF00A218880069
:10D720005008280000188800A01880000100B800E8
:10D73000E118880041C1B3004AC8BF00D880020088
:10D74000000000003EFD37001803E200F0FF3A0041
:10D75000A41880008002EB00820F5200838F5A00D1
:10D7600030FD32000023EF001023EF001823EF00FC
:10D77000A21888005008280000188800EAFF370027
:10D7800085DE2F00850F5100E08F59006DFD3E00B2
:10D79000500828009002E3000E0032009022EF00B3
:10D7A000A022EF00A822EF002215880050082800D0
:10D7B00080148800201580000100B80061158800E1
:10D7C00001C1B3004AC8BF00D880020000000000B9
:10D7D00063FD3700A802E200F0FF3A002415800044
:10D7E0008002EB00820F5200838F5A0055FD3200F9
:10D7F0009022EF00A022EF00A822EF00221588005F
:10D800005008280080148800EAFF370085DE2F00CA
:10D81000850F5100E08F590098FD3E005008280008
:10D82000B402E3000E003200B422EF00C422EF0085
:10D83000CC22EF004216880050082800A01588006E
:10D84000401680000100B8008116880021C1B30095
:10D850004AC8BF00D8800200000000008EFD3700DB
:10D86000CC02E200F0FF3A00441680008002EB0098
:10D87000820F5200838F5A0080FD3200B422EF00E5
:10D88000C422EF00CC22EF00421688005008280086
:10D89000A0158800EAFF3700E30F50002E00320089
:10D8A00007003600E50F5000210032000C0039005F
:10D8B000E60F5000140032000040EB0000000600AC
:10D8C000E10F50001F0032000A003600601880008F
:10D8D000680060000000E9004F00DE000000060064
:10D8E000400480000004B2000000E9004F00DE00A8
:10D8F00000000600E0148000680060000000E900FD
:10D900004F00DE0000000600514480002119900005
:10D9100010C0B3000200E000E8FF3A0031199000A7
:10D9200071F72F00810F5100E4FF3E000000050059
:10D93000500480000020B2000000E9004F00DE002B
:10D940000000060000168000680060000000E9008A
:10D950004F00DE000000060040048000640060000C
:10D960000000E9004F00DE0000000600E60F500056
:10D9700001003200000006004AC8BF00468D0400C6
:10D98000000000000600FA00889FBE00E50F50006E
:10D990000E003E006E03B9006C0243008533230085
:10D9A00065427A00E14F42004F003200A884200017
:10D9B00018447800884F52004D003200F00F2000CC
:10D9C0004F04BE000080FA0000000600603A230009
:10D9D00010427800E14F420036003200A58420005A
:10D9E00095427800854F5200340032008003B10028
:10D9F00000C2EB00904F12004A0032006E0040005F
:10DA0000904F1200630032006E004000904F1200F1
:10DA100079003200A8FB2F0000044400984F120048
:10DA20008E0032002035230000C2EB00904F120020
:10DA3000A2003200F00F20000436230080C2EB0069
:10DA40002900200094CF1200DDFF3A000900780081
:10DA5000B1BF9F00C2BF9F00D3BF9F008FFA0700D6
:10DA60006E4AB90004007800A484200014427800B3
:10DA7000047478008433230000004200DFB997006B
:10DA800003087800800178004FB997008229780058
:10DA90000001EB0092019800BFB897003100980098
:10DAA000090078004F04BE000080FA000000060064
:10DAB000C6FF3700A584200095427800054878000D
:10DAC000D39C8900E29C89000000EB00F09C890057
:10DAD000019D8900700020004F04BE000080FA0004
:10DAE00000000600B9FF3700A88420001844780021
:10DAF0004434230008727B0086824200830A780047
:10DB000085017800822978000001EB0092019800DD
:10DB1000B10298004F04BE000080FA000000060029
:10DB2000AAFF37003800200008007800B1BF9F002E
:10DB3000C2BF9F00D3BF9F0058FA07006E42B900D2
:10DB40000400780044342300A58420009542780026
:10DB5000057278006C02520000004200DFB99700A5
:10DB600003087800800178004FB997008229780077
:10DB70000001EB0092019800BFB8970031009800B7
:10DB8000080078004F04BE000080FA000000060084
:10DB90008EFF37004800200008007800B1BF9F00CA
:10DBA000C2BF9F00D3BF9F003CFA07006E42B9007E
:10DBB0000400780044342300A584200095427800B6
:10DBC000057278006C02520000004200DFB9970035
:10DBD00003087800800178004FB997008229780007
:10DBE0000001EB0092019800BFB897003100980047
:10DBF00008007800E3FF3700580020000800780094
:10DC0000B1BF9F00C2BF9F00D3BF9F0023FA070090
:10DC10006E42B9000400780044342300A58420003B
:10DC200095427800057278006C02520000004200B4
:10DC3000DFB9970003087800800178004FB997009A
:10DC4000822978000001EB0092019800BFB897008C
:10DC50003100980008007800CAFF37008004EB000C
:10DC600009007800B1BF9F00C2BF9F00D3BF9F00D3
:10DC70000AFA07006E4AB90004007800A484200064
:10DC800014427800047478008433230000004200BA
:10DC9000DFB9970003087800800178004FB997003A
:10DCA000822978000001EB0092019800BFB897002C
:10DCB00031009800090078007AFF37001900200031
:10DCC00009007800B1BF9F00C2BF9F00D3BF9F0073
:10DCD000F2F907006E4AB90004007800A48420001D
:10DCE000144278000474780084332300000042005A
:10DCF000DFB9970003087800800178004FB99700DA
:10DD0000822978000001EB0092019800BFB89700CB
:10DD1000310098000900780062FF3700E30F5000DF
:10DD2000460032000F003600E50F50002E00320092
:10DD30001800310000C02100801188003222EF005D
:10DD40003422EF00B09B8100B01188003822EF0030
:10DD50008840A9009840A80020C0210080118800B8
:10DD600000000600E10F50002B0032000C003600CE
:10DD70000023EF001023EF008D80A900D09A8100CE
:10DD8000A018880000002800001888009D80A800C6
:10DD900000000600E70F50000A00320000000600F5
:10DDA0009022EF00A022EF0094C0A900F09981001A
:10DDB000201588000000280080148800A4C0A80056
:10DDC000000006006C22EF007C22EF0094A0A90066
:10DDD000009D810000148800000028006013880066
:10DDE000A4A0A8000000060000C0210020128800A6
:10DDF0004622EF004822EF00209C8100501288004C
:10DE00004C22EF008B20A9009B20A80020C02100FD
:10DE10002012880000000600B422EF00C422EF00A8
:10DE20008D60A900609A81004016880000002800DB
:10DE3000A01588009D60A8000000060000C0210019
:10DE4000801188003222EF003422EF00409B8100D5
:10DE5000B01188003822EF008840A9009840A8003F
:10DE600020C021008011880000000600F623EF008A
:10DE700090002000C01F8800FC23EF000424EF0066
:10DE800080002000402088000A24EF000C24EF00CE
:10DE90000E24EF0010422800A01F8800000006009A
:10DEA000F623EF0090002000C01F8800FC23EF0045
:10DEB0000424EF0080002000402088000A24EF00A6
:10DEC0000C24EF000E24EF0010422800A01F880051
:10DED00071C0B3004AC8BF00D88004000000000031
:10DEE000514480004100900002C02F0002187800C9
:10DEF000C0009800000006005144800041009000DE
:10DF000002002E0002187800C000980000000600F1
:10DF10000002BE00E00F5000E08F58008500320084
:10DF20004828DD004821DE0002017000C829DE001B
:10DF30000204E0000D0135005144800041009000D2
:10DF400003002E0003187800C00098000281FB0037
:10DF50000268A3000101320003C02F0003187800FB
:10DF6000C00098000258A300AE00320003C02F008A
:10DF700003187800C00098000248A300AE003200E9
:10DF800003C02F0003187800C00098000238A300D7
:10DF9000AE00320003C02F0003187800C0009800C4
:10DFA0000228A300AE00320003C02F00031878003F
:10DFB000C00098000218A300AE00320003C02F007A
:10DFC00003187800C00098000208A300AE003200D9
:10DFD00002C02F0002187800C000980005417800A8
:10DFE0000204E000AE00350003002E0003187800A4
:10DFF000C00098000281FB000268A300AE0032005E
:10E0000003C02F0003187800C00098000258A30036
:10E01000AE00320003C02F0003187800C000980043
:10E020000248A300AE00320003C02F00031878009E
:10E03000C00098000238A300AE00320003C02F00D9
:10E0400003187800C00098000228A300AE00320038
:10E0500003C02F0003187800C00098000218A30026
:10E06000AE00320003C02F0003187800C0009800F3
:10E070000208A300AE0032000001780000C02F00AB
:10E0800000197800C2009800044078000004E00005
:10E09000AE00350003002E0003197800C20098007E
:10E0A0000080FB000068A3005A00320003C02F006C
:10E0B00003197800C20098000058A30051003200F4
:10E0C00003C02F0003197800C20098000048A30085
:10E0D0004800320003C02F0003197800C2009800E6
:10E0E0000038A3003000320003C02F00031978006D
:10E0F000C20098000028A3003000320003C02F00A7
:10E1000003197800C20098000018A3003000320004
:10E1100003C02F0003197800C20098000008A30074
:10E1200030003A0000002E0000197800C20098006C
:10E13000000006005244800000002E00C200900043
:10E14000801878008018780080187800801878008F
:10E15000801878008018780080187800801878007F
:10E16000801878008018780080187800801878006F
:10E17000801878008018780080187800801878005F
:10E18000801878008018780080187800801878004F
:10E19000801878008018780080187800801878003F
:10E1A000410198000000060003002E0003197800CA
:10E1B000C20098000028A300D0FF3A0003002E0000
:10E1C00003197800C20098000018A300D0FF3A009D
:10E1D00003002E0003197800C20098000008A30075
:10E1E000D0FF320000C02F0000197800C200980054
:10E1F0000000060003002E0003197800C2009800FA
:10E20000B7FF370003002E0003197800C200980002
:10E21000AEFF370003002E0003197800C2009800FB
:10E22000A5FF370003002E0003187800C0009800F7
:10E230000248A30052FF3A0003002E0003187800A2
:10E24000C00098000238A30052FF3A0003002E00DD
:10E2500003187800C00098000228A30052FF3A007B
:10E2600003002E0003187800C00098000218A300D5
:10E2700052FF3A0003002E0003187800C0009800F7
:10E280000208A30052FF3A0002002E000218780094
:10E29000C0009800054178000204E00052FF3D00F4
:10E2A00003C02F0003187800C00098000281FB0013
:10E2B0000268A30052FF3A0003002E000318780002
:10E2C000C00098000258A30052FF3A0003002E003D
:10E2D00003187800C00098000248A30052FF3A00DB
:10E2E00003002E0003187800C00098000238A30035
:10E2F00052FF3A0003002E0003187800C000980077
:10E300000228A30052FF3A0003002E0003187800F1
:10E31000C00098000218A30052FF3A0003002E002C
:10E3200003187800C00098000208A30052FF3A00CA
:10E330000001780000002E0000197800C20098004B
:10E34000044078000004E00052FF3D0003C02F00AD
:10E3500003197800C200980051FF370003002E0017
:10E3600003187800C0009800FEFE3700514480007A
:10E370004100900003C02F0003187800C0009800EF
:10E38000F2FE3700514480000001EB004100900094
:10E390000218780002187800C000980000000600FB
:10E3A000FE04A90050448000405190000281FB000F
:10E3B000010320000191B9003228880001402000AB
:10E3C0002128880050019000418A200081004100EE
:10E3D0001128880002142000F22788000270220011
:10E3E00002288800FE04A8004100980000000600F2
:10E3F000FE04A90000000600889FBE008A9FBE00A0
:10E400005144800001007800E1448800823A2300F2
:10E4100012417800B3CCB300834F5100F6003200B4
:10E4200014003600D0CCB300804F5100940032006D
