:1000000000010400000000000402000004020000DF
:1000100004020000040200000402000004020000C8
:1000200004020000040200000402000004020000B8
:1000300004020000040200000402000004020000A8
:100040000402000004020000040200000402000098
:100050000402000004020000040200000402000088
:100060000402000004020000040200000402000078
:100070000402000004020000040200000402000068
:100080000402000004020000040200000402000058
:100090000402000004020000040200000402000048
:1000A0000402000004020000040200000402000038
:1000B0000402000004020000040200000402000028
:1000C0000402000004020000040200000402000018
:1000D0000402000004020000040200000402000008
:1000E00004020000040200000402000004020000F8
:1000F00004020000040200000402000004020000E8
:1001000004020000040200000402000004020000D7
:1001100004020000040200000402000004020000C7
:1001200004020000040200000402000004020000B7
:1001300004020000040200000402000004020000A7
:100140000402000004020000040200000402000097
:100150000402000004020000040200000402000087
:100160000402000004020000040200000402000077
:100170000402000004020000040200000402000067
:100180000402000004020000040200000402000057
:100190000402000004020000040200000402000047
:1001A0000402000004020000040200000402000037
:1001B0000402000004020000040200000402000027
:1001C0000402000004020000040200000402000017
:1001D0000402000004020000040200000402000007
:1001E00004020000040200000402000004020000F7
:1001F00004020000040200000402000004020000E7
:100200002F8020000E7F24000E01880000000000D7
:10021000000020000000E000020032000001200089
:100220002002880014000700790007000000E000A9
:1002300003003A00202220000100200002003700C5
:100240000000200001002000810F7000010032003A
:1002500014000700000020000000E000020032004F
:100260000000020000000000100202000000000078
:100270000040DA000000FE004440A90020002000F9
:100280000000E00003003200100020009001880010
:100290004440A800000006008A1F78008B1F7800E9
:1002A00000000600A1028800800478000000EB0036
:1002B0001F003700E284440054A0B4009905BA003E
:1002C000E284440054A0B4009906BA00E2844400D9
:1002D00054A0B4000006EB00476FDE00FD07B2003B
:1002E000AE018800636CE10003003A00EAFF0700FA
:1002F0000000EB000E003700606CE10008003A00DF
:10030000004DEB000A05E800020039003420EC0043
:100310000AF0A0008B05E900F9FF3E000400370059
:100320006168E100010032000086EB000B0007006D
:1003300019C7BA001905BA000E04E00003003A001C
:100340000A00E000DBFF3A0000000600FE07B200F2
:10035000AE0288008A047800F5FF37000CD0A300B5
:10036000E20F4D001C00390089027800354DBA00BB
:100370000A05E800020039003420EC000AF0A00071
:100380008B05E9000F003200254DBA000A05E80090
:10039000020039003420EC000AF0A0008B05E900CF
:1003A000080032000C00E0000600320015CDBA0053
:1003B0000A05E800020039003420EC000AF0A00031
:1003C0008B05E9008984E80054A0B4000B00E0002C
:1003D000E2FF3A00000006009902BA00055D7800CD
:1003E0008B05E900F7FF3200C82ADE00055D7800C2
:1003F0008B05E900F3FF32000C00E000F1FF320052
:1004000019DDBA00EEFF37000040DA000000FE0000
:10041000000005000000FE000000FE00FDFF3700A8
:10042000AA24EF008300A800000024001000BA00F6
:10043000210024009100BA00004088000000010063
:10044000100005000008000002000000800000000D
:0404500000000000A8
:108000000048040000000000484D00008C4D0000B6
:10801000C84D0000664D0000AA4D0000EA4F000068
:10802000EA4F0000EA4F0000EA4F0000EA4F00006C
:10803000724F00001A4D000010490000EA4F000086
:108040009A4F00001E4D0000EA4F0000EA4F00006A
:10805000EA4F0000504E0000E64D0000B64E000012
:10806000EA4F0000EA4F0000EA4F00002C490000F0
:10807000EA4F0000EA4F0000EA4F0000EA4F00001C
:10808000EA4F0000EA4F0000EA4F0000C24F000034
:10809000EA4F0000EA4F0000EA4F0000EA4F0000FC
:1080A000EA4F0000EA4F0000EA4F0000EA4F0000EC
:1080B000EA4F0000EA4F0000EA4F0000EA4F0000DC
:1080C000EA4F0000EA4F0000EA4F0000EA4F0000CC
:1080D000EA4F0000224F00004A4F0000EA4F000024
:1080E000EA4F0000EA4F0000EA4F0000464B000054
:1080F000EA4F0000EA4F0000EA4F0000EA4F00009C
:10810000EA4F0000EA4F0000EA4F0000EA4F00008B
:10811000EA4F0000EA4F0000EA4F0000EA4F00007B
:10812000EA4F0000EA4F0000EA4F0000AC4E0000AA
:10813000EA4F0000EA4F0000EA4F0000EA4F00005B
:10814000EA4F0000EA4F0000EA4F0000EA4F00004B
:10815000EA4F0000EA4F0000EA4F0000EA4F00003B
:10816000EA4F0000EA4F0000EA4F0000EA4F00002B
:10817000EA4F0000EA4F0000EA4F0000EA4F00001B
:10818000EA4F0000EA4F0000EA4F0000EA4F00000B
:10819000EA4F0000EA4F0000EA4F0000EA4F0000FB
:1081A000EA4F0000EA4F0000EA4F0000EA4F0000EB
:1081B000EA4F0000EA4F0000EA4F0000D24E0000F4
:1081C000FA4E0000EA4F0000EA4F0000EA4F0000BC
:1081D000EA4F0000EA4F0000EA4F0000EA4F0000BB
:1081E000EA4F0000EA4F0000EA4F0000EA4F0000AB
:1081F000EA4F0000EA4F0000EA4F0000EA4F00009B
:109000006F3523000E7F24000E0188000000000051
:10901000000020000000E0000200320000012000FB
:109020002002880014000700EC0307000000E000A5
:1090300003003A0060642A000100200002003700AB
:109040000000200001002000810F700001003200AC
:1090500014000700000020000000E00002003200C1
:1090600000000200000000000E9A02000000000054
:109070000040DA000000FE004440A90080142000F7
:109080000000E00003003200002020009001880072
:109090004440A800000006008A1F78008B1F78005B
:1090A00000000600A1028800800478000000EB00A8
:1090B0001F003700E284440054A0B4009905BA00B0
:1090C000E284440054A0B4009906BA00E28444004B
:1090D00054A0B4000006EB00476FDE00FD07B200AD
:1090E000AE018800636CE10003003A00EAFF07006C
:1090F0000000EB000E003700606CE10008003A0051
:10910000004DEB000A05E800020039003420EC00B5
:109110000AF0A0008B05E900F9FF3E0004003700CB
:109120006168E100010032000086EB000B000700DF
:1091300019C7BA001905BA000E04E00003003A008E
:109140000A00E000DBFF3A0000000600FE07B20064
:10915000AE0288008A047800F5FF37000CD0A30027
:10916000E20F4D001C00390089027800354DBA002D
:109170000A05E800020039003420EC000AF0A000E3
:109180008B05E9000F003200254DBA000A05E80002
:10919000020039003420EC000AF0A0008B05E90041
:1091A000080032000C00E0000600320015CDBA00C5
:1091B0000A05E800020039003420EC000AF0A000A3
:1091C0008B05E9008984E80054A0B4000B00E0009E
:1091D000E2FF3A00000006009902BA00055D78003F
:1091E0008B05E900F7FF3200C82ADE00055D780034
:1091F0008B05E900F3FF32000C00E000F1FF3200C4
:1092000019DDBA00EEFF37003EAB0400000000009D
:10921000E488040000000000FC9D04000000000041
:109220003600F800809FBE00829FBE00849FBE0073
:10923000869FBE004C810200000000008880A900CB
:109240004F03BE004F02BE004F01BE004F00BE00E4
:109250003600F90000400600809FBE00829FBE00DD
:109260008A20A9009EE4AB001E003A004040800026
:109270008000EB00EB0F5000E08F58000C00360030
:109280000668EC009A44A80050408000200090003E
:109290000000E000020032006100200001087800B8
:1092A0000828EF004F01BE004F00BE00004006003E
:1092B00000600100320037002A00370062003700EA
:1092C000120037001E0037008A003700990037006F
:1092D0001B00370073003700E9FF37004C003700F0
:1092E0003F0037009EE4A9000828EF0050408000AE
:1092F000200090000008EB000A28EF004F01BE009C
:109300004F00BE0000400600E9FF37009E04E20067
:109310008F00350011C8BF008040E9001381200094
:10932000814978000004E000D0003A00600020008D
:109330000E28B4000C48ED000CE8B70009003A0014
:109340009A44A80050408000200090000000E000F7
:10935000D3FF320021002000010878000828EF0028
:10936000D0FF37009A24A800200020004040880049
:109370004F01BE004F00BE0000400600CCFF37008A
:109380000428AB00C7FF3A0010408000504088001E
:1093900010417800C1802000824878009001900040
:1093A000734088006600400010408800213123008F
:1093B000810F5000930032000408A9000008E30068
:1093C0008B0032009A04A800200020004040880052
:1093D0004F01BE004F00BE0000400600B4FF370042
:1093E0009E04E20071003D000668EC009A44A8006B
:1093F00050408000200090000000E000A8FF3200F4
:1094000041002000010878000828EF00A5FF370080
:109410009E04E200F4FF3500914080000100D1007D
:10942000F00FB200B02488000108A3007B003200D6
:10943000B0002000404088004F01BE004F00BE0039
:10944000004006009AFF370010C8BF00E14F5000EF
:109450006400320071408000110078009040880064
:1094600021019000A240880021419000138120003A
:1094700082497800F10F2000810F50006D003E00FE
:10948000B02488000008A3006400320050002000CF
:10949000404088004F01BE004F00BE000040060063
:1094A00083FF3700A1248000A0408000015878008D
:1094B000A04088001148ED0011E8B7002F003A00E5
:1094C0009AA4A800600020000E28B4000C48ED000B
:1094D0000CE8B70061003A004000200040408800DE
:1094E0009A84A8004F01BE004F00BE000040060055
:1094F0006FFF37009E04E20025003D000668EC0087
:109500009A44A80050408000200090000000E00035
:109510000200320041002000010878000828EF0016
:109520009FE4A9004F01BE004F00BE0000400600AE
:109530005FFF370080002000404088009A64A80048
:109540004F01BE004F00BE000040060058FF37002C
:109550000668EC009FE4A9009A44A80050408000EF
:10956000200090000000E0004DFF3200510020007C
:10957000010878000828EF004AFF37009AA4A900E4
:1095800060002000404088009A84A800D5FF370082
:109590009A64A80080002000404088004F01BE006F
:1095A0004F00BE000040060041FF37009A24A8008B
:1095B000904080004800DE0066006000100FB3009D
:1095C0009040880010C0B30010E8B70020002000D1
:1095D000404088004F01BE004F00BE000040060022
:1095E00033FF37001068EF0090408000A1FF370084
:1095F0000428A8009A04A800200020004040880009
:1096000073FF370066805000104088000408A900EE
:109610000008E3006BFF3A00F5FF37003000200040
:10962000404088004F01BE004F00BE0000400600D1
:109630001FFF37004800DE0066006000000FB30027
:10964000B0248800A0002000404088004F01BE00E8
:109650004F00BE000040060015FF3700100020003C
:10966000404088009A84A8009EFF3700A0408000F8
:10967000B080FB00B1248800A04088004F01BE00EC
:109680004F00BE000040060009FF3700809FBE006B
:10969000829FBE0030C6B30016E8B7008E20A90036
:1096A000E0408000F140800061004000E080480020
:1096B000E0408800F1408800AE84AB000600320034
:1096C00017C8BF00E74F5000330036004F01BE00FF
:1096D0004F00BE000040060021418000E28F500094
:1096E0003200320046003100AEA4AB00540032001C
:1096F000AAE4AB0002003200AF24AB0050003A00F5
:109700001948E2004E003A0040C6B30016E8B70020
:10971000E18F5000EDFF3A00C0C0B30016E8B7007B
:10972000AEA4AB00E9FF3200D0C0B30016E8B7002A
:10973000AEC4AB0098003A00E0C0B30016E8B70032
:109740001A48E2008F003A001948E2008D003A0002
:1097500017C8BF00E74F500085003E00AAA4A9002B
:109760002325800017C8BF000080FB00E2312300E2
:10977000037178001768EC0017C8BF00E84F50006D
:10978000750032002F68EF004F01BE004F00BE0091
:1097900000400600D0FF37001768EF004F01BE0001
:1097A0004F00BE0000400600CBFF3700AE04E200D1
:1097B00081003500AAA4A90018C8BF000080FB00E2
:1097C00061322300614078000080FB003025880072
:1097D00018C8BF00E64F500001003E001868EC00BA
:1097E0003068EF00AB84A80000C1B30016E8B700F2
:1097F0004F01BE004F00BE0000400600B6FF37001C
:10980000E38F500001003200FFFF370020C1B3009A
:1098100016E8B70010C0B30026E8B70030C1B300A7
:1098200016E8B700202580001000200020418800A5
:109830004F01BE004F00BE0000400600A6FF3700EB
:10984000AE44AB0013003A0010C0B30016E8B700F6
:10985000AFA4AB006200320019E8B700B0C0B3009B
:1098600016E8B70020258000AAA4A9002F48E2002E
:109870006C0032003048E2006A003A00A0C0B30039
:1098800032E8B700C0C0B30016E8B7001868EF00B0
:109890009FFF370050C3B30016E8B700AFA4AB007A
:1098A0000F00320010C0B30019E8B70050C0B30079
:1098B00016E8B70020258000AAA4A9001868EF00C8
:1098C0002F48E200020032003048E2001A00320065
:1098D000AB84A80040C3B30016E8B7008CFF370084
:1098E00060C0B30016E8B70020258000AAA4A90034
:1098F00018C8BF000080FB0061322300614078007F
:109900000080FB003025880018C8BF00E64F5000DB
:1099100001003E001868EC003068EF00AB84A8003E
:1099200020002000204188004F01BE004F00BE00F3
:109930000040060068FF3700A0C0B30031E8B70060
:1099400030C3B30016E8B7004F01BE004F00BE00A1
:109950000040060060FF3700F282200001497800D5
:109960004F01BE004F00BE00004006005AFF370006
:10997000202580004F01BE004F00BE0000400600C1
:1099800055FF37001A68EF004F01BE004F00BE00C0
:109990000040060050FF370020258000AEC4A9001B
:1099A000F0C0B30016E8B7004F01BE004F00BE0084
:1099B0000040060048FF37002428EF0018C8BF0009
:1099C000E74F500011003E0010C1B30016E8B70089
:1099D0004F01BE004F00BE00004006003EFF3700B2
:1099E0001968EF0020258000110020002141880027
:1099F00030C0B30016E8B700AEA4AB0044FF32009D
:109A0000A28120000149780041FF370010CBB3004C
:109A100016E8B7004F01BE004F00BE000040060030
:109A20002DFF3700AB84A800D0C0B30016E8B70004
:109A300096FF37008860A900004006003600F80055
:109A4000809FBE00829FBE00849FBE00869FBE0096
:109A5000C04280000000E000010032000000010070
:109A6000303523001048E80011C0B3000000E900C1
:109A70000148780088E0A9004F03BE004F02BE00F5
:109A80004F01BE004F00BE003600F9000040060046
:109A90003600F800809FBE00829FBE00849FBE00FB
:109AA000869FBE008020A9000000EB0074AD02007C
:109AB000000000004F03BE004F02BE004F01BE0079
:109AC0004F00BE003600F900004006003600F800E6
:109AD000809FBE00829FBE00849FBE00869FBE0006
:109AE000402D2300800778007800400000018800A6
:109AF0008040A9001000200074AD020000000000AA
:109B00004F03BE004F02BE004F01BE004F00BE001B
:109B10003600F900004006003600F800809FBE00C5
:109B2000829FBE00849FBE00869FBE008060A90009
:109B30002000200074AD0200000000004F03BE00B2
:109B40004F02BE004F01BE004F00BE003600F900BC
:109B5000004006003600F800809FBE00829FBE00D5
:109B6000849FBE00869FBE008080A9003000200038
:109B700074AD0200000000004F03BE004F02BE00A3
:109B80004F01BE004F00BE003600F9000040060045
:109B90003600F800809FBE00829FBE00849FBE00FA
:109BA000869FBE008600A9007000200074AD0200F0
:109BB000000000004F03BE004F02BE004F01BE0078
:109BC0004F00BE003600F90000400600809FBE0036
:109BD000829FBE00018D8100F08C8100808F50003B
:109BE000220032008980A9004226230003FC2F00B6
:109BF000828141009B23AB0010003A00008D810060
:109C00001080FB00E01C8800008D81000000E8004F
:109C1000008D8900008D8100820F50000A00320003
:109C2000108D81000080A100108D8900018D8100C0
:109C3000F08C8100808F5000EEFF3A004F01BE0093
:109C40004F00BE0000400600038D8900108D81008A
:109C50000080A100108D8900018D8100F08C8100B1
:109C6000808F5000E3FF3A00F4FF3700108D810031
:109C70000088A300DBFF3A009B03AB00FEFF32002D
:109C8000108D81000090A000108D89009980A9009E
:109C90004F01BE004F00BE0000400600EAFF370043
:109CA000809FBE00829FBE008960A90042222300DF
:109CB00003F82F00828141009A03AB001A003200A2
:109CC000F01C800068E8B700D18C810080487800E3
:109CD000504380006143800061004000E080480004
:109CE0005043880061438800D08C81000000E80068
:109CF000D08C8900D08C8100820F50000D00320082
:109D0000108D81000010A100108D8900D18C810080
:109D1000E08C8100808F5000E7FF3A00108D8100B9
:109D20000000A000108D89004F01BE004F00BE0052
:109D300000400600D38C8900108D81000010A10026
:109D4000108D8900D18C8100E08C8100808F5000C3
:109D5000D9FF3A00F1FF37009A23AB00010032002F
:109D60009A23A9009020A900004006003200F800C4
:109D70003400F800881F780018002000A80188002F
:109D800008202000980188004F04780089A0AB00CB
:109D90000100320089A0A9003400F9003200F90066
:109DA000004006003600F800809FBE00829FBE0083
:109DB000849FBE00869FBE00309681000000E000B8
:109DC000010032000000010094A0A900A4A0A90095
:109DD0004A28EC00802C230000C8EB004F03BE0093
:109DE0004F02BE004F01BE004F00BE003600F9001A
:109DF000004006003600F800809FBE00829FBE0033
:109E0000849FBE00869FBE00209381000000E0007A
:109E1000010032000000010094C0A900A4C0A90004
:109E20004C28EC006026230000C8EB004F03BE0066
:109E30004F02BE004F01BE004F00BE003600F900C9
:109E4000004006003600F800809FBE00829FBE00E2
:109E5000849FBE00869FBE00909381000000E000BA
:109E600001003200000001008D60A9009D60A90082
:109E70004E28EC004027230000C8EB004F03BE0033
:109E80004F02BE004F01BE004F00BE003600F90079
:109E9000004006003600F800809FBE00829FBE0092
:109EA000849FBE00869FBE00009481000000E000F9
:109EB00001003200000001008D80A9009D80A900F2
:109EC0005028EC002028230000C8EB004F03BE0000
:109ED0004F02BE004F01BE004F00BE003600F90029
:109EE000004006003600F800809FBE00829FBE0042
:109EF000849FBE00869FBE00709481000000E00039
:109F000001003200000001008840A9009840A9002B
:109F10005228EC000029230000C8EB004F03BE00CC
:109F20004F02BE004F01BE004F00BE003600F900D8
:109F3000004006003600F800809FBE00829FBE00F1
:109F4000849FBE00869FBE00E09481000000E00078
:109F5000010032000000010088C0A90098C0A900DB
:109F60005428EC00E029230000C8EB004F03BE009A
:109F70004F02BE004F01BE004F00BE003600F90088
:109F8000004006003600F800809FBE00829FBE00A1
:109F9000849FBE00869FBE00509581000000E000B7
:109FA00001003200000001008B20A9009B20A900C5
:109FB0005628EC00C02A230000C8EB004F03BE0067
:109FC0004F02BE004F01BE004F00BE003600F90038
:109FD000004006000040DA000000FE00000005001E
:109FE000839F68000100E00002003D006000100057
:109FF000E08018000300E00002003D006001110055
:10A00000E08119006B0007004F00E00002003B00F8
:10A0100060001000E0801800000006000001BE0093
:10A020001B0007000470A70003F0A10003F8A300C1
:10A0300013003A006509B100100032000900350034
:10A040006928E10002003500010028000000050039
:10A0500000004000818048008502E900FCFF3A00D2
:10A0600000000600F88F4200050035008100D10095
:10A070000080D3008502E800FCFF3A0000000600E3
:10A080008000EB00000005006011B80059003700A7
:10A09000C70ADE00F107B200F50FB2000800320077
:10A0A000E1CF4200020032000170A0002400050050
:10A0B000810F700001003200040805004400050013
:10A0C000810F700002003A00140005008502E900CB
:10A0D0000000400081C04800FCFF3B000170A00070
:10A0E00024000500889FBE008A9FBE008C1F780058
:10A0F000950007009C00330003866C006450E1006B
:10A10000240032006420E100270032006150E100A9
:10A11000220032006120E100210032008B854200E4
:10A12000EB07B1000134B800003AB800080442005F
:10A1300089844A00013AB8000030B80088804000A5
:10A1400009014A00040033000000400081804800FB
:10A15000020149008B05E900C909DD008301700097
:10A160000100320013002000C814DE004814DD0096
:10A170004709DE001200B200C808DE000884700043
:10A180004B00070001F0A1000CF0A70001F0A000B7
:10A190007E0037006120E100800032000801BE002F
:10A1A0000200BE00F7FF37006150E100FCFF3A00FB
:10A1B0007A0037006022B800060220000000D000BC
:10A1C0008180D2000482D2008582D2000000A000EB
:10A1D0000202520083825A00030031000202420050
:10A1E00083824A000000A1000603E900F3FF3A0061
:10A1F00000000600889FBE008A9FBE00008270009B
:10A200000402710004827100260032000004BE00C6
:10A210000200BE006011B8006B092000950220000A
:10A220000182CF000A0039000541B1000082CF0051
:10A23000070039000541B1000982CF000400390050
:10A240000541B1000882CF00010039000541B1008D
:10A2500005425200120032000A003B008281710068
:10A26000610164008100D1000080D3008984D300A3
:10A270000884D3008B05E8000442E800F7FF3A00A9
:10A28000070037000804440089844C00000048009F
:10A29000818048008B05E9000442E900F9FF3A009B
:10A2A000030007004F05BE004F04BE00000006007B
:10A2B00081002000618055000B003D000B00200054
:10A2C00061FE2F000100E1001D0034008281710059
:10A2D000610164008904D1000884D3000000E80013
:10A2E000FAFF3A0071002000610064000300700072
:10A2F000020060000900320061044400E0844C0068
:10A300000988A500050032008B05E8006808E10017
:10A3100002003A008904D1000884D300F20F200023
:10A320000258E10005003D00C75DDD00F907B200FD
:10A330008980750008007800000006000BF82700EF
:10A340008B007800000005000004BE0050FF0700ED
:10A350000003BE000405BE000200BE004CFF070063
:10A36000844F7500000006000200BE006450E1004A
:10A37000050036006420E100020036000968A300F1
:10A3800001003A000800BE000160A0004F067800FE
:10A390004F05BE004F04BE0000000600F0FF2F0076
:10A3A000F1FF2700F9FF3700800178000200370035
:10A3B000B15978000201E9000200E000FCFF3A0018
:10A3C0000000060000000000010000000200000084
:10A3D0000400000008000000000000000000000071
:10A3E00010000000000000002000000040000000FD
:10A3F00080000000000100000002000000040000D6
:10A4000000080000001000000020000000400000D4
:10A4100000800000020000000000000000000000BA
:10A420000000000000000000040000000800000020
:10A43000000000001000000000000000000000000C
:10A44000000000000000000000000000000000000C
:10A4500000000000000000000000000000000000FC
:10A4600000000000000100000101000001000000E8
:10A4700000010000000100000101000001010000D6
:10A4800001010000010100000101000002000000C4
:10A4900001000000020000000400000008000000AD
:10A4A0000400000008000000100000001000000080
:10A4B00020000000400000008000000000010000BB
:10A4C000000200000004000000080000001000006E
:10A4D0000020000000400000008000000102000099
:10A4E0000304000005FF0000FFFF0000FFFF000065
:10A4F000FFFF0000FFFF0000FFFF00000807000053
:10A500000609000001010000010100000101000036
:10A51000000000000000000000000000000000003B
:10A520000000000000010000010100000100000027
:10A530003F0600005B4F0000666D00007D070000D5
:10A540007F670000777C0000395E000079710000B1
:10A5500000000000000000000000000000000000FB
:10A5600000000000000000000000000000000000EB
:10A5700000020000221000006D64000010020000C4
:10A58000390F00000110000004400000104A0000D4
:10A590003F0600005B4F0000666D00007D07000075
:10A5A0007F67000010100000184800000C10000029
:10A5B000107700007C3900005E790000717D00009A
:10A5C000763000001E76000038540000545C000015
:10A5D00073670000506D0000781C00001C1C000018
:10A5E000766E00005B390000640F00002308000055
:10A5F000207700007C3900005E790000717D00004A
:10A60000763000001E76000038540000545C0000D4
:10A6100073670000506D0000781C00001C1C0000D7
:10A62000766E00005B390000300F00000100000072
:10A630002A0A00000482000040A00000CF8A000027
:10A64000436800001A0D000006030000010000002E
:10A65000000000006E01B90082007800622623002D
:10A660000101410000C9EB004226230081004100A6
:10A670008008EB00E20F50002B0032000A00360089
:10A68000E40F500031003200150031003022EF009D
:10A69000C0002000901188003822EF009840A900E7
:10A6A0008840A900000006000000E00009003A0010
:10A6B0009022EF009222EF009422EF000010200081
:10A6C000B01488009A22EF009C22EF009E22EF0037
:10A6D00000000600E10F50000A00320000000600F2
:10A6E000E50F5000FDFF3A004422EF00C0002000BB
:10A6F000301288004C22EF009B20A9008B20A9007B
:10A7000000000600B422EF00B622EF00B822EF00EE
:10A7100000102000D0158800BE22EF00C022EF00FC
:10A72000C222EF00000006000023EF000223EF002A
:10A730000423EF0000102000301888000A23EF00E7
:10A740000C23EF000E23EF00000006003A22EF007A
:10A75000C0002000E01188004222EF0098C0A9004C
:10A7600088C0A90000000600881F78000044EB00A4
:10A770000880FB00B7FF07000844E800E84F5400DA
:10A78000FBFF3A004F04780000000600881F7800A5
:10A790000004780048C8BF00AE7E02000000000040
:10A7A0000004E00008003A00F00F2000E50F54001C
:10A7B0000300360060002000EB0F54000F00320051
:10A7C0004F04780000000600E60F54000F0032002E
:10A7D00063262300830078000000EB00004178002E
:10A7E00000C2EB00914F12000C0032000000E800A4
:10A7F000EE804000E60F5000F8FF3A00F00F200016
:10A800004F04780000000600EFFF370008007800D2
:10A810004F04780000000600EBFF37006E00B9001F
:10A820008484200014427800847178000280FB0048
:10A830004F04780000000600E3FF37000400FA0030
:10A84000881F780000047800E60F540033003200BF
:10A8500048C8BF00D2BF9F00E3BF9F00AE7E02008A
:10A86000000000005FB99700EFB997000004E00016
:10A8700009003A00F00F2000E50F540003003600F5
:10A8800060002000EB0F5400460032004F047800B7
:10A890000080FA000000060060002000C1FD2F00CB
:10A8A000810F5100E08F5900F8FF3E0070802F00AB
:10A8B000F1FF2F00020040008380480074D326007F
:10A8C000840F5000E08F580019003E0065262300D9
:10A8D0001543780081842000914078000040EB000F
:10A8E0008001EB0044262300E14F4300400032008A
:10A8F000814F53003E0032000040E800E64F500018
:10A90000DFFF32008081FB00E2C0B3000440BC00E6
:10A910000281E80064437900F3FF37000800780003
:10A920004F0478000080FA0000000600DAFF3700CC
:10A930006526230015437800E14F430024003200D0
:10A940008184200091407800814F53002200320022
:10A950004427230014407800E14F400016003200E5
:10A9600080CF5000140032002428230014407800C7
:10A97000E14F40001000320080CF50000E00320046
:10A980006000200004532700840F5100E08F59001D
:10A99000BEFF3E000040EB008001EB004426230098
:10A9A000D1FF3700F00F20004F0478000080FA003C
:10A9B00000000600B8FF3700014A780010002000B0
:10A9C0004F0478000080FA0000000600B2FF370054
:10A9D0008684200016437800864A78000000EB0049
:10A9E0004F0478000080FA0000000600AAFF37003C
:10A9F0006E1BB90081727B00030078004F04780061
:10AA00000080FA0000000600A3FF3700889FBE0008
:10AA10000004780048C8BF00AE7E020000000000BD
:10AA20000004E00006003A00EA0F54000A00320079
:10AA3000E50F5400150036004F04BE00000006006C
:10AA40008040EB0048C8BF00807C0200000000008E
:10AA5000EA0F5400F6FF3A00692623000044EB0099
:10AA6000194078004848E3000D0032000844E8002F
:10AA7000EE844400E84F5400EFFF320019407800A4
:10AA80004848E300F9FF3A00050037000800780065
:10AA9000F0FE07004F04BE0000000600E8FF37008C
:10AAA0000880FB00EBFE07000844E800EE84440049
:10AAB000E84F5400F1FF3A00DFFF3700881F7800AD
:10AAC00000017800E30F51006A00320014003600E4
:10AAD000E50F5100470032002200310000C0210084
:10AAE000D01188003C22EF003E22EF00C408DD00B8
:10AAF000011288004222EF0088C0A90098C0A90076
:10AB00000080E800D0118800E1C0B30048C8BF0051
:10AB1000807C0200000000004F0478000000060066
:10AB2000E10F510045003200240036000023EF0001
:10AB30001023EF00C408DD00C118880041C1B30034
:10AB400048C8BF00807C0200000000000C23EF001A
:10AB500020002800001888004F047800000006003C
:10AB6000EFFF3700E60F5100EBFF3A00384480005A
:10AB700000102E000008B80002242400F30020007A
:10AB8000DA50020000000000401C9800E0FF2F0097
:10AB9000501C98000000EB00201C9800301C98000E
:10ABA0008040EB0048C8BF00807C0200000000002D
:10ABB0004F04780000000600D9FF37009022EF0014
:10ABC000A022EF00C408DD004115880001C1B300D8
:10ABD00048C8BF00807C0200000000009C22EF00FB
:10ABE00020002800801488004F0478000000060030
:10ABF000CBFF370000C02100201288004622EF0062
:10AC00004822EF00C408DD00511288004C22EF00FA
:10AC10008B20A9009B20A9000080E800201288005A
:10AC2000F1C0B30048C8BF00807C020000000000F3
:10AC30004F04780000000600B9FF3700B422EF008F
:10AC4000C422EF00C408DD006116880021C1B300F2
:10AC500048C8BF00807C020000000000C022EF0056
:10AC600020002800A01588004F047800000006008E
:10AC7000ABFF370000C02100801188003222EF00B6
:10AC80003422EF00C408DD00B11188003822EF0043
:10AC90008840A9009840A9000080E8008011880041
:10ACA000D1C0B30048C8BF00807C02000000000093
:10ACB0004F0478000000060099FF37000600FA00F4
:10ACC000E30F5000E500320028003600E50F500089
:10ACD000990032004B0031000100E0009100320089
:10ACE000E18F40000301320080BB2000800F510043
:10ACF000E08F59007701360005532700850F51007A
:10AD0000E08F590017003E00020141008381490095
:10AD1000019AB9000208B800810042004008DE0034
:10AD200001002000E41180007F026200FF0F52004A
:10AD30000F023200F4012000E4118800F2118800B3
:10AD40000012880088C0A90098C0A90060002000F7
:10AD5000D0118800E1C0B30048C8BF00807C020069
:10AD6000000000000080FA0000000600E10F500023
:10AD700097003200480036000100E0006900320010
:10AD8000E18F4000DB003200807F2000800F510007
:10AD9000E08F59003A01360085FC2000850F5100F4
:10ADA000E08F59009A023E00441ADD00CC12DE000A
:10ADB000850272004412DD00500028000003E30009
:10ADC000370232000023EF001023EF001823EF00BA
:10ADD000A41888005000280000188800A0188000DF
:10ADE0000100B800E118880041C1B30048C8BF00A5
:10ADF000807C0200000000000080FA0000000600D5
:10AE0000DAFF3700E60F5000D6FF3A00E18F40002E
:10AE1000B8003200F1BF9F00D2BF9F00E3BF9F0088
:10AE2000BC80020000000000F0EB20005FB997003A
:10AE3000EFB99700009AB9000011B80083014200F1
:10AE400004002800050020000201420083814A001E
:10AE500003017800FFB897000112B8003044800069
:10AE6000451898000501510052189800A01990004B
:10AE7000838F52000100310025189800B01890000F
:10AE8000810F5100B7FF3100321898000080FA009E
:10AE900000000600B5FF37000100E000210032008D
:10AEA000E18F400093003200807F2000800F51002E
:10AEB000E08F5900DD00360085FC2000850F510031
:10AEC000E08F59002B023E00441ADD00CC12DE0058
:10AED000850272004412DD00500028009002E30059
:10AEE000E10132009022EF00A022EF00A822EF0043
:10AEF0002415880050002800801488002015800048
:10AF00000100B8006115880001C1B30048C8BF0046
:10AF1000807C0200000000000080FA0000000600B3
:10AF200092FF3700BC800200000000000080FA00A1
:10AF3000000006008DFF37000100E000F9FF32003D
:10AF4000E18F40006B00320080BB2000800F510079
:10AF5000E08F59009B00360005532700850F5100F4
:10AF6000E08F59007FFF3E000201410083814900CC
:10AF7000019AB9000208B800810042004008DE00D2
:10AF800001002000341280007F026200FF0F520097
:10AF90008F013200F4012000341288004212880030
:10AFA000501288008B20A9009B20A900600020007F
:10AFB00020128800F1C0B30048C8BF00807C0200A6
:10AFC000000000000080FA000000060067FF370064
:10AFD0000100E000D3FF3200E18F40004500320065
:10AFE000807F2000800F5100E08F59006000360004
:10AFF00085FC2000850F5100E08F5900B6013E000E
:10B00000441ADD00CC12DE00850272004412DD001D
:10B0100050002800B402E30085013200B422EF00A2
:10B02000C422EF00CC22EF00441688005000280014
:10B03000A0158800401680000100B8008116880025
:10B0400021C1B30048C8BF00807C0200000000009E
:10B050000080FA000000060044FF37000100E00015
:10B06000B0FF3200E18F40002200320080BB2000A0
:10B07000800F5100E08F5900230036000553270050
:10B08000850F5100E08F590013003E00020141007E
:10B0900083814900019AB9000208B800810042008A
:10B0A0004008DE0001002000941180007F02620051
:10B0B000FF0F520016013200F401200094118800A5
:10B0C000A2118800B01188008840A9009840A9000A
:10B0D0006000200080118800D1C0B30048C8BF00C4
:10B0E000807C0200000000000080FA0000000600E2
:10B0F0001EFF3700B6800200000000000080FA004A
:10B100000000060019FF3700441ADD00CC12DE00F3
:10B11000850272004412DD0001A9B9000408B800DC
:10B12000810041004008DE000100200092118000F3
:10B130007F016100FF0F5100DC003200F2012000AE
:10B1400092118800A4118800B01188008840A900DD
:10B150009840A90060C0210080118800D1C0B300D0
:10B1600048C8BF00807C020000000000DEFF3700FE
:10B17000451ADD00CB12DE00850272004512DD00AB
:10B1800050402800B402E3006C003200B422EF000B
:10B19000C422EF00CC22EF00441688005040280063
:10B1A000A0158800401680000100B80081168800B4
:10B1B00021C1B30048C8BF00807C0200000000002D
:10B1C000A3FF3700441ADD00CC12DE0085027200B6
:10B1D0004412DD0001A9B9000408B8008100410053
:10B1E0004008DE0001002000321280007F01610073
:10B1F000FF0F51006D003200F20120003212880072
:10B2000044128800501288008B20A9009B20A900BE
:10B2100060C0210020128800F1C0B30048C8BF0000
:10B22000807C02000000000066FF3700451ADD0048
:10B23000CB12DE00850272004512DD00504028006E
:10B240009002E3004B0032009022EF00A022EF00BA
:10B25000A822EF00241588005040280080148800A0
:10B26000201580000100B8006115880001C1B300FD
:10B2700048C8BF00807C02000000000026FF3700A5
:10B28000451ADD00CB12DE00850272004512DD009A
:10B29000504028000003E3005D0032000023EF006F
:10B2A0001023EF001823EF00A41888005040280056
:10B2B00000188800A01880000100B800E11888007C
:10B2C00041C1B30048C8BF00807C020000000000FC
:10B2D000C9FE3700441ADD00CC12DE008502720080
:10B2E0004412DD0001A9B9000408B8008100410042
:10B2F0004008DE0001002000E21180007F016100B3
:10B30000FF0F510050003200F2012000E2118800CE
:10B31000F41188000012880088C0A90098C0A90014
:10B3200060C02100D0118800E1C0B30048C8BF0050
:10B33000807C0200000000008AFE3700CC02E200A0
:10B3400092FF3A00421680008001EB00840F51000A
:10B35000858F590037FF3200B422EF00C422EF007E
:10B36000CC22EF004416880050402800A015880029
:10B370008CFF3700A802E200B3FF3A0022158000DC
:10B380008001EB00840F5100858F5900DBFE3200F5
:10B390009022EF00A022EF00A822EF0024158800E1
:10B3A0005040280080148800ADFF37004212800012
:10B3B0008001EB00840F5100858F59008EFF3A0009
:10B3C000521280008001EB00800F5100818F5900E4
:10B3D00089FF3A0073C0210022128000828161003F
:10B3E00062C02100828F5100F2FE3200F201200083
:10B3F0003212880044128800501288008B20A90065
:10B400009B20A90060C021002012880082FF370025
:10B410001803E200A1FF3A00A21880008001EB00AF
:10B42000840F5100858F59006CFE32000023EF001D
:10B430001023EF001823EF00A418880050402800C4
:10B44000001888009BFF3700F21180008001EB009C
:10B45000840F5100858F5900ABFF3A000212800023
:10B460008001EB00800F5100818F5900A6FF3A0048
:10B4700073C02100D21180008281610062C021006E
:10B48000828F510033FE3200F2012000E211880069
:10B49000F41188000012880088C0A90098C0A90093
:10B4A00060C02100D01188009FFF3700A2118000EA
:10B4B0008001EB00840F5100858F59001FFF3A0077
:10B4C000B21180008001EB00800F5100818F590084
:10B4D0001AFF3A0073C0210082118000828161004E
:10B4E00062C02100828F5100FBFE3200F201200079
:10B4F00092118800A4118800B01188008840A9002A
:10B500009840A90060C021008011880013FF370017
:10B51000A41180008002EB00820F5200838F5A003A
:10B52000E5FE3A00B41180008002EB00800F52006B
:10B53000818F5A00E0FE3A0074C02100851180001E
:10B5400005026200E60F5200E3FE3200F401200023
:10B5500094118800A2118800B01188008840A900C9
:10B560009840A9006000200080118800DAFE3700B2
:10B57000F41180008002EB00820F5200838F5A008A
:10B58000ECFD3A00041280008002EB00800F5200B4
:10B59000818F5A00E7FD3A0074C02100D511800068
:10B5A00005026200E60F5200EAFD3200F4012000BD
:10B5B000E4118800F21188000012880088C0A900F8
:10B5C00098C0A90060002000D0118800E1FD37007C
:10B5D000441280008002EB00820F5200838F5A00D9
:10B5E0006CFE3A00541280008002EB00800F520083
:10B5F000818F5A0067FE3A0074C021002512800036
:10B6000005026200E60F52006AFE3200F4012000DB
:10B610003412880042128800501288008B20A90042
:10B620009B20A900600020002012880061FE3700E6
:10B63000CC02E20079FE3A00421680008001EB0065
:10B64000840F5100858F59007AFE3200B422EF003A
:10B65000C422EF00CC22EF004416880050002800DE
:10B66000A015880073FE3700A802E2001DFE3A0014
:10B67000221580008001EB00840F5100858F590056
:10B680001EFE32009022EF00A022EF00A822EF0061
:10B6900024158800500028008014880017FE370009
:10B6A0001803E200C7FD3A00A21880008001EB00F9
:10B6B000840F5100858F5900C8FD32000023EF0030
:10B6C0001023EF001823EF00A41888005000280072
:10B6D00000188800C1FD3700C0FA2300800F510018
:10B6E000E08F5900B7003E00421ADD00CE12DE00A6
:10B6F000850272004212DD0050042800B402E3000B
:10B700000E003200B422EF00C422EF00CC22EF0082
:10B710004416880050042800A015880040168000B8
:10B720000100B8008116880021C1B30048C8BF00DD
:10B73000807C02000000000045FE3700CC02E200E1
:10B74000F0FF3A00421680008001EB00840F5100A8
:10B75000858F590037FE3200B422EF00C422EF007B
:10B76000CC22EF004416880050042800A015880061
:10B77000EAFF3700C0FA2300800F5100E08F590024
:10B780006D003E00421ADD00CE12DE00850272001E
:10B790004212DD00500428009002E3000E00320047
:10B7A0009022EF00A022EF00A822EF0024158800CD
:10B7B0005004280080148800201580000100B80083
:10B7C0006115880001C1B30048C8BF00807C020039
:10B7D00000000000D0FD3700A802E200F0FF3A00B0
:10B7E000221580008001EB00840F5100858F5900E5
:10B7F000C2FD32009022EF00A022EF00A822EF004D
:10B80000241588005004280080148800EAFF3700BF
:10B81000C0FA2300800F5100E08F590023003E0042
:10B82000421ADD00CE12DE00850272004212DD00F7
:10B83000500428000003E3000E0032000023EF0054
:10B840001023EF001823EF00A418880050042800EC
:10B8500000188800A01880000100B800E1188800D6
:10B8600041C1B30048C8BF00807C02000000000056
:10B8700061FD37001803E200F0FF3A00A2188000D3
:10B880008001EB00840F5100858F590053FD320079
:10B890000023EF001023EF001823EF00A418880006
:10B8A0005004280000188800EAFF370085DE2F00CA
:10B8B000850F5100E08F590048FD3E0050082800D8
:10B8C0000003E3000E0032000023EF001023EF001E
:10B8D0001823EF00A21888005008280000188800DC
:10B8E000A01880000100B800E118880041C1B30031
:10B8F00048C8BF00807C0200000000003EFD370009
:10B900001803E200F0FF3A00A41880008002EB0068
:10B91000820F5200838F5A0030FD32000023EF0067
:10B920001023EF001823EF00A21888005008280009
:10B9300000188800EAFF370085DE2F00850F5100D0
:10B94000E08F59006DFD3E00500828009002E30092
:10B950000E0032009022EF00A022EF00A822EF009C
:10B9600022158800500828008014880020158000C7
:10B970000100B8006115880001C1B30048C8BF00CC
:10B98000807C02000000000063FD3700A802E20096
:10B99000F0FF3A00241580008002EB00820F520075
:10B9A000838F5A0055FD32009022EF00A022EF0055
:10B9B000A822EF0022158800500828008014880073
:10B9C000EAFF370085DE2F00850F5100E08F590018
:10B9D00098FD3E0050082800B402E3000E0032003B
:10B9E000B422EF00C422EF00CC22EF004216880000
:10B9F00050082800A0158800401680000100B800FB
:10BA00008116880021C1B30048C8BF00807C0200B5
:10BA1000000000008EFD3700CC02E200F0FF3A008B
:10BA2000441680008002EB00820F5200838F5A0080
:10BA300080FD3200B422EF00C422EF00CC22EF00E0
:10BA40004216880050082800A0158800EAFF370039
:10BA5000E30F50002E00320007003600E50F5000C3
:10BA6000210032000C003900E60F500014003200B3
:10BA70000040EB0000000600E10F50001F00320004
:10BA80000A00360060188000680060000000E900CD
:10BA90004F00DE0000000600400480000004B200F9
:10BAA0000000E9004F00DE0000000600E014800006
:10BAB000680060000000E9004F00DE0000000600A2
:10BAC000314480002119900010C0B3000200E00052
:10BAD000E8FF3A003119900071F72F00810F5100F3
:10BAE000E4FF3E0000000500500480000020B2008A
:10BAF0000000E9004F00DE00000006000016800094
:10BB0000680060000000E9004F00DE000000060051
:10BB100040048000640060000000E9004F00DE0087
:10BB200000000600E60F5000010032001000050082
:10BB300048C8BF00708C0200000000001000050023
:10BB4000FBFF37000600FA00889FBE00E50F50009B
:10BB50000E003E006E03B9000682E8004526230071
:10BB600065427A00E14F42004F0032008884200095
:10BB700018447800884F52004D003200F00F20002A
:10BB80004F04BE000080FA0000000600802C230055
:10BB900010427800E14F42003600320085842000D8
:10BBA00095427800854F5200340032008003B10086
:10BBB00000C2EB00904F12004A0032006E004000BD
:10BBC000904F1200630032006E004000904F120050
:10BBD00079003200A8FB2F0000044400984F1200A7
:10BBE0008E0032004027230000C2EB00904F12006D
:10BBF000A2003200F00F20002428230080C2EB00B6
:10BC00002900200094CF1200DDFF3A0009007800DF
:10BC1000B1BF9F00C2BF9F00D3BF9F008DFA070036
:10BC20006E4AB90004007800848420001442780031
:10BC3000047478004426230000004200DFB9970016
:10BC400003087800E40140004FB9970082097800AA
:10BC50000001EB0032009800BFB897004100980047
:10BC6000090078004F04BE000080FA0000000600C2
:10BC7000C6FF37008584200095427800054878008B
:10BC800033968900529689000000EB006096890087
:10BC900071968900700020004F04BE000080FA00F9
:10BCA00000000600B9FF370088842000184478009F
:10BCB0006426230008727B0086824200830A780093
:10BCC000E4814200820978000001EB00B202980092
:10BCD000C10298004F04BE000080FA000000060078
:10BCE000AAFF37003800200008007800B1BF9F008D
:10BCF000C2BF9F00D3BF9F0056FA07006E42B90033
:10BD00000400780064262300858420009542780092
:10BD1000057278000482E90000004200DFB9970054
:10BD200003087800E40140004FB9970082097800C9
:10BD30000001EB0032009800BFB897004100980066
:10BD4000080078004F04BE000080FA0000000600E2
:10BD50008EFF37004800200008007800B1BF9F0028
:10BD6000C2BF9F00D3BF9F003AFA07006E42B900DE
:10BD70000400780064262300858420009542780022
:10BD8000057278000482E90000004200DFB99700E4
:10BD900003087800E40140004FB997008209780059
:10BDA0000001EB0032009800BFB8970041009800F6
:10BDB00008007800E3FF37005800200008007800F2
:10BDC000B1BF9F00C2BF9F00D3BF9F0021FA0700F1
:10BDD0006E42B900040078006426230085842000A8
:10BDE00095427800057278000482E9000000420064
:10BDF000DFB9970003087800E40140004FB99700CD
:10BE0000820978000001EB0032009800BFB897006B
:10BE10004100980008007800CAFF37008004EB005A
:10BE200009007800B1BF9F00C2BF9F00D3BF9F0031
:10BE300008FA07006E4AB9000400780084842000E4
:10BE40001442780004747800442623000000420065
:10BE5000DFB9970003087800E40140004FB997006C
:10BE6000820978000001EB0032009800BFB897000B
:10BE700041009800090078007AFF3700190020007F
:10BE800009007800B1BF9F00C2BF9F00D3BF9F00D1
:10BE9000F0F907006E4AB90004007800848420009D
:10BEA0001442780004747800442623000000420005
:10BEB000DFB9970003087800E40140004FB997000C
:10BEC000820978000001EB0032009800BFB89700AB
:10BED000410098000900780062FF3700E30F50002E
:10BEE000460032000F003600E50F50002E003200F1
:10BEF0001800310000C02100801188003222EF00BC
:10BF00003422EF0020958100B01188003822EF0024
:10BF10008840A9009840A80020C021008011880016
:10BF200000000600E10F50002B0032000C0036002C
:10BF30000023EF001023EF008D80A90040948100C2
:10BF4000A018880000002800001888009D80A80024
:10BF500000000600E70F50000A0032000000060053
:10BF60009022EF00A022EF0094C0A900609381000E
:10BF7000201588000000280080148800A4C0A800B4
:10BF8000000006006C22EF007C22EF0094A0A900C4
:10BF9000709681000014880000002800601388005B
:10BFA000A4A0A8000000060000C021002012880004
:10BFB0004622EF004822EF00909581005012880041
:10BFC0004C22EF008B20A9009B20A80020C021005C
:10BFD0002012880000000600B422EF00C422EF0007
:10BFE0008D60A900D09381004016880000002800D1
:10BFF000A01588009D60A8000000060000C0210078
:10C00000801188003222EF003422EF00B0948100CA
:10C01000B01188003822EF008840A9009840A8009D
:10C0200020C0210080118800000006000200FA00F4
:10C03000D0C0B300E0FF9F00A0C0B300F0FF9F009E
:10C040002E48E20015003A008100200060332300F2
:10C05000D48F0200000000002E48E20003003A00E6
:10C060002D68EF000080FA0000000600210020008B
:10C070000F80E900D48F02000000000021002000A2
:10C080000F80E900D48F0200000000002D68EF004F
:10C090000080FA0000000600F4FF370021002000B5
:10C0A0000F80E900D48F0200000000008100200012
:10C0B00060332300D48F0200000000002E48E2000D
:10C0C000E7FF3200E9FF370052C4B30061332300B9
:10C0D000824878008100E80078A502000000000096
:10C0E00050C5B300C1332300804878008100E800C8
:10C0F00080487800B1418000D0FD2F00E18F4000E2
:10C10000010032000100E800B04188000000060094
:10C11000F03223001040780048E8B7008080FB0030
:10C12000C608DD00A28922000101410032448800D6
:10C13000F34F500030003E0063415000E14F51008A
:10C14000280036006E48E20020003200023323004F
:10C150001281FB008001EB00F60F5100E08F5900C7
:10C160000200360030002000D7FF370002600100D7
:10C1700041003700FBFF3700290037002A00370055
:10C18000F8FF37001E003700F6FF37001E003700AB
:10C19000F4FF3700F3FF37001D0037001E003700A3
:10C1A0002D003700EFFF3700EEFF3700EDFF3700BF
:10C1B0002B003700EBFF37002B0037002C00370037
:10C1C000E8FF37001A00370021003700E74F500022
:10C1D00002003200E94F5000DCFF3A0070012000FD
:10C1E000B9FF37006E48E200FCFF3A00E94F50000B
:10C1F000D6FF3A00F9FF370060012000B2FF370098
:10C20000E87704000000000004A204000000000021
:10C210002EA40400000000000073040000000000D1
:10C22000669C040000000000E8A00400000000007C
:10C230000040EB00EC7F0200000000008184200041
:10C240009140780000882000014878000000060036
:10C25000E888040000000000986D04000000000061
:10C26000629E040000000000C89A04000000000064
:10C270002091040000000000828D22008100410016
:10C280008048EB001133230091407800C67E040003
:10C2900000000000EC874700889FBE008A9FBE0018
:10C2A0008C9FBE008E1F78003828EC00E9322300F6
:10C2B0001982FB008002EB006C332300044E7800EF
:10C2C0008905E8001B4078008C00E8008048780071
:10C2D0000985E8001A4378008C86E800864E7800CD
:10C2E000638444009843780063074600074F780052
:10C2F0000801E8001241780082F79F00E40146003F
:10C30000824978008880E80091407800A1EF9F0082
:10C310000301E80001497800E301440093417800FB
:10C3200093EF9F008200E80083487800E401440016
:10C330009341780083EF9F008280E8008348780073
:10C340001402B1000580B100D30D2000830F52000C
:10C35000E08F5A0008003600500020005AFF070006
:10C360004F0778004F06BE004F05BE004F04BE00C9
:10C37000CF00B1000000060004600100F8FF3700A4
:10C38000F5FF3700F4FF3700F3FF3700F2FF370007
:10C39000F1FF3700F0FF3700EFFF3700EEFF370007
:10C3A000EDFF3700ECFF3700EBFF3700EAFF370007
:10C3B000E9FF3700E8FF3700E7FF3700E6FF370007
:10C3C000E5FF3700E4FF3700E3FF3700E2FF370007
:10C3D000E1FF3700E0FF3700DFFF3700DEFF370007
:10C3E000DDFF3700DCFF3700DBFF3700DAFF370007
:10C3F000D9FF3700D8FF3700D7FF3700D6FF370007
:10C40000D5FF3700D4FF37004C023700D2FF37008A
:10C41000D1FF370036023700CFFF3700CEFF37009D
:10C42000CDFF3700CCFF3700CBFF3700CAFF370006
:10C43000C9FF3700C8FF370003023700C6FF3700C7
:10C44000F2013700C4FF3700C3FF3700C2FF3700D7
:10C45000D5013700C0FF3700BFFF3700BEFF3700F0
:10C46000BDFF3700BCFF3700BBFF3700BAFF370006
:10C47000AC013700B8FF3700B7FF3700B6FF370011
:10C48000B5FF3700B4FF3700B3FF3700B2FF370006
:10C49000B1FF3700B0FF3700AFFF3700AEFF370006
:10C4A000ADFF3700ACFF3700ABFF3700AAFF370006
:10C4B000A9FF3700A8FF3700A7FF3700A6FF370006
:10C4C000A5FF3700A4FF3700A3FF3700A2FF370006
:10C4D000A1FF3700A0FF37009FFF37009EFF370006
:10C4E0009DFF37009CFF37009BFF37009AFF370006
:10C4F00099FF370098FF370097FF37006C0137002E
:10C5000055013700B202370099023700C6023700E2
:10C5100091FF370090FF37008FFF37008EFF370005
:10C520008DFF37008CFF37008BFF37008AFF370005
:10C5300089FF370088FF3700450237006502370062
:10C54000520237007502370083FF370082FF370041
:10C5500081FF370080FF37007FFF37007EFF370005
:10C560007DFF37007CFF37007BFF37007AFF370005
:10C5700079FF370078FF37002D0137000C013700B5
:10C5800075FF3700FF00370073FF370072FF370079
:10C5900071FF370070FF37006FFF37006EFF370005
:10C5A0006DFF37006CFF37006BFF37006AFF370005
:10C5B00069FF370068FF3700D3003700B00037004D
:10C5C000900037006D0037006000370062FF3700D1
:10C5D00061FF370060FF37005FFF37005EFF370005
:10C5E0005DFF37005CFF37005BFF37005AFF370005
:10C5F00059FF370058FF370057FF370056FF370005
:10C6000055FF370054FF370053FF370052FF370004
:10C6100051FF370050FF3700440037004300370018
:10C620004200370041003700400037003F0037002C
:10C630003E0037003D0037003C0037003B0037002C
:10C640003A0037003900370038003700370037002C
:10C65000360037003500370034003700330037002C
:10C660003200370031003700300037002F0037002C
:10C670002E0037002D00370037FF370036FF370018
:10C6800035FF370034FF370033FF370032FF370004
:10C6900031FF370030FF37002FFF37002EFF370004
:10C6A0002DFF37002CFF37002BFF37002AFF370004
:10C6B00029FF370028FF370027FF370026FF370004
:10C6C00025FF370024FF370023FF370022FF370004
:10C6D00021FF370020FF37001FFF37001EFF370004
:10C6E0001DFF37001CFF37001BFF37001AFF370004
:10C6F00000003700800880007133230080487800F4
:10C70000800880004800DE00804E78001021EF0095
:10C710004F0778004F06BE004F05BE004F04BE0015
:10C72000CF00B1000000060013FF370078FE0700BD
:10C730004F0778004F06BE004F05BE004F04BE00F5
:10C74000CF00B100000006000BFF370022C5B30088
:10C75000824F50004902320070C0B3003468B40008
:10C760004F0778004F06BE004F05BE004F04BE00C5
:10C77000CF00B10000000600FFFE3700E2B79F00C7
:10C78000F0AC020000000000733323008049780001
:10C79000F0AC020000000000804E7800F0AC020017
:10C7A00000000000004F7800F0AC02000000000024
:10C7B000A133230080487800F0AC020000000000A4
:10C7C0006FB1970000497800F0AC02000000000053
:10C7D000C233230000497800F0AC020000000000E2
:10C7E000D3332300804978004F0778004F06BE00FE
:10C7F0004F05BE004F04BE00CF00B1000000060090
:10C80000DDFE3700FEAC0200000000001A40780098
:10C81000FEAC02000000000018407800FEAC0200F0
:10C82000000000002133230011407800FEAC02001C
:10C83000000000003233230012407800FEAC0200FA
:10C84000000000004333230013407800FEAC0200D8
:10C85000000000005133230011407800FEAC0200BC
:10C86000000000004F0778004F06BE004F05BE00D5
:10C870004F04BE00CF00B10000000600BEFE37002E
:10C88000E2B79F001E8F02000000000073332300F8
:10C89000804978001E8F020000000000804E780062
:10C8A0001E8F020000000000004F78001E8F020063
:10C8B00000000000A1332300804878001E8F020092
:10C8C000000000006FB19700004978001E8F020041
:10C8D00000000000C2332300004978001E8F0200D0
:10C8E00000000000D3332300804978004F07780010
:10C8F0004F06BE004F05BE004F04BE00CF00B10082
:10C90000000006009CFE37008E8F02000000000031
:10C910001A4078008E8F0200000000001840780056
:10C920008E8F0200000000002233230012407800A6
:10C930008E8F020000000000333323001340780084
:10C940008E8F020000000000413323001140780068
:10C950008E8F020000000000523323001240780046
:10C960008E8F0200000000004F0778004F06BE00C7
:10C970004F05BE004F04BE00CF00B100000006000E
:10C980007DFE37004833DD000080FB00AFE99700F3
:10C99000037378004F0778004F06BE004F05BE00B6
:10C9A0004F04BE00CF00B1000000060072FE370049
:10C9B0000682FB008002EB00482CDD00C824DE006C
:10C9C000890474004824DD008782FB0004002000F5
:10C9D0000803420089834A000082FB008002EB00CA
:10C9E0000603420087834A008FF197000380FB0013
:10C9F0008000EB00C802DD000400200006004200B9
:10CA000087804A000008A300FA013200A00020003D
:10CA1000ADFD07004F0778004F06BE004F05BE0072
:10CA20004F04BE00CF00B1000000060052FE3700E8
:10CA30004833DD000080FB00664F78004F07780028
:10CA40004F06BE004F05BE004F04BE00CF00B10030
:10CA50000000060048FE3700C838DD000683FB00F2
:10CA60008680400044A802000000000040332300FC
:10CA70009080FB00C808DD000001E9001280FB0087
:10CA8000808040008201E9001340780044A8020041
:10CA9000000000004F0778004F06BE004F05BE00A3
:10CAA0004F04BE00CF00B1000000060032FE370088
:10CAB000E2B79F0052A8020000000000804E7800FC
:10CAC0004800DE00004F78001B40E80052A802003A
:10CAD00000000000A1332300804878004800DE00F9
:10CAE0006FB19700004978001BC0E80052A802000F
:10CAF00000000000C2332300004978004800DE0037
:10CB00008201E800804978004F0778004F06BE0098
:10CB10004F05BE004F04BE00CF00B100000006006C
:10CB200015FE3700C2C4B300824F50000CFE3A001D
:10CB300090C4B300804F530009FE3A0065404000A6
:10CB400080CF530006FE3A00694050008FF09700F6
:10CB500080CF500002FE3A00634050002FE997005A
:10CB6000804F5100FEFD3A00694040009FE9970068
:10CB700080CF5100FAFD3A007A4050008FE89700CC
:10CB800080CF5000E70132002E68EF004F07780099
:10CB90004F06BE004F05BE004F04BE00CF00B100DF
:10CBA00000000600F4FD370030C5B30073332300E6
:10CBB0008049780010C3B300804E78006740400081
:10CBC000004F78006A404000E380410080487800D0
:10CBD000704050000049780000C0E90065814100C4
:10CBE0000049780063404000E681410080497800B8
:10CBF0004F0778004F06BE004F05BE004F04BE0031
:10CC0000CF00B10000000600DBFD370052C6B300C4
:10CC1000824F500003003A0072415100824F53008E
:10CC20002D0132004000200027FD07004F0778004B
:10CC30004F06BE004F05BE004F04BE00CF00B1003E
:10CC400000000600CCFD37003EA5020000000000F9
:10CC50006A00B900004478001A4078003EA502003E
:10CC600000000000004444000A332300650645002C
:10CC70001BC6B300AD892200DACF150035013200A2
:10CC80008040EB00084078009C7D0200000000001E
:10CC90008040EB00084078000CA902000000000072
:10CCA0001A407800C1C6B300814F500076013200AF
:10CCB00033013E00E4C05000814F50007A01320041
:10CCC0008140E800814F50001E013200E5C0500055
:10CCD000814F50001B01320030002000FAFC070099
:10CCE0008C0F55009EFD32000844E800E2FF37003B
:10CCF0003EA50200000000006A04B9001A40780056
:10CD00003EA50200000000000040440052A80200BE
:10CD1000000000009133230078A50200000000000D
:10CD20004F0778004F06BE004F05BE004F04BE00FF
:10CD3000CF00B100000006008FFD37003EA50200C5
:10CD400000000000804578001A4078003EA50200EF
:10CD50000000000000457800184078003EA5020061
:10CD6000000000000084FB008004EB006A44B8006F
:10CD700022332300124078003EA50200000000008C
:10CD80000080FB008000EB0008044000898448001C
:10CD90006A48B9006A44B80089044000333323006C
:10CDA000134078003EA50200000000000080FB0058
:10CDB0008000EB0008044000898448006A48B900FC
:10CDC0006A44B800890440004133230011407800D0
:10CDD0003EA50200000000000080FB008000EB0088
:10CDE00008044000898448006A48B9006A44B800D1
:10CDF0008904400052332300124078003EA502000F
:10CE0000000000000080FB008000EB0008044000F0
:10CE100089844800E10F4400E08F5C00EC003E0094
:10CE20006A58B900004045008800780044A8020014
:10CE3000000000004F0778004F06BE004F05BE00FF
:10CE40004F04BE00CF00B100000006004AFD3700CD
:10CE50000683FB00C838DD00868040004833DD00D3
:10CE60000080FB00000043001AA302000000000045
:10CE70004F0778004F06BE004F05BE004F04BE00AE
:10CE8000CF00B100000006003BFD37004833DD0055
:10CE90000080FB0000004300904388000704E0008E
:10CEA0002FFD32000045EB008FF0970084A30200B5
:10CEB000000000000A45E800984F150028FD3600E4
:10CEC0000A80FB0064004000E94078009043800045
:10CED000F6FF37004833DD000080FB000000430010
:10CEE000904388000704E0001DFD32000045EB0080
:10CEF0008FF0970084A30200000000000A45E800BC
:10CF0000984F150016FD36000A80FB0064004000B3
:10CF1000E940780090438000F6FF37008044EB0042
:10CF20000704E000A1003200864078000641780046
:10CF30004811DD000080FB000000410084A30200D6
:10CF4000000000008944E80098CF140097003600E4
:10CF50000000E00095003A000980FB000080E80036
:10CF6000EC4078001B4078001A417800F0FF370051
:10CF70004833DD000080FB00000043008043880050
:10CF80000781FB00E40F5100DD003E000204400079
:10CF9000F1FF2100810F5400C7003E00A18920004D
:10CFA0000100400021332300D451020000000000A2
:10CFB000884388004F0778004F06BE004F05BE002B
:10CFC0004F04BE00CF00B10000000600EAFC3700AD
:10CFD0004833DD000080FB0000004300F1FF21002A
:10CFE000810F5000DEFC3E0000815000E70F510031
:10CFF0000100360072002000A1892000810040005D
:10D0000070332300D4510200000000004F07780065
:10D010004F06BE004F05BE004F04BE00CF00B1005A
:10D0200000000600D4FC370080438000F1FF21009F
:10D03000810F5000CAFC3E0080805000E68F5000F7
:10D04000A6003600A189200000814000F3322300B1
:10D0500006000900335978006700400080438800CB
:10D060004F0778004F06BE004F05BE004F04BE00BC
:10D07000CF00B10000000600BFFC370050C4B30071
:10D08000804F5300B4FD3A006E40400080CF530003
:10D09000B1FD3A000FF09700864F5000AEFD3A0008
:10D0A00040C5B300AFE8970080CF5000AAFD3A001A
:10D0B0003468EF0010C0B30035E8B7004F077800C0
:10D0C0004F06BE004F05BE004F04BE00CF00B100AA
:10D0D00000000600A8FC370080CF5300D1FE3A00C4
:10D0E00040C5B3008FF0970080CF5000CDFE3A00CE
:10D0F00010C2B3002FE99700804F5100C9FE3A00DB
:10D1000000C0E8009FE9970080CF5100C5FE3A00BB
:10D11000674040008FE8970080CF5000C1FE3A0082
:10D1200008990200000000004F0778004F06BE007B
:10D130004F05BE004F04BE00CF00B1000000060046
:10D140008DFC370008407800787E02000000000067
:10D15000E3FE370083842000884978000880FB00C4
:10D160004600DD000D0040003044880080CCB30054
:10D17000804C7800669C020000000000D8FE37005A
:10D1800051C7B300814F5000EEFF320035003E0022
:10D1900081C0E900814F5000CFFE3A00084078007E
:10D1A0001493020000000000CDFE3700703323000E
:10D1B000094878004F0778004F06BE004F05BE00B3
:10D1C0004F04BE00CF00B100000006006AFC37002B
:10D1D00020002000BCFB07004F0778004F06BE0070
:10D1E0004F05BE004F04BE00CF00B1000000060096
:10D1F00061FC370083E0A90000000000000000008F
:10D20000A4028000A10288009000BA00A33323008A
:10D2100081497800C808DE00014978001080BA0012
:10D220008480FB00A102880083E0A80000000000C9
:10D23000000000008380E800804878004800DE009D
:10D2400063814100004978004F0778004F06BE0017
:10D250004F05BE004F04BE00CF00B1000000060025
:10D2600045FC370071C7B300814F50000A003200FF
:10D270008140E800814F500099FE320030002000CC
:10D2800091FB070096FE370008407800F27F02000D
:10D290000000000092FE370008407800569F020010
:10D2A000000000008EFE370008407800F67F020084
:10D2B000000000008AFE37008000200082FB07008B
:10D2C0004F0778004F06BE004F05BE004F04BE005A
:10D2D000CF00B1000000060027FC370090002000BE
:10D2E00079FB07004F0778004F06BE004F05BE00D0
:10D2F0004F04BE00CF00B100000006001EFC370046
:10D300007000200070FB07004F0778004F06BE003A
:10D310004F05BE004F04BE00CF00B1000000060064
:10D3200015FC370010C0B3002EE8B7004F07780097
:10D330004F06BE004F05BE004F04BE00CF00B10037
:10D34000000006000CFC3700889FBE006E48E2001B
:10D350001B003A002CC8BF00E8322300E74F500002
:10D3600047003600CBFB07002C68EF00E0CFB3008E
:10D37000004C7800F1322300804878008100E800FA
:10D38000804878008100E800804878008100E8004B
:10D39000804878008100E800804878008100E8003B
:10D3A000804878008100E800804878001FFB070073
:10D3B0006E48E20002003A004F04BE000000060082
:10D3C00017C8BF00E74F5000FBFF36003068EF0082
:10D3D000E0322300E13123000700090031587800D2
:10D3E0001768EF003248E200020032003168EF00B7
:10D3F000AB84A800A7FB0700F032230010407800A0
:10D4000011C2B300814F50004700320083E0A900F1
:10D4100000000000000000006032230061332300A0
:10D42000070009003158780010C0B30030E8B70099
:10D430002F68EF003248E200020032003268EF004D
:10D440003068EF003148E200070032003048E20067
:10D45000050032003168EF003268EF00AB84A800AD
:10D460003068EF001868EF0083E0A80000000000BB
:10D47000000000004F04BE0000000600D0FF37008F
:10D480000080FB00E8001000080040005E8F0200F2
:10D4900000000000804478002E48E2003A003A0084
:10D4A0002CC8BF0080C44400C08220000948780016
:10D4B0000904E000BEFF32009841780050C5B30077
:10D4C00080CF510013003A00444180005541800054
:10D4D00052332300E03223008000E900D068780056
:10D4E000820F5000FDFF3A008944E90061024200CA
:10D4F000E0824A000904E0001C00320098CF1100CD
:10D50000F4FF3200C08220000948780044418800BE
:10D5100055418800E7CF540092FF3E006E48E2007C
:10D52000A5FF3200A6FF3700E1322300914F100023
:10D53000B6FF32003368EC0083E0A9000000000071
:10D54000000000006032230061332300070009005F
:10D550003158780010C0B30030E8B7002F68EF00F2
:10D560003248E200B7FF3200B4FF3700C08220002B
:10D570000948780044418800554188006E48E2001F
:10D580008DFF32008EFF37008980FB002CC8BF0062
:10D590000080FB0008004000D48F02000000000063
:10D5A000BFFF3700F623EF0090002000C01F880067
:10D5B000FC23EF000424EF008000200040208800BE
:10D5C0000A24EF000C24EF000E24EF001042280084
:10D5D000A01F880000000600F623EF009000200046
:10D5E000C01F8800FC23EF000424EF00800020000F
:10D5F000402088000A24EF000C24EF000E24EF00E6
:10D6000010422800A01F880071C0B30048C8BF00A6
:10D61000807C040000000000314480004100900044
:10D6200002C02F0002187800C00098000000060019
:10D63000314480004100900002002E000218780062
:10D64000C0009800000006000002BE00E00F50007D
:10D65000E08F5800850032004828DD004821DE00B8
:10D6600002017000C829DE000204E0000D0135004F
:10D67000314480004100900003002E000318780020
:10D68000C00098000281FB000268A3000101320083
:10D6900003C02F0003187800C00098000258A300B0
:10D6A000AE00320003C02F0003187800C0009800BD
:10D6B0000248A300AE00320003C02F000318780018
:10D6C000C00098000238A300AE00320003C02F0053
:10D6D00003187800C00098000228A300AE003200B2
:10D6E00003C02F0003187800C00098000218A300A0
:10D6F000AE00320003C02F0003187800C00098006D
:10D700000208A300AE00320002C02F000218780009
:10D71000C0009800054178000204E000AE0035002A
:10D7200003002E0003187800C00098000281FB005F
:10D730000268A300AE00320003C02F000318780077
:10D74000C00098000258A300AE00320003C02F00B2
:10D7500003187800C00098000248A300AE00320011
:10D7600003C02F0003187800C00098000238A300FF
:10D77000AE00320003C02F0003187800C0009800EC
:10D780000228A300AE00320003C02F000318780067
:10D79000C00098000218A300AE00320003C02F00A2
:10D7A00003187800C00098000208A300AE00320001
:10D7B0000001780000C02F0000197800C200980016
:10D7C000044078000004E000AE00350003002E00A5
:10D7D00003197800C20098000080FB000068A300D5
:10D7E0005A00320003C02F0003197800C2009800CD
:10D7F0000058A3005100320003C02F000319780025
:10D80000C20098000048A3004800320003C02F0067
:10D8100003197800C20098000038A30030003200DD
:10D8200003C02F0003197800C20098000028A3004D
:10D830003000320003C02F0003197800C2009800A6
:10D840000018A3003000320003C02F000319780035
:10D85000C20098000008A30030003A0000002E002B
:10D8600000197800C20098000000060032448000D1
:10D8700000002E00C2009000801878008018780008
:10D880008018780080187800801878008018780058
:10D890008018780080187800801878008018780048
:10D8A0008018780080187800801878008018780038
:10D8B0008018780080187800801878008018780028
:10D8C0008018780080187800801878008018780018
:10D8D0008018780080187800410198000000060048
:10D8E00003002E0003197800C20098000028A3004E
:10D8F000D0FF3A0003002E0003197800C200980000
:10D900000018A300D0FF3A0003002E00031978008E
:10D91000C20098000008A300D0FF320000C02F0012
:10D9200000197800C20098000000060003002E00D5
:10D9300003197800C2009800B7FF370003002E00DB
:10D9400003197800C2009800AEFF370003002E00D4
:10D9500003197800C2009800A5FF370003002E00CD
:10D9600003187800C00098000248A30052FF3A0054
:10D9700003002E0003187800C00098000238A300AE
:10D9800052FF3A0003002E0003187800C0009800F0
:10D990000228A30052FF3A0003002E00031878006B
:10D9A000C00098000218A30052FF3A0003002E00A6
:10D9B00003187800C00098000208A30052FF3A0044
:10D9C00002002E0002187800C0009800054178007F
:10D9D0000204E00052FF3D0003C02F00031878004E
:10D9E000C00098000281FB000268A30052FF3A00C9
:10D9F00003002E0003187800C00098000258A3000E
:10DA000052FF3A0003002E0003187800C00098006F
:10DA10000248A30052FF3A0003002E0003187800CA
:10DA2000C00098000238A30052FF3A0003002E0005
:10DA300003187800C00098000228A30052FF3A00A3
:10DA400003002E0003187800C00098000218A300FD
:10DA500052FF3A0003002E0003187800C00098001F
:10DA60000208A30052FF3A000001780000002E00D7
:10DA700000197800C2009800044078000004E0001B
:10DA800052FF3D0003C02F0003197800C200980028
:10DA900051FF370003002E0003187800C0009800E3
:10DAA000FEFE3700314480004100900003C02F008B
:10DAB00003187800C0009800F2FE3700314480005F
:10DAC0000001EB0041009000021878000218780075
:10DAD000C000980000000600FE04A9003044800049
:10DAE000405190000281FB00010320000191B90028
:10DAF0003228880001402000212888005001900031
:10DB0000A189200081004100112888000214200012
:10DB1000F22788000270220002288800FE04A80074
:10DB20004100980000000600FE04A9000000060065
:10DB3000889FBE008A9FBE003144800001007800AB
:10DB4000B1448800E232230012417800B3CCB30024
:10DB5000834F5100F600320014003600D0CCB300E1
:10DB6000804F510094003200250031006178900010
:10DB7000EC4F500079003A00203323001081FB0065
:10DB80004811DD000000E9001080FB0000004100AA
:10DB9000E00098003033230010407800805898004F
:10DBA0004F05BE004F04BE000000060083C1E9001F
:10DBB000834F51009B0032001E00360061789000B8
:10DBC000EC4F500065003A00103323009080FB00BA
:10DBD00000032000008AB900923323006449420008
:10DBE000640042004800DE000201E80000497800BD
:10DBF0004F05BE004F04BE0000000600EBFF3700DB
:10DC00000040E800804F51005B0032000040E80017
:10DC1000804F51003C003200C000200064600200D0
:10DC2000000000004F05BE004F04BE0000000600CB
:10DC3000DEFF37008341E900834F5100F6FF3A00D1
:10DC4000223323001282FB004822DD000201E9009A
:10DC50001281FB0002024200D40098000001EB0098
:10DC6000E20098008041EB00825898003533230091
:10DC700095427800C5509800A9892000D35098009B
:10DC8000E3509800F2009800F35098008081EB0078
:10DC90008308980092089800048144000019EB0062
:10DCA0000019EB00C2009800415190000204E0000E
:10DCB000090032000044EB006000B80062FE07007B
:10DCC0000844E80030448000800078004051900013
:10DCD000884F5100F8FF3E005101900082844400BB
:10DCE000C9009800C1C0B30061789800BC800200F0
:10DCF0000000000038FE07004F05BE004F04BE00C4
:10DD000000000600A9FF370061789000EC4F50003A
:10DD100012003A00203323001081FB004811DD007F
:10DD20000000E9001080FB0000004100900898000E
:10DD3000403323001081FB004811DD000000E900A2
:10DD40001080FB0000004100800898004F05BE00D5
:10DD50004F04BE000000060094FF3700D0002000F2
:10DD600064600200000000004F05BE004F04BE00CA
:10DD7000000006008DFF370061789000EC4F5000E6
:10DD8000F6FF3A001033230010407800E34F5000B4
:10DD9000A1003E00F050980081FF3A00203323009C
:10DDA00010407800A05898004F05BE004F04BE00F8
:10DDB000000006007DFF370061789000EC4F5000B6
:10DDC000E6FF3A004150900032C0B3000440BC006E
:10DDD0000281E800103323001080FB000091B9009D
:10DDE00061009000020040000081E8000100220074
:10DDF000810F510071003E00A189200022332300D1
:10DE00009270780000804000313323009140780008
:10DE1000114098004F05BE004F04BE0000000600F0
:10DE200062FF370061789000EC4F5000CBFF3A0062
:10DE300020332300904278000000E80090437800EF
:10DE40000000E800104378000000E800104278006D
:10DE5000510090001233230012417800C15190000C
:10DE6000834F510073003100E40140000284FB0045
:10DE70000003200000C4B90008804100080320000E
:10DE80000004440003002200830F54004B003E00B6
:10DE90000785FB008005EB00485CDD00C854DE0010
:10DEA000890474004854DD008683FB0006002000CE
:10DEB0000804430089844B000583FB008003EB00CA
:10DEC0000804430089844B00C822DD0004002000C0
:10DED0000804420089844A000983FB008603780015
:10DEE000080378000602BE000204E0003A003A008F
:10DEF0008488BE00A889200000004400C00098006B
:10DF00000400BE00D0FD070030448000D000900027
:10DF100001044400480098008000EB007100980064
:10DF20004F05BE004F04BE00000006001FFF370073
:10DF300061789000EC4F500088FF3A00610090003B
:10DF40000080E800223323001281FB006311B90036
:10DF5000820140004150900032C0B3000440BC0038
:10DF60008280E800103323001080FB000088B90095
:10DF700080814100E380410000002200808F50003A
:10DF80000E003E00A08920005133230011F07900DB
:10DF900083014000403323001040780090419800F6
:10DFA0003033230010407800A04198004F05BE0098
:10DFB0004F04BE0000000600FCFE37008000200079
:10DFC00064600200000000004F05BE004F04BE0068
:10DFD00000000600F5FE3700E14F5100C5FF3A0092
:10DFE000A4009800B5009800A88920000000440013
:10DFF000C00098000400BE0093FD0700304480007C
:10E00000D000900001044400480098008000EB001C
:10E0100071009800C2FF3700100120006460020008
:10E02000000000004F05BE004F04BE0000000600C7
:10E03000DEFE3700E0002000646002000000000007
:10E040004F05BE004F04BE0000000600D7FE37009B
:10E05000889FBE0038448000B8448800F8009000D3
:10E060000100E0000A003A000100E00003003A006D
:10E0700062C8BF00E14F40002D00320061C8BF0000
:10E080004848E3001F0032004F04BE0000000600B5
:10E090008100E90071049800485090000080FB0066
:10E0A000808F5000F5FF3E000100E000EEFF3200DF
:10E0B00078519000E24F51007E003200E14F510054
:10E0C00086003200E34F5100ECFF3A00808F500091
:10E0D000AF003200B85890008180FB0078019000BA
:10E0E00002005000810F50006D00310028009000A8
:10E0F000B800900054FD070038448000F8009000FC
:10E10000D9FF370000A5AB00DFFF3200FE04A900F5
:10E110008040EB00807C02000000000061E8EF001E
:10E1200062E8EF004F04BE0000000600D8FF370091
:10E1300061C8BF00E14F4000D1FF3A007850900025
:10E14000E24F500012003200E14F50002B0032002D
:10E15000485090000080FB006A0040007004980066
:10E1600048C8BF0062E8B70061E8B7001AFD0700C1
:10E1700031448000410090000018EB000018EB00D3
:10E18000C000980054FE070061C8BF00BCFF370004
:10E19000800C200070049800685090000040E80057
:10E1A0006054980048519000824F5000ECFF3900B5
:10E1B00061549800585090000040E8005054980076
:10E1C000E64F5000E6FF36000040EB005054980048
:10E1D00048C8BF0062E8B70061E8B700FEFC07006E
:10E1E00031448000410090000018EB000018EB0063
:10E1F000C000980038FE0700E3FF370098599000F0
:10E200004850900032C0B3000440BC000281E800D6
:10E210000380FB000092B9006801900004014100F6
:10E220000200E800A4892000644078004800DD0076
:10E2300070049800644179000281FB0002004000F4
:10E24000700498008341E800135C9800085890001F
:10E2500080CF5100C2FF3A00115C980048C8BF004F
:10E2600062E8B70061E8B700DBFC070031448000DA
:10E27000410090000018EB000018EB00C00098006F
:10E2800015FE0700C0FF370098089000610AB8002B
:10E29000840F5100858F590053003E00395C98006F
:10E2A0001800BE00E8FC070038448000F800900029
:10E2B0006DFF3700685190000281FB0002005000A2
:10E2C000808F5000280032006000B800DEFC07009C
:10E2D00038448000F800900063FF37006802900027
:10E2E0000482E800010150006311B90002014200FC
:10E2F0006300B9000080E800985890008180FB001E
:10E300000180B900800041000100E800A2892000DE
:10E31000624278000482FB008002EB00482BDD00A3
:10E32000C823DE00870373004823DD000180E80076
:10E33000624078008082FB00040020000602420058
:10E3400087824A0062C178000281FB008001EB00F5
:10E350000400410085804900BBFC07003844800070
:10E36000F800900040FF3700585090000080FB00FC
:10E370004200DD00412F2300008040001000BE005D
:10E38000B1FC070038448000F800900036FF3700E9
:10E390008044EB00395C98002858900052A8020095
:10E3A00000000000000178008001EB00384480008C
:10E3B000080890006102B800840F5100858F590051
:10E3C000B1FF3900C8509000315C98008180FB009B
:10E3D000010078007801900002005000810F500089
:10E3E00042FF3900AEFF37000100E00002003A00B2
:10E3F000E10F400018003200810F5000160032007B
:10E400000402510085825900010150008001EB0097
:10E410000300780084007800DA5002000000000059
:10E42000485190000282FB008002EB00048BB9008F
:10E430000400B80081004300315C98000280FB00BA
:10E440008180FB007801900002005000810F500095
:10E4500026FF390092FF3700485090000082FB00F1
:10E460008002EB000411B80083007800315C980052
:10E470000080FB008180FB007801900002005000CA
:10E48000810F500019FF390085FF370030448000AC
