:1000000000010400000000000402000004020000DF
:1000100004020000040200000402000004020000C8
:1000200004020000040200000402000004020000B8
:1000300004020000040200000402000004020000A8
:100040000402000004020000040200000402000098
:100050000402000004020000040200000402000088
:100060000402000004020000040200000402000078
:100070000402000004020000040200000402000068
:100080000402000004020000040200000402000058
:100090000402000004020000040200000402000048
:1000A0000402000004020000040200000402000038
:1000B0000402000004020000040200000402000028
:1000C0000402000004020000040200000402000018
:1000D0000402000004020000040200000402000008
:1000E00004020000040200000402000004020000F8
:1000F00004020000040200000402000004020000E8
:1001000004020000040200000402000004020000D7
:1001100004020000040200000402000004020000C7
:1001200004020000040200000402000004020000B7
:1001300004020000040200000402000004020000A7
:100140000402000004020000040200000402000097
:100150000402000004020000040200000402000087
:100160000402000004020000040200000402000077
:100170000402000004020000040200000402000067
:100180000402000004020000040200000402000057
:100190000402000004020000040200000402000047
:1001A0000402000004020000040200000402000037
:1001B0000402000004020000040200000402000027
:1001C0000402000004020000040200000402000017
:1001D0000402000004020000040200000402000007
:1001E00004020000040200000402000004020000F7
:1001F00004020000040200000402000004020000E7
:100200000F8020000E7F24000E01880000000000F7
:10021000000020000000E000020032000001200089
:100220002002880014000700790007000000E000A9
:1002300003003A0000002000010020000200370007
:100240000000200001002000810F7000010032003A
:1002500014000700000020000000E000020032004F
:100260000000020000000000100202000000000078
:100270000040DA000000FE004440A90020002000F9
:100280000000E00003003200100020009001880010
:100290004440A800000006008A1F78008B1F7800E9
:1002A00000000600A1028800800478000000EB0036
:1002B0001F003700E284440054A0B4009905BA003E
:1002C000E284440054A0B4009906BA00E2844400D9
:1002D00054A0B4000006EB00476FDE00FD07B2003B
:1002E000AE018800636CE10003003A00EAFF0700FA
:1002F0000000EB000E003700606CE10008003A00DF
:10030000004DEB000A05E800020039003420EC0043
:100310000AF0A0008B05E900F9FF3E000400370059
:100320006168E100010032000086EB000B0007006D
:1003300019C7BA001905BA000E04E00003003A001C
:100340000A00E000DBFF3A0000000600FE07B200F2
:10035000AE0288008A047800F5FF37000CD0A300B5
:10036000E20F4D001C00390089027800354DBA00BB
:100370000A05E800020039003420EC000AF0A00071
:100380008B05E9000F003200254DBA000A05E80090
:10039000020039003420EC000AF0A0008B05E900CF
:1003A000080032000C00E0000600320015CDBA0053
:1003B0000A05E800020039003420EC000AF0A00031
:1003C0008B05E9008984E80054A0B4000B00E0002C
:1003D000E2FF3A00000006009902BA00055D7800CD
:1003E0008B05E900F7FF3200C82ADE00055D7800C2
:1003F0008B05E900F3FF32000C00E000F1FF320052
:1004000019DDBA00EEFF37000040DA000000FE0000
:10041000000005000000FA000000FE00FEFF3700AB
:100420000000FA00AA24EF00100480000080A00061
:1004300010048800004004000000000010002000AC
:080440000080FA000000060034
:088000000080040000000000F4
:10F008006A880000B2880000F68800008C8800003A
:10F01800D4880000188A0000188A0000188A0000A6
:10F02800188A0000188A0000188A0000188A000050
:10F0380008810000188A0000188A0000348800003F
:10F04800188A0000188A0000188A000084890000C5
:10F0580018890000F2890000188A0000188A000048
:10F06800188A000028810000188A0000188A000009
:10F07800188A0000188A0000188A0000188A000000
:10F08800188A0000188A0000188A0000188A0000F0
:10F09800188A0000188A0000188A0000188A0000E0
:10F0A800188A0000188A0000188A0000188A0000D0
:10F0B800188A0000188A0000188A0000188A0000C0
:10F0C800188A0000188A0000188A0000188A0000B0
:10F0D800188A0000188A0000188A0000188A0000A0
:10F0E800188A000088830000188A0000188A000027
:10F0F800188A0000188A0000188A0000188A000080
:10F10800188A0000188A0000188A0000188A00006F
:10F11800188A0000188A0000188A0000188A00005F
:10F12800188A0000DC890000188A0000188A00008C
:10F13800188A0000188A0000188A0000188A00003F
:10F14800188A0000188A0000188A0000188A00002F
:10F15800188A0000188A0000188A0000188A00001F
:10F16800188A0000188A0000188A0000188A00000F
:10F17800188A0000188A0000188A0000188A0000FF
:10F18800188A0000188A0000188A0000188A0000EF
:10F19800188A0000188A0000188A0000188A0000DF
:10F1A800188A0000188A0000188A0000188A0000CF
:10F1B800188A0000188A0000188A0000188A0000BF
:10F1C800188A0000188A0000188A0000188A0000AF
:10F1D800188A0000188A0000188A0000188A00009F
:10F1E800188A0000188A0000188A0000188A00008F
:08F1F800188A0000188A0000CB
:020000040001F9
:10000000AF0723000E7F24000E01880000000000CF
:10001000000020000000E00002003200000120008B
:100020002002880014000700030507000000E0001C
:1000300003003A0020D02B0001002000020037000E
:100040000000200001002000810F7000010032003C
:1000500014000700000020000000E0000200320051
:10006000000002000000000002CF020000000000BB
:100070000040DA000000FE004440A900C008200053
:100080000000E000030032001020200090018800F2
:100090004440A800000006008A1F78008B1F7800EB
:1000A00000000600A1028800800478000000EB0038
:1000B0001F003700E284440054A0B4009905BA0040
:1000C000E284440054A0B4009906BA00E2844400DB
:1000D00054A0B4000006EB00476FDE00FD07B2003D
:1000E000AE018800636CE10003003A00EAFF0700FC
:1000F0000000EB000E003700606CE10008003A00E1
:10010000004DEB000A05E800020039003420EC0045
:100110000AF0A0008B05E900F9FF3E00040037005B
:100120006168E100010032000086EB000B0007006F
:1001300019C7BA001905BA000E04E00003003A001E
:100140000A00E000DBFF3A0000000600FE07B200F4
:10015000AE0288008A047800F5FF37000CD0A300B7
:10016000E20F4D001C00390089027800354DBA00BD
:100170000A05E800020039003420EC000AF0A00073
:100180008B05E9000F003200254DBA000A05E80092
:10019000020039003420EC000AF0A0008B05E900D1
:1001A000080032000C00E0000600320015CDBA0055
:1001B0000A05E800020039003420EC000AF0A00033
:1001C0008B05E9008984E80054A0B4000B00E0002E
:1001D000E2FF3A00000006009902BA00055D7800CF
:1001E0008B05E900F7FF3200C82ADE00055D7800C4
:1001F0008B05E900F3FF32000C00E000F1FF320054
:1002000019DDBA00EEFF37009CD1040000000000A9
:100210003600F800809FBE00829FBE00849FBE0013
:10022000869FBE000000FA00E69602000000000073
:100230008880A9000080FA004F03BE004F02BE0074
:100240004F01BE004F00BE003600F900004006001E
:100250003600F800809FBE00829FBE00849FBE00D3
:10026000869FBE000000FA008A20A900F1248000C9
:1002700000082000008060000000E000080032005C
:100280009EE4A9000828EF00704080002000900044
:100290008000EB00010878000E28EF001501370000
:1002A000404080008000EB00B200200003002000EE
:1002B000820F5000838F580003013E000060010050
:1002C0000B00370039003700770037009E003700F9
:1002D000F9003700CC003700DE003700F6003700A9
:1002E000E0003700F80037003400370051003700D5
:1002F0000080200020009000620060000000E0000C
:10030000FB003A0000802000100090007040880040
:100310000080200010009000104078000AE8B7002C
:1003200000802000100090001000900060408800C5
:100330000080200010009000E600400000802000B7
:10034000110098000080200090009000A00323007E
:10035000808F500003003A000080200041032300FA
:100360001100980000802000A00090000100A10072
:100370002100980000802000900090000080200064
:1003800010007800808F500004003A0000802000A8
:10039000A00090000110A000210098009A04A8007D
:1003A0002000200040408800D20037009A24A80096
:1003B0002000200040408800CE003700F12480005B
:1003C00000002800008060000000E000090032000A
:1003D00000802000604090008040E8000080200005
:1003E0006140980040002000C6C7020000000000E5
:1003F000C0003700804080008000D100F00F200056
:1004000000806000B02488008040800061006000AF
:10041000004078000004E00003003200B00020003B
:1004200040408800B3003700300020004040880082
:10043000B0003700F1248000000028000080600038
:100440000000E000090032000080200060409000C1
:100450008040E800008020006140980040002000BB
:10046000C6C7020000000000A20037009A24A800BE
:10047000804080004800DE00E6006000000F2000A1
:100480000100700080408800804080000000A000D3
:100490008040880010C0B30012E8B70020002000A0
:1004A000404088009300370012C8BF00E14F500061
:1004B0000A00320060408000100078008040880010
:1004C0006040800020009000A040880060408000D4
:1004D0002040900016E8B700010037001268EF00D6
:1004E00081408000F00F2000808F5000090036000E
:1004F000804080004800DE00E6006000000F200021
:1005000001007000B0248800A00020004040880056
:100510007800370080408000B02488008040800050
:1005200061006000004078000004E0000300320039
:1005300050002000404088006E003700300020004E
:10054000404088006B003700F12480000000280044
:10055000008060000000E0000A00320000802000FF
:10056000604090008040E8000080200061409800DA
:100570009FE4A90050002000C6C702000000000050
:100580005C00370016C8BF008080FB008100E900D6
:10059000CF08DE00814078000040E90016E8B7008F
:1005A0000104E0001100320060408000660040005D
:1005B000604088000AC8BF000040E9000AE8B700B0
:1005C0000AC8BF000004E00004003A002000200038
:1005D000C6C7020000000000460037009A24A800A9
:1005E000200020004040880042003700A0408000EA
:1005F000904078008180FB00B12488000000E80072
:10060000A04088003B003700F12480000000280053
:10061000008060000000E0000A003200008020003E
:10062000604090008040E800008020006140980019
:1006300040002000C6C70200000000009FE4A9009F
:100640002C0037009A64A8008000200040408800F9
:100650002800370080002000404088009A64A800ED
:1006600024003700A0408000A12480008140780051
:10067000014878000000E800A040880016C8BF00CC
:100680000040E90016E8B70016C8BF000004E0000B
:10069000040032009AA4A9006000200040408800B5
:1006A000030037009AA4A800A4C7020000000000BD
:1006B0009A84A8000F00370020002000C6C702005F
:1006C000000000000B003700008020006040900018
:1006D0008040E80000802000614098006000200019
:1006E000C6C7020000000000000000000100370043
:1006F000000000000080FA004F03BE004F02BE0061
:100700004F01BE004F00BE003600F9000040060059
:100710003600F800809FBE00829FBE00849FBE000E
:10072000869FBE000400FA0030C6B3001EE8B70082
:1007300000802000D03388007B46A8000000000025
:100740000000000000000000000000007B46A9003F
:100750008E20A900C0408000E20F5000FB01320053
:10076000E20F500003003900E30F5000D5013200C2
:1007700032023700512580000040200000806000D8
:100780000000E00005003A00712580000002200012
:10079000008060000000E0000D0032005125800064
:1007A00000082000008060000000E000050032002A
:1007B0007125800000202000008060000000E00023
:1007C00003003A0021C8BF000004E000CC00320062
:1007D00070258000640060000000E00068003A00BE
:1007E00010C0B3001EE8B70000002100D03388001D
:1007F0007B46A80000000000000000000000000090
:10080000000000007B46A900712580000000220046
:10081000008060000000E0003A00320010C0B30029
:1008200021E8B700B0C0B3001EE8B7000080210087
:10083000D03388007B46A8000000000000000000C4
:1008400000000000000000007B46A9001FC8BF0098
:100850000080FB004B00DD00D03388007B46A80001
:100860000000000000000000000000000000000088
:100870007B46A90020258000004F7800AAA4A9008B
:1008800031C8BF000004E0001100320032C8BF00D0
:100890000004A2000004E0000D003200A0C0B3007C
:1008A00034E8B700C0C0B3001EE8B7000000220063
:1008B000D03388007B46A800000000000000000044
:1008C00000000000000000007B46A9000B0037007C
:1008D000AB84A800D0C0B3001EE8B700008022009F
:1008E000D03388007B46A800000000000000000014
:1008F00000000000000000007B46A9002068EF0017
:10090000ED0037002168EF0020258000004F7800BF
:1009100010002000C040880030C0B3001EE8B700BF
:1009200000002300D03388007B46A80000000000B0
:100930000000000000000000000000007B46A9004D
:100940007125800000022000008060000000E000AF
:10095000D800320010C0B30022E8B70000802300A6
:10096000D03388007B46A800000000000000000093
:1009700000000000000000007B46A900CE00370008
:1009800050C3B3001EE8B70000002400D033880035
:100990007B46A800000000000000000000000000EE
:1009A000000000007B46A9007125800000002200A5
:1009B000008060000000E0003000320010C0B30092
:1009C00021E8B70050C0B3001EE8B7000080240043
:1009D000D03388007B46A800000000000000000023
:1009E00000000000000000007B46A90020258000D8
:1009F000004F7800AAA4A9002068EF0031C8BF000A
:100A00000004E0001100320032C8BF000004A20060
:100A10000004E0000D003200A0C0B30033E8B700CE
:100A200030C3B3001EE8B70000002500D0338800B3
:100A30007B46A8000000000000000000000000004D
:100A4000000000007B46A90080013700AB84A800AD
:100A500040C3B3001EE8B70000802500D0338800F3
:100A60007B46A8000000000000000000000000001D
:100A7000000000007B46A9008F00370060C0B30073
:100A80001EE8B70000002600D03388007B46A8008F
:100A90000000000000000000000000000000000056
:100AA0007B46A90020258000004F78000000EB0065
:100AB000BEC6020000000000AAA4A90020C8BF0012
:100AC0000080FB00E1042300614078000080FB000F
:100AD0003025880020C8BF00E64F500003003E00CC
:100AE00020C8BF000040E80020E8B7003268EF00EF
:100AF000AB84A80020002000C04088006E003700B2
:100B00005125800000402000008060000000E000CF
:100B10005D0032007125800000022000008060002E
:100B20000000E00058003A0070C0B3001EE8B700B3
:100B300000802600D03388007B46A800000000001B
:100B40000000000000000000000000007B46A9003B
:100B500070258000640060000000E0000E003A0094
:100B600080C0B3001EE8B70000002700D033880023
:100B70007B46A8000000000000000000000000000C
:100B8000000000007B46A9002868EF00300020002C
:100B9000C04088003900370090C0B3001EE8B7009D
:100BA00000802700D03388007B46A80000000000AA
:100BB0000000000000000000000000007B46A900CB
:100BC00028C8BF000004E0001F003200A0C0B3002E
:100BD0001EE8B70000002800D03388007B46A8003C
:100BE0000000000000000000000000000000000005
:100BF0007B46A9000000EB00BEC60200000000001A
:100C0000AAA4A90020C8BF000080FB00E1042300C3
:100C1000614078000080FB003025880020C8BF00BC
:100C2000E64F500003003E0020C8BF000040E8002F
:100C300020E8B7003268EF00AB84A8002000200055
:100C4000C04088000D003700B0C0B3001EE8B700F8
:100C500000802800D03388007B46A80000000000F8
:100C60000000000000000000000000007B46A9001A
:100C70002868EF0030002000C04088002025800058
:100C8000004F78000C00370040C6B3001EE8B700E4
:100C900000002900D03388007B46A8000000000037
:100CA0000000000000000000000000007B46A900DA
:100CB0000100370000000000C0408000E10F50003C
:100CC000DF003A00C0C0B3001EE8B7000080290072
:100CD000D03388007B46A800000000000000000020
:100CE00000000000000000007B46A9007125800084
:100CF00000022000008060000000E000D20032000E
:100D0000D0C0B3001EE8B70000002A00D03388002E
:100D10007B46A8000000000000000000000000006A
:100D2000000000007B46A90071258000000420001F
:100D3000008060000000E00054003A00E0C0B30012
:100D40001EE8B70000802A00D03388007B46A80048
:100D50000000000000000000000000000000000093
:100D60007B46A9001FC8BF000080FB004B00DD00D0
:100D7000D03388007B46A80000000000000000007F
:100D800000000000000000007B46A90022C8BF0050
:100D90000004E0001A00320000802F00D0338800E9
:100DA0007B46A800000000000000000000000000DA
:100DB000000000007B46A90000802F00D03388008F
:100DC0007B46A800000000000000000000000000BA
:100DD000000000007B46A90000802F00D03388006F
:100DE0007B46A8000000000000000000000000009A
:100DF000000000007B46A9002268EF009300370046
:100E00001FC8BF00E74F50001D003E00AAA4A90064
:100E100020258000104798001E4090000080FB00B5
:100E20004B00DD00D03388007B46A80000000000A6
:100E30000000000000000000000000007B46A90048
:100E40001FC8BF000080FB00610423001E4190000A
:100E5000827078001FC8BF000040E8001FE8B7009C
:100E60001FC8BF00E84F500003003A0010C0B30095
:100E700031E8B700750037003168EF0073003700C4
:100E80002025800020479800700037002025800032
:100E9000004F7800AEC4A900F0C0B3001EE8B70050
:100EA00000002B00D03388007B46A8000000000023
:100EB0000000000000000000000000007B46A900C8
:100EC0006200370030002000BEC6020000000000B3
:100ED0005AE8B70020C1B3001EE8B70000802B001D
:100EE000D03388007B46A80000000000000000000E
:100EF00000000000000000007B46A90010C0B30005
:100F000028E8B7005AC8BF000004E0000C00320017
:100F100030C1B3001EE8B70000002C00D0338800B9
:100F20007B46A80000000000000000000000000058
:100F3000000000007B46A90020258000004F7800BB
:100F400010002000C040880040003700712580005C
:100F500000002800008060000000E0001D003A0052
:100F60000000EB00BEC6020000000000AAA4A90019
:100F700020C8BF000080FB00E1042300614078002E
:100F80000080FB003025880020C8BF00E64F5000DD
:100F900003003E0020C8BF000040E80020E8B70082
:100FA0003268EF00AB84A80000C1B3001EE8B700B0
:100FB00000802C00D03388007B46A8000000000091
:100FC0000000000000000000000000007B46A900B7
:100FD0001E0037001828EF0020C8BF00E74F500060
:100FE0000B003E0010C1B3001EE8B70000002D004A
:100FF000D03388007B46A8000000000000000000FD
:1010000000000000000000007B46A9000F00370030
:1010100010CBB3001EE8B70000802D00D03388004D
:101020007B46A80000000000000000000000000057
:10103000000000007B46A90004003700FFFF3700D6
:101040000000000001003700000000000080FA00EE
:101050004F03BE004F02BE004F01BE004F00BE0056
:101060003600F900004006003600F800809FBE0000
:10107000829FBE00849FBE00869FBE000000FA00D3
:10108000004280000000E0000200320000428000C8
:101090000000010070072300104078008040E80045
:1010A00070072300014878006007230011C0B300D7
:1010B0000148780088E0A9000080FA004F03BE00D4
:1010C0004F02BE004F01BE004F00BE003600F900C7
:1010D000004006003600F800809FBE00829FBE00E0
:1010E000849FBE00869FBE000000FA008020A900F9
:1010F0000000EB009AD40200000000000080FA001B
:101100004F03BE004F02BE004F01BE004F00BE00A5
:101110003600F900004006003600F800809FBE004F
:10112000829FBE00849FBE00869FBE000000FA0022
:10113000AAD40200000000008040A9001000200096
:101140009AD40200000000000080FA004F03BE00A5
:101150004F02BE004F01BE004F00BE003600F90036
:10116000004006003600F800809FBE00829FBE004F
:10117000849FBE00869FBE000000FA008060A90028
:10118000200020009AD40200000000000080FA0035
:101190004F03BE004F02BE004F01BE004F00BE0015
:1011A0003600F900004006003600F800809FBE00BF
:1011B000829FBE00849FBE00869FBE000000FA0092
:1011C0008080A900300020009AD4020000000000B6
:1011D0000080FA004F03BE004F02BE004F01BE0068
:1011E0004F00BE003600F900004006003600F8004F
:1011F000809FBE00829FBE00849FBE00869FBE006F
:101200000000FA008600A900700020009AD40200B5
:10121000000000000080FA004F03BE004F02BE0035
:101220004F01BE004F00BE003600F900004006002E
:10123000809FBE000000FA00817C8100707C8100EC
:10124000808F500010003A00917C81000010200037
:10125000008060000000E0000B003A000000000089
:10126000D11C800000102000008060000000E00021
:10127000FBFF3200907C81000090A000907C8900F0
:101280009980A9001D0037008980A900140037004B
:10129000807C8100104078000080FB00E01C88000A
:1012A000807C81000000E800807C8900817C8100D6
:1012B00040FB2200808F500002003A0040F92200DB
:1012C000807C8900907C81000080A100907C890056
:1012D000817C8100707C8100808F5000060032008C
:1012E000D11C800000202000008060000000E00091
:1012F000E7FF320001003700000000000080FA0024
:101300004F00BE0000400600809FBE000000FA00B3
:101310008960A90021003700F01C8000004078009F
:1013200046E8B700507C810061842000914078003D
:101330000148780040428000514280006100400036
:10134000E08048004042880051428800507C810083
:101350000000E800507C8900517C810040FD2200A3
:10136000808F500002003A0040FB2200507C890030
:10137000907C81000010A100907C8900517C81004C
:10138000607C8100808F500004003A00907C8100D6
:101390000000A000907C890004003700D01C800071
:1013A000610060000000E000DBFF3A000080FA000E
:1013B0004F00BE0000400600801F78000000FA00C9
:1013C000D01C8000620060000000E00001003200DC
:1013D0009A23A9009020A9000080FA004F0078000D
:1013E00000400600809FBE003200F8003400F80084
:1013F00010002000A001880010202000900188002B
:101400000000FA004104800000002200008060001B
:101410000000E0000100320089A0A9000080FA006D
:101420003400F9003200F9004F00BE000040060011
:101430000040DA000000FE0000000500839F680005
:101440000100E00002003D0060001000E080180094
:101450000300E00002003D0060011100E08119007E
:101460006B0007004F00E00002003B00600010002E
:10147000E0801800000006000001BE001B0007000D
:101480000470A70003F0A10003F8A30013003A00C2
:101490006509B10010003200090035006928E1003B
:1014A0000200350001002800000005000000400097
:1014B000818048008502E900FCFF3A000000060038
:1014C000F88F4200050035008100D1000080D30074
:1014D0008502E800FCFF3A00000006008000EB00F7
:1014E000000005006011B80059003700C70ADE008F
:1014F000F107B200F50FB20008003200E1CF420060
:10150000020032000170A00024000500810F70006D
:10151000010032000408050044000500810F70003E
:1015200002003A00140005008502E90000004000B6
:1015300081C04800FCFF3B000170A00024000500B2
:10154000889FBE008A9FBE008C1F78009500070010
:101550009C00330003866C006450E10024003200DC
:101560006420E100270032006150E10022003200D7
:101570006120E100210032008B854200EB07B100C1
:101580000134B800003AB8000804420089844A00D7
:10159000013AB8000030B8008880400009014A00D4
:1015A000040033000000400081804800020149002F
:1015B0008B05E900C909DD008301700001003200DC
:1015C00013002000C814DE004814DD004709DE00C7
:1015D0001200B200C808DE00088470004B0007004B
:1015E00001F0A1000CF0A70001F0A0007E00370080
:1015F0006120E100800032000801BE000200BE0050
:10160000F7FF37006150E100FCFF3A007A00370035
:101610006022B800060220000000D0008180D200C5
:101620000482D2008582D2000000A0000202520093
:1016300083825A00030031000202420083824A0082
:101640000000A1000603E900F3FF3A0000000600D5
:10165000889FBE008A9FBE00008270000402710055
:1016600004827100260032000004BE000200BE00A9
:101670006011B8006B092000950220000182CF00A4
:101680000A0039000541B1000082CF00070039008F
:101690000541B1000982CF00040039000541B100C5
:1016A0000882CF00010039000541B1000542520017
:1016B000120032000A003B00828171006101640067
:1016C0008100D1000080D3008984D3000884D30036
:1016D0008B05E8000442E800F7FF3A0007003700F6
:1016E0000804440089844C000000480081804800C0
:1016F0008B05E9000442E900F9FF3A000300070006
:101700004F05BE004F04BE0000000600810020000F
:10171000618055000B003D000B00200061FE2F0092
:101720000100E1001D00340082817100610164004C
:101730008904D1000884D3000000E800FAFF3A00D1
:10174000710020006100640003007000020060006E
:101750000900320061044400E0844C000988A500BF
:10176000050032008B05E8006808E10002003A003D
:101770008904D1000884D300F20F20000258E10050
:1017800005003D00C75DDD00F907B20089807500E6
:1017900008007800000006000BF827008B00780096
:1017A000000005000004BE0050FF07000003BE005B
:1017B0000405BE000200BE004CFF0700844F750008
:1017C000000006000200BE006450E1000500360083
:1017D0006420E100020036000968A30001003A001D
:1017E0000800BE000160A0004F0678004F05BE0053
:1017F0004F04BE0000000600F0FF2F00F1FF27009D
:10180000F9FF37008001780002003700B1597800F5
:101810000201E9000200E000FCFF3A0000000600BF
:1018200000000000010000000200000004000000B1
:101830000800000000000000000000001000000090
:1018400000000000200000004000000080000000B8
:101850000001000000020000000400000008000079
:101860000010000000200000004000000080000088
:101870000200000000000000000000000000000066
:10188000000000000400000008000000000000004C
:101890001000000000000000000000000000000038
:1018A0000000000000000000000000000000000038
:1018B0000000000000000000000000000000000028
:1018C0000001000001010000010000000001000013
:1018D0000001000001010000010100000101000001
:1018E00001010000010100000200000001000000F1
:1018F00002000000040000000800000004000000D6
:10190000080000001000000010000000200000008F
:101910004000000080000000000100000002000004
:10192000000400000008000000100000002000007B
:1019300000400000008000000000FA0083E0A800E2
:1019400000000000000000000080FA000000060017
:101950000000FA0083E0A900000000000000000081
:101960000080FA00000006000200FA00D0C0B300B8
:10197000004F7800A0C0B3001047980030C8BF00E7
:101980000004E00004003200210020000E00780076
:1019900052B602000000000081002000E005230094
:1019A00052B602000000000030C8BF000004E00092
:1019B00008003200210020000E00780052B602001C
:1019C00000000000210020000E00780052B6020046
:1019D000000000002F68EF000080FA000000060001
:1019E0000200FA00000F7800E005230051C4B300A4
:1019F00001487800F10523001E0078008CC9020020
:101A0000000000004006230051C5B30001487800E3
:101A10005006230051C5B300014878000080FA0049
:101A2000000006001A00FA006005230090407800CC
:101A3000E0052300014878007005230090407800FD
:101A4000F0052300014878008005230090407800CD
:101A5000000623000148780090052300904078009C
:101A60001006230001487800A0052300904078006C
:101A70002006230001487800B0052300904078003C
:101A80003006230001487800C0052300904078000C
:101A90004006230001487800D005230090407800DC
:101AA00050062300014878006005230010407800AC
:101AB0000080FB006101B900F0FD2F00F1FF2F0055
:101AC0000200400083804800E20B20000300200059
:101AD000820F5000838F580093033E000060010086
:101AE00095033700900337008F0337008E033700CC
:101AF0008D0337008C0337008B0337008A033700D0
:101B000089033700880337008703370086033700CF
:101B100085033700840337008303370082033700CF
:101B200081033700800337007F0337007E033700CF
:101B30007D0337007C0337007B0337007A033700CF
:101B400079033700780337007703370076033700CF
:101B500075033700740337007303370072033700CF
:101B600071033700700337006F033700C30037007D
:101B70006D0337006C033700580137006A033700E4
:101B800069033700680337006703370066033700CF
:101B900065033700640337006303370066013700CD
:101BA00061033700E30137005F0337005E0337004E
:101BB0005D033700080237005B0337005A03370024
:101BC00059033700580337005703370056033700CF
:101BD00055033700810037005303370052033700A5
:101BE00051033700500337004F0337004E033700CF
:101BF0004D0337004C0337004B0337004A033700CF
:101C000049033700480337004703370046033700CE
:101C100045033700440337004303370042033700CE
:101C200041033700400337003F0337003E033700CE
:101C30003D0337003C0337003B0337003A033700CE
:101C400039033700380337003703370036033700CE
:101C500035033700340337003303370032033700CE
:101C6000F30137001F0237003702370054023700F4
:101C7000750237002C0337002B0337002A03370087
:101C800029033700280337002703370026033700CE
:101C9000250337002403370023033700830237006E
:101CA00095023700B1023700CD0237001E0337001E
:101CB0001D0337001C0337001B0337001A033700CE
:101CC00019033700180337001703370016033700CE
:101CD00015033700140337001303370012033700CE
:101CE00011033700100337000F0337000E033700CE
:101CF0000D0337000C0337000B0337000A033700CE
:101D000009033700080337000703370006033700CD
:101D100005033700040337000303370002033700CD
:101D20000103370000033700FF023700D2023700FB
:101D3000FD023700FC023700FB023700FA023700D1
:101D4000F9023700F8023700F7023700F6023700D1
:101D5000F5023700F4023700F3023700F2023700D1
:101D6000F1023700F0023700EF023700EE023700D1
:101D7000ED023700EC023700EB023700E8023700D3
:101D8000E7023700E6023700E5023700E4023700D9
:101D9000E3023700E2023700E1023700E0023700D9
:101DA000DF023700DE023700DD023700DC023700D9
:101DB000DB023700DA023700D9023700D8023700D9
:101DC000D7023700D6023700D5023700D4023700D9
:101DD000D3023700D2023700D1023700700523004A
:101DE00090407800C0C4B30080CF5000D4023A00C5
:101DF000800523009040780090C4B30080CF50004D
:101E0000D1023A009005230090407800E0C4B3006E
:101E100080CF5000CE023A00A00523009040780009
:101E200050C4B30080CF5000CB023A00B00523006D
:101E30009040780020C4B30080CF5000C8023A0020
:101E4000C005230090407800B0C4B30080CF50009C
:101E5000C5023A00D00523009040780010C3B300BB
:101E600080CF500003003A0010C0B30030E8B70044
:101E7000C40237003068EF00C2023700700523004B
:101E8000104078003CC9020000000000604F98003C
:101E90006E4890006A00B90000007800604F98001A
:101EA00080052300104078003CC9020000000000BB
:101EB000EE48900000C04000604F9800900523005D
:101EC000104078003CC90200000000000080FB00C8
:101ED0008000EB00000F9800110F98001E08900082
:101EE0006A00B900000178000E0890006000B90097
:101EF00000007800000141008E089000A000200042
:101F00000008B8000101410082007800000F98002D
:101F1000110F9800000F9800110F9800A0052300E2
:101F2000104078003CC90200000000000080FB0067
:101F30008000EB000E0990009E0990000200400016
:101F400083804800000F9800110F98001E08900031
:101F50006A00B900000178000E0890006000B90026
:101F600000007800000141008E089000A0002000D1
:101F70000008B8000101410082007800000F9800BD
:101F8000110F9800000F9800110F9800B005230062
:101F9000104078003CC90200000000000080FB00F7
:101FA0008000EB000E0990009E09900002004000A6
:101FB00083804800000F9800110F98001E089000C1
:101FC0006A00B900000178000E0890006000B900B6
:101FD00000007800000141008E089000A000200061
:101FE0000008B8000101410082007800000F98004D
:101FF000110F9800000F9800110F9800C0052300E2
:10200000104078003CC90200000000000080FB0086
:102010008000EB000E0990009E0990000200400035
:1020200083804800000F9800110F98001E08900050
:102030006A00B900000178000E0890006000B90045
:1020400000007800000141008E089000A0002000F0
:102050000008B8000101410082007800000F9800DC
:10206000110F9800000F9800110F9800D005230061
:10207000104078003CC90200000000000080FB0016
:102080008000EB000E0990009E09900002004000C5
:1020900083804800000F9800110F98000E099000EF
:1020A0009E099000F0FF2F0001002000800F5100DA
:1020B000818F590006003E000E08900080007800D5
:1020C0006E48900004CB0200000000002D02370093
:1020D0002000200042FE07002A023700700523007E
:1020E000104078003CC902000000000040579800F2
:1020F0004E5090006A00B9000000780040579800E8
:1021000080052300104078003CC902000000000058
:10211000CE50900000C04000405798004E509000B4
:1021200024CB020000000000110623008CC902002D
:1021300000000000130237007005230010407800F3
:102140003CC9020000000000004F78001E407800EB
:102150006A00B90000007800004F78008005230075
:10216000104078003CC90200000000001E4F4000F3
:1021700030C0B300104798006A0037001E4090003E
:102180000080FB0061052300E140780010C6B30029
:1021900080CF500011003A001E417800818320005A
:1021A0008248780038C8BF008080FB008002200091
:1021B0000088B90080007800A086220000804000DE
:1021C000904288006005230081CCB300014878006C
:1021D00020B80200000000004E0037008040EB00F5
:1021E0001E4078005EA90200000000008040EB0065
:1021F0001E4078001ECC0200000000001E4090002F
:102200000080FB0061052300614078000080FB0036
:10221000C1062000810F500022003200C1062000BC
:10222000810F50000A003C0081062000810F500001
:102230002000320091062000810F5000150032006E
:1022400041062000810F5000220032002D0037008F
:1022500051072000810F50001A0032005107200062
:10226000810F500004003C0031072000810F500016
:102270001C0032002300370071072000810F50003E
:102280001C00320081072000810F50002000320026
:102290001C0037001E407800AEAA020000000000BB
:1022A0001C0037001E40780040AC02000000000017
:1022B000180037001E4078004EAC020000000000FD
:1022C000140037001E407800AEAA02000000000093
:1022D000100037001E407800AEAA02000000000087
:1022E0000C0037001E4078008CB102000000000096
:1022F000080037001E4078001CB1020000000000FA
:102300000400370030002000B5FD07000100370051
:10231000000000001E4090000040E80010479800B8
:102320001E4FE8001E409000E74F500093FF36001C
:1023300094013700700523009040780050C6B30028
:1023400080CF500021003A008005230090407800A3
:1023500030C5B30080CF50001C003A009005230028
:102360009040780050C6B30080CF500017003A006C
:10237000A00523009040780040C5B30080CF5000F6
:1023800012003A00B00523009040780010C2B3005C
:1023900080CF50000D003A00C00523009040780027
:1023A00030C2B30080CF500008003A00D0052300AF
:1023B00090407800A0C2B30080CF500003003A00E4
:1023C000FCCE0200000000006E013700400020003B
:1023D00083FD07006B013700F005230031C5B30012
:1023E000014878000006230011C3B30001487800BB
:1023F0001006230081C3B3000148780020062300A3
:1024000021C4B300014878003006230021C3B30083
:10241000014878004006230001C3B300014878005A
:102420005006230031C3B30001487800550137003E
:10243000700523001040780024CB0200000000004B
:10244000300F98003E08900080407800000623007E
:10245000014878003E0890004800DE008040780087
:102460001006230001487800700523001040780012
:102470000040E80024CB020000000000300F98006C
:102480003E08900080407800200623000148780034
:102490003E0890004800DE008040780030062300AF
:1024A00001487800700523001040780000C0E80063
:1024B00024CB020000000000300F98003E0890007E
:1024C0008040780040062300014878003E089000D4
:1024D0004800DE0080407800500623000148780064
:1024E0002801370080052300104078008080FB0021
:1024F00090052300104078000080FB004800DD00BC
:1025000080804000700523001040780004CB02005A
:1025100000000000B0052300104078008080FB0020
:10252000C0052300104078000080FB004800DD005B
:1025300080804000A00523001040780004CB0200FA
:10254000000000000F0137007005230010407800E4
:102550008080FB0080052300104078000080FB0095
:102560004800DD0000804000400F9800CE08900039
:10257000F0FF2100808F5000FD003E00F1FF2100A0
:102580004E08900000805000100798001E00900038
:10259000E70F50000200360070002000100798007E
:1025A000CE089000A086200080804000F005230027
:1025B0001E019000028C020000000000F1003700B4
:1025C00070052300104078008080FB008005230008
:1025D000104078000080FB004800DD0000804000D3
:1025E0007042880071428000F0FF2100808F50000F
:1025F000E1003E0070428000F1FF210000805000A9
:10260000200798002E009000E50F500002003600D1
:10261000500020002007980091052300724280009E
:10262000A0862000000041002E019000028C0200D4
:1026300000000000714280002E00900000804000E9
:1026400070428800CF00370071428000F0FF210007
:10265000808F5000CA003E0070428000F1FF2100D0
:1026600000805000300798003E009000E70F5000B7
:10267000020036007000200030079800910523000A
:1026800072428000A0862000000041003E019000C0
:10269000028C020000000000714280003E009000A9
:1026A0000080400070428800B6003700800523009B
:1026B000104078008080FB009005230010407800D7
:1026C0000080FB004800DD00808040007005230092
:1026D000104078000081FB00800523001040780046
:1026E0000080FB004800DD000000410084C30200C0
:1026F00000000000A30037007005230010407800A0
:102700008080FB0080052300104078000080FB00E3
:102710004800DD0000804000804288000040EB005F
:10272000004F98000B0037000E4890000080FB001F
:102730006400400061052300E14078008042800091
:10274000B0C40200000000000E4890000040E80005
:10275000004F980090052300904078000E489000AC
:1027600080CF5000F0FF3E00860037007005230048
:10277000104078008080FB00800523001040780026
:102780000080FB004800DD0000804000804288009F
:102790000040EB00104F98000B0037001E489000DF
:1027A0000080FB006400400061052300E1407800E8
:1027B00080428000B0C40200000000001E4890006B
:1027C0000040E800104F98009005230090407800EA
:1027D0001E48900080CF5000F0FF3E006900370097
:1027E0000000EB00500798000040EB00404F9800BD
:1027F000150037004E4890000080FB000080E80084
:1028000080007800E00523000080400080407800D0
:1028100070052300104078000081FB008005230034
:10282000104078000080FB004800DD0000004100FF
:10283000B0C4020000000000500798004E4890000D
:102840000040E800404F9800900523009040780039
:102850004E48900080CF5000030036005E0090008C
:102860000000E000E3FF3200F0052300CE489000B6
:102870000148780043003700F005230090407800BD
:1028800020C5B30080CF500018003A000006230096
:102890009040780050C4B30080CF500013003A003D
:1028A000100623009040780030C5B30080CF500060
:1028B0000E003A00200623009040780050C4B30078
:1028C00080CF500009003A00300623009040780085
:1028D00040C5B30080CF500004003A003668EF00D6
:1028E00010C0B30037E8B7002600370010C0B300AF
:1028F000504F98000600370036C8BF000040E8007F
:1029000036E8B7005E4890000040E800504F98005D
:102910005E489000E74F5000F7FF3600190037007F
:102920008C00070017003700500020002CFC070027
:102930000000000013003700000000001100370005
:10294000000000000F003700000000000D003700FD
:10295000000000000B0037000000000009003700F5
:1029600000000000070037000000000005003700ED
:1029700000000000030037000000000001003700E5
:10298000000000000080FA00000006000000FA00CD
:102990001FC8BF00E74F50006C00360000802800C1
:1029A000D03388007B46A800000000000000000033
:1029B00000000000000000007B46A9000080280005
:1029C000D03388007B46A800000000000000000013
:1029D00000000000000000007B46A9003268EF0004
:1029E000820020006104230060052300028C0200A5
:1029F000000000001F68EF0034C8BF000004E000C2
:102A00000A00320000002F00D03388007B46A80067
:102A100000000000000000000000000000000000B6
:102A20007B46A9003368EF00AB84A800FDFB0700DC
:102A3000700523009040780010C2B30080CF500092
:102A400008003A00600523009040780010C2B300EF
:102A500080CF50000300320035C8BF000040E800BE
:102A600035E8B700BAFB070082002000E10523002B
:102A7000E0042300028C02000000000010C0B3003C
:102A800032E8B7003168EF0034C8BF000004E0004E
:102A90000A00320000002E00D03388007B46A800D8
:102AA0000000000000000000000000000000000026
:102AB0007B46A9003468EF003268EF0033C8BF00DE
:102AC0000004E0001000320032C8BF000004E00043
:102AD0000D00320000802E00D03388007B46A80015
:102AE00000000000000000000000000000000000E6
:102AF0007B46A9003368EF003468EF00AB84A80080
:102B00003268EF002068EF008BFB07000080280090
:102B1000D03388007B46A8000000000000000000C1
:102B200000000000000000007B46A9000080280093
:102B3000D03388007B46A8000000000000000000A1
:102B400000000000000000007B46A9000080FA00A1
:102B5000000006000200FA00700523001040780013
:102B600038E8B70038C8BF008080FB008002200032
:102B70000088B90080007800A08622000080400014
:102B80009042880038C8BF00F34F500045003E0017
:102B900080052300104078000080FB00CF80DE001D
:102BA0005201200003002000820F5000838F580044
:102BB0003D003E00006001001E0037003A00370073
:102BC0002E0037001800370037003700100037009C
:102BD0003500370026003700330037003200370059
:102BE0000E003700300037002F0037002E0037006E
:102BF0002D0037002C0037000B0037002A0037006B
:102C00001800370008003700270037001E00370083
:102C1000EC9D0200000000002300370062CC02009F
:102C20000000000020003700A8AD020000000000F6
:102C30001D00370070052300104F7800904280007F
:102C40008040EB0061609800900523001040780000
:102C5000804078001E40780024AB02000000000095
:102C600011003700B6BA0200000000000E00370065
:102C7000B6CD0200000000000B00370020B80200B3
:102C800000000000080037000040EB0032AC0200FA
:102C90000000000038C8BF0068E8B700000000006E
:102CA00001003700000000000080FA00000006006C
:102CB0000000FA001000200020268800008020007C
:102CC000402688000080EB00502688004034200019
:102CD000602688000030260070268800A0B82200F8
:102CE000802688006066200090268800000820006A
:102CF000A02688008880A90040342000B0268800E3
:102D000000302600C0268800A0C82200D0268800F7
:102D1000A0672000E026880000082000F026880038
:102D200089C0A9004031200000278800003026001B
:102D3000102788004066200020278800A0D82200A5
:102D40003027880000082000402788008B00A90059
:102D5000403120005027880000302600602788007E
:102D60008067200070278800A0E822008027880064
:102D700000082000902788008C80A900F424EF0030
:102D8000F624EF00F824EF00FA24EF0000082000FA
:102D9000E02788008DC0A900FE24EF000025EF0089
:102DA0000225EF000425EF000625EF008FA0A90003
:102DB000C5E4A800CC04A800D604A800E004A8003C
:102DC000EA04A8000080FA00000006000000FA00F3
:102DD0000080FA00000006000000FA000080FA00FF
:102DE000000006000000FA004104800000002400FA
:102DF000008060000000E00003003200EC9602005A
:102E00000000000089C0A9000080FA000000060050
:102E10000000FA000080FA00000006000000FA003E
:102E20005104800000102000008060000000E000DD
:102E30000300320008970200000000008B00A90088
:102E40000080FA00000006000000FA000080FA008E
:102E5000000006000000FA006004800070006000BE
:102E60000000E00003003200249702000000000090
:102E70008C80A9000080FA00000006000000FA0023
:102E80000080FA00000006000000FA0061048000E3
:102E900000002400008060000000E0000300320019
:102EA0003E970200000000008DC0A9000080FA00DB
:102EB000000006000000FA000080FA000000060092
:102EC0000000FA0071048000000022000080600011
:102ED0000000E000030032005A97020000000000EA
:102EE0008FA0A9000080FA00000006000200FA008E
:102EF000000F78001E007800E20F50001200320030
:102F0000E20F500005003E000000E0000A00320021
:102F1000E10F50000A00320013003700E40F5000A8
:102F20000D003200E40F500009003900E50F500099
:102F30000B0032000C003700CC04A8000A00370058
:102F4000D604A80008003700E004A80006003700F7
:102F5000EA04A80004003700F404A80002003700C7
:102F6000FE04A800000000000080FA000000060037
:102F70000200FA00000F78001E007800E20F5000F7
:102F800012003200E20F500005003E000000E00099
:102F90000A003200E10F50000A003200130037002F
:102FA000E40F50000D003200E40F5000090039001A
:102FB000E50F50000B0032000C003700CC04A900D4
:102FC0000A003700D604A90008003700E004A90071
:102FD00006003700EA04A90004003700F404A90041
:102FE00002003700FE04A900000000000080FA0083
:102FF000000006000400FA00000F78001107980096
:103000001E007800E20F500014003200E20F500062
:1030100005003E000000E0000A003200E10F500011
:103020000B00320019003700E40F5000110032008D
:10303000E40F50000C003900E50F50001000320082
:10304000120037009E009000A12688000F00370074
:103050009E009000F12688000C0037009E00900032
:1030600041278800090037009E00900091278800C2
:10307000060037009E009000E1278800030037001B
:103080009E00900031288800000000000080FA00B7
:10309000000006000200FA00000F78001E00780011
:1030A000E20F500012003200E20F500005003E0017
:1030B0000000E0000A003200E10F50000A00320078
:1030C00013003700E40F50000D003200E40F5000F1
:1030D00009003900E50F50000B0032000C003700EA
:1030E000A02680000B003700F02680000900370082
:1030F0004027800007003700902780000500370038
:10310000E0278000030037003028800001003700EE
:103110000000EB000080FA00000006000200FA0048
:10312000000F78001E007800E20F500012003200FD
:10313000E20F500005003E000000E0000A003200EF
:10314000E10F50000A00320013003700E40F500076
:103150000D003200E40F500009003900E50F500067
:103160000B0032000C003700CD04A8000A00370025
:10317000D704A80008003700E104A80006003700C3
:10318000EB04A80004003700F504A8000200370093
:10319000FF04A800000000000080FA000000060004
:1031A0000400FA00000F7800110798001E00780054
:1031B000E20F500014003200E20F500005003E0004
:1031C0000000E0000A003200E10F50000B00320066
:1031D00019003700E40F500011003200E40F5000D6
:1031E0000C003900E50F50001000320012003700CB
:1031F0009E009000812688000F0037009E009000FE
:10320000D12688000C0037009E00900021278800FE
:10321000090037009E0090007127880006003700E3
:103220009E009000C1278800030037009E00900098
:1032300011288800000000000080FA00000006004D
:103240000400FA00000F7800110798001E007800B3
:10325000E20F500014003200E20F500005003E0063
:103260000000E0000A003200E10F50000B003200C5
:1032700019003700E40F500011003200E40F500035
:103280000C003900E50F500010003200120037002A
:103290009E009000912688000F0037009E0090004D
:1032A000E12688000C0037009E009000312788003E
:1032B000090037009E009000812788000600370033
:1032C0009E009000D1278800030037009E009000E8
:1032D00021288800000000000080FA00000006009D
:1032E0000200FA00000F78001E007800E20F500084
:1032F00022003200E20F500005003E000000E00016
:103300000A003200E10F5000120032004300370083
:10331000E40F50002D003200E40F5000210039006E
:10332000E50F5000330032003C003700602680007B
:103330004800DE00614060000080FB0000F0A70054
:103340000000EA000000EA004F00DE0000407800C4
:1033500033003700B02680004800DE006140600086
:103360000080FB0000F0A7000000EA000000EA0077
:103370004F00DE0000407800290037000027800061
:103380004800DE00614060000080FB0000F0A70004
:103390000000EA000000EA004F00DE000040780074
:1033A0001F003700502780004800DE0061406000A9
:1033B0000080FB0000F0A7000000EA000000EA0027
:1033C0004F00DE000040780015003700A027800085
:1033D0004800DE00614060000080FB0000F0A700B4
:1033E0000000EA000000EA004F00DE000040780024
:1033F0000B003700F02780004800DE0061406000CD
:103400000080FB0000F0A7000000EA000000EA00D6
:103410004F00DE0000407800010037000040EB0064
:103420000080FA00000006000200FA00000F780099
:103430001E007800E20F500022003200E20F500020
:1034400005003E000000E0000A003200E10F5000DD
:103450001200320043003700E40F50002D0032000C
:10346000E40F500021003900E50F50003300320016
:103470003C003700702680004F00DE0000407800DE
:103480000080FB0000F0A7000000EA000000EA0056
:103490004F00DE000040780033003700C026800077
:1034A0004F00DE00004078000080FB0000F0A70025
:1034B0000000EA000000EA004F00DE000040780053
:1034C00029003700102780004F00DE000040780000
:1034D0000080FB0000F0A7000000EA000000EA0006
:1034E0004F00DE00004078001F003700602780009A
:1034F0004F00DE00004078000080FB0000F0A700D5
:103500000000EA000000EA004F00DE000040780002
:1035100015003700B02780004F00DE000040780023
:103520000080FB0000F0A7000000EA000000EA00B5
:103530004F00DE00004078000B00370000288000BC
:103540004F00DE00004078000080FB0000F0A70084
:103550000000EA000000EA004F00DE0000407800B2
:10356000010037000040EB000080FA000000060078
:103570000200FA00000F78001E007800E20F5000F1
:1035800022003200E20F500005003E000000E00083
:103590000A003200E10F50001200320043003700F1
:1035A000E40F50002D003200E40F500021003900DC
:1035B000E50F5000330032003C00370070268000D9
:1035C0004700DE00614060000080FB0000F0A700C3
:1035D0000000EA000000EA004F00DE000040780032
:1035E00033003700C02680004700DE0061406000E5
:1035F0000080FB0000F0A7000000EA000000EA00E5
:103600004F00DE00004078002900370010278000BE
:103610004700DE00614060000080FB0000F0A70072
:103620000000EA000000EA004F00DE0000407800E1
:103630001F003700602780004700DE006140600007
:103640000080FB0000F0A7000000EA000000EA0094
:103650004F00DE000040780015003700B0278000E2
:103660004700DE00614060000080FB0000F0A70022
:103670000000EA000000EA004F00DE000040780091
:103680000B003700002880004700DE00614060002A
:103690000080FB0000F0A7000000EA000000EA0044
:1036A0004F00DE0000407800010037000040EB00D2
:1036B0000080FA00000006000200FA00000F780007
:1036C0001E007800E20F500022003200E20F50008E
:1036D00005003E000000E0000A003200E10F50004B
:1036E0001200320043003700E40F50002D0032007A
:1036F000E40F500021003900E50F50003300320084
:103700003C003700702680004600DE00614060000B
:103710000080FB0000F0A7000000EA000000EA00C3
:103720004F00DE000040780033003700C0268000E4
:103730004600DE00614060000080FB0000F0A70052
:103740000000EA000000EA004F00DE0000407800C0
:1037500029003700102780004600DE00614060002D
:103760000080FB0000F0A7000000EA000000EA0073
:103770004F00DE00004078001F0037006027800007
:103780004600DE00614060000080FB0000F0A70002
:103790000000EA000000EA004F00DE000040780070
:1037A00015003700B02780004600DE006140600051
:1037B0000080FB0000F0A7000000EA000000EA0023
:1037C0004F00DE00004078000B003700002880002A
:1037D0004600DE00614060000080FB0000F0A700B2
:1037E0000000EA000000EA004F00DE000040780020
:1037F000010037000040EB000080FA0000000600E6
:103800000200FA00000F78001E007800E20F50005E
:1038100022003200E20F500005003E000000E000F0
:103820000A003200E10F500012003200430037005E
:10383000E40F50002D003200E40F50002100390049
:10384000E50F5000330032003C0037007026800046
:103850004500DE00614060000080FB0000F0A70032
:103860000000EA000000EA004F00DE00004078009F
:1038700033003700C02680004500DE006140600054
:103880000080FB0000F0A7000000EA000000EA0052
:103890004F00DE000040780029003700102780002C
:1038A0004500DE00614060000080FB0000F0A700E2
:1038B0000000EA000000EA004F00DE00004078004F
:1038C0001F003700602780004500DE006140600077
:1038D0000080FB0000F0A7000000EA000000EA0002
:1038E0004F00DE000040780015003700B027800050
:1038F0004500DE00614060000080FB0000F0A70092
:103900000000EA000000EA004F00DE0000407800FE
:103910000B003700002880004500DE006140600099
:103920000080FB0000F0A7000000EA000000EA00B1
:103930004F00DE0000407800010037000040EB003F
:103940000080FA00000006000200FA00000F780074
:103950001E007800E20F500022003200E20F5000FB
:1039600005003E000000E0000A003200E10F5000B8
:103970001200320043003700E40F50002D003200E7
:10398000E40F500021003900E50F500033003200F1
:103990003C003700702680004300DE00614060007C
:1039A0000080FB0000F0A7000000EA000000EA0031
:1039B0004F00DE000040780033003700C026800052
:1039C0004300DE00614060000080FB0000F0A700C3
:1039D0000000EA000000EA004F00DE00004078002E
:1039E00029003700102780004300DE00614060009E
:1039F0000080FB0000F0A7000000EA000000EA00E1
:103A00004F00DE00004078001F0037006027800074
:103A10004300DE00614060000080FB0000F0A70072
:103A20000000EA000000EA004F00DE0000407800DD
:103A300015003700B02780004300DE0061406000C1
:103A40000080FB0000F0A7000000EA000000EA0090
:103A50004F00DE00004078000B0037000028800097
:103A60004300DE00614060000080FB0000F0A70022
:103A70000000EA000000EA004F00DE00004078008D
:103A8000010037000040EB000080FA000000060053
:103A90000200FA00000F78001E007800E20F5000CC
:103AA00022003200E20F500005003E000000E0005E
:103AB0000A003200E10F50001200320043003700CC
:103AC000E40F50002D003200E40F500021003900B7
:103AD000E50F5000330032003C00370070268000B4
:103AE0004400DE00614060000080FB0000F0A700A1
:103AF0000000EA000000EA004F00DE00004078000D
:103B000033003700C02680004400DE0061406000C2
:103B10000080FB0000F0A7000000EA000000EA00BF
:103B20004F00DE0000407800290037001027800099
:103B30004400DE00614060000080FB0000F0A70050
:103B40000000EA000000EA004F00DE0000407800BC
:103B50001F003700602780004400DE0061406000E5
:103B60000080FB0000F0A7000000EA000000EA006F
:103B70004F00DE000040780015003700B0278000BD
:103B80004400DE00614060000080FB0000F0A70000
:103B90000000EA000000EA004F00DE00004078006C
:103BA0000B003700002880004400DE006140600008
:103BB0000080FB0000F0A7000000EA000000EA001F
:103BC0004F00DE0000407800010037000040EB00AD
:103BD0000080FA00000006000600FA00881F780046
:103BE00090428000000F78006005230010407800AC
:103BF0000080FB00910C2000810F50007601320004
:103C0000A10C2000810F50007E013200810C2000A9
:103C1000810F5000A7013A00B00523001040780042
:103C20000080FB0001C6280061447800FCA9020066
:103C300000000000804F54000700320090428000D6
:103C400011C0B3006160980010002000F08C0200E9
:103C500000000000970137009042800051C0B3007F
:103C6000616098001E0078004048900011C0B300C9
:103C70001ECC020000000000904280008000EB009B
:103C80002110980090052300104078008080FB00F0
:103C9000A0052300104078000080FB004800DD00F4
:103CA000808040001E007800010878001E00780027
:103CB0008000EB0011009800B005230090407800D0
:103CC0001E00780041489800C0052300104078008D
:103CD000E34060001E00780051489800C0052300B2
:103CE0001040780011C0B300E34F500001003600CF
:103CF0008040EB001E0078008180FB00E1806000C6
:103D0000C908DD00500190000290A100828070007F
:103D1000510098001E007800D00090000020200084
:103D2000008060000000E000070032001E00780004
:103D300090007800900320000088B900800078008F
:103D40001E00780001087800D0052300104078009C
:103D50000080FB00E10F500053003200E20F5000E2
:103D60009C0032000000E000E5003A00FCA90200DF
:103D7000000000000080FB000000E00003003200B3
:103D8000E10F500024003200DD00370042A902009C
:103D9000000000008080EA00A03380000080600006
:103DA000A03388001E007800404890000080FB008F
:103DB0008000400040C728000080400010007800CC
:103DC0008080EA00A033800000806000A03388007B
:103DD00042A90200000000008080EA0090338000C9
:103DE00000806000903388001E00780040489000FA
:103DF0000080FB008000400040C728000080400099
:103E0000100078008080EA0090338000008060001D
:103E1000903388002300370042A902000000000010
:103E20008080EA00403480000080600040348800D8
:103E30001E007800404890000080FB008000400099
:103E400040C7280000804000100078008080EA0011
:103E500040348000008060004034880042A90200A5
:103E6000000000008080EA003034800000806000A4
:103E7000303488001E007800404890000080FB002D
:103E80008000400040C728000080400010007800FB
:103E90008080EA0030348000008060003034880088
:103EA0000000000096003700FCA90200000000009E
:103EB0000080FB000000E00003003200E10F500032
:103EC000220032008E00370042A9020000000000EC
:103ED0008080EA00A033800000806000A03388006A
:103EE0001E007800404890000080FB0080004000E9
:103EF00040C7280000804000100078008080EA0061
:103F0000A033800000806000A033880042A9020036
:103F10000000000091338000008070009033880022
:103F20001E007800404890000080FB0080004000A8
:103F300040C7280000804000900078009033800047
:103F400001007000903388002100370042A9020070
:103F5000000000008080EA004034800000806000A3
:103F6000403488001E007800404890000080FB002C
:103F70008000400040C7280000804000100078000A
:103F80008080EA0040348000008060004034880077
:103F900042A902000000000031348000008070005F
:103FA000303488001E007800404890000080FB00FC
:103FB0008000400040C7280000804000900078004A
:103FC00030348000010070003034880000000000B0
:103FD0004B003700FCA90200000000000080FB003D
:103FE0000000E00003003200E10F50002200320028
:103FF0004300370042A90200000000008080EA0070
:104000009033800000806000903388001E007800AC
:10401000404890000080FB008000400040C728001E
:1040200000804000100078008080EA00903380001B
:10403000008060009033880042A902000000000068
:10404000A133800000807000A03388001E0078003B
:10405000404890000080FB008000400040C72800DE
:104060000080400090007800A033800001007000C4
:10407000A03388002100370042A9020000000000A0
:104080008080EA0030348000008060003034880096
:104090001E007800404890000080FB008000400037
:1040A00040C7280000804000100078008080EA00AF
:1040B00030348000008060003034880042A9020063
:1040C000000000004134800000807000403488000F
:1040D0001E007800404890000080FB0080004000F7
:1040E00040C72800008040009000780040348000E5
:1040F0000100700040348800000000000000000053
:104100001E0078008080EB00310098001E007800CF
:104110008000EB002100980042A90200000000008E
:10412000100798001E007800D000900000202000AA
:10413000008060000000E00018003200100037002E
:10414000AE0090001E0090000080600000F0A7000C
:104150000000EA000000EA004F00DE008040780026
:104160001E0078008180FB00E1806000C808DD004F
:10417000500190000280A1008280700051009800E0
:1041800038C8BF00E4004700E6B4020000000000A9
:104190000004E000EAFF3A000B003700F6AA020034
:1041A00000000000804078001E0078008180FB0045
:1041B000E1806000C808DD00500190000280A1008D
:1041C00082807000510098001E00780011002000CD
:1041D0004100980037003700900523001040780018
:1041E0008080FB00A0052300104078000080FB00C9
:1041F0004800DD00808040001E00780041009800EB
:104200002C00370090052300104078008080FB00D0
:10421000A0052300104078000080FB004800DD006E
:10422000808040001E00780031009800B005230017
:10423000104078008080FB00C0052300104078000B
:104240000080FB004800DD00808040001E007800F8
:104250002100980090428000A01090001E0078007D
:1042600030009000808F50000400310090428000A8
:104270009E007800B10090002110980090428000CC
:10428000A01090001E00780020009000808F500049
:1042900004003600904280009E007800A10090004B
:1042A000211098009042800051C0B30061609800D6
:1042B000000000004F0478000080FA0000000600B3
:1042C0001E00FA0090428000300F980042A90200C0
:1042D00000000000400F980090428000A010900065
:1042E000010F78000000EB00600F98003E0890007E
:1042F000404890000080FB008000400040C728003C
:104300000080400090007800510F98003E08900017
:10431000500090004800DE00614060000080FB001B
:1043200000F0A7000000EA000000EA004F00DE00F5
:104330004047980010C0B300504798003E089000D6
:10434000D000900000202000008060000000E0000D
:104350001600320038C8BF00FC004700E6B4020077
:104360000000000050479800EE0890004E089000B2
:104370000080600000F0A7000000EA000000EA00F2
:104380004F00DE0020479800EE0890005E08900085
:104390000080600000F0A7000000EA000000EA00D2
:1043A0004F00DE0030479800E6003700F6AA020012
:1043B00000000000204798003E0890004048900010
:1043C00014AA02000000000030479800DD0037000A
:1043D0002E4090000004E0005F0032004E4090004C
:1043E0000004A2000004E000570032003E089000E4
:1043F000100090008000E8003E0890001100980036
:104400003E0890009000900030438000808F500064
:10441000030036003E0890001000900030438800F2
:104420003E089000900090003E0890001000780038
:10443000808F5000A500360010C0B30040479800A0
:104440003E08900050489000E14F500004003200B8
:104450003E08900050489000E24F500036003A006D
:104460003E4090000004E0001A0032003E08900038
:10447000400090001E0040008000EB0030079800D4
:10448000410798003E089000200090000000E000E6
:104490000D0032003E089000200090006101B8003D
:1044A0003E009000CE009000800F5100818F590097
:1044B00005003D003E089000200090008000EB00C9
:1044C0003007980041079800BE009000010F780067
:1044D000190037003E089000400090001E001000B8
:1044E0008000EB0050079800610798003E0890009C
:1044F00030009000E10F40000D0032003E089000B7
:10450000300090006101B8005E009000EE00900065
:10451000800F5100818F5900050034003E08900043
:10452000300090008000EB00500798006107980071
:10453000DE009000010F78003E0890008000EB0044
:1045400011009800610037003E0890008000EB00E9
:10455000110098005D0037004E4090000004E0001C
:10456000570032003E089000100090008000E800E4
:104570003E089000110098003E08900090009000C6
:1045800030438000808F5000030036003E089000CA
:1045900010009000304388003E089000900090008A
:1045A0003E08900010007800808F500047003600D1
:1045B0000040EB00404798003E08900050489000B3
:1045C0000004E000040032003E08900050489000D3
:1045D000E24F500036003A003E4090000004E000F8
:1045E0001A0032003E089000400090001E001000AB
:1045F0008000EB0070079800010F98003E089000C3
:10460000200090000000E0000D0032003E08900005
:10461000200090006101B8007E0090008E0890009C
:10462000800F5100818F590005003D003E08900029
:10463000200090008000EB0070079800010F9800A8
:10464000FE009000010F7800190037003E0890002E
:10465000400090001E0040008000EB00100F98000A
:10466000210F98003E08900030009000E10F4000BC
:104670000D0032003E089000300090006101B8004B
:104680001E089000AE089000800F5100818F5900E5
:10469000050034003E089000300090008000EB00E0
:1046A000100F9800210F98009E089000010F7800CD
:1046B0003E0890008000EB001100980003003700D6
:1046C0003E0890008000EB00110098003E0890002A
:1046D000D000900000202000008060000000E0007A
:1046E0001600320038C8BF00FC004700E6B40200E4
:1046F0000000000050479800EE0890004E0890001F
:104700000080600000F0A7000000EA000000EA005E
:104710004F00DE0020479800EE0890005E089000F1
:104720000080600000F0A7000000EA000000EA003E
:104730004F00DE0030479800020037000040EB00D9
:10474000504798005E4090000004E00020FF3A00CF
:104750003E089000CE4090008180FB00E180600028
:10476000C808DD00500190000280A1008280700026
:1047700051009800904280009E007800211098001F
:104780000080FA00000006000000FA005821EF0047
:104790005A21EF005E21EF005C21EF006621EF005F
:1047A0006421EF005821EF00F0002000D00A8800BB
:1047B00059E1A80010022100E00A88005E21EF0004
:1047C000F04C2800200B88006621EF006000B80044
:1047D00060838900718389000000EB0040838900B9
:1047E0000080FA00000006000800FA0080838100C3
:1047F0009183810000007800008FEA00A102800010
:10480000110798005881A9009060A9008083810059
:10481000918381004008DE0000007800A00288003B
:10482000210037008083810091838100000078009F
:104830001000BA00200798008083810091838100D6
:1048400061004000E08048008083890091838900F6
:104850008083810091838100000078001080BA007D
:1048600030079800808381009183810061004000BF
:10487000E08048008083890091838900AE00900029
:10488000010B8800BE009000110B8800608381003E
:104890007183810063005000E080580060838900CC
:1048A000718389001E8FE900C10A80000008200082
:1048B000008060000000E00008003A006083810092
:1048C00071838100E00F5000E08F58000300320038
:1048D0001E0078000000E000D2FF3A009E00900029
:1048E000A10288005881A800608381007183810043
:1048F000E00F5000E08F580002003A0010C0B300F3
:10490000010037000040EB000080FA0000000600C4
:104910000000FA00C10A800000082000008060004A
:104920000000E000020032000040EB005D003700B4
:104930009060A9006006230010407800E84F500006
:1049400018003E000C003700011620008083810013
:1049500010417800824878000000E80080838900D8
:10496000608381007183810061005000E080580005
:104970006083890071838900C10A800000082000DB
:10498000008060000000E0003D003A00608381008C
:1049900071838100E00F5000E08F5800EAFF3A0079
:1049A000370037006006230010407800F04F5000B9
:1049B00028003E000B0037008083810090007800C3
:1049C000010B88000080E8008083890060838100FB
:1049D0007183810062005000E0805800608389008C
:1049E00071838900C10A80000008200000806000F7
:1049F0000000E00022003A006083810071838100A2
:104A0000E00F5000E08F5800EBFF3A001C00370029
:104A10008083810090007800010B88000080E8000E
:104A2000808389008083810090007800110B8800CA
:104A30000080E800808389006083810071838100A9
:104A400064005000E0805800608389007183890011
:104A50000100370000000000C10A800000082000AB
:104A6000008060000000E00005003A0060838100E3
:104A700071838100E00F5000E08F5800E4FF3A009E
:104A80005881A8006083810071838100E00F50008D
:104A9000E08F580002003A0010C0B3000100370058
:104AA0000040EB000080FA00000006000000FA0061
:104AB00080048000680060000000E00021003200F7
:104AC0005881A9009060A90070062300104078006A
:104AD0000040E9007F4060000080FB007F00600034
:104AE0004800DD00D20A8000F10F2E008100610035
:104AF00001007000D00A8800700623001040780082
:104B0000E84F500004003E00001620008040EB00FB
:104B10000148780008003700700623001040780034
:104B2000F04F500002003E006021EF00020037000D
:104B30006021EF006221EF005881A80010C0B3008F
:104B4000010037000040EB000080FA000000060082
:104B50000000FA0080048000680060000000E000AF
:104B60001000320060062300104078000040E90089
:104B70007F4060000080FB007F0060004800DD0097
:104B8000D20A8000F10F2E00810061000100700048
:104B9000D00A88005881A9009060A90010C0B30015
:104BA000010037000040EB000080FA000000060022
:104BB0000C00FA00400798005107980010002000F0
:104BC00001002000008FBE00700623001040780016
:104BD0000080FB000001E9001E00BE008201780099
:104BE0008301E90003003300000040008180480099
:104BF000FBFF3700008FBE006000B8002007980060
:104C000031079800160037004E00900061006000E8
:104C1000004078000004E000070032002E00900001
:104C2000BE0090003E017000AE8170000200BE0028
:104C300020079800310798001E00BE008100D100B7
:104C40000080D300008FBE004E009000DE00900078
:104C50008100D1000080D3004007980051079800E0
:104C60004E009000DE009000E00F5000E08F5800F2
:104C7000E5FF3A002E009000BE0090000080FA0090
:104C8000000006000800FA006000B800008FBE00B7
:104C90006000B80020079800310798000B0037002B
:104CA0001E00BE000000400081804800008FBE0052
:104CB0001E00A0002E009000BE0090006100400089
:104CC000E080480020079800310798007006230014
:104CD000104078000081FB008001EB002E00900066
:104CE000BE009000800F5100818F5900ECFF3E0004
:104CF0001E00BE000080FA00000006000A00FA0054
:104D00001007980021079800320798004307980081
:104D1000C00A80004300DE0061406000004F780060
:104D2000D00A80004800DE007F40600010479800F5
:104D30003E009000E10F500008003A001E00900075
:104D4000200B88001E009000AE0090004008DE009E
:104D500000007800300B880048003700D00A80003F
:104D6000004078007F4060000080FB007F00600012
:104D70004800DD00D20A8000F10F2E0081006100A2
:104D800001007000D00A88004E00900000407800BA
:104D9000614060000080FB00610060004300DD00B6
:104DA000C10A80000130A10001007000C00A880023
:104DB0007006230010407800E84F500005003E00C8
:104DC000001620009E009000814078000148780085
:104DD0000E0037007006230010407800F04F50009E
:104DE00003003E001E009000000B88000700370003
:104DF0001E009000000B88001E009000AE00900086
:104E00004008DE0000007800100B88009060A900C8
:104E10005881A80000000000800480006800600045
:104E20000000E000FCFF32005881A9009E4078009D
:104E300061C060000080FB00610060004300DD0095
:104E4000C10A80000130A10001007000C00A880082
:104E50009060A9001E4090007F4060000080FB0031
:104E60007F0060004800DD00D20A8000F10F2E00B4
:104E70008100610001007000D00A88000080FA0003
:104E8000000006000600FA00000F780012079800E4
:104E900023079800D00A80004800DE007F406000B1
:104EA0008040E8006006230001487800D00A8000B6
:104EB000004078007F4060008040E80070062300DA
:104EC000014878001E019000AE01900062838900C5
:104ED000738389009E017800838389000000EB00C2
:104EE00040838900A00623008040EB000148780041
:104EF0005881A8000080FA00000006000800FA00AF
:104F0000008FBE002207980033079800D00A800067
:104F10004800DE007F4060008040E800600623001B
:104F200001487800D00A8000004078007F4060008F
:104F30008040E80070062300014878002E019000B0
:104F4000BE01900062838900738389001E01BE0048
:104F500082838900938389000000EB0040838900ED
:104F6000A006230011C0B30001487800D10A8000D8
:104F700000F0210001007000D00A88005881A800CC
:104F80000080FA00000006000000FA000080FA002D
:104F9000000006000000FA0040838100E10F50008D
:104FA00017003200E10F500005003900E20F5000F9
:104FB00019003200E30F5000200032001C003700BF
:104FC000A0062300104078000004E0000600320034
:104FD00005FE07000004E0001A0032001000200067
:104FE000408389001E00370049FE07000004E000EE
:104FF000160032001000200040838900180037009E
:10500000AAFE07000004E000120032002000200089
:105010004083890012003700CDFE07000004E00045
:105020000E00320030002000408389000C00370061
:105030005821EF005A21EF0009003700000000005E
:1050400007003700000000000500370000000000E6
:1050500003003700000000000100370000000000DE
:1050600080048000680060000000E0000200320060
:10507000C4A70200000000000080FA000000060043
:105080000000FA00408381006300680000F0A70080
:105090000000EA000000E9004F00DE000040780058
:1050A0000080FA00000006000400FA0070062300E9
:1050B00010407800E84F500012003E00200B8000A6
:1050C0006101B800F00F200001002000020278000A
:1050D000830178000001780001007800020162007D
:1050E000008061008000EB00C000DD0000002000B7
:1050F000008FBE006110B8001E1F70001E97700068
:10510000130037007006230010407800F04F500065
:1051100004003E00200B80008000EB00008FBE00EA
:105120000B003700300B80008000EB00008FBE00CA
:105130001E00BE00C000DD0000002000008FBE0089
:10514000200B80008000EB001E1F70001E97700077
:105150001E00BE000080FA00000006000400FA00F5
:10516000D1FF0700008FBE001E00BE0090FE0700AA
:105170000080FA00000006000800FA0020079800EE
:1051800031079800C8FF0700008FBE001E01BE0057
:105190002E009000BE009000001F6900019769007A
:1051A000B8FE07000001BE001E00BE00020278002B
:1051B000030178008001780001007800030262009A
:1051C000000061008000EB00C000DD000000200056
:1051D0000001BE006120B8000001710081817100F2
:1051E0000200BE000080FA00000006000A00FA007B
:1051F000404798003207980043079800AAFF07002D
:10520000008FBE004E4090000004E000030032001A
:10521000D2FF0700008FBE0002003700A2FF070088
:10522000008FBE001E01BE003E009000CE00900028
:10523000001F69000197690092FE07000001BE008F
:105240001E00BE0002027800030178008001780091
:105250000100780003026200000061008000EB00A2
:10526000C000DD00000020000001BE006120B80089
:1052700000017100818171000200BE000080FA000F
:10528000000006000000FA0038C8BF00F34F5000CD
:10529000020036000000EB000600370038C8BF00EF
:1052A0000080FB008000400040C7280000804000D4
:1052B000100078000080FA00000006000200FA00EA
:1052C000004F7800114798001E4078003B0007000F
:1052D0000004A2000004E00035003A001E80FB003C
:1052E00001C62800614078000080FB000000E0005B
:1052F00003003200E10F5000170032002D0037008C
:105300001E4090000004E000090032001E80FB00F7
:105310008000400040C728000080400090007800D6
:1053200050338000010070005033880021003700A6
:105330001E80FB008000400040C728000080400025
:10534000100078008080EA00503380000080600008
:1053500050338800170037001E4090000004E00022
:10536000090032001E80FB008000400040C728007A
:105370000080400090007800F03380000100700051
:10538000F03388000B0037001E80FB0080004000D7
:1053900040C7280000804000100078008080EA00AC
:1053A000F033800000806000F03388000100370097
:1053B000000000000080FA00000006000200FA0071
:1053C000004F78001E80FB000000E0000700350061
:1053D000E50F50000300340071005000E30F50004F
:1053E00002003E0010C0B300010037000040EB0097
:1053F0000080FA00000006000000FA0038C8BF0074
:10540000F34F50000200360000C0EB0004003700EC
:1054100038C8BF000080FB0001C62800614078004A
:105420000080FA00000006000600FA0040479800DD
:105430000000EB00000F780010C0B3002047980078
:105440004E409000F34F500011003E004E4090003F
:105450000080FB008000400000C128000080400068
:10546000100F78001E0078000000E00008003A00ED
:105470004E4090000080FB008000400080C3280068
:1054800000804000100F78000040EB00204798009B
