:04000000803106281D
:100008008131442980310828F001F101F201F3011E
:1000180040010E28C03041019A00400198013F304C
:1000280092007E01B8013730BB003F30BC0004307D
:1000380051019300813052018C00703041019E00C3
:1000480079309D0035208031F800780803192D2873
:1000580071201F307F01ED008801813140298031F6
:100068000628FF3050019A000F309B009E011E1495
:100078009E01B7301C06031D4C3414301D06031DA9
:10008800483440309A0001309B009E011E149E01A6
:100098001C0F52283F301D0603194634931B533456
:1000A80041019D149D18562878301C02031C003409
:1000B800F33044018D000430910001308E004E0170
:1000C8008D1E632844018E0141019D149D186A28E4
:1000D80078301C02031856340034083042019F005F
:1000E80090309D0024309E0022309B0003307D011B
:1000F800CB003B304001920005307E019200453034
:1001080042019A004230142180314F30142180314D
:100118004F30142180315430142180317808142153
:1001280080313E30142180313E3014218031F3017A
:10013800523070060319AA287108F0007208F100FD
:100148007308F2001C218031F3009C28A33071064B
:10015800031DA0284D307206031DA028F630730633
:10016800031DA02865309A00403050019A000130E4
:100178009B00F601F70194309E0022218031203047
:1001880050019A071A0803199B0A2030F60703182A
:10019800F70A10307702003003197602031CBF28D3
:1001A800573042019A00A43050019E002A21803124
:1001B8001B1AFD281C21803150019C001C21803114
:1001C80050019D001F301A05F5001F3A031DF6283F
:1001D8009E1222218031A43050019E0057301421F4
:1001E8008031F8282221803150019A0A03199B0A8C
:1001F800DC2852301421803150019E012A2180319F
:100208001B1A13291E141C081421803150011D08C3
:100218001421803150019A0A03199B0A04291329D1
:10022800F4004E018D1D1529740842019A0008003A
:100238004E010D1E1C2942011908080055309F0067
:10024800AA309F009E1400000000080001309B00A7
:0602580040309A0008008E
:0602800000008131CD29D0
:100288007E1481314E01161A0C1E8D2940010C086E
:10029800BE007E01BF014E010C124101D01F7B152B
:1002A8005108D0005208D1005308D2005408D30096
:1002B8005508D4005608D5005708D60040013E0816
:1002C8004101D700FB1DCB293308B1003208B0002B
:1002D8003508B3003408B2003708B5003608B40052
:1002E8003908B7003808B6003B08B9003A08B80022
:1002F8003D08BB003C08BA003F08BD003E08BC00F2
:1003080044010C084101BE0044010D084101BF0031
:10031800CB29971B8D1F99298D13400169089805D2
:10032800FF30E9004E019713CB2917190D1DA0299D
:100338008A319B228131CB29971CA4298D189C29AD
:10034800171A0D1EAB2989317B218131CB299719C9
:100358008D1DB229893163218131CB29961A8C1ED2
:10036800CB298C12E0304B019D00C0309C0040012D
:100378003F080319C82941015A0FC5295B0A031907
:10038800C829DA0A0319DB0A01304001BF007E10D0
:10039800090040018331A32BF9290A30D2009223A6
:1003A8008131271CDA299F238131DB299B234001D6
:1003B8002308C50025080139C610031DC614C0014D
:1003C800C101C401C201C301080000304618013050
:1003D800AB004208AC004308AD004008AE0041083D
:1003E800AF00230803190800E6292008F200F301EA
:1003F8007308003A0319012A092A7208C83A03192E
:10040800D129013A0319E929092A08004A2A05309D
:10041800D200D001D1012308C100C2012508C000C3
:10042800D401D40A8A31162281310230F5004008FD
:100438008D31C52581312608C30092238131322AA6
:100448009B2381314001400892278131422A9F2312
:10045800813140014008C9278131422A2708F80024
:10046800F9017908003A03193A2A422A7808003A29
:100478000319242A013A03192B2A422A7C087E01EF
:10048800BD047C08BE044E01161608002008F800BA
:10049800F9017908003A0319522A572A7808C83A04
:1004A80003190B2A572A0800952A24080139C01075
:1004B800031DC0141230D200D001D101C101C20104
:1004C800C501C60192238131230803196E2A9F238F
:1004D8008131702A9B2381314001C0180800FB1527
:1004E8004E0116167C087E01BE047C08BD04080077
:1004F8005008AB005108AC004108AF004308AD00FC
:100508004408AE0008005008AB005108AC000030A9
:100518007B190130AF004108AD004208AE007B11E5
:1005280008002008F200F3017308003A03199D2A15
:10053800A82A7208C83A0319592A013A03197C2AC9
:10054800033A0319872AA82A08002108FD009827DA
:100558008131FC007C09B100C0248131E92AD20133
:1005680026080319BA2A2E238131BC2A2A2381316D
:10057800400123081223813124080319C62A9F2326
:100588008131112B9B238131112B0A228131112BAF
:100598008C3159248131112B32238131112B8C312B
:1005A800AD248131112BD0218131112B8931962134
:1005B8008131112B8D313D258131112B582281310B
:1005C800112B8731D2278131112B2208D900DA016A
:1005D8005A08003A0319F12A112B5908003A03194D
:1005E800B32A023A0319D02A013A0319CC2A063A47
:1005F8000319C92A023A0319DA2A0F3A0319E52A14
:10060800023A0319D72A1A3A0319D32A013A0319C5
:10061800DE2A033A0319E22A112BD22CF400F20045
:10062800F3017308003A03191E2B292B8C31AA2CCD
:100638008E2F922B7208003A03191A2B013A0319CC
:100648001C2B033A03191D2B292B080031087E01A6
:10065800BA0508007C087E01BA0408007B2B9223A7
:1006680081319623813102304001D200C001C1019D
:10067800C901CA01CD01CE017D08BE25740840011B
:10068800CC007308CB004C08C7004B08C600FF30ED
:10069800C400C500C201C30108000230D20023080B
:1006A800C800C001C101C901CA012608F700F80144
:1006B800F800F70125087707CD0078080318780AAD
:1006C800CE0008004408AB004508AC004208AD0065
:1006D8004308AE002308031908004B2B4608AB005B
:1006E8004708AC004B08AD004C08AE0008002008D5
:1006F800F700F8017808003A0319832B912B770843
:10070800C83A0319332B013A0319512B023A03193A
:10071800662B073A0319722B912B08007C084001BD
:100728009204080092237C087E01B804080031086E
:100738007E01B90508007C087E01B9040800FF3075
:10074800E90070308400213085008030FE00FF0110
:100758008931462181312030FB01FC01FD018400F3
:10076800003085003430FE000030FF00893146211A
:100778008131A0308400003085004230FE00003016
:10078800FF00893146218131203084000130850005
:100798005030FE000030FF00893146218131A03001
:1007A8008400013085004030FE000030FF008931B0
:1007B800462181317E104001E12B8B312923813183
:1007C800803041019A007E01B801400198013F3014
:1007D80092007E019201910190010B178B177526EB
:1007E8004201B201C601DA01EE018A312A228131C1
:1007F8004001320803191D2C3908031D002C520131
:100808008C1341011D103F309A0534304001E80037
:10081800F130890B0D2CE80B0D2C003263005201CE
:100828008C1741011D141A083F3940389A004001BD
:10083800B2013F080319F92BBF014101D80A031976
:10084800D90A2A248B3176238131F92B8B1350084E
:10085800C0005108C1005208C2005308C300540820
:10086800C4005508C5005608C6005708C700FF3021
:10087800D100D000D200D300D400D500D600D700D4
:10088800FB1D662C3108A1003008A0003308A30026
:100898003208A2003508A5003408A4003708A700CC
:1008A8003608A6003908A9003808A8003B08AB009C
:1008B8003A08AA003D08AD003C08AC003F08AF006C
:1008C8003E08AE008B17FD0104307D0203180800B6
:1008D800C02481317D0898278131FC007C09B10052
:1008E800942CFE258131D000D101BC2C0925813101
:1008F800BC2C28278131BC2C39268131BC2C0426FC
:100908008131BC2C8B31BC238131BC2C8931D7215E
:100918008131BC2CD1268131BC2C86268131BC2C5E
:100928005208E600E7016708003A03199C2CBC2C22
:100938006608003A0319752C013A0319BC2C033ACE
:1009480003197A2C013A03197D2C063A0319862CCF
:10095800023A03198A2C0F3A0319912C023A031907
:10096800832C1A3A0319802C023A03198E2CBC2CBA
:10097800D2248131FD0A682C4030F2000030F300A7
:100988007D0EF039F8007D087D07F807F80778082C
:10099800203EF4000130C4278131E42C7D0EF0396B
:1009A800F8007D087D07F807F8077808203EF20070
:1009B8000130F3004030F4000030C4278131E42CCA
:1009C80075084001D8007408D7007308D60072086B
:1009D800D5000130F6020030F73B760FF62C770A87
:1009E8000319080057088600580887000108D40032
:1009F800D70A0319D80A55088600560887005408EC
:100A08008100D50A0319D60AED2C7D08BE2581314F
:100A180074084001D1007308D00048080319352D27
:100A28001030403E86008701403FF700413FF80004
:100A38000630F836F70C890B1D2D7708C0077808A3
:100A4800C13DC90A0319CA0A403049064A04031DB0
:100A5800352D4108C7004008C600C901CA01C001B8
:100A6800C1014D084E040319762D4B08D4004C08DB
:100A7800D500D601D7014D08D8004E08D900DA01B3
:100A8800DB01992581315708DF005608DE0055083B
:100A9800DD005408DC000130DB01DA00D901D8019F
:100AA8004D08F7004E08F800F901FA017708D80256
:100AB8007808D93B7908DA3B7A08DB3B5008D40040
:100AC8005108D500D601D701992581315408DC0792
:100AD8005508DD3D5608DE3D5708DF3D5F08CC0070
:100AE8005E08CB00FF305102C03003195002031CCE
:100AF800802DFF30D000D10045085102031D862DFE
:100B080044085002510803188D2DC5005008C40030
:100B180051084302031D922D500842020318080091
:100B28005108C3005008C2000800F201F301F401A3
:100B3800F501541CA72D5808F2075908F33D5A0827
:100B4800F43D5B08F53DD835D90DDA0DDB0DD73608
:100B5800D60CD50CD40C5708560455045404031D60
:100B68009D2D7508D7007408D6007308D500720843
:100B7800D4000800F6000430760276080318DC2D4D
:100B8800B12781311200FF3A031DD72D7608F625CB
:100B98008131003A0319D42DFF30F300F400080026
:100BA800F301F40108007608B12781310008F60046
:100BB800F500F50DF50D41011D087506033975069B
:100BC8009D001D140D30890BE72D000041019D1477
:100BD8009D18EC2D1C08F400F3011B08F3070318FB
:100BE800F40A0800F2009827813140010C05031D22
:100BF8000134003440010C087C05031D0134003425
:100C08004001400F0A2E410A03190D2EC00A03198C
:100C1800C10AFE258131C700C61C192E4708031DCD
:100C2800172E0130182E0030C700461C1D2E01302B
:100C38001E2E0030F20047060319332EC40A450859
:100C48004402031C342E470801394610031D46147C
:100C5800C401C001C101C20A0319C30A342EC40168
:100C680046080139D000D10108004001401C412E3E
:100C78005009F4005109F5005E2E5108F50050089E
:100C8800F4005E2E750846018D0074088C0008007B
:100C9800750846019100740890000800750846011F
:100CA80095007408940008007508460199007408B6
:100CB800980008007D08F200F3017308003A031950
:100CC800662E742E7208003A0319462E013A03194B
:100CD8004C2E033A0319522E013A0319582E742E3A
:100CE8000800BE2790161016FE3084008F3085004D
:100CF800000809078D00FE308E004001BC014E013E
:100D0800971408004001471042088F316C27813141
:100D18005508D7005408D600AB2E57084106031DC6
:100D2800972E560840060319BE2E4714BE2E4108BA
:100D38005702031DA82E40085602A82E5708410244
:100D4800031DA82E56084002031C992EBE2E4608E5
:100D5800F900FA017A08003A0319B32EBE2E790871
:100D6800003A0319912E013A03199B2E033A0319ED
:100D7800A22EBE2E430844020318C72E471CC62EB7
:100D8800C40AC72EC40143084402031CCD2E4508DB
:100D980012234408D000D10108004001C01CF42EE1
:100DA800FE258131003A0319E72E401CDF2EC50AC3
:100DB8000319C60A08004608C4004508C300C5014F
:100DC800C60140140800401CDB2E4608D100450827
:100DD800D000C501C6014010C10A0319C20A0800A3
:100DE800F301B8278131F200F21B222F401C122F89
:100DF8007308C03E860001087C05031D222F45307C
:100E08004010A9278131D0000131413F003BD1007A
:100E1800A0278131C10A0319C20A222FB8278131BC
:100E28007C050319222F45304014A9278131C300BE
:100E38000131413F003BC400A02781310830F30A4B
:100E4800730603190800F52E143040014402031CF0
:100E58008C2F690F8C2F803046018E00400150087E
:100E6800E2005108E300E401E50146080319512FA7
:100E7800FF30DC00DD00DE01DF016208DC02630810
:100E8800DD3B6408DE3B6508DF3B5F08E5005E0884
:100E9800E4005D08E3005C08E2004208D40043086F
:100EA800D500D601D7016508DB006408DA006308BD
:100EB800D9006208D80099255708E5005608E400CB
:100EC8005508E3005408E2006508E1006408E00002
:100ED8004008E0074108E13D89315221813172081B
:100EE8004001E0077308E13D8E2781316008460123
:100EF8008C004001610846018D004E018D1382303F
:100F080046018E00CE274E018D1397174001C4016C
:100F1800C40A08007C0898048D31312DF200982706
:100F2800FF3A7E01B9050800123E84008830031894
:100F3800013E8500000808007335A03E8600870141
:100F4800403FC500413FC600080086007335A03EFB
:100F580084008501403F00020800163E8400883066
:100F68000318013E850008007308C03E860087010B
:100F78000108080043018F01063090049101080020
:100F8800F5001430F600F7010800F20098277E01FA
:100F9800B904080040013108E90008002008F500FC
:100FA800F6017608003A0319F72FFF2F0830D20010
:100FB8002408F500F601F600F50123087507C000BE
:100FC80076080318760AC1002508C300C40026085D
:100FD800C2002708C5008331122BC4012308C600AC
:100FE80024088331122B7508C83A0319DA2F013AFD
:100FF8000319F12FFF2F080068341A340D34063412
:10100800033401340034003400342A340A340434FC
:1010180082344034A034CF348A344334083404341E
:1010280002340134FF34023401340034033402340E
:04103800013400344B
:10128C006400013080010131FE020030FF3B7F0819
:10129C007E040319003447298B1344018E140C0867
:1012AC00F7000D08F6008B17F500F4017708F4042D
:1012BC007508F3007408F200080040304001360253
:1012CC00031878293708A03E8600013087000108F2
:1012DC0042019A004001B70A403037020318B701A7
:1012EC00B60A08004E019711080042011D1D802905
:1012FC001D121D1640013508703EF0002130F10121
:10130C00F13D7008860071088700420119088100C0
:10131C004001B50A803035020318B501B30A080044
:10132C00BE292308C10023088331122389312408E4
:10133C00C0000730D200CF21D00076080318760AFF
:10134C00D100270801394510031D45140A30C3008C
:10135C00C401080023080139C510031DC514240855
:10136C00C200CF21C30076080318760AC400080017
:10137C002008F500F6017608003A0319C629CE2993
:10138C007508C83A03199729013A0319B029CE29CF
:10139C0008002608F500F601F600F501250875078A
:1013AC0008004001500851040319062A0130D002EC
:1013BC000030D13B50085104031D08004008833114
:1013CC0012238931C51C08007E0192019101900104
:1013DC00B801B901F8014001D401D40A78081622E9
:1013EC004208F5000330F50578088D31C5258931A3
:1013FC000430C236C236F80A780203180800F12904
:10140C004308440403190F2A0130C3020030C43BC3
:10141C000800451C132A0100080041088331122BD7
:10142C00F3000430730203180800730EF039F20055
:10143C0073087307F207F2077208323E8600013018
:10144C008700540881000800083040013002083041
:10145C0003187A2A3D02031C712A7B1041014808AB
:10146C004001A000410149084001A10041014A0886
:10147C004001A20041014B084001A30041014C086E
:10148C004001A40041014D084001A50041014E0856
:10149C004001A60041014F084001A7000830BD01E2
:1014AC00B000FB103A080319712ABB014301101656
:1014BC00712AFA017A08203E860087017A08213EBB
:1014CC0084008501000881000730FA0A7A02031CA7
:1014DC00602A4001B003400130080319792A5530C5
:1014EC00200603195F2A08303002031C8A2A8D312A
:1014FC00DC258A314001B0017B143A080319882A93
:10150C00BA017B1098228A313B08031D7B1C080012
:10151C00BB01BA010730B9007B10280843018C00CD
:10152C00101608000830B90008004E018D10430158
:10153C008F1AA62A0F1DA42A0130AB2A0230AB2A1F
:10154C000F1DAA2A0330AB2A04304001BC00102B1B
:10155C004301921FB82A0C084101DF00430191128C
:10156C001116262B7B18BE2A0A304001BB0008003E
:10157C000F18262B4001280843018C00073040012E
:10158C00B900262B43010C084101DF007B10083009
:10159C0040013D02031CD52A0A30BA000800BD01E7
:1015AC00262B43010F18262B400139080319EC2A6E
:1015BC003030F0003908F00270088600870101080D
:1015CC0043018C004001B9037B10262B553043019D
:1015DC008C00262B43010F1C262B40013D08031DBC
:1015EC00012B55304101C800C900CA00CB00CC000A
:1015FC00CD00CE00CF00083040013D02031808009A
:10160C003D08C83E8600870143010C08810040015B
:10161C00BD0A08003C08F000F1017108003A0319FA
:10162C00182B262B7008013A0319AE2A033A03191A
:10163C00C82A013A0319D72A073A0319F02A262B8C
:10164C004301101608008D238B314C238B3146231C
:10165C008B3173238B3142238B313A238B316523AE
:10166C008B31A6238B31982B203041019E009B019E
:10167C009C0101309D000800813052018C00080053
:10168C0051019101053093009201080098013B3003
:10169C0092007E01B801B901BA013730BB003F306E
:1016AC00BC003030BA0004307D01C50007307E012B
:1016BC0094000830950005307D01C600080001300B
:1016CC00450190008F019101FF308D008C014E017E
:1016DC000D13803045018E00080050018C0108006C
:1016EC0040013B080319822BBB033B08031D822BD3
:1016FC008D23863175268B3140013A080319080079
:10170C00BA033A08031D08008D238631752E8731E4
:10171C00BE27121790129214FB107B104001BB01D4
:10172C00BA01080040304B019F00E0309D00C030F2
:10173C009C004E018C12961690304B019E000800B6
:10174C0044018F019001013091008D018C014E01FB
:10175C008D1244010D084101E300E20144010C0823
:10176C004101E204333044018E000800400142087C
:10177C000319C62BC2038531FE258B31402408008A
:10178C004412F501043043020318E82B7508C03EDF
:10179C00860087010108F400F41B3A2CC50A7C056D
:1017AC000319DA2B0130DB2B0030522487319827B8
:1017BC008B3174050319E42B0130E52B00304A24DE
:1017CC008B31F32B8531FE258B3152248531F62557
:1017DC008B314A248B310830F500441CF72B013037
:1017EC00F82B0030F300C41DFD2B0130FE2B003014
:1017FC00730603193A2C4408013940248B31441ADE
:10180C003A2C441143080339031D0F2C441C1C2C87
:10181C001D2C03304305F300730B172C44181C2CA0
:10182C001D2C03304305F300023A03194415441DE3
:10183C003A2CC41C232C0130242C0030F300441C03
:10184C00292C01302A2C00307306031D312CD00AB0
:10185C000319D10A352C0130D0020030D13B41089C
:10186C00C2004108031D44160830F50A750203181E
:10187C00C12BC82BF300F30DF30DF30D44087306C5
:10188C00F7397306C4000800F300F30D440873061F
:10189C00FD397306C4000800F3004406FE397306D4
:1018AC00C40040080800862C972440012308C5007A
:1018BC002508F200F301F300F20124087207D000AE
:1018CC0073080318730AD1002608C6000800240800
:1018DC00F200F301F300F20123087207C000730851
:1018EC000318730AC1002608F200F301F300F20199
:1018FC0025087207C20073080318730AC300080096
:10190C002008F200F3017308003A03198E2C962C70
:10191C007208C83A03195A2C013A03196D2C962CEB
:10192C0008000330D2007D08C500F430D001D1018D
:10193C00C0000130C100D030C2000730C300C60166
:10194C00C701AA248C31352D31089805312D1D2D58
:10195C001030D2002508F600F701F700F601240834
:10196C007607D00077080318770AD10026080139CA
:10197C004010031D4014D72C02307E0192009F3082
:10198C0046019200EB2C03307E0191008030460121
:10199C009600EB2C04307E019000803046019A00BA
:1019AC00EB2C38258C31003A0319DD2CEB2C760806
:1019BC00003A0319EB2C013A0319C22C033A031910
:1019CC00C92C013A0319D02CEB2C863139268C31D9
:1019DC00312D7E0192014601920108007E01910198
:1019EC004601960108007E01900146019A0108000B
:1019FC0038258C31003A0319042D302D7608003A25
:101A0C000319302D013A0319EF2C033A0319F42C66
:101A1C00013A0319F92C302D23087039803845010F
:101A2C008E0040012308073945019000080020086A
:101A3C00F600F7017708003A0319252D302D7608AA
:101A4C00C83A0319AE2C133A0319FE2C073A0319A2
:101A5C00122D302D08004001310892050800440178
:101A6C000E1408007D08F600F70177080800AE2D6B
:101A7C001130D2000930230208300318A3002308C8
:101A8C00093E84008830F8278D319B0040012308E3
:101A9C00003E84008830F8278D319C0004304001D2
:101AAC0024020318632D0230F5002408C5258D315E
:101ABC002408E9278D317D01CB000430400125023B
:101ACC0003187A2DF5012508C5258D312508E92740
:101ADC008D31103EF8001F30F901F93D7808860071
:101AEC007908870005308100C22FD40123085402E5
:101AFC0003188A2D5408243E8600870101084F27BD
:101B0C008D314001D40A7C2D3608AB003308AC0073
:101B1C0008000430AB01A307D500230855020318B5
:101B2C0008003308031908003D278D31F8004001E7
:101B3C005508283E8600870178088100AB0AD50A33
:101B4C00932D3608AB003308AC00E127AD0008003C
:101B5C002008F800F9017908003A0319B62DC42DB4
:101B6C007808C83A03193E2D013A03197B2D033A24
:101B7C0003198F2D013A0319A72DC42D0800F60067
:101B8C007D08F7007608FD00873198278D31FC0021
:101B9C007C09B1007508833112238D317708FD0063
:101BAC0087319827FC007C09B10008002008A800A8
:101BBC002108A9002208AA002308AB002408AC00C5
:101BCC002508AD002608AE002708AF00C83020025B
:101BDC00031C112FE13020020318112F8231A92A86
:101BEC006F302106031D08004F302206031D08002C
:101BFC0074302306031D08004C302406031D080016
:101C0C006F302506031D080041302606031D080011
:101C1C0064302706031D08008B130F307F01ED0085
:101C2C008331962B65302106031D352E5330220649
:101C3C00031D352E65302306031D352E5430240626
:101C4C00031D352E21302506031D352E2330260687
:101C5C00031D352E2A302706031D352EDE2F453069
:101C6C00A8005830A90008006C3021064530031D2F
:101C7C00362E2206031D352E65302306031D352E08
:101C8C0050302406031D352E21302506031D352E1C
:101C9C0023302606031D352E2A302706031D352E2C
:101CAC000130B20008005330A9003030AA003430A3
:101CBC00AB004230AC003230AD003030AE003230D0
:101CCC00AF00080021086C278D315508E30054083B
:101CDC00E200AA006308AB002108013E6C278D319D
:101CEC005508E3005408E200AC006308AD0021087D
:101CFC00023E6C275508E3005408E200AE0063086E
:101D0C00AF00080021086C278D315508E1005408FC
:101D1C00E000AA006108AB0024086C278D3155083F
:101D2C00E1005408E000AD006108AE002308DB00C0
:101D3C00DC01DC00DB012208F1278D312108AC2706
:101D4C008D312608DB00DC01DC00DB012508F127E6
:101D5C008D312408AC2F2208DB00DC01DC00DB0118
:101D6C0021085B07DE005C0803185C0ADF005E08D4
:101D7C0086005F0887000108AB00080050011E17A1
:101D8C004001220850019B004001210850019A009B
:101D9C001E141E18CF2E1C084001AC0050011D084B
:101DAC004001AD00AE01AF01080021084F278D3175
:101DBC00400122084F278D31400123084F278D31D8
:101DCC00400124084F278D31400125084F278D31C4
:101DDC00400126084F278D31400127084F2F3D2702
:101DEC008D314001A9003D278D314001AA003D27CE
:101DFC008D314001AB003D278D314001AC003D27BA
:101E0C008D314001AD003D278D314001AE003D27A5
:101E1C004001AF0008002008DB00DC015C08003A40
:101E2C000319192F352E5B08213A03193C2F633AFD
:101E3C000319F62D103A0319182E013A03193A2EEC
:101E4C00053A0319592ED73A0319682E033A031988
:101E5C00882E223A0319B12E013A0319C42E113AD5
:101E6C000319DB2E013A0319F52E352E0800330821
:101E7C0003195534E127F200B40A803034020318F8
:101E8C00B4014E0117124001B3034E01171672082C
:101E9C000800F2003608031908004E0197195A2F52
:101EAC00720842019A00692F971140013808A03E30
:101EBC0086000130870072088100B80A4030380271
:101ECC000318B801B6034E0197150800F80004304A
:101EDC0078020318822F780EF039F700780878070B
:101EEC00F707F7077708303E860001308700403F40
:101EFC00D400413FD500080040307806031D8F2FD9
:101F0C00410159084001D500410158084001D40055
:101F1C00080041307806031D9C2F41015B084001ED
:101F2C00D50041015A084001D4000800423078061F
:101F3C00031DA92F1E308531BE2574084001D50024
:101F4C007308D4000800D401D5010800F300043054
:101F5C00730203180800730EF039F200730873074C
:101F6C00F207F2077208303E8600013087005408F1
:101F7C00C03F5508C13F08004E011712971142018E
:101F8C009E019D010A309F0090309D0024309E00E0
:101F9C004101DC014001B801B7014030B600B50188
:101FAC00B401B3014201190819084E0117160800B3
:101FBC0001004001DE2F3408703E8600213087017D
:101FCC00873D010808001A3E840088300318013E42
:101FDC008500000808005B07D4005C0803185C0A45
:101FEC00D50008000318013E8500000842010800D6
:041FFC006D34B71475
:020000040001F9
:04000E00ED3FE237A9
:04001400FF1FFF3F8C
:00000001FF
