:100000006F30C04F000000007823000098230000EC
:1000100000000000000000000000000000000000E0
:1000200000000000000000000000000000000000D0
:100030007433000000000000FA34000000000000EB
:10004000FA340000FA340000FA340000FA340000F8
:10005000FA340000FA340000FA340000FA340000E8
:10006000FA340000FA340000FA340000FA340000D8
:10007000FA340000FA340000FA340000FA340000C8
:10008000FA340000FA340000FA340000FA340000B8
:10009000FA340000FA340000FA34000000000000D6
:1000A000511126C022C206C4828282441244A24058
:1000B000310182802A86014593F6150091C232955E
:1000C00085810606F5F9828000000000634E050276
:1000D00063C305042E86AA857D5515C285466378BF
:1000E000B6006356C00006068606E36CB6FE014500
:1000F00063E4C500918D558D85820582F5FA828075
:100100008682C93F2E8582823305A04063D70500D1
:10011000B305B040C1B7B305B0408682653F330533
:10012000A0408282868263C70500634905005D376F
:100130002E858282B305B040E35B05FE3305A04007
:10014000513F3305B040828200003D432A876373EC
:10015000C3029377F700BDEFADE5937606FF3D8AC6
:10016000BA960CC34CC30CC74CC74107E36BD7FE10
:1001700011E28280B306C3408A0697020000969679
:100180006780A6002307B700A306B7002306B700C1
:10019000A305B7002305B700A304B7002304B700E5
:1001A000A303B7002303B700A302B7002302B700DD
:1001B000A301B7002301B700A300B7002300B700D5
:1001C000828093F5F50F93968500D58D9396050162
:1001D000D58D61B793962700970200009696868288
:1001E000E78086FA9680C1171D8F3E96E374C3F8A8
:1001F000A5B7EFF2FFEA83A701ACA83FEF10904745
:100200006DB5EFF2FFE903C501E08145EF10104B3A
:1002100083A701AC8145A83FEF10504AEF10D05F93
:1002200083A701ACA83FEF10304741B5EFF25FE77D
:100230007111AA87214403C501E081453EC0EF103A
:10024000F04783A601AC82477D14A83E93F51700C2
:100250001374F40FEF10904603C501E08545EF10CD
:10026000F0458247858361F803C501E08145EF10C1
:10027000F04483A701ACA83FEF10D03FEF10D05956
:10028000110125B5EFF2DFE1EF10105983A701ACA2
:10029000A83FEF10704011BDEFF29FE083A701ACC3
:1002A00001441947B107F02394236318D6000504CD
:1002B0001374F40F8507E318E4FE130504FC1375AB
:1002C000F50FAD372285D5B3EFF29FDD1D8913659C
:1002D0008508A93FD9BBEFF2BFDC83C6C1DC93051B
:1002E000800C03A701AC6386B6028345E7052D4663
:1002F00035456390C51A9386760393F6F60F1D462F
:10030000636CD61811668A061306C6CEB29694425E
:1003100082869384C1DCA83085451384C1DC28BF64
:10032000EF20207383A701ACD420FA2FFD16BD8ADD
:10033000419BD98EF6AFD8301316C70013974601EC
:100340005183518FB966FAAF758F39EB782098A336
:100350004157B8AF7830239C0700239E07003D8BA0
:1003600093164700FA2F19461377F7F0558F8566D5
:10037000938606F0558FFAAF9A3393866700799B80
:100380009AB3014798A20507238606001377F70F53
:100390008506E319C7FE2D47238FE704E53531B302
:1003A00023900700239107002392070055B79387F6
:1003B000C1DCB43374A3D42374B3D43314A7F423AB
:1003C00014B7FC333CA7E1BF9387C1DCBC333CB717
:1003D000F9B79387C1DCBC33930650056389D70016
:1003E000762F9D8B920793F6F6F0D58F7EAF93878D
:1003F000C1DCDC2393065005E383D7FAB336F00063
:100400001E33F99BD58F1EB359BF9387C1DCB4331C
:1004100014A3D42314B3D43334A3F42334B3FC335C
:100420005CA3B5BF9387C1DCBC335CB38DBF93873E
:10043000C1DCBC335CAFA5B79387C1DCBC335CBF08
:10044000B9BF762F7D761305A002F18E09666392FF
:10045000C6049386C1DCAC32914663EBB602938747
:10046000C1DC81468507E38CD5F21033850693F60F
:10047000F60F10A3302310B3303330A3502330B322
:10048000503350A3702FA8333D8A3A9608A2D9BFA3
:100490007945EF20A05D21B73145E5BFEFF25FC0A0
:1004A00083A601AC7D776111FE2EF98FC9EB93070E
:1004B00000035C8088228A84EF206040930511004D
:1004C000052603A601AC9165A687054393020003A8
:1004D0009385C5D09423639256061A32058B05C3C3
:1004E000630F0300682E338797401377F70F3D891A
:1004F0008343D6016305E500014763840300AE969C
:10050000982298A3850713076100E315F7FC83A7DA
:1005100001ACD03F63100614D02F6310061613876A
:100520006700B107142330000507B29683C686FF23
:1005300054B3E319F7FE21018DBE0143C9B7056726
:10054000639BE7028967938707027C808822EF20FC
:100550000037930521003D2E91668A8713066100BE
:100560009386C6D09823850736971823A38FE7FE76
:10057000E31AF6FE69BF0D67639FE7009C225C806B
:100580009C32DC80BC225C81BC32DC81DC225C825F
:10059000DC32DC82ADBF0967639BE70211668147ED
:1005A0001306C6D019453387F600182313138701A5
:1005B000135383419375F7076344030032970C2369
:1005C0003307F1000CA38507E39FA7FC89B71167E8
:1005D000E39FE7F2D032983293171600B29786075E
:1005E00022073E979C223E9793170701138781E1CC
:1005F000C183B385E7008C214C8093851700C20529
:10060000C181BA958C21CC8093852700C205C18118
:10061000BA958C214C8193853700C205C181BA956A
:100620008C21CC81938547009507C205C207C18103
:10063000C183BA95BA979C238C21DC824C829307A4
:100640001600D82293F7F70FDCB2E3E2E7ECA382BF
:10065000060075BD03A741E013770738E31E07EADC
:100660009945B356E640858A89C6B306E1002380E2
:1006700006000507E317B7FE45B501471945B35610
:10068000E640858A99C6B305E100942193E606F811
:1006900094A10507E315A7FE59B5EFF27FA003A7C4
:1006A00001ACB70700209306000F23A8E7003C2FFA
:1006B00026846388D70263E6F600954663FAF60857
:1006C000EDB29306200F638CD70E63E1D706930635
:1006D000400FE397D7FE1E2F638E070EFD171EAF48
:1006E000C5B76D3B83A701ACB62BDA276396E6024C
:1006F000D62BFA276392E602F62B9A2B639EE6002E
:10070000FA2FFD76758F91666311D704B82398AFE1
:10071000B83398BF515709A8E93C1305000439368E
:10072000CD3483A701AC4557B8AF59BFD93403A422
:1007300001AC9D3683A701AC28ACB82F9947E311D3
:10074000F7F8C13483A701AC65BF51479AAFD9B759
:10075000BA97C4272685D93C83A701ACB82FB386A6
:10076000E700A4AAF02F05071377F70FB8AF3D8A6B
:10077000BA97BA866379D602693483A701ACFD764D
:10078000FA2F758F91666319D702B82398AFB833E3
:1007900098BFFA2F935687001183BD8A3D8BE38B58
:1007A000E6F6495751B7AC2B8507A8376317B50252
:1007B000850693F6F60F7DBF51479AAFD9BF153C1A
:1007C00083A701ACEA2F11813D89FD3C1D3C83A725
:1007D00001AC89B7C1573CAFE5B5E373E6EE69BF3D
:1007E000EFF21F8CAE8489657111938505712A849F
:1007F000EFF05F8E131705014183F9759385058F1F
:100800003A853AC0EFF01F8B02472A94420413073F
:100810000703418098A09305803E2285EFF09F8BCF
:100820004205418193175500898F8A07AA978E0741
:100830001D8C420441801305050388B093054006D2
:100840002285EFF03F89420541819377F50F139799
:1008500017003E970E07BA978A071D8C4204418005
:1008600013050503A8A0A9452285EFF0BF86420520
:100870004181930705031375F50FBCB0931725004D
:100880003E9506053305A44013050503C8A01101D4
:100890006FF0BF819387350025461377F5009306E7
:1008A00007036374E6009306770394A3118113870B
:1008B000F7FF6393F5008280BA87C5B7EFF24FFE6A
:1008C00083C7C1DC1307800C03A501AC6385E70275
:1008D0008346E50529476386E6003545EF20001984
:1008E000B1A81307900C6380E7061307300D6380EF
:1008F000E7081545E5B7A947230FF504EF10A05603
:100900009387C1DCFC331384C1DC858B95CBEF105E
:10091000007603A501AC3C302105A30EF5FE5C304A
:10092000232C05FE230E05FE858B139717008347A6
:10093000E5FFF59BD98F230FF5FE05246FF0EFF649
:10094000EF10C073F9B77A21938741DD058BB8B3F7
:100950003A211384C1DCD8A32183D8B31A21F8A388
:100960002183F8B33C30F9DB23110500C1BF210519
:10097000E121E9B7EFF2CFF203A601ACC166FD16A3
:100980001A223E846304D70005071AA2EF10C04C58
:1009900003A401AC7C2068B0898B81C71345150086
:1009A00068B07E207830858B6303F7045C20543078
:1009B000850793F7F70F5CA063EED7007C20058BCB
:1009C00023020400F99BD98F7CA03E202310040051
:1009D00085073EA06C20130584008589B305B040CF
:1009E000C205C181692A231EA4046FF00FEC230203
:1009F0000400CDB7EFF2CFEA83C7C1DC1307800C48
:100A00006385E70203A501AC0347E50509C7354542
:100A1000EF20C0059DA81307200D6385E70C130781
:100A2000300D638AE70C1545E5B79387C1DCA43325
:100A300085471384C1DC638CF40491C489476387C0
:100A4000F4064545F1B703C501E0EF10C05D03A50D
:100A500001AC8547230AF502012383A701AC239E3D
:100A600007045820854703C501E0631DF704EF1014
:100A700020557820854703C501E06312F706EF1083
:100A8000205883A701AC238F07046FF00FE203C542
:100A900001E0EF10605A03A501AC230A95026D290D
:100AA00083A701AC7D57239EE70465BF83A701ACF4
:100AB000238A070203C501E0EF10205903A501AC0A
:100AC000692845B758306315F700EF10605155B7E6
:100AD000EF10405003C501E0EF10C05159BFEF10B7
:100AE000E05245B78347450381C7EF00C07971BF26
:100AF0001305400331BF8347450381C713055003E6
:100B000001BF1D2E59B7EFF2AFD903A501AC834742
:100B100045039DC7412983A701AC03C701E083C6F4
:100B2000E7026384E600239EA7049317050163D6BA
:100B30000700EF10604E6FF04FD7EF104052E5BF47
:100B4000EF10803103A401ACB305A040C205C18100
:100B500022853520231EA404F9BF930700041EA597
:100B6000930700F818593EA1FD571CD5C1775CD5F5
:100B7000B707F9F0F98F231305021CD98280EFF231
:100B80002FD2B707002023AAA7003E392111AA843B
:100B90003EC0898B2E84638E07281E3563E5B7001F
:100BA0007E3163F3F500C2308247C2B0858B89C7BE
:100BB0001344F4FF4204418083C7140389466388C9
:100BC000D7128D46638BD71485466391D702AE2822
:100BD0006377B4249E2863F787243305F4409D8D02
:100BE0004205EFF02FCF13140501418082478E2478
:100BF00013F7470001C7BE2463F7F500C2A423A280
:100C0000040023950400BE24C8408507C20722952E
:100C1000C183C8C0BEA46390B7023AC0EFF08FCBC7
:100C2000C16702476372F520C8C0DC402395040009
:100C300023A20400DEA411E382A0BE208A20BE8588
:100C40003EC2EFF02FC792472AC041657D151D8D2A
:100C5000A285EFF02FC6024783C7040385463A9565
:100C600041818AA06385D71C89466393D700C2243B
:100C7000BE3893E74700BEB8BE346373F400A2B435
:100C8000DE3463F38700C2B4F234C167FD17630C2E
:100C9000F60483C73403BD8B93961700916793873F
:100CA000C7DBB6979E2383A641E0F58F8DEF938730
:100CB00081E13E961305610123AEC1DEEF20A04C19
:100CC0001DE1B483854763F0D702BE38C18B89C765
:100CD0001375F40FEF20E04DBE38A18B89C7135573
:100CE0008400EF20004D228561016FF00FBC8C481D
:100CF0002285EFF02FBC1354F5411374F40F2A949E
:100D0000C84821842A94635304000144C1676344A2
:100D1000F4001384F7FF4204C9BD83C7240283A6ED
:100D200041E0F58F639B070ED2289E3063698600F1
:100D30009628958FBE8563D1070E8145F1A8F628C8
:100D400032C663EE8602AE288A2836C28D8F0D8D9C
:100D50004205B385864041813EC4EFF0AFB592466F
:100D60003246B385C640C205C181EFF0AFB6A24797
:100D7000898FC1669385F6FF63D0D70A65BF922C31
:100D800032C6637EC400AA28B305D44036C23EC42E
:100D9000EFF04FB292463246B305D640E9B7F62C93
:100DA000E3FA86F803D3C40163756402AA28B30585
:100DB000D4401AC436C23EC6EFF0CFAF92462243AB
:100DC000B305D340C205C181EFF0CFB0B247AA97B7
:100DD0004DB7B62C8E2836C8637AD402B2283305B4
:100DE00064404205918DC205C181418132C23EC637
:100DF0001AC4EFF02FAC2243C246B3856640C20549
:100E0000C181EFF0AFAC12463295C9B7BE95C1674C
:100E100063C4F500C165FD158EB08230C1BB41646D
:100E20007D14E9B30144D9B3FD17DCC0FDBB2A84AE
:100E300081B58247ED9B81B51387C1DC3833AD4660
:100E400063E4E61091660A079386C6D8369718437E
:100E50009387C1DC0287DC23858B139717003E390B
:100E6000F59BD98F3EB913F72700ED9B15CF8280F4
:100E7000D833D423220736971AA5F833FC23220748
:100E8000BA973EA18280D833D423220736977AB10D
:100E9000F833FC232207BA971EB58280DC2313F7B0
:100EA00017003E39F99BD98F3EB98280DC23230895
:100EB000F50282800547A308E502D833D423220730
:100EC00036971AA9F833FC232207BA973EA98280E5
:100ED000D833F4232207C2063697D423FC3336973F
:100EE000E207BA971CC982800947F423A308E502E8
:100EF000D833C20622073697D423FC333697E2074D
:100F0000BA975CC982803635138741DDDC2354A350
:100F1000A18254B3A9DFFD573EB5828056351387B1
:100F200041DDDC2354A3A18254B3B1D323160502BF
:100F300082805A25938741DDD8A32183D8B31A2113
:100F4000F8A32183F8B38280EFF28F951305D002C6
:100F5000EF10D0316FF06F95EFF28F942A8403C5B4
:100F600001E0C1775CC81CCC834704032307A402BB
:100F7000231E040093F707FC2308F402231604023F
:100F80002311040223120402EF1070138347040399
:100F90002AB493F7F7FB2308F402FD57A307F402E2
:100FA0006FF0AF90EFF2CF8F23A4A180AA84034506
:100FB000E5025111EF10B01003C704032A84098B16
:100FC0006306071A03C5F4021307F00F6305E50073
:100FD000EF10F00E8AB4D4484177638BE600F62810
:100FE000CE28416722857D170146EF0010492A84EB
:100FF00003C70403058B09C741677D173304874086
:101000009C5883C6D4023EC06387060E13D71700D0
:101010001376E7011167130707DE32971A2303A639
:1010200041E0718F6312071C11476380E60C15477E
:10103000638CE6140D476390E60C96348C40818EE9
:1010400023AAD180BA24B6958CC03A8536C23AC458
:10105000EFF04F861354F5414A0449802A943984AD
:1010600023AE8180370600409246634AC50022477E
:1010700037C5FF3FBA85EFF0EF85924688C09040B4
:10108000CC40CA2423ACC180B385B640D4C036C49A
:10109000EFF04F821357F541A2461377F70F2A97C7
:1010A0008A24218723A6E180B6853AC2EFF08F809B
:1010B0009356F54193F6F60F36952185124723A0F6
:1010C000A182F4242A943A9423A88180858A1387E4
:1010D000018181C6A166369400C31043C166634096
:1010E000D60AFD1614C3022339A09A206364E408CB
:1010F000DA209AA48224B63091C6DA306378D70E0B
:101100000507DAB0D62C8DCA03C6C40215C68247BD
:1011100013D717009375E7011167130707DE2E97A2
:101120001A2383A541E06D8F631D071005476301F6
:10113000E60C09476300E60E82471315040141815E
:101140009983AAB4858B63900710944C4177638D83
:10115000E6009E2CAA2CA2853EC01D8DEFE09FF5D7
:10116000824741813384A7004204418022853101B6
:101170006FE0BFF3BA20E36F87F6FA209DBFE35418
:1011800006F62320070085B798248546AA2063EB3E
:10119000E602F6209234A29663D1C602839604003A
:1011A000369505C72A8463530500014441676344AB
:1011B000E4001304F7FFA2A03DBFE354C4FE8396EE
:1011C0004400F9BF8946E31FD7FCFA209634330761
:1011D000E44063D6E60003970400198DE1B7E3D33A
:1011E00086FC03974400D5BFA23431B7E23019BF63
:1011F000BA343306E4406357C000E3DFC6F2330479
:10120000D7001DBFF62CB305D040E357B6F2330428
:10121000D7401DB7AE34368536C4EFE0BFE9A246ED
:101220002AC241657D15A285158DEFE0BFE8124702
:101230003A9541776374E50021673A9513540501A7
:10124000E5BDA234D5BD9E2C138781E1BA974146F6
:101250000147D62363F78600E308C7F09107050727
:10126000CDBF4146E302C7F08E2363948500A223DD
:10127000E5BDFA23639486003A84FDB5B223EF00FE
:10128000D01F2A84D5B5EFE2BFE19387C1DCB83324
:101290009306400371112A84630ED72263E8E6089F
:1012A0009946630FD71863E5E6048946630BD714A4
:1012B00063EAE6006303071085466307D712130548
:1012C000C002D1AA91466301D71663F7E614D8335A
:1012D000D423220736971AADF833FC232207BA9796
:1012E0003EAD8347050393F7F7FB2308F402EDA017
:1012F000A946630BD71663EEE600A1466301D71635
:1013000063F6E6143A35938741DDD8A32183D8B339
:10131000E1A0930620036303D71863EFE618930751
:101320001003E31EF7F8A30605027DA093068006CE
:101330006308D72063E7E604930640066301D71EDF
:1013400063E7E6029306C0036303D71A9306D0034C
:10135000E317D7F68346D5021547639FE606D833D1
:10136000D423220736971AA1FC231CA5B5A0930607
:1013700060066306D72263FFE61A11469385418112
:10138000F9A29306C006630DD71C63ECE600930731
:10139000A0066303F71C63F9E71A11469385C18021
:1013A0007DA29306E0066307D71E6367D71C9307E9
:1013B000F006E316F7F01A35B9B7D823058B931664
:1013C000170003470503759B558F2308E502098B1A
:1013D00001CBDC332307F502014511016FE0FFCC9F
:1013E000FC23FDDB953ECDBFD833D4232312050269
:1013F000220736973AB1F833FC232207BA977EB119
:10140000E1BFD833D423220736975AA9F833FC23F7
:101410002207BA977EA9C9B7DC2313F717008347C1
:101420000503F99BD98FD1B5D8232306E502F8230C
:10143000DC332207BA97C207C1835EAD7EAC69BFB9
:10144000D833DC232207BA971EB579B7DC23BD8BCE
:10145000139727008347050393F737FCE1B7D83389
:10146000DC232207BA97D9BFD823DC331305300316
:10147000A207BA9713F7170019EF1307F003634A8F
:10148000F700034704031EAC136707042308E402B4
:10149000A1B71305B002EF10605D3DBF1147A30671
:1014A000E502D833D423220736971AA1F833FC2358
:1014B0002207BA975EA10DB71147A306E502D833FC
:1014C000D423220736973AA1F833FC232207BA9790
:1014D0007EA119B71147A306E502D833DC23220702
:1014E000BA971EA58347050393F737FCFDBB154745
:1014F000A306E502D833D423220736974207418753
:101500005AA1F433FC231AA1A206B6977EA103C503
:1015100001E0EF10C03A2AA02304040075BDD833BF
:10152000D423220736971AA5F833FC232207BA974B
:101530003EA55DB5D833DC232207BA975EA569BD09
:101540001146938581812DBD11469385C1811385F7
:1015500081DDEF20806C49B5114693850182C5BFBE
:1015600083A7018178253EC0058B01C76177BA97B3
:101570003EC011468A8529B50D47A306E502D8234A
:10158000DC33A307E5023337F0007C25F99BD98FC4
:101590007CA599B5D833DC232207BA971EB5232042
:1015A00004001DBDEFE2DFAF03A401AC9306800C85
:1015B00023A2818203C7C1DC630FD7060346E4057B
:1015C000E5463545631ED6129306A00C6307D70E79
:1015D00063E8E6009306900C6301D70C31450DA239
:1015E0009306B00C6306D7109306C00CE318D7FE21
:1015F0009387C1DCB0331D476362C710D4233D47D6
:101600001305F002636ED70E13171600C833329716
:1016100006073A9408A814B8B54763EED70885477B
:101620001167B397D70013077780F98FC9C7EF10F9
:1016300000296AA449A07D579387C1DC18A878A81F
:1016400058AC2301E4022304E4022307E402230A42
:10165000E402230DE402B83323100404231104042C
:10166000A303E404D823DC33231E04022304E4048C
:1016700013F717008347940423120404230304047C
:10168000F99BD98FA304F404E1777EBCE547230FCF
:10169000F40403C501E0412D39A89387C1DCD823A8
:1016A000B433220736972310E404F823DC332207EF
:1016B000BA972311F4046FE05F9F9387C1DCD823AE
:1016C000B43322073697F423DC334207A206B697D9
:1016D00041837EBC5ABC03C501E055DFEF00B01466
:1016E0004E3C99473CA401462285EF10105AE1B7C1
:1016F0009387C1DCB4331D476377D7001305E0023D
:10170000EF10C0364DBF13971600369706073A9470
:10171000D833D423220736975AA4F833FC23220760
:10172000BA977EA449BFEFE2BF9703A401AC8546F8
:1017300023A28182034764044111630ED71209CFAB
:1017400089466302D7165A3C630D071603C501E0AC
:10175000A285EF005028B5A29307C4031307C40065
:101760003EC08544014348239306F00F6309D50228
:101770001AC43AC2EF10A0141247AA8629454C3366
:101780002243636EB50091678A05138547E0AA95E9
:101790008C4182852E23639FD502814436A38247E4
:1017A0001907E312F7FC034794044E3C058B55CB15
:1017B000630A030A035704042312E40405472303BE
:1017C000E404CDC5723C2285EF10304CADBF2E2312
:1017D000E3F5D5FC0543D9B72E23E3EDB6FE75BF7F
:1017E0000E236387D50081445DBF0E23E3FDB6FE63
:1017F000054375B70E23E3EDD5FEF5B70E23E39948
:10180000D5FED5B7082336C43AC21AC6EF10200B4E
:10181000A2461247E38EA6FC8144324349B708230F
:1018200036C43AC21AC6EF108009A2461247E361D5
:10183000D5FCDDB7082336C43AC21AC6EF1020081B
:10184000A2461247E3E6A6FAC1BF08231AC636C469
:101850003AC2EF10C006A24612473243E39AA6F8F6
:1018600059B7A9F8B5E10345840419A003457404E8
:10187000EF00C066C9BD03574404C166F5167D1765
:101880004207418363E5E6002312E4046DBD03577C
:10189000240419C72312E40409472303E40465B5AB
:1018A000230304044DB50357440411C77D172312C5
:1018B000E4044E3C45BF03570404230304042312ED
:1018C000E40441016FE06FFE0146F5BD03A701ACE2
:1018D00003566704563FB307D64019C1B307D60075
:1018E000163F81C663D3F600B687363F41667D1644
:1018F0006385C60063D3D700B6872313F7048280BD
:10190000EFE20FFA03C7C1DC9306800C611103A458
:1019100001AC6306D7020346E40595463545631CD2
:10192000D61A130777031377F70FA94663E4E61A6D
:1019300091660A07938606E3369718430287138752
:10194000C1DC9547230FF4045C2334334833A207EA
:10195000B6975EB87C23854513F73700A305E404EA
:101960000347840493B747008607759BD98F2304E8
:10197000F40483C701E02305A404231E0404230602
:10198000F4049307803E7EBC231B0402232004043E
:1019900023120404EF10E00B2285EFF00F9CE121ED
:1019A0000345A404BD21834784041387C1DC898BCC
:1019B000B68481CB563893973600958F8E07B697AD
:1019C0005EB8783385476318F70003C501E0CD2B77
:1019D0000345A404F523C1771CDC6D2E83478404E2
:1019E000AA86898B85E78D29834784040589F99B1D
:1019F000C98F2304F40425A03C83F58F3337F0000E
:101A000083478404F99BD98F2304F40403C501E0C0
:101A10009305610036C0EF005010824671FD854786
:101A20005EBC21016FE06FE89387C1DCD823BC3333
:101A30002207BA97F5B79386C1DCD822BC322207B9
:101A40003E97FC22D4324207A207B697C2078356BC
:101A5000C4054183C1833ABC1EBC63F4E600231E67
:101A6000E4040357C40563F4E700231EF404954718
:101A7000230FF4047DB79387C1DCBC331307F00F49
:101A80002306F404E39FE7F883C701E02306F40488
:101A900049BF9387C1DCD823BC3323200404220729
:101AA000BA977EBC23120404ADBF03574404938746
:101AB00041DDB8B32183D8A3ADB79387C1DCD82368
:101AC000BC332207BA972313F404A1BF2285EFF099
:101AD000AFB681BF1545EF007079A1B7EFE24FDCDB
:101AE00003A401AC21117D240347A40491669386CD
:101AF000C6E5060736971E233A382AC23EC43C4440
:101B0000231B0100098B858B3EC026C619E70345C0
:101B1000C404EF00D05A2313A40403478404098BA0
:101B200005CF824703C501E08DC7EF00407103C5B3
:101B300001E093056101EF00407EB8839247AA84DB
:101B40003376F700A2473336C0007D8F3337E0008D
:101B500021A8EF00A075E1BF01262AC80345A4040F
:101B60008544B92442462A87B1EC0347840482475E
:101B7000763C799B858BD98F2304F40485C6035763
:101B800024040507420741832311E404636CD70052
:101B9000835504040345A404232004042312B4043D
:101BA000EF00304D3A3883556404098B71C3B24756
:101BB000228583A401ACEFE09FFC239EA404610175
:101BC0006FE0AFCE834684048247898A25C2D1EF75
:101BD0007238050672B891CA03C501E03AC8EF0031
:101BE00000667638424736956AB87238563863666A
:101BF000D60283560404054685062310D404834682
:101C0000B404FD1693F6F60F6366D600054511E39E
:101C100001456D39231B040226C003478404098B48
:101C200029D79305610103C501E031B79DCF723813
:101C3000050672B891CA03C501E03AC8EF00006713
:101C40007638424736956AB872385638E3F7C6FC9C
:101C50008346B40493F6D60F89E6014511E30545A2
:101C6000B531231B040202C04DBF231B040275B70C
:101C70000345C404EF00F03F99B763F6A50463730E
:101C8000D504EFE2EFC13384B640B305B540939776
:101C900005017111118F63D807009317070163D4F1
:101CA0000700058705843A8532C0EFE0AFC0A28502
:101CB000EFE0CFC1024611012A96420641823285E9
:101CC0006FE0AFBE3A86328582809396050193C657
:101CD000F6FF05C22A961387818A0A050A063A95F5
:101CE00032971C411105CD8FF58F232EF5FEE31A97
:101CF000E5FE828093C5F5FFC205C181939605017B
:101D000093C5F5FF05C22A961387818A0A050A063C
:101D10003A9532971C411105D58FED8F232EF5FE94
:101D2000E31AE5FE8280916706059387C7E5AA97C7
:101D30009E23139707015D8F9387818A1347F7FFCF
:101D40001386072094439107F98E23AED7FEE39BB9
:101D5000C7FE82809387818A01479386818213061A
:101D60000008B385E60023A00700238005000507CF
:101D70009107E318C7FE8280B717014003A7074009
:101D800091670A059387C7E6AA978843798D33350B
:101D9000A000828083C701E01D4701456369F70009
:101DA0001397170091679387C7E5BA978A238280B4
:101DB000B717014003A78740916706059387C7E5DA
:101DC000AA978A23798D3335A0008280EFE24FAD48
:101DD000511101E9370701405C43B7060004D58F74
:101DE0005CC39317150011651305C5E53E951E21CB
:101DF000371501408A857C80C1473EC413050540E4
:101E00008D473EC223110100EF10503731016FE0C2
:101E1000CFA9EFE2EFA8511101E9370701405C4378
:101E2000B7060004D58F5CC3931715001165130521
:101E3000C5E53E951E21371501408A857C80914776
:101E40003EC4130505408D473EC223110100EF102B
:101E5000F03231016FE06FA5EFE28FA403C501E01E
:101E6000813F6FE08FA4EFE2AFA303C501E05537D8
:101E70006FE0AFA3EFE2CFA291671317150093872E
:101E8000C7E5BA978623371401401304044044C8B9
:101E9000353F44C86FE06FA1EFE28FA09167131741
:101EA00015009387C7E5BA978623371401401304BA
:101EB000044004C8213F04C86FE02F9FEFE24F9E0B
:101EC00089476395F500B1376FE02F9E99E15D3743
:101ED000E5BF8547E39AF5FEC137FDB7EFE24F9CBA
:101EE000AA8503C501E0D93F6FE02F9CEFE24F9B2D
:101EF0004111AA842E84493515ED23130100914721
:101F000019C093078004116586041305C5E526955D
:101F10003EC61E21B71401400D474C0013850440F6
:101F20007C823EC03AC4EF10702509C48247938476
:101F300004409CC841016FE04F97EFE26F9641115A
:101F40002A842EC0153D0DE9824523130100930715
:101F5000800291E19147116506041305C5E52295BC
:101F60003EC61E21371501404C007C8213050540FA
:101F70008D473EC4EF10902041016FE00F93EFE2D8
:101F80002F9241112A842EC0C53B05C982452313D7
:101F90000100D14791E1C147116506041305C5E56C
:101FA00022953EC61E21371501404C007C82130548
:101FB00005408D473EC4EF10701C41016FE0EF8E6D
:101FC000EFE20F8E81452A848D3F85452285393F7A
:101FD0006FE0AF8DEFE2CF8C8145093F6FE0EF8C72
:101FE000EFE20F8C81452A84113785452285B13770
:101FF0006FE0AF8BEFE2CF8A814581376FE0EF8AE8
:10200000EFE20F8A8545A53F6FE02F8AEFE24F8907
:102010008145B5376FE06F89EFE28F8803C501E036
:10202000A53D6FE08F88EFE2AF872A84EFF0BFCF46
:10203000228589356FE06F87EFE28F862A84EFF083
:102040009FCE2285913D6FE04F86EFE26F852A8417
:10205000EFF07FCD2285EFF0DFDB6FE00F85EFE261
:102060002F8403C501E0EFF0FFE06FE00F84EFE2A3
:102070002F8303C501E0A9376FE02F83EFE24F8282
:1020800003C501E081459D356FE02F82EFE24F816E
:10209000116706051307C7E52A971E232111370785
:1020A00002403EC093C7F7FFC207C1833EC27C4FC8
:1020B000130700082EC4B307F7403EC89C3236C64B
:1020C0008DE7802283470101B28485463ECA0946D6
:1020D0006387C6066364D6020546638CC604B247AE
:1020E000268580A361016FD05FFCB247A380070003
:1020F000C2471387A7001374F707E9B70D46638F2C
:10210000C6061946E39DC6FCD24733868740137640
:10211000F60F637F9608B387C44093940701A247E4
:10212000C180C1C382452285EFF03FBAA146524427
:1021300025A8C247894663C98702994635A0130678
:1021400000F8018E1376F60F8D46637F9600B387F5
:10215000C44093940701A247C18099CB8245228550
:102160000144EFF09FB699462146E392C6F685BF3B
:10217000924522850144EFF0FFB7C1B7A2472686FA
:1021800081CF82452285EFF05FB4B307940013F44A
:10219000F70791468144C9BF92452285EFF09FB56C
:1021A000EDB792452285EFF0FFB4A14652446DBFD2
:1021B000A247268681CF82452285EFF01FB1B30763
:1021C000940013F4F70F9D46814479BF9245228510
:1021D000EFF05FB2EDB7EFD2BFECFE212E84A1C3CA
:1021E0009E25B1C7B221AA8405E25220A28681456C
:1021F0002685693D4AA019E572201E2432A05EA002
:10220000D18FFDF36FD07FEAA28685452685EFF05A
:10221000FFE712242AA052A071D96FD01FE9AE8621
:10222000130600088145EFF07FE66FD01FE8AE8609
:10223000130600088545EFF07FE56FD01FE7916634
:10224000931715009386C6E5BE9603D3060037069E
:1022500002401452FDDE185213060008AA97198E88
:102260003707002096071307472D81463E97938531
:1022700081828347B7056394C700368582803385A2
:10228000F50008213375A3006DD9850793F7F70F83
:1022900013958701618563480500A30DF704850642
:1022A00093F6F60FF9B7A30D0704D5BF9166931700
:1022B00015009386C6E5BE9603D306003706024096
:1022C0001452FDDE185213060008AA97198E37071C
:1022D000002096071307472D81463E9793858182FC
:1022E0008347B7056394C700368582803385F50040
:1022F00008213375A3006DF9850793F7F70F139540
:102300008701618563480500A30DF704850693F6F0
:10231000F60FF9B7A30D0704D5BFB70602409852D0
:102320007DDF131715002A97B7070020160793873C
:10233000472D03A30602BA9703C6B7059306000804
:10234000B386664001456308D602138781823297BF
:1023500018239AA103C7B70505071377F70F93163C
:102360008701E18663C60600A38DE70405458280E8
:10237000A38D07040545828013077004938781AA03
:102380009C23E30DF7FEB707EFBE37E700E0938726
:1023900007083CC773002030C53773002030EFD2E8
:1023A0003FD0130181FB0545EF10006585450545CC
:1023B00002C602C802CE02D023120102EF10806FC3
:1023C0009307003405446C08370500403ED02302D3
:1023D000810202CEEF10C072854537050040EF1034
:1023E0001003930760027C866800854740873EC8DB
:1023F000EF10E06085471307001902C602C86C00A1
:10240000370500407C87F88102CA02CCEF102074A7
:10241000854537050040EF10A07B8145370500401A
:10242000EF10007E854537050040EF10C07B130696
:10243000C00281456808EFD05FD185450545EF10A2
:10244000A0633704024013058405EF10602CB71613
:102450000140138706413ACE370700201307870B48
:102460003AD085644147930200020D6313060020B1
:1024700093840480130584053AD26C08130700087E
:102480003AD43AD816DE9AC032DA26DC02D682C2B4
:10249000EF102031130584058545EF100034130635
:1024A000C00281456808EFD05FCA85450545EF1039
:1024B000A05C1305C401EF10A025B7160140938658
:1024C000864036CEB7060020930200020D63130744
:1024D0000008938686031305C4016C0816DE9AC0B3
:1024E00036D03AD43AD802D202D602DA02DC82C21C
:1024F000EF10202B1305C4018545EF10002E8545F4
:1025000037050040EF10406BB7060040DA2637066B
:102510000140854513670730DAA65842E176FD167B
:10252000758F58C213054003EF10E056854513051B
:102530000020EF104056316537240140EF108052E3
:1025400013050440EF10000485473ED03ED2B70784
:102550000E003ED46C08A547130504402308F10281
:1025600026D602CEEF1060049D4605468945130528
:102570000440EF10400E9D4609468D45130504406A
:10258000EF10600D9D460D46914513050440EF1078
:10259000800C9D4611469D4513050440EF10A00B8D
:1025A0009D461546954513050440EF10C00A9D460B
:1025B0001946994513050440EF10E0099D461D4654
:1025C000854513050440EF1000099D4621468145CD
:1025D00013050440EF1020089D462546A14513052C
:1025E0000440EF104007854513050440EF10C0017B
:1025F000854513050440EF10200013050440EF103B
:10260000C001930404402685EF10C0016DFD130541
:10261000044037240140EF106001930404402685F4
:10262000EF1060016DFDB714014089478A8513855D
:1026300004807C8002C4EF10603491478A85138542
:1026400004807C80EF108033C1478A8537150140B4
:102650007C80EF10A0321306C00281456808EFD0DD
:10266000DFAE85450545EF102041B70702401385D1
:102670008700EF10E0091307C4443ACE1387C1AABC
:102680003AD025473AD4130700083AD81307001068
:102690003ADA13070040B70702403ADC130700029A
:1026A000138587003ADE6C080567BAC002D202D6ED
:1026B00082C2EF10000FB7070240138587008545DF
:1026C000EF10A011130504408545EF005077B707C0
:1026D000002083C747801307F00F238FF1AA1384CC
:1026E000E1AB639FE708930780043ED29307100E87
:1026F000FC866C088D47371501403ED0231F010032
:10270000EF10C0279307100E9CC83D679307000683
:102710001CA0231001001307F7A53C806379F71272
:10272000B71701409C47858B81E7930710061CA0D3
:10273000B71701409C4793F7070281E71C208907E0
:102740001CA0B71701409C4793F7070481E71C20A2
:1027500091071CA0B71701409C4793F7070881E732
:102760001C20A1071CA0930780026C0837150140AC
:102770003ED2EF10A020B71701401307100ED8CBA0
:10278000B7170240984FB70620001166136717016C
:1027900098CFD84F558FD8CFB71601409C427D7740
:1027A0003D07F98F09674117D98F9CC2B757004081
:1027B00003D7474042074183137707FC136707039A
:1027C0002392E74003D7074042074183799B4207A2
:1027D00041832390E74013072003239EE74003D75C
:1027E0000740136717002390E74003D707404207CD
:1027F0004183137757BF136707402390E7401820A2
:1028000037F400E00607518F2394E74003D70740D1
:10281000136717002390E740EF00B023B7E700E00D
:10282000056723A0E7105C409305803EF99B5CC0E0
:10283000B707002003A5C700EFD0DF897D1508C8C2
:1028400023240400BD471CC0EF00102BF5BF3C80C3
:102850008507C207C1837C80C9B5EFD27F8483D549
:10286000C1AB3705B004EFD0FF86420541816FD080
:10287000DF839D4763EBA70093171500AA97960780
:10288000138541AC3E95231EB50482801C4137065A
:1028900000C0C14601471306B60293F517008583B1
:1028A00091C1B18F06074207FD16418393F51700CA
:1028B00093F6F60F4D8FF5F21CC13A8582809D4745
:1028C00063EDA700931715003E95931755001385E8
:1028D00041AC3E950355C5058280930710046319EA
:1028E000F500938741DC8A23130715009AA38280A1
:1028F000930730046315F50003D541E08280930708
:1029000040046315F50003D561E08280930750040D
:102910006315F50003D581E0828093077004631589
:10292000F50003D581DC8280930780046315F500F0
:1029300003D561DC8280930790046317F50003D50B
:1029400021E04205418182809307A0046317F500CE
:10295000B707002003D5A7008280EFD26FF493075A
:10296000B00471116317F500EFF03FEF11016FD064
:10297000CFF31307C5F99376F70FCD4763E4D7027A
:1029800093171700BA9713975700938741ACBA97DC
:1029900083D5C7052EC0EFF05FEC8245EFD08FF1F5
:1029A0004181E9B79307400A6318F50003A541E0A8
:1029B0005E057D854205EDB79307700A6316F50045
:1029C00003A541E05A05F5B79307A00A6316F50081
:1029D00003A541E05605F1BF9307D00A6316F50041
:1029E00003A541E04E05F1B79307500A6316F500C1
:1029F00003A541E01E057DBF9307800A6316F5001D
:102A000003A541E01A057DB79307B00A6316F500E8
:102A100003A541E0160579BF9307E00A6316F500A8
:102A200003A541E00E0579B79307E0046319F500AB
:102A30003705002013054500EFF05FE505BF93075C
:102A400050056304F500014515B715651305555587
:102A500031BF9D4763EBA70093171500AA97960710
:102A6000138541AC3E95230FB5048280EFD24FE32E
:102A7000138441DD420593075004930514004181FE
:102A80001CA0EFD0FFD59567938757557EA083D6BE
:102A900061DC41677D17938761DC6395E60013076E
:102AA000C0FD9AA39A239386C1DE05079AA38147A6
:102AB0001387C1DC21463305F7000821B385F600F2
:102AC000850788A1E399C7FE6FD02FDEEFD24FDDD7
:102AD0001387C1DC143359452380D1E09D4763E857
:102AE000D70293971600B697B70600209386462D17
:102AF0009607B69723A0F1AC3C232947638CE702E5
:102B0000636AF7008DC315476383E7020D45EFF055
:102B1000FFF521A82D476382E7026547E398E7FEAA
:102B2000EFE05FA819A0EFD0FFEC6FD00FD8EFE077
:102B30003FDDE5BFEFD09FD8CDBFEFD0CFF9F5B7E0
:102B4000EFD20FD69386C1DCEC2201112EC4EC32F9
:102B5000938781DC9A2383A306002EC6938441DDEC
:102B600005071EC023A0740083A346009AA39822E1
:102B70001EC223A27400930350088832BC22B032D4
:102B800003C3460083C25600630E772A1384C1DC58
:102B900063E8E30E930560056308B72063E6E50686
:102BA00093060004630ED71863E8E600930710024B
:102BB000630EF7181545E5A293062004630ED71897
:102BC00093062005E318D7FE13075006631CE51C87
:102BD000130730056398E71C930750066314F61C2F
:102BE000930740056310F31C93071002639CF21ACD
:102BF0002247930730026317F71A32479307A00260
:102C00006312F71A3D2D99A293052008630BB71A9A
:102C100063EAE50093071008E31EF7F8EFF03FCAF8
:102C2000AAA02DA293063008630FD71C9306400874
:102C3000E312D7F8A207AA9793940701C180B707B8
:102C400000209316060123949700C18211471D4569
:102C50006367D71436C03387C4009305F00763C198
:102C6000E51E138581E1269593054400EF00F07A77
:102C70008246B707002093878700B69486A3F9A001
:102C80009303700A6303772A63E0E3069306F00870
:102C90006306D71E63E9E6029307E0088544E31B59
:102CA000F7F01C301385F4FF3E951375F50FEFF028
:102CB0001FC1938741DDA697218188A38504A14781
:102CC000E391F4FE61A09306000A6304D71E930605
:102CD000300AE311D7EE22064203B297139782011E
:102CE0009A97BA9788A39DA09305900B6300B72687
:102CF00063EEE5029306400B6308D71C9306800B36
:102D0000E31AD7EA05476391E720EFF06FAB3C3059
:102D100005476390E7200830EFF08FAC5C20054753
:102D2000639FE71E0830EFF0AFAD0DA013078703D8
:102D30001377F70FDD47E3EFE7E6EFF03FD939A070
:102D400009C9938701DE9843050798C305616FD0D1
:102D5000CFB59387C1DDC5BF0247B7774F7493875F
:102D600027F4631CF7021247B77741649387C7F4CF
:102D70006315F702ED7737070020A9072310F70046
:102D8000EF0010571165EF00103BB707EFBE37E7B4
:102D900000E0938707083CC755BF13056003EFF0B9
:102DA000FFCC6DB71145E5BF930730059CB0916727
:102DB00093870783BEA0B737323193872724DCC0BF
:102DC00071B7EFF0DFAF9386C1DCAAA0C822EFF0A5
:102DD0001FAF9386C1DCAC32BC22C8B0A2052181F2
:102DE000E8A0BE958832C205C181EFF09FA8938606
:102DF000C1DCEC22DC32C822A205BE95C205C1812D
:102E0000EFF03FA7A1B7A207AA97C207C183130794
:102E1000F0076364F7021D8F420741839D461385C7
:102E200014003A8663F3E6001D464206938581E16D
:102E30004182BE95EF00705E11BF1305B00285B7E9
:102E40002145B1BFB70400209384840082209307FA
:102E5000F007E3ED87EE818FC207C1831947637DD9
:102E6000F700138581E122951D46938516001D0408
:102E7000EF00B05A82A0D9BD254515B7A380040044
:102E80002391040023A20400138441DD814413F53F
:102E9000F40F91E00504EFF09FA219C518208547B3
:102EA000B3979700D98F1CA08504A147E391F4FE46
:102EB00071BDA207AA9742063385C70062032A9311
:102EC00083470300BCB059B593062005138771DF13
:102ED0006318D502930650046394D7029307300514
:102EE0006310F60293075004631CF3009307400538
:102EF0006398F200230007000547238BE1DEB9B594
:102F00001C239D071CA399B5E39307E0EFF08F8C7A
:102F1000FDBBE39507E00830EFF0CF8D01B5E397F7
:102F200007E20830EFF08F8E15B59387C1DE982346
:102F300098B09833B8A0B823B8B0B833D8A0D82385
:102F4000D8B0D833FC23F8A0FCB009B53704002072
:102F5000930704804146BE850808EF00104CE24705
:102F6000D245C2443EC4F2472EC03EC2EF00300FED
:102F70009386C1DC8245983293F505F0B3E7E5000E
:102F80003EC0B7070020938707803E8593F5F40F76
:102F9000EF00101593D5040193F5F50F1305248068
:102FA000EF0010140C8013054480EF00701382476B
:102FB0001305648093D5070193F5F50FEF005012C8
:102FC0000C8413058480EF00B011A2471305A48080
:102FD00093D5070193F5F50FEF0090100C821305C0
:102FE000C480EF00F00F92471305E48093D50701EA
:102FF00093F5F50FEF00D00E91BBEFD26F8AB75764
:10300000004093870740711123A2F1DEB7570040BB
:1030100093870740DE2B138641DF239AF1DEA9A0B8
:1030200083C7A1DE15471384A1DE6361F708375714
:103030000040835507411387C1DC3E97850793F70E
:10304000F70F0CA31CA02147639AE700EFF05FAFD6
:10305000A38501DE23000400138641DFB75700403B
:1030600093870740DE2B1EA203D781DE05451E2273
:10307000938581DE6319A70413F7070455F313F64C
:1030800027048947631CF60883C7A1DE1D476390A8
:10309000E706231101001307301F3C81E368F7F6B0
:1030A0003C818507C207C1837C81C5BF2311010014
:1030B0009305703E3881E3ECE5F638810507420759
:1030C00041837881C5BF8946E31BD7FA13F7070808
:1030D0005DD71387B1DE1423938741DDB697902324
:1030E000B757004085062398C74014A305B7E39F50
:1030F00007F03757004013070740162F9387B1DEBC
:1031000023800700918A81E685479EA101B783C687
:1031100041DD92A116AB054798A3CDBD11016FC04B
:10312000DFF8EFC2FFF71387C1DC930680FC14A31E
:103130009306002036A3B706005554C30544938474
:10314000C1DC80B0EFF09F9805041374F40FA14721
:10315000E319F4FE6FC07FF583A6C1DF0145BA22F3
:10316000DE22630EF70041667D166394C700EA22F3
:1031700082806377F700998F1395070141818280E0
:10318000EA22AA97CDBFEFC2BFF183A4C1DF916746
:103190009387C7D79A20631CF7002A84EFF0DFFBE0
:1031A000FE203385A7400AA001456FC01FF00D45E2
:1031B000EDBF83A7C1DF11671307C7D796236389C4
:1031C000E6003D67130747316384E6040D458280BE
:1031D000DA23C166FD166319D700938781DF9A232E
:1031E000114505079AA38280B386E70088A60507E4
:1031F0004207F6234183DAA36394E6002392070093
:10320000D623BA230145639AE6027D57DAA382806A
:10321000BA23F623636DD7003E8705073306F740D0
:1032200042064182636CD600B697E8B331A0B386FC
:10323000E70088A60507BAA301458280102770B36E
:10324000E9BFB707EFBE37E700E0938707083CC741
:103250008280EFC2FFE4130600088145138581E1F7
:10326000EFC0BFEE3705002013060030814513057F
:10327000452DEFC09FEDEFE0FFADEFF09FEA6FC08F
:10328000DFE2EFC2FFE1238001E0138401E01820B8
:103290009D4763F4E7006FC05FE193171700BA978B
:1032A000370700201307472D9607BA9723A0F1ACE4
:1032B00083C7E7052947638BE702636AF7008DC37D
:1032C00015476382E7021C2085071CA0C9B72D475C
:1032D0006381E7026547E398E7FEEFE0CFC4E5B717
:1032E000EFD07F82CDB7EFE06FFFF1BFEFD08FE877
:1032F000D9BFEFD08FBAC1BFEFC29FDAEFF0FFCFD7
:103300001384A1E01C2093F7F70F9DC3938741E03E
:10331000984323000400050798C3EFF09FF61C2094
:1033200093F7F70F81CB938781E09A2305079AA340
:103330006FC0BFD7138441E137F700E01C47084056
:10334000938401E13E959E2008C0930600408507C6
:10335000C207C1839EA0E39DD7FC0C4B1A05EFC0AA
:103360007FD7B70700202395A700239004002320D0
:1033700004007DBF9387C1E09843050798C3138776
:10338000A1E0142393F6F60F81CA938621E09E22D2
:103390008507C207C1839EA285471CA3B7F700E03B
:1033A00023A2070073002030EFC29FCF37140240E2
:1033B0001C403707FFF8414593E717001CC05C40ED
:1033C000F98F5CC01C403707F7FE7D17F98F1CC0D2
:1033D0001C403707FCFF7D17F98F1CC05C4041770C
:1033E0007D17F98F5CC0B7079F001CC49D251C4C3E
:1033F00093E707021CCCB717014003A70740938649
:1034000007401377F7F023A0E74003A707401367AF
:10341000070823A0E74089479CCAB7F7FF1F03C5E9
:10342000477D9307F00F6304F5007D891D25B727BD
:1034300002409843C176FD16719B98C39843136769
:10344000170098C3B7170240D843D8C3D843758F25
:10345000D8C3D843B7060001D8C39843558F98C343
:10346000984393166700E3DD06FED843B716024083
:10347000719BD8C3D84313672700D8C32147DC42C8
:10348000B18BE39EE7FE6FC05FC2EFC27FC11394B2
:1034900045000D8C0A040D8C1A040D8CA1652E9428
:1034A000AA84418011E602A5231305006FC0FFBF67
:1034B000C167FD176316F6002314050062A1FDB76E
:1034C0003285A285EFC01FBFFE2041816397A70010
:1034D0009A24B307A440E30BF7FC42054181098C11
:1034E0004204BE204180EAA082A46373F500AAA032
:1034F000DE20E37DF4FAC2A055BF01A097D1FF1FE3
:1035000093814131138101FF171500001305459880
:1035100097D5FF1F938545AF17D6FF1F130686AFBC
:1035200063FAC5008322050023A05500110591050B
:10353000E3EAC5FE17D5FF1F1305C5AD9385C1E9A5
:103540006377B500232005001105E36DB5FEB722B2
:10355000000093820288739002308D427390428003
:1035600097D2FFFF938202AA93E232007390523007
:10357000EFF09FE397F2FFFF9382A2E27390123481
:1035800073002030B727014093870740631EF50082
:10359000EFC21FB1854513050020252B814513057A
:1035A0000020052B6FC07FB082805C413707F1FFA0
:1035B0001307F7EF7D8FDC419441A207D58FD98F98
:1035C0005CC11C4537F7F1FF1307D77FD4457D8FCA
:1035D0009C49D58F94458606D58FD98F1CC55C55DF
:1035E000370710FF7D177D8FDC29FD1793F7F70F45
:1035F000D207D98F5CD582801C4589C593E7170017
:103600001CC58280F99BEDBF1C4589C593E7071057
:103610001CC5828093F7F7EFE5BF1C4593E7870051
:103620001CC5828008450D81058982801C4593E771
:1036300047001CC5828008450981058982801C4598
:1036400091C537075000D98F1CC582803707B0FF5E
:103650007D17F98FD5BFA54763F8B704138765FFBA
:10366000931717008322C500BA971D433313F30045
:103670001343F3FF33735300B397F600B3E76700C8
:103680005CC5994763E3C7047D16931726003E96F1
:103690005859FD47B397C70093C7F7FFF98FB39504
:1036A000C500DD8D4CD98280939715000323050159
:1036B000AE971D473317F7001347F7FF33776700BF
:1036C000B397F6005D8F18C96DBFB14763E2C702BB
:1036D0006516931726003E961859FD47B397C70005
:1036E00093C7F7FFF98FB395C500DD8D0CD98280A4
:1036F0004D161317260054553A96FD47B397C70049
:1037000093C7F7FFF58FB395C500DD8D4CD582804B
:103710001C4141677917F98F1CC123200500232222
:10372000050023240500B707024023260500138760
:1037300087006317E500D8431367F700D8C382807A
:103740001387C7016316E500D8431367070FFDB75A
:10375000138707036318E500D8438566938606F050
:10376000558FE9BF138747046315E500D843BD664D
:10377000C5BF138787056316E500D843B7060F005A
:10378000C5B71387C7066316E500D843B706F00030
:10379000C1BF13870708E314E5FAD843B706000F43
:1037A000C1B71841E177BD0794517D8F9C45D58FF6
:1037B0009449D58FD449D58F944DD58FD44DD58F7D
:1037C000D451D58F9455D58FD98F1CC1DC455CC1A0
:1037D0009C411CC5DC415CC582801C4189C593E7C6
:1037E00017001CC1828041677917F98FDDBFB707C9
:1037F000674537270240938737125CC3B797EFCDF1
:103800009387B79A5CC38280372702401C4B93E7AB
:1038100007081CCB8280B7270240C84F0581058965
:103820008280372702405C470545858B91E74847F2
:103830004189133515000D058280EFC27F862A84E9
:10384000EFF03FFE85476319F50019E0154531A0FB
:10385000EFF03FFD7D14FDB775D86FC01F85EFC237
:103860003F84EFF05FFB814419E19304500A370570
:103870000B00EFF09FFC11476312E506B7076745A1
:1038800037240240938737121CC4B797EFCD938734
:10389000B79A1CC41C4837050B0093E707021CC8E5
:1038A0001C4893E707041CC8EFF03FF91147631168
:1038B000E5021C48096593F7F7FD1CC81C4893E70F
:1038C00007011CC8B707002023909780EFF0FFF690
:1038D00095476305F5001C48BD9B1CC86FC0EFFCF5
:1038E000EFC20FFC7111AA8409652EC0EFF0FFF43E
:1038F00091478245631EF502B707674537240240AA
:10390000938737121CC4B797EFCD9387B79A1CC41F
:103910001C48C205C18193E707011CC88EA0096538
:10392000EFF0BFF195476305F5001C48BD9B1CC82F
:1039300011016FC08FF7EFC2AFF671112AC0EFF01F
:103940001FEBB7066745B72702409386361294D718
:10395000B796EFCD9386B69A94D7D44771767D16F5
:103960000245F18ED4C711676315E500D847498F2A
:10397000D8C7EFF07FE911016FC02FF3944593F79B
:10398000060193F2F60081C7DC41B3E2F20083D373
:10399000050093F7F30FA5C303230500611122C2AD
:1039A00026C0814713048002930480040547331620
:1039B000F70033F7C3006312E602939527003D47F3
:1039C0003317B7001347F7FF33736700B395B2009F
:1039D00033E36500639D860050C985072147E3975F
:1039E000E7FC124423206500824421018280E39693
:1039F00096FE10C9DDB7828023ACA1E8828083A641
:103A000081E9854718216390F6021C31639CD70237
:103A10003C219A0793E707F8B7E600E093F7F70F22
:103A2000BA962380F6408546935757003397E600B1
:103A3000544189CE938707048A07B7E600E0B6971A
:103A400098C38280EDF33C219A07F9B79387070664
:103A5000E5B7371702401C430E0593F777F05D8DED
:103A600008C38280B7160240DC4241771307F77F14
:103A7000F98F5D8DC8C2828099C5371702405C4BB3
:103A80005D8D48CB8280B7170240D84B1345F5FFB8
:103A9000798DC8CB828099C5371702401C4F5D8D48
:103AA00008CF8280B7170240984F1345F5FF798DF4
:103AB00088CF828099C5371702405C4F5D8D48CF13
:103AC0008280B7170240D84F1345F5FF798DC8CFD4
:103AD000828099C5371702405C475D8D48C7828058
:103AE000B7170240D8471345F5FF798DC8C78280C4
:103AF000371702405C53B7060001D58F5CD3828034
:103B00001E2137370140130707C0C207C183630670
:103B1000E500370700406316E500BA2193F7F7F890
:103B2000D98FFA2193F7F7CFC207C183D98F1EA18E
:103B3000DE215EB59E211EB5B7370140938707C0D1
:103B40006314F5009C251EB985475EA982801E314D
:103B5000922103D32500C207C183F99BC207C18309
:103B60001EB11E3156211A2DC207C183420741835F
:103B70001377C7F8518F9225F59BC206336666000E
:103B8000D18F37360140130606C0C1826310C502CB
:103B9000B225DD9B03D3E500D18FD221ED9B93F6B7
:103BA000F6CFD18FD22533666600D18E56A11AADDD
:103BB000FA2158D91EB182801E2189C593E71700CA
:103BC0001EA18280C207C183F99BC207C183CDBFFA
:103BD0008357450491C52167D98F2312F50482804C
:103BE000C607C583DDBF1E2189C593E707081EA14F
:103BF0008280C207C18393F7F7F7C207C183C5BFAD
:103C00001E2DC207C183DD9BDD8D0EAD828093C565
:103C1000F5FFC205C1810EA98280B3C7A5008D8BB7
:103C20003307C50081E78D4763E7C702AA87637E34
:103C3000E50A942185078505A38FD7FEE3EBE7FE10
:103C40008280942185078505A38FD7FEE3EBE7FEED
:103C500002441101828093763500AA8789CA942193
:103C600085078505A38FD7FE93F63700C5BF9376EA
:103C7000C7FF138606FE63F5C706711122C0C0494F
:103C800003A3050083A38500C0CB804D23A067005C
:103C900003A3450080CFC04D23A2670083A2C500C7
:103CA00003A3050193854502C0CF03A4C5FF23A448
:103CB000770023A6570023A867009387470223AE07
:103CC00087FEE3EEC7FAE3F3D7F890419107910539
:103CD00023AEC7FECDBF90419107910523AEC7FE2D
:103CE000E3EBD7FEE3E7E7F482808280AE030000D7
:103CF000C8030000D20300000A04000024040000EE
:103D00002E04000038040000420400003F065B4F10
:103D1000666D7D077F67777C395E797100000000F2
:103D2000000000000000000000000000000222105F
:103D30006D641002390F01100440104A3F065B4FBA
:103D4000666D7D077F67101018480C1010777C395E
:103D50005E79717D76301E763854545C7367506D91
:103D6000781C1C1C766E5B39640F230820777C3925
:103D70005E79717D76301E763854545C7367506D71
:103D8000781C1C1C766E5B39300F0100560E00004B
:103D9000700E0000860E00009C0E0000AC0E0000AD
:103DA000480F0000B40E0000D00E0000E80E000026
:103DB000060F00001C0F0000320F00000000010081
:103DC000030007000F001F003F007F00FF00FF01FE
:103DD000FF03FF07FF0FFF1FFF3FFF7FFFFF0000F5
:103DE00000000100030007000F001F003F007F00DC
:103DF000FF00FF01FF03FF07FF0FFF1FFF3FFF7FD4
:103E0000FFFF000094170000CE170000D817000035
:103E1000E0170000EA170000F4170000FC1700008C
:103E2000041800001E180000341800004A18000092
:103E3000281A0000361A0000761A0000921A0000B4
:103E4000AA1A0000BA1A0000D41A0000D41A0000FE
:103E5000D41A0000D41A0000CC1A0000020004009A
:103E60000800100020004000800001003000000029
:103E700000030000003000000000030000003000DC
:103E800000000003000000300300000001000000FB
:103E9000FFFF0080006CDC020000FFFFFFFFFFFF60
:103EA000FFFFFFFFFFFFFFFFFFFFFFFFFFFFFFFF22
:103EB000FFFFFFFFFFFFFFFFFFFFFFFFFFFFFFFF12
:103EC000FFFFFFFFFFFFFFFFFFFFFFFFFFFFFFFF02
:103ED000FFFFFFFFFFFFFFFFFFFFFFFFFFFFFFFFF2
:103EE000FFFFFFFFFFFFFFFFFFFFFFFFFFFFFFFFE2
:103EF000FFFFFFFFFFFFFFFFFFFFFFFFFFFFFFFFD2
:103F0000FFFFFFFFFFFFFFFFFFFFFFFFFFFFFFFFC1
:103F1000FFFFFFFFFFFFFFFFFFFFFFFFFFFFFFFFB1
:103F2000FFFFFFFFFFFFFFFFFFFFFFFFFFFFFFFFA1
:103F3000FFFFFFFFFFFFFFFFFFFFFFFFFFFFFFFF91
:103F4000FFFFFFFFFFFFFFFFFFFFFFFFFFFFFFFF81
:103F5000FFFFFFFFFFFFFFFFFFFFFFFFFFFFFFFF71
:103F6000FFFFFFFFFFFFFFFFFFFFFFFFFFFFFFFF61
:103F7000FFFFFFFFFFFFFFFFFFFFFFFFFFFFFFFF51
:103F8000FFFFFFFFFFFFFFFFFFFFFFFFFFFFFFFF41
:103F9000FFFFFFFFFFFFFFFFFFFFFFFFFFFFFFFF31
:103FA000FFFFFFFFFFFFFFFFFFFFFFFFFFFFFFFF21
:103FB000FFFFFFFFFFFFFFFFFFFFFFFFFFFFFFFF11
:103FC000FFFFFFFFFFFFFFFFFFFFFFFFFFFFFFFF01
:103FD000FFFFFFFFFFFFFFFFFFFFFFFFFFFFFFFFF1
:103FE000FFFFFFFFFFFFFFFFFFFFFFFFFFFFFFFFE1
:103FF000FFFFFFFFFFFFFFFFFFFFFFFF1101252076
:00000001FF
